{
  "address": "0x9AC01C22678c293e5EF5e1FAbf92C8825B19B008",
  "abi": [
    {
      "anonymous": false,
      "inputs": [
        {
          "indexed": false,
          "internalType": "uint256",
          "name": "fee",
          "type": "uint256"
        }
      ],
      "name": "ERC20DepositFeeCollected",
      "type": "event"
    },
    {
      "anonymous": false,
      "inputs": [
        {
          "indexed": false,
          "internalType": "address",
          "name": "sender",
          "type": "address"
        },
        {
          "indexed": false,
          "internalType": "uint256",
          "name": "amount",
          "type": "uint256"
        },
        {
          "indexed": false,
          "internalType": "address",
          "name": "tokneAddress",
          "type": "address"
        }
      ],
      "name": "ERC20DepositFrom",
      "type": "event"
    },
    {
      "inputs": [
        {
          "internalType": "address",
          "name": "_sender",
          "type": "address"
        },
        {
          "internalType": "uint256",
          "name": "_amount",
          "type": "uint256"
        },
        {
          "internalType": "address",
          "name": "tokenAddress",
          "type": "address"
        }
      ],
      "name": "depositFrom",
      "outputs": [],
      "stateMutability": "nonpayable",
      "type": "function"
    },
    {
      "inputs": [
        {
          "internalType": "address[]",
          "name": "_senders",
          "type": "address[]"
        },
        {
          "internalType": "uint256[]",
          "name": "_amounts",
          "type": "uint256[]"
        },
        {
          "internalType": "address[]",
          "name": "tokenAddresses",
          "type": "address[]"
        }
      ],
      "name": "depositFromMany",
      "outputs": [],
      "stateMutability": "nonpayable",
      "type": "function"
    }
  ],
  "transactionHash": "0x6a89255d2b25c0b72771eaa65e43a76e73bc09eb06d249b89752ff7d1610324f",
  "args": [],
  "numDeployments": 3,
  "solcInputHash": "d7eea2ab52a8b9b0066d0a906584b060",
  "bytecode": "0x608060405234801561001057600080fd5b5061099f806100206000396000f3fe608060405234801561001057600080fd5b50600436106100365760003560e01c80633f8634811461003b5780636142079514610073575b600080fd5b6100716004803603606081101561005157600080fd5b506001600160a01b038135811691602081013591604090910135166101eb565b005b6100716004803603606081101561008957600080fd5b8101906020810181356401000000008111156100a457600080fd5b8201836020820111156100b657600080fd5b803590602001918460208302840111640100000000831117156100d857600080fd5b919080806020026020016040519081016040528093929190818152602001838360200280828437600092019190915250929594936020810193503591505064010000000081111561012857600080fd5b82018360208201111561013a57600080fd5b8035906020019184602083028401116401000000008311171561015c57600080fd5b91908080602002602001604051908101604052809392919081815260200183836020028082843760009201919091525092959493602081019350359150506401000000008111156101ac57600080fd5b8201836020820111156101be57600080fd5b803590602001918460208302840111640100000000831117156101e057600080fd5b50909250905061023e565b6000821161022e576040805162461bcd60e51b815260206004820152600b60248201526a16915493d7d05353d5539560aa1b604482015290519081900360640190fd5b6102398383836102a5565b505050565b60005b845181101561029e5761029685828151811061025957fe5b602002602001015185838151811061026d57fe5b602002602001015185858581811061028157fe5b905060200201356001600160a01b03166102a5565b600101610241565b5050505050565b60006102af61047f565b905060008160000160009054906101000a90046001600160a01b031690506000610350670de0b6b3a764000061034a846001600160a01b031663a001ecdd6040518163ffffffff1660e01b815260040160206040518083038186803b15801561031757600080fd5b505afa15801561032b573d6000803e3d6000fd5b505050506040513d602081101561034157600080fd5b505188906104a3565b90610505565b9050600061035e868361056c565b9050848215610416576103e288856001600160a01b031663c415b95c6040518163ffffffff1660e01b815260040160206040518083038186803b1580156103a457600080fd5b505afa1580156103b8573d6000803e3d6000fd5b505050506040513d60208110156103ce57600080fd5b50516001600160a01b0384169190866105c9565b6040805184815290517fbbb70402df7b66d61ea5d02bd09a5e2911037481117b980352a840206bb2f4ee9181900360200190a15b61042b6001600160a01b0382168930856105c9565b604080516001600160a01b03808b1682526020820185905288168183015290517f77f653aac5a614925c44cfd6995d301902e42a55c0be0073a63d696e4df6f86d9181900360600190a15050505050505050565b7fe2b137aa028a281d47518018de2bad17cb018b5577be30a222ca2bbc4078dffd90565b6000826104b2575060006104ff565b828202828482816104bf57fe5b04146104fc5760405162461bcd60e51b815260040180806020018281038252602181526020018061091f6021913960400191505060405180910390fd5b90505b92915050565b600080821161055b576040805162461bcd60e51b815260206004820152601a60248201527f536166654d6174683a206469766973696f6e206279207a65726f000000000000604482015290519081900360640190fd5b81838161056457fe5b049392505050565b6000828211156105c3576040805162461bcd60e51b815260206004820152601e60248201527f536166654d6174683a207375627472616374696f6e206f766572666c6f770000604482015290519081900360640190fd5b50900390565b604080516001600160a01b0380861660248301528416604482015260648082018490528251808303909101815260849091019091526020810180516001600160e01b03166323b872dd60e01b179052610623908590610629565b50505050565b600061067e826040518060400160405280602081526020017f5361666545524332303a206c6f772d6c6576656c2063616c6c206661696c6564815250856001600160a01b03166106da9092919063ffffffff16565b8051909150156102395780806020019051602081101561069d57600080fd5b50516102395760405162461bcd60e51b815260040180806020018281038252602a815260200180610940602a913960400191505060405180910390fd5b60606106e984846000856106f3565b90505b9392505050565b6060824710156107345760405162461bcd60e51b81526004018080602001828103825260268152602001806108f96026913960400191505060405180910390fd5b61073d8561084e565b61078e576040805162461bcd60e51b815260206004820152601d60248201527f416464726573733a2063616c6c20746f206e6f6e2d636f6e7472616374000000604482015290519081900360640190fd5b600080866001600160a01b031685876040518082805190602001908083835b602083106107cc5780518252601f1990920191602091820191016107ad565b6001836020036101000a03801982511681845116808217855250505050505090500191505060006040518083038185875af1925050503d806000811461082e576040519150601f19603f3d011682016040523d82523d6000602084013e610833565b606091505b5091509150610843828286610854565b979650505050505050565b3b151590565b606083156108635750816106ec565b8251156108735782518084602001fd5b8160405162461bcd60e51b81526004018080602001828103825283818151815260200191508051906020019080838360005b838110156108bd5781810151838201526020016108a5565b50505050905090810190601f1680156108ea5780820380516001836020036101000a031916815260200191505b509250505060405180910390fdfe416464726573733a20696e73756666696369656e742062616c616e636520666f722063616c6c536166654d6174683a206d756c7469706c69636174696f6e206f766572666c6f775361666545524332303a204552433230206f7065726174696f6e20646964206e6f742073756363656564a2646970667358221220f6d0daa43a964b65295f52cc01f0a7ecde9fafd479a4842d22ac4b613454f26664736f6c63430007060033",
  "devdoc": {
    "kind": "dev",
    "methods": {},
    "version": 1
  },
  "userdoc": {
    "kind": "user",
    "methods": {},
    "version": 1
  },
  "storageLayout": {
    "storage": [],
    "types": null
  }
}