{
  "address": "0x0278472a6E2F41d6e7485BD2a1106A190878Ef0d",
  "abi": [
    {
      "anonymous": false,
      "inputs": [
        {
          "indexed": false,
          "internalType": "address",
          "name": "recipient",
          "type": "address"
        },
        {
          "indexed": false,
          "internalType": "uint256",
          "name": "tokenId",
          "type": "uint256"
        },
        {
          "indexed": false,
          "internalType": "address",
          "name": "_tokenAddress",
          "type": "address"
        }
      ],
      "name": "ERC721Minted",
      "type": "event"
    },
    {
      "anonymous": false,
      "inputs": [
        {
          "indexed": false,
          "internalType": "address",
          "name": "from",
          "type": "address"
        },
        {
          "indexed": false,
          "internalType": "address",
          "name": "to",
          "type": "address"
        },
        {
          "indexed": false,
          "internalType": "uint256",
          "name": "tokenId",
          "type": "uint256"
        },
        {
          "indexed": false,
          "internalType": "address",
          "name": "tokenAddress",
          "type": "address"
        }
      ],
      "name": "ERC721Transferred",
      "type": "event"
    },
    {
      "inputs": [
        {
          "internalType": "address",
          "name": "_recipient",
          "type": "address"
        },
        {
          "internalType": "string",
          "name": "_tokenUri",
          "type": "string"
        },
        {
          "internalType": "address",
          "name": "_tokenAddress",
          "type": "address"
        }
      ],
      "name": "mintFor",
      "outputs": [],
      "stateMutability": "nonpayable",
      "type": "function"
    },
    {
      "inputs": [
        {
          "internalType": "address",
          "name": "_to",
          "type": "address"
        },
        {
          "internalType": "uint256",
          "name": "_tokenId",
          "type": "uint256"
        },
        {
          "internalType": "address",
          "name": "_tokenAddress",
          "type": "address"
        }
      ],
      "name": "transferFromERC721",
      "outputs": [],
      "stateMutability": "nonpayable",
      "type": "function"
    }
  ],
  "transactionHash": "0x65eaa811350daaf0962797d73d6c75ee0a176334a650253f3893a0f245650727",
  "args": [],
  "numDeployments": 3,
  "solcInputHash": "d7eea2ab52a8b9b0066d0a906584b060",
  "bytecode": "0x608060405234801561001057600080fd5b506104d6806100206000396000f3fe608060405234801561001057600080fd5b50600436106100365760003560e01c80638fa3e8ac1461003b578063933d837d146100fe575b600080fd5b6100fc6004803603606081101561005157600080fd5b6001600160a01b03823516919081019060408101602082013564010000000081111561007c57600080fd5b82018360208201111561008e57600080fd5b803590602001918460018302840111640100000000831117156100b057600080fd5b91908080601f016020809104026020016040519081016040528093929190818152602001838380828437600092019190915250929550505090356001600160a01b031691506101349050565b005b6100fc6004803603606081101561011457600080fd5b506001600160a01b03813581169160208101359160409091013516610303565b3361013d610460565b6001600160a01b031614610184576040805162461bcd60e51b81526020600482015260096024820152682727aa2fa7aba722a960b91b604482015290519081900360640190fd5b6001600160a01b0381166101ca576040805162461bcd60e51b81526020600482015260086024820152672727afaa27a5a2a760c11b604482015290519081900360640190fd5b6040805163d0def52160e01b81526001600160a01b03858116600483019081526024830193845285516044840152855185946000949386169363d0def521938a938a9391926064019060208501908083838c5b8381101561023557818101518382015260200161021d565b50505050905090810190601f1680156102625780820380516001836020036101000a031916815260200191505b509350505050602060405180830381600087803b15801561028257600080fd5b505af1158015610296573d6000803e3d6000fd5b505050506040513d60208110156102ac57600080fd5b5051604080516001600160a01b0380891682526020820184905286168183015290519192507f7e0b87c234222d50663129bc4126edd8e4c6aed5a227f285f6d6938ccff2ede6919081900360600190a15050505050565b3361030c610460565b6001600160a01b031614610353576040805162461bcd60e51b81526020600482015260096024820152682727aa2fa7aba722a960b91b604482015290519081900360640190fd5b6001600160a01b038116610399576040805162461bcd60e51b81526020600482015260086024820152672727afaa27a5a2a760c11b604482015290519081900360640190fd5b60408051632142170760e11b81523060048201526001600160a01b03858116602483015260448201859052915183928316916342842e0e91606480830192600092919082900301818387803b1580156103f157600080fd5b505af1158015610405573d6000803e3d6000fd5b5050604080513081526001600160a01b0380891660208301528183018890528616606082015290517f4f1fd231b191cee72fc2b9f652202edd0adc35f7f2148a0689f401e66c5f468b9350908190036080019150a150505050565b600061046a61047c565b600401546001600160a01b0316919050565b7fc8fcad8db84d3cc18b4c41d551ea0ee66dd599cde068d998e57d5e09332c131c9056fea2646970667358221220427cdd3d4d0309da148183eac5a7584f433ea251f1cf564a819d050c425cecce64736f6c63430007060033",
  "devdoc": {
    "kind": "dev",
    "methods": {
      "mintFor(address,string,address)": {
        "params": {
          "_recipient": "Address of recipient for this token",
          "_tokenAddress": "Address of the token",
          "_tokenUri": "URI of the token"
        }
      },
      "transferFromERC721(address,uint256,address)": {
        "params": {
          "_to": "Address of the receiver",
          "_tokenAddress": "Address of the token contract",
          "_tokenId": "ID of the token"
        }
      }
    },
    "version": 1
  },
  "userdoc": {
    "kind": "user",
    "methods": {},
    "version": 1
  },
  "storageLayout": {
    "storage": [],
    "types": null
  }
}