{
  "address": "0x844Af4fac384C44395e56885413a3C3a98239157",
  "abi": [
    {
      "inputs": [
        {
          "internalType": "address",
          "name": "_tokenAddress",
          "type": "address"
        },
        {
          "internalType": "address",
          "name": "_address",
          "type": "address"
        },
        {
          "internalType": "uint256",
          "name": "_amount",
          "type": "uint256"
        }
      ],
      "name": "approveERC20",
      "outputs": [],
      "stateMutability": "nonpayable",
      "type": "function"
    },
    {
      "inputs": [
        {
          "internalType": "address",
          "name": "_tokenAddress",
          "type": "address"
        },
        {
          "internalType": "address",
          "name": "_address",
          "type": "address"
        },
        {
          "internalType": "uint256",
          "name": "_tokenId",
          "type": "uint256"
        }
      ],
      "name": "approveERC721",
      "outputs": [],
      "stateMutability": "nonpayable",
      "type": "function"
    },
    {
      "inputs": [
        {
          "internalType": "address",
          "name": "_tokenAddress",
          "type": "address"
        },
        {
          "internalType": "address",
          "name": "_to",
          "type": "address"
        },
        {
          "internalType": "uint256",
          "name": "_amount",
          "type": "uint256"
        }
      ],
      "name": "transferERC20",
      "outputs": [],
      "stateMutability": "nonpayable",
      "type": "function"
    },
    {
      "inputs": [
        {
          "internalType": "address",
          "name": "_tokenAddress",
          "type": "address"
        },
        {
          "internalType": "address",
          "name": "_to",
          "type": "address"
        },
        {
          "internalType": "uint256",
          "name": "_tokenId",
          "type": "uint256"
        }
      ],
      "name": "transferERC721",
      "outputs": [],
      "stateMutability": "nonpayable",
      "type": "function"
    }
  ],
  "transactionHash": "0x8fe71220d01932838db420757671884093557fb43adabf1c934d64daad2507c4",
  "args": [],
  "numDeployments": 1,
  "solcInputHash": "e05e2e2b5a61185fc376a30ea11af505",
  "bytecode": "0x608060405234801561001057600080fd5b50610a92806100206000396000f3fe608060405234801561001057600080fd5b506004361061004b5760003560e01c8062a7230a146100505780631aca6376146100885780639db5dbe4146100be578063a8e5e4aa146100f4575b600080fd5b6100866004803603606081101561006657600080fd5b506001600160a01b0381358116916020810135909116906040013561012a565b005b6100866004803603606081101561009e57600080fd5b506001600160a01b038135811691602081013590911690604001356102e8565b610086600480360360608110156100d457600080fd5b506001600160a01b03813581169160208101359091169060400135610453565b6100866004803603606081101561010a57600080fd5b506001600160a01b03813581169160208101359091169060400135610585565b61016c33610136610664565b7f241ecf16d79d0f8dbfb92cbc07fe17840425976cf0667f022fe9877caa831b0860009081526020919091526040902090610688565b6101b7576040805162461bcd60e51b815260206004820152601760248201527621b0b63632b91034b9903737ba10309036b0b730b3b2b960491b604482015290519081900360640190fd5b604080516331a9108f60e11b8152600481018390529051849133916001600160a01b03841691636352211e916024808301926020929190829003018186803b15801561020257600080fd5b505afa158015610216573d6000803e3d6000fd5b505050506040513d602081101561022c57600080fd5b50516001600160a01b0316146102735760405162461bcd60e51b8152600401808060200182810382526024815260200180610a396024913960400191505060405180910390fd5b806001600160a01b031663095ea7b384846040518363ffffffff1660e01b815260040180836001600160a01b0316815260200182815260200192505050600060405180830381600087803b1580156102ca57600080fd5b505af11580156102de573d6000803e3d6000fd5b5050505050505050565b6102f433610136610664565b61033f576040805162461bcd60e51b815260206004820152601760248201527621b0b63632b91034b9903737ba10309036b0b730b3b2b960491b604482015290519081900360640190fd5b604080516331a9108f60e11b8152600481018390529051849133916001600160a01b03841691636352211e916024808301926020929190829003018186803b15801561038a57600080fd5b505afa15801561039e573d6000803e3d6000fd5b505050506040513d60208110156103b457600080fd5b50516001600160a01b0316146103fb5760405162461bcd60e51b8152600401808060200182810382526024815260200180610a396024913960400191505060405180910390fd5b60408051632142170760e11b81523360048201526001600160a01b038581166024830152604482018590529151918316916342842e0e9160648082019260009290919082900301818387803b1580156102ca57600080fd5b61045f33610136610664565b6104aa576040805162461bcd60e51b815260206004820152601760248201527621b0b63632b91034b9903737ba10309036b0b730b3b2b960491b604482015290519081900360640190fd5b604080516370a0823160e01b81523360048201529051849183916001600160a01b038416916370a08231916024808301926020929190829003018186803b1580156104f457600080fd5b505afa158015610508573d6000803e3d6000fd5b505050506040513d602081101561051e57600080fd5b5051101561056a576040805162461bcd60e51b8152602060048201526014602482015273494e53554646494349454e542042414c414e434560601b604482015290519081900360640190fd5b61057f6001600160a01b0382163385856106a4565b50505050565b61059133610136610664565b6105dc576040805162461bcd60e51b815260206004820152601760248201527621b0b63632b91034b9903737ba10309036b0b730b3b2b960491b604482015290519081900360640190fd5b826001600160a01b031663095ea7b383836040518363ffffffff1660e01b815260040180836001600160a01b0316815260200182815260200192505050602060405180830381600087803b15801561063357600080fd5b505af1158015610647573d6000803e3d6000fd5b505050506040513d602081101561065d57600080fd5b5050505050565b7f6282190449f76f72a9f692e4d8619a03764b7253394788948e36a7a57ba4a00e90565b600061069d836001600160a01b0384166106fe565b9392505050565b604080516001600160a01b0380861660248301528416604482015260648082018490528251808303909101815260849091019091526020810180516001600160e01b03166323b872dd60e01b17905261057f908590610716565b60009081526001919091016020526040902054151590565b600061076b826040518060400160405280602081526020017f5361666545524332303a206c6f772d6c6576656c2063616c6c206661696c6564815250856001600160a01b03166107cc9092919063ffffffff16565b8051909150156107c75780806020019051602081101561078a57600080fd5b50516107c75760405162461bcd60e51b815260040180806020018281038252602a815260200180610a0f602a913960400191505060405180910390fd5b505050565b60606107db84846000856107e3565b949350505050565b6060824710156108245760405162461bcd60e51b81526004018080602001828103825260268152602001806109e96026913960400191505060405180910390fd5b61082d8561093e565b61087e576040805162461bcd60e51b815260206004820152601d60248201527f416464726573733a2063616c6c20746f206e6f6e2d636f6e7472616374000000604482015290519081900360640190fd5b600080866001600160a01b031685876040518082805190602001908083835b602083106108bc5780518252601f19909201916020918201910161089d565b6001836020036101000a03801982511681845116808217855250505050505090500191505060006040518083038185875af1925050503d806000811461091e576040519150601f19603f3d011682016040523d82523d6000602084013e610923565b606091505b5091509150610933828286610944565b979650505050505050565b3b151590565b6060831561095357508161069d565b8251156109635782518084602001fd5b8160405162461bcd60e51b81526004018080602001828103825283818151815260200191508051906020019080838360005b838110156109ad578181015183820152602001610995565b50505050905090810190601f1680156109da5780820380516001836020036101000a031916815260200191505b509250505060405180910390fdfe416464726573733a20696e73756666696369656e742062616c616e636520666f722063616c6c5361666545524332303a204552433230206f7065726174696f6e20646964206e6f74207375636365656453656e646572206973206e6f7420746865206f776e6572206f662074686520746f6b656ea2646970667358221220da0ed56929c0bee9346160aae113f377390d7f6237a4713b6dd1aad2e301a32d64736f6c63430007060033",
  "devdoc": {
    "kind": "dev",
    "methods": {},
    "version": 1
  },
  "userdoc": {
    "kind": "user",
    "methods": {},
    "version": 1
  },
  "storageLayout": {
    "storage": [],
    "types": null
  }
}