{
  "address": "0xc94A35eec4164C42DC1D1D0cB22f7698Bcaf038D",
  "abi": [
    {
      "anonymous": false,
      "inputs": [
        {
          "indexed": true,
          "internalType": "address",
          "name": "diamond",
          "type": "address"
        },
        {
          "indexed": true,
          "internalType": "address",
          "name": "token",
          "type": "address"
        }
      ],
      "name": "DiamondDeployed",
      "type": "event"
    },
    {
      "inputs": [
        {
          "components": [
            {
              "internalType": "address",
              "name": "facetAddress",
              "type": "address"
            },
            {
              "internalType": "enum IDiamondCut.FacetCutAction",
              "name": "action",
              "type": "uint8"
            },
            {
              "internalType": "bytes4[]",
              "name": "functionSelectors",
              "type": "bytes4[]"
            }
          ],
          "internalType": "struct IDiamondCut.FacetCut[]",
          "name": "_facets",
          "type": "tuple[]"
        },
        {
          "internalType": "address",
          "name": "_erc20",
          "type": "address"
        },
        {
          "internalType": "address",
          "name": "_erc721",
          "type": "address"
        }
      ],
      "name": "deploy",
      "outputs": [],
      "stateMutability": "nonpayable",
      "type": "function"
    },
    {
      "inputs": [
        {
          "internalType": "address",
          "name": "_owner",
          "type": "address"
        },
        {
          "internalType": "address",
          "name": "_registry",
          "type": "address"
        }
      ],
      "name": "initialize",
      "outputs": [],
      "stateMutability": "nonpayable",
      "type": "function"
    }
  ],
  "transactionHash": "0x81f48cca9898040e84eeffa16804e43faba54790b72446408e0197c59a920cd6",
  "args": [],
  "numDeployments": 1,
  "solcInputHash": "bedbddaa7a51d62abf37dc894b9fb6be",
  "bytecode": "0x608060405234801561001057600080fd5b50612992806100206000396000f3fe60806040523480156200001157600080fd5b50600436106200003a5760003560e01c8063485cc955146200003f5780639d81a7531462000058575b600080fd5b62000056620000503660046200048f565b6200006f565b005b6200005662000069366004620004c6565b620000b8565b620000796200027d565b600062000085620002c0565b80546001600160a01b039485166001600160a01b0319918216178255600190910180549390941692169190911790915550565b620000c26200027d565b6000620000ce620002c0565b6001810154909150600090620000ef9086906001600160a01b0316620002e4565b90506001600160a01b03841615620001645760405163614d37ed60e11b81526001600160a01b0382169063c29a6fda906200012f90879060040162000604565b600060405180830381600087803b1580156200014a57600080fd5b505af11580156200015f573d6000803e3d6000fd5b505050505b6001600160a01b03831615620001d75760405163094144a560e01b81526001600160a01b0382169063094144a590620001a290869060040162000604565b600060405180830381600087803b158015620001bd57600080fd5b505af1158015620001d2573d6000803e3d6000fd5b505050505b815460405163f2fde38b60e01b81526001600160a01b038381169263f2fde38b926200020a929091169060040162000604565b600060405180830381600087803b1580156200022557600080fd5b505af11580156200023a573d6000803e3d6000fd5b50506040516001600160a01b038087169350841691507f2a761d19ff771f7f8bfb7d8d0b0fc38ef99d694f7496e7764a4ed06ecb19c9c090600090a35050505050565b62000287620003a4565b600401546001600160a01b03163314620002be5760405162461bcd60e51b8152600401620002b590620006f3565b60405180910390fd5b565b7ff0012a687af7752843524cd4908ddea76b8cf30b148d95b1684517391251d00d90565b6000620002f0620003c8565b308152604051600090859083906200030890620003da565b6200031592919062000618565b604051809103906000f08015801562000332573d6000803e3d6000fd5b50604051632a47b83760e21b815290915081906001600160a01b0382169063a91ee0dc906200036690889060040162000604565b600060405180830381600087803b1580156200038157600080fd5b505af115801562000396573d6000803e3d6000fd5b509298975050505050505050565b7fc8fcad8db84d3cc18b4c41d551ea0ee66dd599cde068d998e57d5e09332c131c90565b60408051602081019091526000815290565b6121e3806200077a83390190565b80356001600160a01b03811681146200040057600080fd5b919050565b600082601f83011262000416578081fd5b813560206200042f62000429836200075a565b62000735565b82815281810190858301838502870184018810156200044c578586fd5b855b85811015620004825781356001600160e01b0319811681146200046f578788fd5b845292840192908401906001016200044e565b5090979650505050505050565b60008060408385031215620004a2578182fd5b620004ad83620003e8565b9150620004bd60208401620003e8565b90509250929050565b600080600060608486031215620004db578081fd5b67ffffffffffffffff8085351115620004f2578182fd5b8435850186601f82011262000505578283fd5b80356200051662000429826200075a565b818152602080820191908401865b84811015620005c557813586016060818e03601f1901121562000545578889fd5b604051606081018181108a821117156200055b57fe5b6040526200056c60208301620003e8565b815260408201356003811062000580578a8bfd5b602082015260608201358981111562000597578a8bfd5b620005a88f60208386010162000405565b604083015250855250602093840193919091019060010162000524565b50508097505050505050620005dd60208501620003e8565b9150620005ed60408501620003e8565b90509250925092565b516001600160a01b03169052565b6001600160a01b0391909116815260200190565b604080825283518282018190526000919060609081850190602080820287018401818a01875b84811015620006d357898303605f19018652815180516001600160a01b031684528481015188850190600381106200067257fe5b85870152908901518985018990528051918290528501908a9060808601905b80831015620006bd5783516001600160e01b031916825292870192600192909201919087019062000691565b509786019794505050908301906001016200063e565b505080965050620006e781880189620005f6565b50505050509392505050565b60208082526022908201527f4c69624469616d6f6e643a204d75737420626520636f6e7472616374206f776e60408201526132b960f11b606082015260800190565b60405181810167ffffffffffffffff811182821017156200075257fe5b604052919050565b600067ffffffffffffffff8211156200076f57fe5b506020908102019056fe6080604052604051620021e3380380620021e3833981016040819052620000269162000a55565b604080516000808252602082019092526200004e918491620000f560201b6200008f1760201c565b6200006881600001516200023c60201b620001c01760201c565b60006200007f6200029e60201b620002201760201c565b6301ffc9a760e01b600090815260039091016020526040808220805460ff1990811660019081179092556307e4c70760e21b845282842080548216831790556348e2b09360e01b845282842080548216831790556307f5828d60e41b8452919092208054909116909117905550620011bf915050565b6000620001016200029e565b600281015490915061ffff16806000806008830611156200013357506008810460009081526001840160205260409020545b60005b8751811015620001ab576200019d83838a84815181106200015357fe5b6020026020010151600001518b85815181106200016c57fe5b6020026020010151602001518c86815181106200018557fe5b602002602001015160400151620002c260201b60201c565b909350915060010162000136565b50828214620001c85760028401805461ffff191661ffff84161790555b6007821615620001ea5760088204600090815260018501602052604090208190555b7f8faa70878671ccd212d20771b795c50af8fd3ff6cf27f4bde57e5d4de0aeb6738787876040516200021f9392919062000bc8565b60405180910390a162000233868662000802565b50505050505050565b6000620002486200029e565b6004810180546001600160a01b038581166001600160a01b031983168117909355604051939450169182907f8be0079c531659141344cd1fd0a4f28419497f9722a3daafe3b4186f6b6457e090600090a3505050565b7fc8fcad8db84d3cc18b4c41d551ea0ee66dd599cde068d998e57d5e09332c131c90565b60008080620002d06200029e565b90506000845111620002ff5760405162461bcd60e51b8152600401620002f69062000d77565b60405180910390fd5b60008560028111156200030e57fe5b141562000447576001600160a01b0386166200033e5760405162461bcd60e51b8152600401620002f69062000e66565b62000363866040518060600160405280602481526020016200216f6024913962000942565b60005b8451811015620004405760008582815181106200037f57fe5b6020908102919091018101516001600160e01b03198116600090815291859052604090912054909150606081901c15620003cd5760405162461bcd60e51b8152600401620002f69062000fad565b6001600160e01b03198281166000818152602087815260409091206001600160601b031960608e901b168f17905560078e160290811c91811c199b909b16179960e0811415620004305760088c04600090815260018601602052604081209b909b555b5050506001988901980162000366565b50620007f6565b60018560028111156200045657fe5b1415620005b8576001600160a01b038616620004865760405162461bcd60e51b8152600401620002f69062000eb2565b620004ab86604051806060016040528060288152602001620021bb6028913962000942565b60005b845181101562000440576000858281518110620004c757fe5b6020908102919091018101516001600160e01b03198116600090815291859052604090912054909150606081901c30811415620005185760405162461bcd60e51b8152600401620002f690620010b3565b896001600160a01b0316816001600160a01b031614156200054d5760405162461bcd60e51b8152600401620002f6906200100a565b6001600160a01b038116620005765760405162461bcd60e51b8152600401620002f69062001102565b506001600160e01b031990911660009081526020849052604090206001600160601b03919091166001600160601b031960608a901b16179055600101620004ae565b6002856002811115620005c757fe5b1415620007dc576001600160a01b03861615620005f85760405162461bcd60e51b8152600401620002f69062001056565b6008880460001960078a160160005b8651811015620007ca578962000636576000199092016000818152600185016020526040902054995091600791505b6000806000808a85815181106200064957fe5b6020908102919091018101516001600160e01b031981166000908152918a9052604090912054909150606081901c620006965760405162461bcd60e51b8152600401620002f69062000dc2565b606081901c301415620006bd5760405162461bcd60e51b8152600401620002f69062000f5f565b602087028f901b94506001600160e01b0319808616908316146200070e576001600160e01b03198516600090815260208a90526040902080546001600160601b0319166001600160601b0383161790555b6001600160e01b03198216600090815260208a9052604081205561ffff811660088104945060088106602002935050505085821462000777576000828152600188016020526040902080546001600160e01b031980841c19909116908516831c1790556200079b565b80836001600160e01b031916901c816001600160e01b031960001b901c198e16179c505b84620007b757600086815260018801602052604081208190559c505b5050600019909201915060010162000607565b506001600890920201019750620007f6565b60405162461bcd60e51b8152600401620002f69062000e1f565b50959694955050505050565b6001600160a01b0382166200083957805115620008335760405162461bcd60e51b8152600401620002f69062000cd4565b6200093e565b60008151116200085d5760405162461bcd60e51b8152600401620002f69062000f02565b6001600160a01b038216301462000893576200089382604051806060016040528060288152602001620021936028913962000942565b600080836001600160a01b031683604051620008b0919062000baa565b600060405180830381855af49150503d8060008114620008ed576040519150601f19603f3d011682016040523d82523d6000602084013e620008f2565b606091505b5091509150816200093b5780511562000921578060405162461bcd60e51b8152600401620002f6919062000cb8565b60405162461bcd60e51b8152600401620002f69062000d31565b50505b5050565b813b81816200093b5760405162461bcd60e51b8152600401620002f6919062000cb8565b80516001600160a01b03811681146200097e57600080fd5b919050565b600082601f83011262000994578081fd5b81516020620009ad620009a78362001172565b6200114e565b8281528181019085830183850287018401881015620009ca578586fd5b855b8581101562000a005781516001600160e01b031981168114620009ed578788fd5b84529284019290840190600101620009cc565b5090979650505050505050565b60006020828403121562000a1f578081fd5b604051602081016001600160401b038111828210171562000a3c57fe5b60405290508062000a4d8362000966565b905292915050565b6000806040838503121562000a68578182fd5b82516001600160401b038082111562000a7f578384fd5b818501915085601f83011262000a93578384fd5b8151602062000aa6620009a78362001172565b82815281810190858301885b8581101562000b4d57815188016060818e03601f1901121562000ad3578a8bfd5b604051606081018181108a8211171562000ae957fe5b60405262000af982880162000966565b815260408201516003811062000b0d578c8dfd5b8188015260608201518981111562000b23578c8dfd5b62000b338f898386010162000983565b604083015250855250928401929084019060010162000ab2565b5050809750505062000b628882890162000a0d565b9450505050509250929050565b6001600160a01b03169052565b6000815180845262000b9681602086016020860162001190565b601f01601f19169290920160200192915050565b6000825162000bbe81846020870162001190565b9190910192915050565b606080825284518282018190526000919060809081850190602080820287018401818b01875b8481101562000c8557898303607f19018652815180516001600160a01b0316845284810151898501906003811062000c2257fe5b858701526040918201519185018a9052815190819052908501908a90898601905b8083101562000c6f5783516001600160e01b031916825292870192600192909201919087019062000c43565b5097860197945050509083019060010162000bee565b505062000c958289018b62000b6f565b878103604089015262000ca9818a62000b7c565b9b9a5050505050505050505050565b60006020825262000ccd602083018462000b7c565b9392505050565b6020808252603c908201527f4c69624469616d6f6e644375743a205f696e697420697320616464726573732860408201527f3029206275745f63616c6c64617461206973206e6f7420656d70747900000000606082015260800190565b60208082526026908201527f4c69624469616d6f6e644375743a205f696e69742066756e6374696f6e2072656040820152651d995c9d195960d21b606082015260800190565b6020808252602b908201527f4c69624469616d6f6e644375743a204e6f2073656c6563746f727320696e206660408201526a1858d95d081d1bc818dd5d60aa1b606082015260800190565b60208082526037908201527f4c69624469616d6f6e644375743a2043616e27742072656d6f76652066756e6360408201527f74696f6e207468617420646f65736e2774206578697374000000000000000000606082015260800190565b60208082526027908201527f4c69624469616d6f6e644375743a20496e636f727265637420466163657443756040820152663a20b1ba34b7b760c91b606082015260800190565b6020808252602c908201527f4c69624469616d6f6e644375743a204164642066616365742063616e2774206260408201526b65206164647265737328302960a01b606082015260800190565b60208082526030908201527f4c69624469616d6f6e644375743a205265706c6163652066616365742063616e60408201526f2774206265206164647265737328302960801b606082015260800190565b6020808252603d908201527f4c69624469616d6f6e644375743a205f63616c6c6461746120697320656d707460408201527f7920627574205f696e6974206973206e6f742061646472657373283029000000606082015260800190565b6020808252602e908201527f4c69624469616d6f6e644375743a2043616e27742072656d6f766520696d6d7560408201526d3a30b1363290333ab731ba34b7b760911b606082015260800190565b60208082526035908201527f4c69624469616d6f6e644375743a2043616e2774206164642066756e6374696f60408201527f6e207468617420616c7265616479206578697374730000000000000000000000606082015260800190565b60208082526038908201526000805160206200214f83398151915260408201527f6374696f6e20776974682073616d652066756e6374696f6e0000000000000000606082015260800190565b60208082526036908201527f4c69624469616d6f6e644375743a2052656d6f7665206661636574206164647260408201527f657373206d757374206265206164647265737328302900000000000000000000606082015260800190565b6020808252602f908201527f4c69624469616d6f6e644375743a2043616e2774207265706c61636520696d6d60408201526e3aba30b1363290333ab731ba34b7b760891b606082015260800190565b60208082526038908201526000805160206200214f83398151915260408201527f6374696f6e207468617420646f65736e27742065786973740000000000000000606082015260800190565b6040518181016001600160401b03811182821017156200116a57fe5b604052919050565b60006001600160401b038211156200118657fe5b5060209081020190565b60005b83811015620011ad57818101518382015260200162001193565b838111156200093b5750506000910152565b610f8080620011cf6000396000f3fe60806040908152600080356001600160e01b03191681527fc8fcad8db84d3cc18b4c41d551ea0ee66dd599cde068d998e57d5e09332c131c602081905291902054819060601c8061006b5760405162461bcd60e51b815260040161006290610c16565b60405180910390fd5b3660008037600080366000845af43d6000803e80801561008a573d6000f35b3d6000fd5b6000610099610220565b600281015490915061ffff16806000806008830611156100ca57506008810460009081526001840160205260409020545b60005b87518110156101355761012883838a84815181106100e757fe5b6020026020010151600001518b85815181106100ff57fe5b6020026020010151602001518c868151811061011757fe5b602002602001015160400151610244565b90935091506001016100cd565b508282146101515760028401805461ffff191661ffff84161790555b60078216156101725760088204600090815260018501602052604090208190555b7f8faa70878671ccd212d20771b795c50af8fd3ff6cf27f4bde57e5d4de0aeb6738787876040516101a5939291906108e7565b60405180910390a16101b78686610747565b50505050505050565b60006101ca610220565b6004810180546001600160a01b038581166001600160a01b031983168117909355604051939450169182907f8be0079c531659141344cd1fd0a4f28419497f9722a3daafe3b4186f6b6457e090600090a3505050565b7fc8fcad8db84d3cc18b4c41d551ea0ee66dd599cde068d998e57d5e09332c131c90565b6000806000610251610220565b905060008451116102745760405162461bcd60e51b815260040161006290610a8b565b600085600281111561028257fe5b14156103ac576001600160a01b0386166102ae5760405162461bcd60e51b815260040161006290610b7a565b6102d086604051806060016040528060248152602001610ed760249139610871565b60005b84518110156103a65760008582815181106102ea57fe5b6020908102919091018101516001600160e01b03198116600090815291859052604090912054909150606081901c156103355760405162461bcd60e51b815260040161006290610cf6565b6001600160e01b03198281166000818152602087815260409091206001600160601b031960608e901b168f17905560078e160290811c91811c199b909b16179960e08114156103975760088c04600090815260018601602052604081209b909b555b505050600198890198016102d3565b5061073b565b60018560028111156103ba57fe5b141561050e576001600160a01b0386166103e65760405162461bcd60e51b815260040161006290610bc6565b61040886604051806060016040528060288152602001610f2360289139610871565b60005b84518110156103a657600085828151811061042257fe5b6020908102919091018101516001600160e01b03198116600090815291859052604090912054909150606081901c308114156104705760405162461bcd60e51b815260040161006290610dfe565b896001600160a01b0316816001600160a01b031614156104a25760405162461bcd60e51b815260040161006290610d4b565b6001600160a01b0381166104c85760405162461bcd60e51b815260040161006290610e4d565b506001600160e01b031990911660009081526020849052604090206bffffffffffffffffffffffff919091166001600160601b031960608a901b1617905560010161040b565b600285600281111561051c57fe5b1415610723576001600160a01b038616156105495760405162461bcd60e51b815260040161006290610da8565b6008880460001960078a160160005b86518110156107125789610585576000199092016000818152600185016020526040902054995091600791505b6000806000808a858151811061059757fe5b6020908102919091018101516001600160e01b031981166000908152918a9052604090912054909150606081901c6105e15760405162461bcd60e51b815260040161006290610ad6565b606081901c3014156106055760405162461bcd60e51b815260040161006290610ca8565b602087028f901b94506001600160e01b03198086169083161461065a576001600160e01b03198516600090815260208a90526040902080546001600160601b0319166bffffffffffffffffffffffff83161790555b6001600160e01b03198216600090815260208a9052604081205561ffff81166008810494506008810660200293505050508582146106c1576000828152600188016020526040902080546001600160e01b031980841c19909116908516831c1790556106e5565b80836001600160e01b031916901c816001600160e01b031960001b901c198e16179c505b8461070057600086815260018801602052604081208190559c505b50506000199092019150600101610558565b50600160089092020101975061073b565b60405162461bcd60e51b815260040161006290610b33565b50959694955050505050565b6001600160a01b038216610779578051156107745760405162461bcd60e51b8152600401610062906109e8565b61086d565b600081511161079a5760405162461bcd60e51b815260040161006290610c4b565b6001600160a01b03821630146107cc576107cc82604051806060016040528060288152602001610efb60289139610871565b600080836001600160a01b0316836040516107e791906108cb565b600060405180830381855af49150503d8060008114610822576040519150601f19603f3d011682016040523d82523d6000602084013e610827565b606091505b50915091508161086a57805115610852578060405162461bcd60e51b815260040161006291906109ce565b60405162461bcd60e51b815260040161006290610a45565b50505b5050565b813b818161086a5760405162461bcd60e51b815260040161006291906109ce565b6001600160a01b03169052565b600081518084526108b7816020860160208601610eaa565b601f01601f19169290920160200192915050565b600082516108dd818460208701610eaa565b9190910192915050565b606080825284518282018190526000919060809081850190602080820287018401818b01875b8481101561099f57898303607f19018652815180516001600160a01b0316845284810151898501906003811061093f57fe5b858701526040918201519185018a9052815190819052908501908a90898601905b8083101561098a5783516001600160e01b0319168252928701926001929092019190870190610960565b5097860197945050509083019060010161090d565b50506109ad8289018b610892565b87810360408901526109bf818a61089f565b9b9a5050505050505050505050565b6000602082526109e1602083018461089f565b9392505050565b6020808252603c908201527f4c69624469616d6f6e644375743a205f696e697420697320616464726573732860408201527f3029206275745f63616c6c64617461206973206e6f7420656d70747900000000606082015260800190565b60208082526026908201527f4c69624469616d6f6e644375743a205f696e69742066756e6374696f6e2072656040820152651d995c9d195960d21b606082015260800190565b6020808252602b908201527f4c69624469616d6f6e644375743a204e6f2073656c6563746f727320696e206660408201526a1858d95d081d1bc818dd5d60aa1b606082015260800190565b60208082526037908201527f4c69624469616d6f6e644375743a2043616e27742072656d6f76652066756e6360408201527f74696f6e207468617420646f65736e2774206578697374000000000000000000606082015260800190565b60208082526027908201527f4c69624469616d6f6e644375743a20496e636f727265637420466163657443756040820152663a20b1ba34b7b760c91b606082015260800190565b6020808252602c908201527f4c69624469616d6f6e644375743a204164642066616365742063616e2774206260408201526b65206164647265737328302960a01b606082015260800190565b60208082526030908201527f4c69624469616d6f6e644375743a205265706c6163652066616365742063616e60408201526f2774206265206164647265737328302960801b606082015260800190565b6020808252818101527f4469616d6f6e643a2046756e6374696f6e20646f6573206e6f74206578697374604082015260600190565b6020808252603d908201527f4c69624469616d6f6e644375743a205f63616c6c6461746120697320656d707460408201527f7920627574205f696e6974206973206e6f742061646472657373283029000000606082015260800190565b6020808252602e908201527f4c69624469616d6f6e644375743a2043616e27742072656d6f766520696d6d7560408201526d3a30b1363290333ab731ba34b7b760911b606082015260800190565b60208082526035908201527f4c69624469616d6f6e644375743a2043616e2774206164642066756e6374696f6040820152746e207468617420616c72656164792065786973747360581b606082015260800190565b60208082526038908201527f4c69624469616d6f6e644375743a2043616e2774207265706c6163652066756e60408201527f6374696f6e20776974682073616d652066756e6374696f6e0000000000000000606082015260800190565b60208082526036908201527f4c69624469616d6f6e644375743a2052656d6f76652066616365742061646472604082015275657373206d757374206265206164647265737328302960501b606082015260800190565b6020808252602f908201527f4c69624469616d6f6e644375743a2043616e2774207265706c61636520696d6d60408201526e3aba30b1363290333ab731ba34b7b760891b606082015260800190565b60208082526038908201527f4c69624469616d6f6e644375743a2043616e2774207265706c6163652066756e60408201527f6374696f6e207468617420646f65736e27742065786973740000000000000000606082015260800190565b60005b83811015610ec5578181015183820152602001610ead565b8381111561086a575050600091015256fe4c69624469616d6f6e644375743a2041646420666163657420686173206e6f20636f64654c69624469616d6f6e644375743a205f696e6974206164647265737320686173206e6f20636f64654c69624469616d6f6e644375743a205265706c61636520666163657420686173206e6f20636f6465a26469706673582212206c4840eb12a5b11d46cba21bce173295deb51c03f149009cf2d61e6a8ebf9e8464736f6c634300070600334c69624469616d6f6e644375743a2043616e2774207265706c6163652066756e4c69624469616d6f6e644375743a2041646420666163657420686173206e6f20636f64654c69624469616d6f6e644375743a205f696e6974206164647265737320686173206e6f20636f64654c69624469616d6f6e644375743a205265706c61636520666163657420686173206e6f20636f6465a2646970667358221220cfad4e7538db48cffb79345abee0ce9d494a5c8e473fc98a4e0c399f5201998764736f6c63430007060033",
  "devdoc": {
    "kind": "dev",
    "methods": {
      "deploy((address,uint8,bytes4[])[],address,address)": {
        "params": {
          "_erc20": "address ERC20 address.",
          "_erc721": "address ERC721 address.",
          "_facets": "string Array of FacetCuts that should be deployed"
        }
      },
      "initialize(address,address)": {
        "params": {
          "_owner": "Address of the default owner.",
          "_registry": "Address of the default registry contract."
        }
      }
    },
    "version": 1
  },
  "userdoc": {
    "kind": "user",
    "methods": {
      "initialize(address,address)": {
        "notice": "Sets the controller for the factory diamond."
      }
    },
    "version": 1
  },
  "storageLayout": {
    "storage": [],
    "types": null
  }
}