{
  "address": "0x9E17d943229A47ECe6c813af93950c547a8A8f21",
  "abi": [
    {
      "inputs": [],
      "name": "feeCollector",
      "outputs": [
        {
          "internalType": "address",
          "name": "",
          "type": "address"
        }
      ],
      "stateMutability": "view",
      "type": "function"
    },
    {
      "inputs": [],
      "name": "feePercentage",
      "outputs": [
        {
          "internalType": "uint256",
          "name": "",
          "type": "uint256"
        }
      ],
      "stateMutability": "view",
      "type": "function"
    },
    {
      "inputs": [
        {
          "internalType": "address",
          "name": "_feeCollector",
          "type": "address"
        },
        {
          "internalType": "uint256",
          "name": "_feePercentage",
          "type": "uint256"
        }
      ],
      "name": "initialize",
      "outputs": [],
      "stateMutability": "nonpayable",
      "type": "function"
    },
    {
      "inputs": [
        {
          "internalType": "address",
          "name": "_feeCollector",
          "type": "address"
        }
      ],
      "name": "setFeeCollector",
      "outputs": [],
      "stateMutability": "nonpayable",
      "type": "function"
    },
    {
      "inputs": [
        {
          "internalType": "uint256",
          "name": "_feePercentage",
          "type": "uint256"
        }
      ],
      "name": "setFeePercentage",
      "outputs": [],
      "stateMutability": "nonpayable",
      "type": "function"
    }
  ],
  "transactionHash": "0xb744aed30fb5ae23d4b51a52e1a33d97737803085f05785e8ac24688c13e5f9c",
  "args": [],
  "numDeployments": 1,
  "solcInputHash": "954101db8fd21c30da9bb6a572893bde",
  "bytecode": "0x608060405234801561001057600080fd5b50610318806100206000396000f3fe608060405234801561001057600080fd5b50600436106100575760003560e01c8063a001ecdd1461005c578063a42dce801461007a578063ae06c1b71461008f578063c415b95c146100a2578063cd6dc687146100b7575b600080fd5b6100646100ca565b60405161007191906102d9565b60405180910390f35b61008d610088366004610221565b6100dd565b005b61008d61009d36600461026b565b610111565b6100aa61012d565b6040516100719190610283565b61008d6100c5366004610242565b610146565b60006100d461017f565b60010154905090565b6100e56101a3565b60006100ef61017f565b80546001600160a01b0319166001600160a01b03939093169290921790915550565b6101196101a3565b600061012361017f565b6001019190915550565b600061013761017f565b546001600160a01b0316905090565b61014e6101a3565b600061015861017f565b80546001600160a01b0319166001600160a01b039490941693909317835550600190910155565b7fe2cc104856f68c351d4b0b699c8cc1cdeccef04becba293e55ec90e21ae11e8690565b6101ab6101e1565b600401546001600160a01b031633146101df5760405162461bcd60e51b81526004016101d690610297565b60405180910390fd5b565b7fc8fcad8db84d3cc18b4c41d551ea0ee66dd599cde068d998e57d5e09332c131c90565b80356001600160a01b038116811461021c57600080fd5b919050565b600060208284031215610232578081fd5b61023b82610205565b9392505050565b60008060408385031215610254578081fd5b61025d83610205565b946020939093013593505050565b60006020828403121561027c578081fd5b5035919050565b6001600160a01b0391909116815260200190565b60208082526022908201527f4c69624469616d6f6e643a204d75737420626520636f6e7472616374206f776e60408201526132b960f11b606082015260800190565b9081526020019056fea2646970667358221220140d9ce45fd07a873c4cb8847f2eac3798883b190279aa5ddb933ecd9c1e93bb64736f6c63430007040033",
  "devdoc": {
    "kind": "dev",
    "methods": {
      "initialize(address,uint256)": {
        "params": {
          "_feeCollector": "Address of the FeeCollector contract.",
          "_feePercentage": "Integer representing the deposit fee percentage."
        }
      },
      "setFeeCollector(address)": {
        "params": {
          "_feeCollector": "Address of the FeeCollector contract."
        }
      },
      "setFeePercentage(uint256)": {
        "params": {
          "_feePercentage": "0 - 10**18 value used for substracting fees from deposits into an asset pool."
        }
      }
    },
    "version": 1
  },
  "userdoc": {
    "kind": "user",
    "methods": {},
    "version": 1
  },
  "storageLayout": {
    "storage": [],
    "types": null
  }
}