{
  "address": "0xAf7Db12e6A63ad58397b502430580536E5616e54",
  "abi": [
    {
      "inputs": [
        {
          "internalType": "uint256",
          "name": "_id",
          "type": "uint256"
        }
      ],
      "name": "withdrawPollApprovalState",
      "outputs": [
        {
          "internalType": "bool",
          "name": "",
          "type": "bool"
        }
      ],
      "stateMutability": "view",
      "type": "function"
    },
    {
      "inputs": [
        {
          "internalType": "uint256",
          "name": "_id",
          "type": "uint256"
        }
      ],
      "name": "withdrawPollFinalize",
      "outputs": [],
      "stateMutability": "nonpayable",
      "type": "function"
    },
    {
      "inputs": [
        {
          "internalType": "uint256",
          "name": "_id",
          "type": "uint256"
        }
      ],
      "name": "withdrawPollRevokeVote",
      "outputs": [],
      "stateMutability": "nonpayable",
      "type": "function"
    },
    {
      "inputs": [
        {
          "internalType": "uint256",
          "name": "_id",
          "type": "uint256"
        },
        {
          "internalType": "bool",
          "name": "_agree",
          "type": "bool"
        }
      ],
      "name": "withdrawPollVote",
      "outputs": [],
      "stateMutability": "nonpayable",
      "type": "function"
    }
  ],
  "transactionHash": "0xec7582514b1eaa1e740f60406b79a6f012d4f69dfc10d874f07366b6fbb5d17f",
  "args": [],
  "numDeployments": 1,
  "solcInputHash": "954101db8fd21c30da9bb6a572893bde",
  "bytecode": "0x608060405234801561001057600080fd5b5061069a806100206000396000f3fe608060405234801561001057600080fd5b506004361061004c5760003560e01c80631788971814610051578063283f28c31461007a5780634543b9871461008f578063649dccae146100a2575b600080fd5b61006461005f366004610526565b6100b5565b60405161007191906105c2565b60405180910390f35b61008d610088366004610526565b6101d8565b005b61008d61009d366004610526565b6102dc565b61008d6100b036600461053e565b610344565b6000806100c18361046a565b6040805160048152602481019091526020810180516001600160e01b0316637bfefd6560e01b1790529091507f7bfefd655d36ca23c3916d0bd77fe74fbd3ed5f317515b2e5236aee36d706299906000606030838661011e6104b6565b60405160200161013093929190610589565b60408051601f198184030181529082905261014a9161056d565b600060405180830381855afa9150503d8060008114610185576040519150601f19603f3d011682016040523d82523d6000602084013e61018a565b606091505b50915091508181906101b85760405162461bcd60e51b81526004016101af91906105cd565b60405180910390fd5b50808060200190518101906101cd9190610503565b979650505050505050565b60006101e38261046a565b6040805160048152602481019091526020810180516001600160e01b0316631a31f55560e31b1790529091507fd18faaa840a79f1e4b9b058ae7c9ff6e61c00891336c23ac82d3b326438f436590600060603083866102406104b6565b60405160200161025293929190610589565b60408051601f198184030181529082905261026c9161056d565b6000604051808303816000865af19150503d80600081146102a9576040519150601f19603f3d011682016040523d82523d6000602084013e6102ae565b606091505b50915091508181906102d35760405162461bcd60e51b81526004016101af91906105cd565b50505050505050565b60006102e78261046a565b6040805160048152602481019091526020810180516001600160e01b0316637dad9c3960e01b1790529091507f7dad9c397eb20be9605d8083df025b5ac2e53bed5a20e7dae801fa06502589d790600060603083866102406104b6565b600061034f8361046a565b905060007fb414838fe14d2b937b45b9b5df6d6e1aba8526175e8a2d17886b236a6846188690506060818460405160240161038a91906105c2565b60408051601f198184030181529190526020810180516001600160e01b03166001600160e01b0319909316929092179091529050600060603083866103cd6104b6565b6040516020016103df93929190610589565b60408051601f19818403018152908290526103f99161056d565b6000604051808303816000865af19150503d8060008114610436576040519150601f19603f3d011682016040523d82523d6000602084013e61043b565b606091505b50915091508181906104605760405162461bcd60e51b81526004016101af91906105cd565b5050505050505050565b6000816040516020018080602001838152602001828103825260238152602001806106426023913960400192505050604051602081830303815290604052805190602001209050919050565b600060606000368080601f0160208091040260200160405190810160405280939291908181526020018383808284376000920191909152505050503601516001600160a01b031692915050565b600060208284031215610514578081fd5b815161051f81610630565b9392505050565b600060208284031215610537578081fd5b5035919050565b60008060408385031215610550578081fd5b82359150602083013561056281610630565b809150509250929050565b6000825161057f818460208701610600565b9190910192915050565b6000845161059b818460208901610600565b919091019283525060601b6bffffffffffffffffffffffff19166020820152603401919050565b901515815260200190565b60006020825282518060208401526105ec816040850160208701610600565b601f01601f19169190910160400192915050565b60005b8381101561061b578181015183820152602001610603565b8381111561062a576000848401525b50505050565b801515811461063e57600080fd5b5056fe6469616d6f6e642e636f6e74726163742e6173736574706f6f6c2e62617365706f6c6ca264697066735822122042c4d2f507ded782a4e5493053d5755b23f3e47dd69031afaa736fe529fd1bbe64736f6c63430007040033",
  "devdoc": {
    "kind": "dev",
    "methods": {},
    "version": 1
  },
  "userdoc": {
    "kind": "user",
    "methods": {},
    "version": 1
  },
  "storageLayout": {
    "storage": [],
    "types": null
  }
}