{
    "_format": "hh-sol-artifact-1",
    "contractName": "BalancerVault",
    "sourceName": "contracts/mock/BalancerVault.sol",
    "abi": [
        {
            "inputs": [
                {
                    "internalType": "address",
                    "name": "_bpt",
                    "type": "address"
                },
                {
                    "internalType": "address",
                    "name": "_usdc",
                    "type": "address"
                },
                {
                    "internalType": "address",
                    "name": "_thx",
                    "type": "address"
                }
            ],
            "stateMutability": "nonpayable",
            "type": "constructor"
        },
        {
            "inputs": [],
            "name": "bpt",
            "outputs": [
                {
                    "internalType": "contract ERC20",
                    "name": "",
                    "type": "address"
                }
            ],
            "stateMutability": "view",
            "type": "function"
        },
        {
            "inputs": [
                {
                    "internalType": "bytes32",
                    "name": "poolId",
                    "type": "bytes32"
                },
                {
                    "internalType": "address",
                    "name": "sender",
                    "type": "address"
                },
                {
                    "internalType": "address",
                    "name": "recipient",
                    "type": "address"
                },
                {
                    "components": [
                        {
                            "internalType": "address[]",
                            "name": "assets",
                            "type": "address[]"
                        },
                        {
                            "internalType": "uint256[]",
                            "name": "maxAmountsIn",
                            "type": "uint256[]"
                        },
                        {
                            "internalType": "bytes",
                            "name": "userData",
                            "type": "bytes"
                        },
                        {
                            "internalType": "bool",
                            "name": "fromInternalBalance",
                            "type": "bool"
                        }
                    ],
                    "internalType": "struct BalancerVault.JoinPoolRequest",
                    "name": "request",
                    "type": "tuple"
                }
            ],
            "name": "joinPool",
            "outputs": [],
            "stateMutability": "nonpayable",
            "type": "function"
        },
        {
            "inputs": [],
            "name": "thx",
            "outputs": [
                {
                    "internalType": "contract ERC20",
                    "name": "",
                    "type": "address"
                }
            ],
            "stateMutability": "view",
            "type": "function"
        },
        {
            "inputs": [],
            "name": "usdc",
            "outputs": [
                {
                    "internalType": "contract ERC20",
                    "name": "",
                    "type": "address"
                }
            ],
            "stateMutability": "view",
            "type": "function"
        }
    ],
    "bytecode": "0x608060405234801561001057600080fd5b5060405161075738038061075783398101604081905261002f9161008d565b600080546001600160a01b039485166001600160a01b0319918216179091556001805493851693821693909317909255600280549190931691161790556100cf565b80516001600160a01b038116811461008857600080fd5b919050565b6000806000606084860312156100a1578283fd5b6100aa84610071565b92506100b860208501610071565b91506100c660408501610071565b90509250925092565b610679806100de6000396000f3fe608060405234801561001057600080fd5b506004361061004c5760003560e01c80633e413bee14610051578063546af3c31461006f578063a81d22e214610077578063b95cac281461007f575b600080fd5b610059610094565b604051610066919061059a565b60405180910390f35b6100596100a3565b6100596100b2565b61009261008d366004610470565b6100c1565b005b6001546001600160a01b031681565b6000546001600160a01b031681565b6002546001600160a01b031681565b600154602082015180516001600160a01b03909216916323b872dd9186913091906000906100eb57fe5b60200260200101516040518463ffffffff1660e01b81526004016101119392919061055d565b602060405180830381600087803b15801561012b57600080fd5b505af115801561013f573d6000803e3d6000fd5b505050506040513d601f19601f82011682018060405250810190610163919061044d565b50600254602082015180516001600160a01b03909216916323b872dd918691309190600190811061019057fe5b60200260200101516040518463ffffffff1660e01b81526004016101b69392919061055d565b602060405180830381600087803b1580156101d057600080fd5b505af11580156101e4573d6000803e3d6000fd5b505050506040513d601f19601f82011682018060405250810190610208919061044d565b506000816020015160018151811061021c57fe5b6020026020010151826020015160008151811061023557fe5b602090810291909101015160005460405163a9059cbb60e01b81529290910192506001600160a01b03169063a9059cbb906102769086908590600401610581565b602060405180830381600087803b15801561029057600080fd5b505af11580156102a4573d6000803e3d6000fd5b505050506040513d601f19601f820116820180604052508101906102c8919061044d565b6102ed5760405162461bcd60e51b81526004016102e4906105ae565b60405180910390fd5b5050505050565b80356001600160a01b038116811461030b57600080fd5b919050565b600082601f830112610320578081fd5b8135602061033561033083610614565b6105f0565b8281528181019085830183850287018401881015610351578586fd5b855b8581101561037657610364826102f4565b84529284019290840190600101610353565b5090979650505050505050565b600082601f830112610393578081fd5b813560206103a361033083610614565b82815281810190858301838502870184018810156103bf578586fd5b855b85811015610376578135845292840192908401906001016103c1565b803561030b81610632565b600082601f8301126103f8578081fd5b813567ffffffffffffffff81111561040c57fe5b61041f601f8201601f19166020016105f0565b818152846020838601011115610433578283fd5b816020850160208301379081016020019190915292915050565b60006020828403121561045e578081fd5b815161046981610632565b9392505050565b60008060008060808587031215610485578283fd5b84359350610495602086016102f4565b92506104a3604086016102f4565b9150606085013567ffffffffffffffff808211156104bf578283fd5b90860190608082890312156104d2578283fd5b6104dc60806105f0565b8235828111156104ea578485fd5b6104f68a828601610310565b82525060208301358281111561050a578485fd5b6105168a828601610383565b60208301525060408301358281111561052d578485fd5b6105398a8286016103e8565b60408301525061054b606084016103dd565b60608201529598949750929550505050565b6001600160a01b039384168152919092166020820152604081019190915260600190565b6001600160a01b03929092168252602082015260400190565b6001600160a01b0391909116815260200190565b60208082526022908201527f42616c616e6365725661756c743a20425054207472616e73666572206661696c604082015261195960f21b606082015260800190565b60405181810167ffffffffffffffff8111828210171561060c57fe5b604052919050565b600067ffffffffffffffff82111561062857fe5b5060209081020190565b801515811461064057600080fd5b5056fea2646970667358221220db097f735c2d326618126495b91645145360081a7dee7af51fbce2f34939888664736f6c63430007060033",
    "linkReferences": {},
    "deployedLinkReferences": {}
}