{
    "_format": "hh-sol-artifact-1",
    "contractName": "BalancerVault",
    "sourceName": "contracts/mock/BalancerVault.sol",
    "abi": [
        {
            "inputs": [
                {
                    "internalType": "address",
                    "name": "_bpt",
                    "type": "address"
                },
                {
                    "internalType": "address",
                    "name": "_usdc",
                    "type": "address"
                },
                {
                    "internalType": "address",
                    "name": "_thx",
                    "type": "address"
                }
            ],
            "stateMutability": "nonpayable",
            "type": "constructor"
        },
        {
            "inputs": [],
            "name": "bpt",
            "outputs": [
                {
                    "internalType": "contract ERC20",
                    "name": "",
                    "type": "address"
                }
            ],
            "stateMutability": "view",
            "type": "function"
        },
        {
            "inputs": [
                {
                    "internalType": "bytes32",
                    "name": "poolId",
                    "type": "bytes32"
                },
                {
                    "internalType": "address",
                    "name": "sender",
                    "type": "address"
                },
                {
                    "internalType": "address",
                    "name": "recipient",
                    "type": "address"
                },
                {
                    "components": [
                        {
                            "internalType": "address[]",
                            "name": "assets",
                            "type": "address[]"
                        },
                        {
                            "internalType": "uint256[]",
                            "name": "maxAmountsIn",
                            "type": "uint256[]"
                        },
                        {
                            "internalType": "bytes",
                            "name": "userData",
                            "type": "bytes"
                        },
                        {
                            "internalType": "bool",
                            "name": "fromInternalBalance",
                            "type": "bool"
                        }
                    ],
                    "internalType": "struct BalancerVault.JoinPoolRequest",
                    "name": "request",
                    "type": "tuple"
                }
            ],
            "name": "joinPool",
            "outputs": [],
            "stateMutability": "nonpayable",
            "type": "function"
        },
        {
            "inputs": [],
            "name": "thx",
            "outputs": [
                {
                    "internalType": "contract ERC20",
                    "name": "",
                    "type": "address"
                }
            ],
            "stateMutability": "view",
            "type": "function"
        },
        {
            "inputs": [],
            "name": "usdc",
            "outputs": [
                {
                    "internalType": "contract ERC20",
                    "name": "",
                    "type": "address"
                }
            ],
            "stateMutability": "view",
            "type": "function"
        }
    ],
    "bytecode": "0x608060405234801561001057600080fd5b50604051610a7a380380610a7a83398101604081905261002f9161008d565b600080546001600160a01b039485166001600160a01b0319918216179091556001805493851693821693909317909255600280549190931691161790556100cf565b80516001600160a01b038116811461008857600080fd5b919050565b6000806000606084860312156100a1578283fd5b6100aa84610071565b92506100b860208501610071565b91506100c660408501610071565b90509250925092565b61099c806100de6000396000f3fe608060405234801561001057600080fd5b506004361061004c5760003560e01c80633e413bee14610051578063546af3c31461006f578063a81d22e214610077578063b95cac281461007f575b600080fd5b610059610094565b604051610066919061089c565b60405180910390f35b6100596100a3565b6100596100b2565b61009261008d366004610751565b6100c1565b005b6001546001600160a01b031681565b6000546001600160a01b031681565b6002546001600160a01b031681565b600154602082015180516001600160a01b03909216916323b872dd9186913091906000906100eb57fe5b60200260200101516040518463ffffffff1660e01b81526004016101119392919061085f565b602060405180830381600087803b15801561012b57600080fd5b505af115801561013f573d6000803e3d6000fd5b505050506040513d601f19601f820116820180604052508101906101639190610735565b50600254602082015180516001600160a01b03909216916323b872dd918691309190600190811061019057fe5b60200260200101516040518463ffffffff1660e01b81526004016101b69392919061085f565b602060405180830381600087803b1580156101d057600080fd5b505af11580156101e4573d6000803e3d6000fd5b505050506040513d601f19601f820116820180604052508101906102089190610735565b5060006102c1600160009054906101000a90046001600160a01b03166001600160a01b031663313ce5676040518163ffffffff1660e01b815260040160206040518083038186803b15801561025c57600080fd5b505afa158015610270573d6000803e3d6000fd5b505050506040513d601f19601f82011682018060405250810190610294919061083e565b60ff16600a0a83602001516000815181106102ab57fe5b60200260200101516104b990919063ffffffff16565b90506000610365600260009054906101000a90046001600160a01b03166001600160a01b031663313ce5676040518163ffffffff1660e01b815260040160206040518083038186803b15801561031657600080fd5b505afa15801561032a573d6000803e3d6000fd5b505050506040513d601f19601f8201168201806040525081019061034e919061083e565b60ff16600a0a84602001516001815181106102ab57fe5b9050600061040660008054906101000a90046001600160a01b03166001600160a01b031663313ce5676040518163ffffffff1660e01b815260040160206040518083038186803b1580156103b857600080fd5b505afa1580156103cc573d6000803e3d6000fd5b505050506040513d601f19601f820116820180604052508101906103f0919061083e565b60ff16600a0a6104008585610522565b90610583565b60005460405163a9059cbb60e01b81529192506001600160a01b03169063a9059cbb906104399088908590600401610883565b602060405180830381600087803b15801561045357600080fd5b505af1158015610467573d6000803e3d6000fd5b505050506040513d601f19601f8201168201806040525081019061048b9190610735565b6104b05760405162461bcd60e51b81526004016104a7906108b0565b60405180910390fd5b50505050505050565b600080821161050f576040805162461bcd60e51b815260206004820152601a60248201527f536166654d6174683a206469766973696f6e206279207a65726f000000000000604482015290519081900360640190fd5b81838161051857fe5b0490505b92915050565b60008282018381101561057c576040805162461bcd60e51b815260206004820152601b60248201527f536166654d6174683a206164646974696f6e206f766572666c6f770000000000604482015290519081900360640190fd5b9392505050565b6000826105925750600061051c565b8282028284828161059f57fe5b041461057c5760405162461bcd60e51b81526004018080602001828103825260218152602001806109466021913960400191505060405180910390fd5b80356001600160a01b03811681146105f357600080fd5b919050565b600082601f830112610608578081fd5b8135602061061d61061883610916565b6108f2565b8281528181019085830183850287018401881015610639578586fd5b855b8581101561065e5761064c826105dc565b8452928401929084019060010161063b565b5090979650505050505050565b600082601f83011261067b578081fd5b8135602061068b61061883610916565b82815281810190858301838502870184018810156106a7578586fd5b855b8581101561065e578135845292840192908401906001016106a9565b80356105f381610934565b600082601f8301126106e0578081fd5b813567ffffffffffffffff8111156106f457fe5b610707601f8201601f19166020016108f2565b81815284602083860101111561071b578283fd5b816020850160208301379081016020019190915292915050565b600060208284031215610746578081fd5b815161057c81610934565b60008060008060808587031215610766578283fd5b84359350610776602086016105dc565b9250610784604086016105dc565b9150606085013567ffffffffffffffff808211156107a0578283fd5b90860190608082890312156107b3578283fd5b6107bd60806108f2565b8235828111156107cb578485fd5b6107d78a8286016105f8565b8252506020830135828111156107eb578485fd5b6107f78a82860161066b565b60208301525060408301358281111561080e578485fd5b61081a8a8286016106d0565b60408301525061082c606084016106c5565b60608201529598949750929550505050565b60006020828403121561084f578081fd5b815160ff8116811461057c578182fd5b6001600160a01b039384168152919092166020820152604081019190915260600190565b6001600160a01b03929092168252602082015260400190565b6001600160a01b0391909116815260200190565b60208082526022908201527f42616c616e6365725661756c743a20425054207472616e73666572206661696c604082015261195960f21b606082015260800190565b60405181810167ffffffffffffffff8111828210171561090e57fe5b604052919050565b600067ffffffffffffffff82111561092a57fe5b5060209081020190565b801515811461094257600080fd5b5056fe536166654d6174683a206d756c7469706c69636174696f6e206f766572666c6f77a26469706673582212200da6e89226c943a50bf8e722c06434037f552da74481e18a14dd1d7970f5716d64736f6c63430007060033",
    "linkReferences": {},
    "deployedLinkReferences": {}
}