{
    "_format": "hh-sol-artifact-1",
    "contractName": "BalancerMinter",
    "sourceName": "contracts/mock/BalancerMinter.sol",
    "abi": [
        {
            "inputs": [
                {
                    "internalType": "contract IERC20",
                    "name": "_balToken",
                    "type": "address"
                }
            ],
            "stateMutability": "nonpayable",
            "type": "constructor"
        },
        {
            "inputs": [],
            "name": "balToken",
            "outputs": [
                {
                    "internalType": "contract IERC20",
                    "name": "",
                    "type": "address"
                }
            ],
            "stateMutability": "view",
            "type": "function"
        },
        {
            "inputs": [
                {
                    "internalType": "address",
                    "name": "",
                    "type": "address"
                }
            ],
            "name": "gaugeMultiplier",
            "outputs": [
                {
                    "internalType": "uint256",
                    "name": "",
                    "type": "uint256"
                }
            ],
            "stateMutability": "view",
            "type": "function"
        },
        {
            "inputs": [
                {
                    "internalType": "address",
                    "name": "gauge",
                    "type": "address"
                }
            ],
            "name": "mint",
            "outputs": [
                {
                    "internalType": "uint256",
                    "name": "",
                    "type": "uint256"
                }
            ],
            "stateMutability": "nonpayable",
            "type": "function"
        }
    ],
    "bytecode": "0x60a060405234801561001057600080fd5b5060405161031e38038061031e83398101604081905261002f91610040565b6001600160a01b0316608052610070565b60006020828403121561005257600080fd5b81516001600160a01b038116811461006957600080fd5b9392505050565b60805161028d61009160003960008181604b0152610183015261028d6000f3fe608060405234801561001057600080fd5b50600436106100415760003560e01c806338d54645146100465780636a6278421461008a578063f74f5a75146100ab575b600080fd5b61006d7f000000000000000000000000000000000000000000000000000000000000000081565b6040516001600160a01b0390911681526020015b60405180910390f35b61009d6100983660046101e9565b6100cb565b604051908152602001610081565b61009d6100b93660046101e9565b60006020819052908152604090205481565b60006100d782336100dd565b92915050565b6040516370a0823160e01b81526001600160a01b03828116600483015260009182918516906370a0823190602401602060405180830381865afa158015610128573d6000803e3d6000fd5b505050506040513d601f19601f8201168201806040525081019061014c9190610219565b9050600a61015a8183610232565b6040516340c10f1960e01b81526001600160a01b038681166004830152602482018390529194507f0000000000000000000000000000000000000000000000000000000000000000909116906340c10f1990604401600060405180830381600087803b1580156101c957600080fd5b505af11580156101dd573d6000803e3d6000fd5b50505050505092915050565b6000602082840312156101fb57600080fd5b81356001600160a01b038116811461021257600080fd5b9392505050565b60006020828403121561022b57600080fd5b5051919050565b80820281158282048414176100d757634e487b7160e01b600052601160045260246000fdfea26469706673582212202629fbd885bb989433d9b6bb75ed570fa59f837050fe85071e7afb8b8e38dc1d64736f6c63430008120033",
    "linkReferences": {},
    "deployedLinkReferences": {}
}