{
    "_format": "hh-sol-artifact-1",
    "contractName": "BPT",
    "sourceName": "contracts/mock/BPT.sol",
    "abi": [
        {
            "inputs": [
                {
                    "internalType": "address",
                    "name": "_to",
                    "type": "address"
                },
                {
                    "internalType": "uint256",
                    "name": "_amount",
                    "type": "uint256"
                }
            ],
            "stateMutability": "nonpayable",
            "type": "constructor"
        },
        {
            "anonymous": false,
            "inputs": [
                {
                    "indexed": true,
                    "internalType": "address",
                    "name": "owner",
                    "type": "address"
                },
                {
                    "indexed": true,
                    "internalType": "address",
                    "name": "spender",
                    "type": "address"
                },
                {
                    "indexed": false,
                    "internalType": "uint256",
                    "name": "value",
                    "type": "uint256"
                }
            ],
            "name": "Approval",
            "type": "event"
        },
        {
            "anonymous": false,
            "inputs": [
                {
                    "indexed": true,
                    "internalType": "address",
                    "name": "from",
                    "type": "address"
                },
                {
                    "indexed": true,
                    "internalType": "address",
                    "name": "to",
                    "type": "address"
                },
                {
                    "indexed": false,
                    "internalType": "uint256",
                    "name": "value",
                    "type": "uint256"
                }
            ],
            "name": "Transfer",
            "type": "event"
        },
        {
            "inputs": [
                {
                    "internalType": "address",
                    "name": "owner",
                    "type": "address"
                },
                {
                    "internalType": "address",
                    "name": "spender",
                    "type": "address"
                }
            ],
            "name": "allowance",
            "outputs": [
                {
                    "internalType": "uint256",
                    "name": "",
                    "type": "uint256"
                }
            ],
            "stateMutability": "view",
            "type": "function"
        },
        {
            "inputs": [
                {
                    "internalType": "address",
                    "name": "spender",
                    "type": "address"
                },
                {
                    "internalType": "uint256",
                    "name": "amount",
                    "type": "uint256"
                }
            ],
            "name": "approve",
            "outputs": [
                {
                    "internalType": "bool",
                    "name": "",
                    "type": "bool"
                }
            ],
            "stateMutability": "nonpayable",
            "type": "function"
        },
        {
            "inputs": [
                {
                    "internalType": "address",
                    "name": "account",
                    "type": "address"
                }
            ],
            "name": "balanceOf",
            "outputs": [
                {
                    "internalType": "uint256",
                    "name": "",
                    "type": "uint256"
                }
            ],
            "stateMutability": "view",
            "type": "function"
        },
        {
            "inputs": [],
            "name": "decimals",
            "outputs": [
                {
                    "internalType": "uint8",
                    "name": "",
                    "type": "uint8"
                }
            ],
            "stateMutability": "view",
            "type": "function"
        },
        {
            "inputs": [
                {
                    "internalType": "address",
                    "name": "spender",
                    "type": "address"
                },
                {
                    "internalType": "uint256",
                    "name": "subtractedValue",
                    "type": "uint256"
                }
            ],
            "name": "decreaseAllowance",
            "outputs": [
                {
                    "internalType": "bool",
                    "name": "",
                    "type": "bool"
                }
            ],
            "stateMutability": "nonpayable",
            "type": "function"
        },
        {
            "inputs": [],
            "name": "getPoolId",
            "outputs": [
                {
                    "internalType": "bytes32",
                    "name": "",
                    "type": "bytes32"
                }
            ],
            "stateMutability": "view",
            "type": "function"
        },
        {
            "inputs": [],
            "name": "getVault",
            "outputs": [
                {
                    "internalType": "address",
                    "name": "",
                    "type": "address"
                }
            ],
            "stateMutability": "view",
            "type": "function"
        },
        {
            "inputs": [
                {
                    "internalType": "address",
                    "name": "spender",
                    "type": "address"
                },
                {
                    "internalType": "uint256",
                    "name": "addedValue",
                    "type": "uint256"
                }
            ],
            "name": "increaseAllowance",
            "outputs": [
                {
                    "internalType": "bool",
                    "name": "",
                    "type": "bool"
                }
            ],
            "stateMutability": "nonpayable",
            "type": "function"
        },
        {
            "inputs": [],
            "name": "name",
            "outputs": [
                {
                    "internalType": "string",
                    "name": "",
                    "type": "string"
                }
            ],
            "stateMutability": "view",
            "type": "function"
        },
        {
            "inputs": [],
            "name": "poolId",
            "outputs": [
                {
                    "internalType": "bytes32",
                    "name": "",
                    "type": "bytes32"
                }
            ],
            "stateMutability": "view",
            "type": "function"
        },
        {
            "inputs": [
                {
                    "internalType": "address",
                    "name": "_vault",
                    "type": "address"
                }
            ],
            "name": "setVault",
            "outputs": [],
            "stateMutability": "nonpayable",
            "type": "function"
        },
        {
            "inputs": [],
            "name": "symbol",
            "outputs": [
                {
                    "internalType": "string",
                    "name": "",
                    "type": "string"
                }
            ],
            "stateMutability": "view",
            "type": "function"
        },
        {
            "inputs": [],
            "name": "totalSupply",
            "outputs": [
                {
                    "internalType": "uint256",
                    "name": "",
                    "type": "uint256"
                }
            ],
            "stateMutability": "view",
            "type": "function"
        },
        {
            "inputs": [
                {
                    "internalType": "address",
                    "name": "recipient",
                    "type": "address"
                },
                {
                    "internalType": "uint256",
                    "name": "amount",
                    "type": "uint256"
                }
            ],
            "name": "transfer",
            "outputs": [
                {
                    "internalType": "bool",
                    "name": "",
                    "type": "bool"
                }
            ],
            "stateMutability": "nonpayable",
            "type": "function"
        },
        {
            "inputs": [
                {
                    "internalType": "address",
                    "name": "sender",
                    "type": "address"
                },
                {
                    "internalType": "address",
                    "name": "recipient",
                    "type": "address"
                },
                {
                    "internalType": "uint256",
                    "name": "amount",
                    "type": "uint256"
                }
            ],
            "name": "transferFrom",
            "outputs": [
                {
                    "internalType": "bool",
                    "name": "",
                    "type": "bool"
                }
            ],
            "stateMutability": "nonpayable",
            "type": "function"
        },
        {
            "inputs": [],
            "name": "vault",
            "outputs": [
                {
                    "internalType": "address",
                    "name": "",
                    "type": "address"
                }
            ],
            "stateMutability": "view",
            "type": "function"
        }
    ],
    "bytecode": "0x60806040527fb204bf10bc3a5435017d3db247f56da601dfe08a0002000000000000000000fe6006553480156200003557600080fd5b5060405162000e1638038062000e16833981810160405260408110156200005b57600080fd5b508051602091820151604080518082018252600c8082526b06460aaa688865a7060a890b60a31b8287018181528451808601909552918452958301959095528051939492939092620000b1916003919062000261565b508051620000c790600490602084019062000261565b50506005805460ff1916601217905550620000e38282620000eb565b50506200030d565b6001600160a01b03821662000147576040805162461bcd60e51b815260206004820152601f60248201527f45524332303a206d696e7420746f20746865207a65726f206164647265737300604482015290519081900360640190fd5b6200015560008383620001fa565b6200017181600254620001ff60201b6200067a1790919060201c565b6002556001600160a01b03821660009081526020818152604090912054620001a49183906200067a620001ff821b17901c565b6001600160a01b0383166000818152602081815260408083209490945583518581529351929391927fddf252ad1be2c89b69c2b068fc378daa952ba7f163c4a11628f55a4df523b3ef9281900390910190a35050565b505050565b6000828201838110156200025a576040805162461bcd60e51b815260206004820152601b60248201527f536166654d6174683a206164646974696f6e206f766572666c6f770000000000604482015290519081900360640190fd5b9392505050565b828054600181600116156101000203166002900490600052602060002090601f016020900481019282620002995760008555620002e4565b82601f10620002b457805160ff1916838001178555620002e4565b82800160010185558215620002e4579182015b82811115620002e4578251825591602001919060010190620002c7565b50620002f2929150620002f6565b5090565b5b80821115620002f25760008155600101620002f7565b610af9806200031d6000396000f3fe608060405234801561001057600080fd5b50600436106101005760003560e01c80636817031b11610097578063a457c2d711610066578063a457c2d7146102e6578063a9059cbb14610312578063dd62ed3e1461033e578063fbfa77cf1461036c57610100565b80636817031b1461026c57806370a08231146102945780638d928af8146102ba57806395d89b41146102de57610100565b8063313ce567116100d3578063313ce5671461021257806338fff2d01461023057806339509351146102385780633e0dc34e1461026457610100565b806306fdde0314610105578063095ea7b31461018257806318160ddd146101c257806323b872dd146101dc575b600080fd5b61010d610374565b6040805160208082528351818301528351919283929083019185019080838360005b8381101561014757818101518382015260200161012f565b50505050905090810190601f1680156101745780820380516001836020036101000a031916815260200191505b509250505060405180910390f35b6101ae6004803603604081101561019857600080fd5b506001600160a01b03813516906020013561040a565b604080519115158252519081900360200190f35b6101ca610427565b60408051918252519081900360200190f35b6101ae600480360360608110156101f257600080fd5b506001600160a01b0381358116916020810135909116906040013561042d565b61021a6104b4565b6040805160ff9092168252519081900360200190f35b6101ca6104bd565b6101ae6004803603604081101561024e57600080fd5b506001600160a01b0381351690602001356104c3565b6101ca610511565b6102926004803603602081101561028257600080fd5b50356001600160a01b0316610517565b005b6101ca600480360360208110156102aa57600080fd5b50356001600160a01b0316610539565b6102c2610554565b604080516001600160a01b039092168252519081900360200190f35b61010d610563565b6101ae600480360360408110156102fc57600080fd5b506001600160a01b0381351690602001356105c4565b6101ae6004803603604081101561032857600080fd5b506001600160a01b03813516906020013561062c565b6101ca6004803603604081101561035457600080fd5b506001600160a01b0381358116916020013516610640565b6102c261066b565b60038054604080516020601f60026000196101006001881615020190951694909404938401819004810282018101909252828152606093909290918301828280156104005780601f106103d557610100808354040283529160200191610400565b820191906000526020600020905b8154815290600101906020018083116103e357829003601f168201915b5050505050905090565b600061041e6104176106db565b84846106df565b50600192915050565b60025490565b600061043a8484846107cb565b6104aa846104466106db565b6104a585604051806060016040528060288152602001610a2e602891396001600160a01b038a166000908152600160205260408120906104846106db565b6001600160a01b031681526020810191909152604001600020549190610926565b6106df565b5060019392505050565b60055460ff1690565b60065490565b600061041e6104d06106db565b846104a585600160006104e16106db565b6001600160a01b03908116825260208083019390935260409182016000908120918c16815292529020549061067a565b60065481565b600780546001600160a01b0319166001600160a01b0392909216919091179055565b6001600160a01b031660009081526020819052604090205490565b6007546001600160a01b031690565b60048054604080516020601f60026000196101006001881615020190951694909404938401819004810282018101909252828152606093909290918301828280156104005780601f106103d557610100808354040283529160200191610400565b600061041e6105d16106db565b846104a585604051806060016040528060258152602001610a9f60259139600160006105fb6106db565b6001600160a01b03908116825260208083019390935260409182016000908120918d16815292529020549190610926565b600061041e6106396106db565b84846107cb565b6001600160a01b03918216600090815260016020908152604080832093909416825291909152205490565b6007546001600160a01b031681565b6000828201838110156106d4576040805162461bcd60e51b815260206004820152601b60248201527f536166654d6174683a206164646974696f6e206f766572666c6f770000000000604482015290519081900360640190fd5b9392505050565b3390565b6001600160a01b0383166107245760405162461bcd60e51b8152600401808060200182810382526024815260200180610a7b6024913960400191505060405180910390fd5b6001600160a01b0382166107695760405162461bcd60e51b81526004018080602001828103825260228152602001806109e66022913960400191505060405180910390fd5b6001600160a01b03808416600081815260016020908152604080832094871680845294825291829020859055815185815291517f8c5be1e5ebec7d5bd14f71427d1e84f3dd0314c0f7b2291e5b200ac8c7c3b9259281900390910190a3505050565b6001600160a01b0383166108105760405162461bcd60e51b8152600401808060200182810382526025815260200180610a566025913960400191505060405180910390fd5b6001600160a01b0382166108555760405162461bcd60e51b81526004018080602001828103825260238152602001806109c36023913960400191505060405180910390fd5b6108608383836109bd565b61089d81604051806060016040528060268152602001610a08602691396001600160a01b0386166000908152602081905260409020549190610926565b6001600160a01b0380851660009081526020819052604080822093909355908416815220546108cc908261067a565b6001600160a01b038084166000818152602081815260409182902094909455805185815290519193928716927fddf252ad1be2c89b69c2b068fc378daa952ba7f163c4a11628f55a4df523b3ef92918290030190a3505050565b600081848411156109b55760405162461bcd60e51b81526004018080602001828103825283818151815260200191508051906020019080838360005b8381101561097a578181015183820152602001610962565b50505050905090810190601f1680156109a75780820380516001836020036101000a031916815260200191505b509250505060405180910390fd5b505050900390565b50505056fe45524332303a207472616e7366657220746f20746865207a65726f206164647265737345524332303a20617070726f766520746f20746865207a65726f206164647265737345524332303a207472616e7366657220616d6f756e7420657863656564732062616c616e636545524332303a207472616e7366657220616d6f756e74206578636565647320616c6c6f77616e636545524332303a207472616e736665722066726f6d20746865207a65726f206164647265737345524332303a20617070726f76652066726f6d20746865207a65726f206164647265737345524332303a2064656372656173656420616c6c6f77616e63652062656c6f77207a65726fa264697066735822122036b93c02976702309bb33a5793f1230bea1c83dc4d738566f6e4b3a3141e37a364736f6c63430007060033",
    "linkReferences": {},
    "deployedLinkReferences": {}
}