{
    "_format": "hh-sol-artifact-1",
    "contractName": "BPTGauge",
    "sourceName": "contracts/mock/BPTGauge.sol",
    "abi": [
        {
            "inputs": [
                {
                    "internalType": "address",
                    "name": "_bpt",
                    "type": "address"
                }
            ],
            "stateMutability": "nonpayable",
            "type": "constructor"
        },
        {
            "anonymous": false,
            "inputs": [
                {
                    "indexed": true,
                    "internalType": "address",
                    "name": "owner",
                    "type": "address"
                },
                {
                    "indexed": true,
                    "internalType": "address",
                    "name": "spender",
                    "type": "address"
                },
                {
                    "indexed": false,
                    "internalType": "uint256",
                    "name": "value",
                    "type": "uint256"
                }
            ],
            "name": "Approval",
            "type": "event"
        },
        {
            "anonymous": false,
            "inputs": [
                {
                    "indexed": true,
                    "internalType": "address",
                    "name": "user",
                    "type": "address"
                },
                {
                    "indexed": false,
                    "internalType": "uint256",
                    "name": "value",
                    "type": "uint256"
                }
            ],
            "name": "Deposit",
            "type": "event"
        },
        {
            "anonymous": false,
            "inputs": [
                {
                    "indexed": true,
                    "internalType": "address",
                    "name": "from",
                    "type": "address"
                },
                {
                    "indexed": true,
                    "internalType": "address",
                    "name": "to",
                    "type": "address"
                },
                {
                    "indexed": false,
                    "internalType": "uint256",
                    "name": "value",
                    "type": "uint256"
                }
            ],
            "name": "Transfer",
            "type": "event"
        },
        {
            "anonymous": false,
            "inputs": [
                {
                    "indexed": true,
                    "internalType": "address",
                    "name": "user",
                    "type": "address"
                },
                {
                    "indexed": false,
                    "internalType": "uint256",
                    "name": "value",
                    "type": "uint256"
                }
            ],
            "name": "Withdraw",
            "type": "event"
        },
        {
            "inputs": [
                {
                    "internalType": "address",
                    "name": "owner",
                    "type": "address"
                },
                {
                    "internalType": "address",
                    "name": "spender",
                    "type": "address"
                }
            ],
            "name": "allowance",
            "outputs": [
                {
                    "internalType": "uint256",
                    "name": "",
                    "type": "uint256"
                }
            ],
            "stateMutability": "view",
            "type": "function"
        },
        {
            "inputs": [
                {
                    "internalType": "address",
                    "name": "spender",
                    "type": "address"
                },
                {
                    "internalType": "uint256",
                    "name": "amount",
                    "type": "uint256"
                }
            ],
            "name": "approve",
            "outputs": [
                {
                    "internalType": "bool",
                    "name": "",
                    "type": "bool"
                }
            ],
            "stateMutability": "nonpayable",
            "type": "function"
        },
        {
            "inputs": [
                {
                    "internalType": "address",
                    "name": "account",
                    "type": "address"
                }
            ],
            "name": "balanceOf",
            "outputs": [
                {
                    "internalType": "uint256",
                    "name": "",
                    "type": "uint256"
                }
            ],
            "stateMutability": "view",
            "type": "function"
        },
        {
            "inputs": [],
            "name": "bpt",
            "outputs": [
                {
                    "internalType": "contract IERC20",
                    "name": "",
                    "type": "address"
                }
            ],
            "stateMutability": "view",
            "type": "function"
        },
        {
            "inputs": [],
            "name": "decimals",
            "outputs": [
                {
                    "internalType": "uint8",
                    "name": "",
                    "type": "uint8"
                }
            ],
            "stateMutability": "view",
            "type": "function"
        },
        {
            "inputs": [
                {
                    "internalType": "address",
                    "name": "spender",
                    "type": "address"
                },
                {
                    "internalType": "uint256",
                    "name": "subtractedValue",
                    "type": "uint256"
                }
            ],
            "name": "decreaseAllowance",
            "outputs": [
                {
                    "internalType": "bool",
                    "name": "",
                    "type": "bool"
                }
            ],
            "stateMutability": "nonpayable",
            "type": "function"
        },
        {
            "inputs": [
                {
                    "internalType": "uint256",
                    "name": "_value",
                    "type": "uint256"
                }
            ],
            "name": "deposit",
            "outputs": [],
            "stateMutability": "nonpayable",
            "type": "function"
        },
        {
            "inputs": [
                {
                    "internalType": "address",
                    "name": "spender",
                    "type": "address"
                },
                {
                    "internalType": "uint256",
                    "name": "addedValue",
                    "type": "uint256"
                }
            ],
            "name": "increaseAllowance",
            "outputs": [
                {
                    "internalType": "bool",
                    "name": "",
                    "type": "bool"
                }
            ],
            "stateMutability": "nonpayable",
            "type": "function"
        },
        {
            "inputs": [],
            "name": "lp_token",
            "outputs": [
                {
                    "internalType": "address",
                    "name": "",
                    "type": "address"
                }
            ],
            "stateMutability": "view",
            "type": "function"
        },
        {
            "inputs": [],
            "name": "name",
            "outputs": [
                {
                    "internalType": "string",
                    "name": "",
                    "type": "string"
                }
            ],
            "stateMutability": "view",
            "type": "function"
        },
        {
            "inputs": [],
            "name": "symbol",
            "outputs": [
                {
                    "internalType": "string",
                    "name": "",
                    "type": "string"
                }
            ],
            "stateMutability": "view",
            "type": "function"
        },
        {
            "inputs": [],
            "name": "totalSupply",
            "outputs": [
                {
                    "internalType": "uint256",
                    "name": "",
                    "type": "uint256"
                }
            ],
            "stateMutability": "view",
            "type": "function"
        },
        {
            "inputs": [
                {
                    "internalType": "address",
                    "name": "recipient",
                    "type": "address"
                },
                {
                    "internalType": "uint256",
                    "name": "amount",
                    "type": "uint256"
                }
            ],
            "name": "transfer",
            "outputs": [
                {
                    "internalType": "bool",
                    "name": "",
                    "type": "bool"
                }
            ],
            "stateMutability": "nonpayable",
            "type": "function"
        },
        {
            "inputs": [
                {
                    "internalType": "address",
                    "name": "sender",
                    "type": "address"
                },
                {
                    "internalType": "address",
                    "name": "recipient",
                    "type": "address"
                },
                {
                    "internalType": "uint256",
                    "name": "amount",
                    "type": "uint256"
                }
            ],
            "name": "transferFrom",
            "outputs": [
                {
                    "internalType": "bool",
                    "name": "",
                    "type": "bool"
                }
            ],
            "stateMutability": "nonpayable",
            "type": "function"
        },
        {
            "inputs": [
                {
                    "internalType": "uint256",
                    "name": "_value",
                    "type": "uint256"
                }
            ],
            "name": "withdraw",
            "outputs": [],
            "stateMutability": "nonpayable",
            "type": "function"
        },
        {
            "inputs": [],
            "name": "working_supply",
            "outputs": [
                {
                    "internalType": "uint256",
                    "name": "",
                    "type": "uint256"
                }
            ],
            "stateMutability": "pure",
            "type": "function"
        }
    ],
    "bytecode": "0x60806040523480156200001157600080fd5b5060405162000ff438038062000ff483398101604081905262000034916200018d565b60405180606001604052806023815260200162000fd160239139604051806040016040528060128152602001713230555344432d38305448582d676175676560701b815250816003908051906020019062000091929190620000e1565b508051620000a7906004906020840190620000e1565b5050600580546001600160a01b0390931661010002610100600160a81b031960ff19909416601217939093169290921790915550620001bd565b828054600181600116156101000203166002900490600052602060002090601f01602090048101928262000119576000855562000164565b82601f106200013457805160ff191683800117855562000164565b8280016001018555821562000164579182015b828111156200016457825182559160200191906001019062000147565b506200017292915062000176565b5090565b5b8082111562000172576000815560010162000177565b6000602082840312156200019f578081fd5b81516001600160a01b0381168114620001b6578182fd5b9392505050565b610e0480620001cd6000396000f3fe608060405234801561001057600080fd5b50600436106101005760003560e01c8063546af3c311610097578063a457c2d711610066578063a457c2d7146101e8578063a9059cbb146101fb578063b6b55f251461020e578063dd62ed3e1461022157610100565b8063546af3c3146101b057806370a08231146101c557806382c63066146101d857806395d89b41146101e057610100565b806323b872dd116100d357806323b872dd146101605780632e1a7d4d14610173578063313ce56714610188578063395093511461019d57610100565b806306fdde0314610105578063095ea7b31461012357806317e280891461014357806318160ddd14610158575b600080fd5b61010d610234565b60405161011a9190610c63565b60405180910390f35b610136610131366004610ba6565b6102ca565b60405161011a9190610c58565b61014b6102e7565b60405161011a9190610cb6565b61014b6102f5565b61013661016e366004610b6b565b6102fb565b610186610181366004610bef565b610382565b005b61019061045c565b60405161011a9190610cbf565b6101366101ab366004610ba6565b610465565b6101b86104b3565b60405161011a9190610c07565b61014b6101d3366004610b1f565b6104c7565b6101b86104e6565b61010d6104fa565b6101366101f6366004610ba6565b61055b565b610136610209366004610ba6565b6105c3565b61018661021c366004610bef565b6105d7565b61014b61022f366004610b39565b6106a5565b60038054604080516020601f60026000196101006001881615020190951694909404938401819004810282018101909252828152606093909290918301828280156102c05780601f10610295576101008083540402835291602001916102c0565b820191906000526020600020905b8154815290600101906020018083116102a357829003601f168201915b5050505050905090565b60006102de6102d76106d0565b84846106d4565b50600192915050565b697c1238ba7d2d4f8ef86190565b60025490565b60006103088484846107c0565b610378846103146106d0565b61037385604051806060016040528060288152602001610d39602891396001600160a01b038a166000908152600160205260408120906103526106d0565b6001600160a01b03168152602081019190915260400160002054919061091b565b6106d4565b5060019392505050565b60055460405163a9059cbb60e01b81526101009091046001600160a01b03169063a9059cbb906103b89033908590600401610c3f565b602060405180830381600087803b1580156103d257600080fd5b505af11580156103e6573d6000803e3d6000fd5b505050506040513d601f19601f8201168201806040525081019061040a9190610bcf565b50610417336000836102fb565b50336001600160a01b03167f884edad9ce6fa2440d8a54cc123490eb96d2768479d49ff9c7366125a9424364826040516104519190610cb6565b60405180910390a250565b60055460ff1690565b60006102de6104726106d0565b8461037385600160006104836106d0565b6001600160a01b03908116825260208083019390935260409182016000908120918c1681529252902054906109b2565b60055461010090046001600160a01b031681565b6001600160a01b0381166000908152602081905260409020545b919050565b60055461010090046001600160a01b031690565b60048054604080516020601f60026000196101006001881615020190951694909404938401819004810282018101909252828152606093909290918301828280156102c05780601f10610295576101008083540402835291602001916102c0565b60006102de6105686106d0565b8461037385604051806060016040528060258152602001610daa60259139600160006105926106d0565b6001600160a01b03908116825260208083019390935260409182016000908120918d1681529252902054919061091b565b60006102de6105d06106d0565b84846107c0565b6005546040516323b872dd60e01b81526101009091046001600160a01b0316906323b872dd9061060f90339030908690600401610c1b565b602060405180830381600087803b15801561062957600080fd5b505af115801561063d573d6000803e3d6000fd5b505050506040513d601f19601f820116820180604052508101906106619190610bcf565b5061066c3382610a13565b336001600160a01b03167fe1fffcc4923d04b559f4d29a8bfc6cda04eb5b0d3c460751c2402c5c5cc9109c826040516104519190610cb6565b6001600160a01b03918216600090815260016020908152604080832093909416825291909152205490565b3390565b6001600160a01b0383166107195760405162461bcd60e51b8152600401808060200182810382526024815260200180610d866024913960400191505060405180910390fd5b6001600160a01b03821661075e5760405162461bcd60e51b8152600401808060200182810382526022815260200180610cf16022913960400191505060405180910390fd5b6001600160a01b03808416600081815260016020908152604080832094871680845294825291829020859055815185815291517f8c5be1e5ebec7d5bd14f71427d1e84f3dd0314c0f7b2291e5b200ac8c7c3b9259281900390910190a3505050565b6001600160a01b0383166108055760405162461bcd60e51b8152600401808060200182810382526025815260200180610d616025913960400191505060405180910390fd5b6001600160a01b03821661084a5760405162461bcd60e51b8152600401808060200182810382526023815260200180610cce6023913960400191505060405180910390fd5b610855838383610b03565b61089281604051806060016040528060268152602001610d13602691396001600160a01b038616600090815260208190526040902054919061091b565b6001600160a01b0380851660009081526020819052604080822093909355908416815220546108c190826109b2565b6001600160a01b038084166000818152602081815260409182902094909455805185815290519193928716927fddf252ad1be2c89b69c2b068fc378daa952ba7f163c4a11628f55a4df523b3ef92918290030190a3505050565b600081848411156109aa5760405162461bcd60e51b81526004018080602001828103825283818151815260200191508051906020019080838360005b8381101561096f578181015183820152602001610957565b50505050905090810190601f16801561099c5780820380516001836020036101000a031916815260200191505b509250505060405180910390fd5b505050900390565b600082820183811015610a0c576040805162461bcd60e51b815260206004820152601b60248201527f536166654d6174683a206164646974696f6e206f766572666c6f770000000000604482015290519081900360640190fd5b9392505050565b6001600160a01b038216610a6e576040805162461bcd60e51b815260206004820152601f60248201527f45524332303a206d696e7420746f20746865207a65726f206164647265737300604482015290519081900360640190fd5b610a7a60008383610b03565b600254610a8790826109b2565b6002556001600160a01b038216600090815260208190526040902054610aad90826109b2565b6001600160a01b0383166000818152602081815260408083209490945583518581529351929391927fddf252ad1be2c89b69c2b068fc378daa952ba7f163c4a11628f55a4df523b3ef9281900390910190a35050565b505050565b80356001600160a01b03811681146104e157600080fd5b600060208284031215610b30578081fd5b610a0c82610b08565b60008060408385031215610b4b578081fd5b610b5483610b08565b9150610b6260208401610b08565b90509250929050565b600080600060608486031215610b7f578081fd5b610b8884610b08565b9250610b9660208501610b08565b9150604084013590509250925092565b60008060408385031215610bb8578182fd5b610bc183610b08565b946020939093013593505050565b600060208284031215610be0578081fd5b81518015158114610a0c578182fd5b600060208284031215610c00578081fd5b5035919050565b6001600160a01b0391909116815260200190565b6001600160a01b039384168152919092166020820152604081019190915260600190565b6001600160a01b03929092168252602082015260400190565b901515815260200190565b6000602080835283518082850152825b81811015610c8f57858101830151858201604001528201610c73565b81811115610ca05783604083870101525b50601f01601f1916929092016040019392505050565b90815260200190565b60ff9190911681526020019056fe45524332303a207472616e7366657220746f20746865207a65726f206164647265737345524332303a20617070726f766520746f20746865207a65726f206164647265737345524332303a207472616e7366657220616d6f756e7420657863656564732062616c616e636545524332303a207472616e7366657220616d6f756e74206578636565647320616c6c6f77616e636545524332303a207472616e736665722066726f6d20746865207a65726f206164647265737345524332303a20617070726f76652066726f6d20746865207a65726f206164647265737345524332303a2064656372656173656420616c6c6f77616e63652062656c6f77207a65726fa264697066735822122069a94b4190fe4204521f185375175472fa777f0f59edf162489bbd1a5bdb764264736f6c6343000706003342616c616e636572203230555344432d3830544858204761756765204465706f736974",
    "linkReferences": {},
    "deployedLinkReferences": {}
}