{
    "_format": "hh-sol-artifact-1",
    "contractName": "BPTGauge",
    "sourceName": "contracts/mock/BPTGauge.sol",
    "abi": [
        {
            "inputs": [
                {
                    "internalType": "address",
                    "name": "_bpt",
                    "type": "address"
                }
            ],
            "stateMutability": "nonpayable",
            "type": "constructor"
        },
        {
            "anonymous": false,
            "inputs": [
                {
                    "indexed": true,
                    "internalType": "address",
                    "name": "owner",
                    "type": "address"
                },
                {
                    "indexed": true,
                    "internalType": "address",
                    "name": "spender",
                    "type": "address"
                },
                {
                    "indexed": false,
                    "internalType": "uint256",
                    "name": "value",
                    "type": "uint256"
                }
            ],
            "name": "Approval",
            "type": "event"
        },
        {
            "anonymous": false,
            "inputs": [
                {
                    "indexed": true,
                    "internalType": "address",
                    "name": "user",
                    "type": "address"
                },
                {
                    "indexed": false,
                    "internalType": "uint256",
                    "name": "value",
                    "type": "uint256"
                }
            ],
            "name": "Deposit",
            "type": "event"
        },
        {
            "anonymous": false,
            "inputs": [
                {
                    "indexed": true,
                    "internalType": "address",
                    "name": "from",
                    "type": "address"
                },
                {
                    "indexed": true,
                    "internalType": "address",
                    "name": "to",
                    "type": "address"
                },
                {
                    "indexed": false,
                    "internalType": "uint256",
                    "name": "value",
                    "type": "uint256"
                }
            ],
            "name": "Transfer",
            "type": "event"
        },
        {
            "anonymous": false,
            "inputs": [
                {
                    "indexed": true,
                    "internalType": "address",
                    "name": "user",
                    "type": "address"
                },
                {
                    "indexed": false,
                    "internalType": "uint256",
                    "name": "value",
                    "type": "uint256"
                }
            ],
            "name": "Withdraw",
            "type": "event"
        },
        {
            "inputs": [
                {
                    "internalType": "address",
                    "name": "owner",
                    "type": "address"
                },
                {
                    "internalType": "address",
                    "name": "spender",
                    "type": "address"
                }
            ],
            "name": "allowance",
            "outputs": [
                {
                    "internalType": "uint256",
                    "name": "",
                    "type": "uint256"
                }
            ],
            "stateMutability": "view",
            "type": "function"
        },
        {
            "inputs": [
                {
                    "internalType": "address",
                    "name": "spender",
                    "type": "address"
                },
                {
                    "internalType": "uint256",
                    "name": "amount",
                    "type": "uint256"
                }
            ],
            "name": "approve",
            "outputs": [
                {
                    "internalType": "bool",
                    "name": "",
                    "type": "bool"
                }
            ],
            "stateMutability": "nonpayable",
            "type": "function"
        },
        {
            "inputs": [
                {
                    "internalType": "address",
                    "name": "account",
                    "type": "address"
                }
            ],
            "name": "balanceOf",
            "outputs": [
                {
                    "internalType": "uint256",
                    "name": "",
                    "type": "uint256"
                }
            ],
            "stateMutability": "view",
            "type": "function"
        },
        {
            "inputs": [],
            "name": "bpt",
            "outputs": [
                {
                    "internalType": "contract ERC20",
                    "name": "",
                    "type": "address"
                }
            ],
            "stateMutability": "view",
            "type": "function"
        },
        {
            "inputs": [],
            "name": "decimals",
            "outputs": [
                {
                    "internalType": "uint8",
                    "name": "",
                    "type": "uint8"
                }
            ],
            "stateMutability": "view",
            "type": "function"
        },
        {
            "inputs": [
                {
                    "internalType": "address",
                    "name": "spender",
                    "type": "address"
                },
                {
                    "internalType": "uint256",
                    "name": "subtractedValue",
                    "type": "uint256"
                }
            ],
            "name": "decreaseAllowance",
            "outputs": [
                {
                    "internalType": "bool",
                    "name": "",
                    "type": "bool"
                }
            ],
            "stateMutability": "nonpayable",
            "type": "function"
        },
        {
            "inputs": [
                {
                    "internalType": "uint256",
                    "name": "_value",
                    "type": "uint256"
                }
            ],
            "name": "deposit",
            "outputs": [],
            "stateMutability": "nonpayable",
            "type": "function"
        },
        {
            "inputs": [
                {
                    "internalType": "address",
                    "name": "spender",
                    "type": "address"
                },
                {
                    "internalType": "uint256",
                    "name": "addedValue",
                    "type": "uint256"
                }
            ],
            "name": "increaseAllowance",
            "outputs": [
                {
                    "internalType": "bool",
                    "name": "",
                    "type": "bool"
                }
            ],
            "stateMutability": "nonpayable",
            "type": "function"
        },
        {
            "inputs": [],
            "name": "lp_token",
            "outputs": [
                {
                    "internalType": "address",
                    "name": "",
                    "type": "address"
                }
            ],
            "stateMutability": "view",
            "type": "function"
        },
        {
            "inputs": [],
            "name": "name",
            "outputs": [
                {
                    "internalType": "string",
                    "name": "",
                    "type": "string"
                }
            ],
            "stateMutability": "view",
            "type": "function"
        },
        {
            "inputs": [],
            "name": "symbol",
            "outputs": [
                {
                    "internalType": "string",
                    "name": "",
                    "type": "string"
                }
            ],
            "stateMutability": "view",
            "type": "function"
        },
        {
            "inputs": [],
            "name": "totalSupply",
            "outputs": [
                {
                    "internalType": "uint256",
                    "name": "",
                    "type": "uint256"
                }
            ],
            "stateMutability": "view",
            "type": "function"
        },
        {
            "inputs": [
                {
                    "internalType": "address",
                    "name": "recipient",
                    "type": "address"
                },
                {
                    "internalType": "uint256",
                    "name": "amount",
                    "type": "uint256"
                }
            ],
            "name": "transfer",
            "outputs": [
                {
                    "internalType": "bool",
                    "name": "",
                    "type": "bool"
                }
            ],
            "stateMutability": "nonpayable",
            "type": "function"
        },
        {
            "inputs": [
                {
                    "internalType": "address",
                    "name": "sender",
                    "type": "address"
                },
                {
                    "internalType": "address",
                    "name": "recipient",
                    "type": "address"
                },
                {
                    "internalType": "uint256",
                    "name": "amount",
                    "type": "uint256"
                }
            ],
            "name": "transferFrom",
            "outputs": [
                {
                    "internalType": "bool",
                    "name": "",
                    "type": "bool"
                }
            ],
            "stateMutability": "nonpayable",
            "type": "function"
        },
        {
            "inputs": [
                {
                    "internalType": "uint256",
                    "name": "_value",
                    "type": "uint256"
                }
            ],
            "name": "withdraw",
            "outputs": [],
            "stateMutability": "nonpayable",
            "type": "function"
        }
    ],
    "bytecode": "0x60806040523480156200001157600080fd5b5060405162000fd338038062000fd383398101604081905262000034916200018d565b60405180606001604052806023815260200162000fb060239139604051806040016040528060128152602001713230555344432d38305448582d676175676560701b815250816003908051906020019062000091929190620000e1565b508051620000a7906004906020840190620000e1565b5050600580546001600160a01b0390931661010002610100600160a81b031960ff19909416601217939093169290921790915550620001bd565b828054600181600116156101000203166002900490600052602060002090601f01602090048101928262000119576000855562000164565b82601f106200013457805160ff191683800117855562000164565b8280016001018555821562000164579182015b828111156200016457825182559160200191906001019062000147565b506200017292915062000176565b5090565b5b8082111562000172576000815560010162000177565b6000602082840312156200019f578081fd5b81516001600160a01b0381168114620001b6578182fd5b9392505050565b610de380620001cd6000396000f3fe608060405234801561001057600080fd5b50600436106100f55760003560e01c8063546af3c311610097578063a457c2d711610066578063a457c2d7146101d5578063a9059cbb146101e8578063b6b55f25146101fb578063dd62ed3e1461020e576100f5565b8063546af3c31461019d57806370a08231146101b257806382c63066146101c557806395d89b41146101cd576100f5565b806323b872dd116100d357806323b872dd1461014d5780632e1a7d4d14610160578063313ce56714610175578063395093511461018a576100f5565b806306fdde03146100fa578063095ea7b31461011857806318160ddd14610138575b600080fd5b610102610221565b60405161010f9190610c42565b60405180910390f35b61012b610126366004610b85565b6102b7565b60405161010f9190610c37565b6101406102d4565b60405161010f9190610c95565b61012b61015b366004610b4a565b6102da565b61017361016e366004610bce565b610361565b005b61017d61043b565b60405161010f9190610c9e565b61012b610198366004610b85565b610444565b6101a5610492565b60405161010f9190610be6565b6101406101c0366004610afe565b6104a6565b6101a56104c5565b6101026104d9565b61012b6101e3366004610b85565b61053a565b61012b6101f6366004610b85565b6105a2565b610173610209366004610bce565b6105b6565b61014061021c366004610b18565b610684565b60038054604080516020601f60026000196101006001881615020190951694909404938401819004810282018101909252828152606093909290918301828280156102ad5780601f10610282576101008083540402835291602001916102ad565b820191906000526020600020905b81548152906001019060200180831161029057829003601f168201915b5050505050905090565b60006102cb6102c46106af565b84846106b3565b50600192915050565b60025490565b60006102e784848461079f565b610357846102f36106af565b61035285604051806060016040528060288152602001610d18602891396001600160a01b038a166000908152600160205260408120906103316106af565b6001600160a01b0316815260208101919091526040016000205491906108fa565b6106b3565b5060019392505050565b60055460405163a9059cbb60e01b81526101009091046001600160a01b03169063a9059cbb906103979033908590600401610c1e565b602060405180830381600087803b1580156103b157600080fd5b505af11580156103c5573d6000803e3d6000fd5b505050506040513d601f19601f820116820180604052508101906103e99190610bae565b506103f6336000836102da565b50336001600160a01b03167f884edad9ce6fa2440d8a54cc123490eb96d2768479d49ff9c7366125a9424364826040516104309190610c95565b60405180910390a250565b60055460ff1690565b60006102cb6104516106af565b8461035285600160006104626106af565b6001600160a01b03908116825260208083019390935260409182016000908120918c168152925290205490610991565b60055461010090046001600160a01b031681565b6001600160a01b0381166000908152602081905260409020545b919050565b60055461010090046001600160a01b031690565b60048054604080516020601f60026000196101006001881615020190951694909404938401819004810282018101909252828152606093909290918301828280156102ad5780601f10610282576101008083540402835291602001916102ad565b60006102cb6105476106af565b8461035285604051806060016040528060258152602001610d8960259139600160006105716106af565b6001600160a01b03908116825260208083019390935260409182016000908120918d168152925290205491906108fa565b60006102cb6105af6106af565b848461079f565b6005546040516323b872dd60e01b81526101009091046001600160a01b0316906323b872dd906105ee90339030908690600401610bfa565b602060405180830381600087803b15801561060857600080fd5b505af115801561061c573d6000803e3d6000fd5b505050506040513d601f19601f820116820180604052508101906106409190610bae565b5061064b33826109f2565b336001600160a01b03167fe1fffcc4923d04b559f4d29a8bfc6cda04eb5b0d3c460751c2402c5c5cc9109c826040516104309190610c95565b6001600160a01b03918216600090815260016020908152604080832093909416825291909152205490565b3390565b6001600160a01b0383166106f85760405162461bcd60e51b8152600401808060200182810382526024815260200180610d656024913960400191505060405180910390fd5b6001600160a01b03821661073d5760405162461bcd60e51b8152600401808060200182810382526022815260200180610cd06022913960400191505060405180910390fd5b6001600160a01b03808416600081815260016020908152604080832094871680845294825291829020859055815185815291517f8c5be1e5ebec7d5bd14f71427d1e84f3dd0314c0f7b2291e5b200ac8c7c3b9259281900390910190a3505050565b6001600160a01b0383166107e45760405162461bcd60e51b8152600401808060200182810382526025815260200180610d406025913960400191505060405180910390fd5b6001600160a01b0382166108295760405162461bcd60e51b8152600401808060200182810382526023815260200180610cad6023913960400191505060405180910390fd5b610834838383610ae2565b61087181604051806060016040528060268152602001610cf2602691396001600160a01b03861660009081526020819052604090205491906108fa565b6001600160a01b0380851660009081526020819052604080822093909355908416815220546108a09082610991565b6001600160a01b038084166000818152602081815260409182902094909455805185815290519193928716927fddf252ad1be2c89b69c2b068fc378daa952ba7f163c4a11628f55a4df523b3ef92918290030190a3505050565b600081848411156109895760405162461bcd60e51b81526004018080602001828103825283818151815260200191508051906020019080838360005b8381101561094e578181015183820152602001610936565b50505050905090810190601f16801561097b5780820380516001836020036101000a031916815260200191505b509250505060405180910390fd5b505050900390565b6000828201838110156109eb576040805162461bcd60e51b815260206004820152601b60248201527f536166654d6174683a206164646974696f6e206f766572666c6f770000000000604482015290519081900360640190fd5b9392505050565b6001600160a01b038216610a4d576040805162461bcd60e51b815260206004820152601f60248201527f45524332303a206d696e7420746f20746865207a65726f206164647265737300604482015290519081900360640190fd5b610a5960008383610ae2565b600254610a669082610991565b6002556001600160a01b038216600090815260208190526040902054610a8c9082610991565b6001600160a01b0383166000818152602081815260408083209490945583518581529351929391927fddf252ad1be2c89b69c2b068fc378daa952ba7f163c4a11628f55a4df523b3ef9281900390910190a35050565b505050565b80356001600160a01b03811681146104c057600080fd5b600060208284031215610b0f578081fd5b6109eb82610ae7565b60008060408385031215610b2a578081fd5b610b3383610ae7565b9150610b4160208401610ae7565b90509250929050565b600080600060608486031215610b5e578081fd5b610b6784610ae7565b9250610b7560208501610ae7565b9150604084013590509250925092565b60008060408385031215610b97578182fd5b610ba083610ae7565b946020939093013593505050565b600060208284031215610bbf578081fd5b815180151581146109eb578182fd5b600060208284031215610bdf578081fd5b5035919050565b6001600160a01b0391909116815260200190565b6001600160a01b039384168152919092166020820152604081019190915260600190565b6001600160a01b03929092168252602082015260400190565b901515815260200190565b6000602080835283518082850152825b81811015610c6e57858101830151858201604001528201610c52565b81811115610c7f5783604083870101525b50601f01601f1916929092016040019392505050565b90815260200190565b60ff9190911681526020019056fe45524332303a207472616e7366657220746f20746865207a65726f206164647265737345524332303a20617070726f766520746f20746865207a65726f206164647265737345524332303a207472616e7366657220616d6f756e7420657863656564732062616c616e636545524332303a207472616e7366657220616d6f756e74206578636565647320616c6c6f77616e636545524332303a207472616e736665722066726f6d20746865207a65726f206164647265737345524332303a20617070726f76652066726f6d20746865207a65726f206164647265737345524332303a2064656372656173656420616c6c6f77616e63652062656c6f77207a65726fa2646970667358221220c7c47fe67d506faee0b09e632824a3d251bb26378d79d42a00f065795ba53ed564736f6c6343000706003342616c616e636572203230555344432d3830544858204761756765204465706f736974",
    "linkReferences": {},
    "deployedLinkReferences": {}
}