{
    "_format": "hh-sol-artifact-1",
    "contractName": "LensReward",
    "sourceName": "contracts/LensReward.sol",
    "abi": [
        {
            "inputs": [
                {
                    "internalType": "contract IRewardDistributor",
                    "name": "distributor",
                    "type": "address"
                },
                {
                    "internalType": "address",
                    "name": "user",
                    "type": "address"
                },
                {
                    "internalType": "contract IERC20",
                    "name": "token",
                    "type": "address"
                }
            ],
            "name": "getUserClaimableReward",
            "outputs": [
                {
                    "components": [
                        {
                            "internalType": "address",
                            "name": "token",
                            "type": "address"
                        },
                        {
                            "internalType": "uint256",
                            "name": "claimableAmount",
                            "type": "uint256"
                        }
                    ],
                    "internalType": "struct LensReward.ClaimableRewards",
                    "name": "",
                    "type": "tuple"
                }
            ],
            "stateMutability": "nonpayable",
            "type": "function"
        },
        {
            "inputs": [
                {
                    "internalType": "contract IRewardDistributor",
                    "name": "distributor",
                    "type": "address"
                },
                {
                    "internalType": "address",
                    "name": "user",
                    "type": "address"
                },
                {
                    "internalType": "contract IERC20[]",
                    "name": "tokens",
                    "type": "address[]"
                }
            ],
            "name": "getUserClaimableRewardsAll",
            "outputs": [
                {
                    "components": [
                        {
                            "internalType": "address",
                            "name": "token",
                            "type": "address"
                        },
                        {
                            "internalType": "uint256",
                            "name": "claimableAmount",
                            "type": "uint256"
                        }
                    ],
                    "internalType": "struct LensReward.ClaimableRewards[]",
                    "name": "",
                    "type": "tuple[]"
                }
            ],
            "stateMutability": "nonpayable",
            "type": "function"
        }
    ],
    "bytecode": "0x608060405234801561001057600080fd5b50610552806100206000396000f3fe608060405234801561001057600080fd5b50600436106100365760003560e01c80635753bfca1461003b57806360491ff414610064575b600080fd5b61004e61004936600461030f565b610084565b60405161005b919061035a565b60405180910390f35b61007761007236600461037c565b610221565b60405161005b9190610411565b60408051808201909152600080825260208201526040516370a0823160e01b81526001600160a01b038481166004830152600091908416906370a0823190602401602060405180830381865afa1580156100e2573d6000803e3d6000fd5b505050506040513d601f19601f820116820180604052508101906101069190610471565b60405163ca31879d60e01b81526001600160a01b03868116600483015285811660248301529192509086169063ca31879d906044016020604051808303816000875af115801561015a573d6000803e3d6000fd5b505050506040513d601f19601f8201168201806040525081019061017e9190610471565b506040516370a0823160e01b81526001600160a01b038581166004830152600091908516906370a0823190602401602060405180830381865afa1580156101c9573d6000803e3d6000fd5b505050506040513d601f19601f820116820180604052508101906101ed9190610471565b90506040518060400160405280856001600160a01b03168152602001838361021591906104a0565b90529695505050505050565b60608160008167ffffffffffffffff81111561023f5761023f6104b3565b60405190808252806020026020018201604052801561028457816020015b604080518082019091526000808252602082015281526020019060019003908161025d5790505b50905060005b828110156102ec576102be88888888858181106102a9576102a96104c9565b905060200201602081019061004991906104df565b8282815181106102d0576102d06104c9565b6020026020010181905250806102e590610503565b905061028a565b509695505050505050565b6001600160a01b038116811461030c57600080fd5b50565b60008060006060848603121561032457600080fd5b833561032f816102f7565b9250602084013561033f816102f7565b9150604084013561034f816102f7565b809150509250925092565b81516001600160a01b0316815260208083015190820152604081015b92915050565b6000806000806060858703121561039257600080fd5b843561039d816102f7565b935060208501356103ad816102f7565b9250604085013567ffffffffffffffff808211156103ca57600080fd5b818701915087601f8301126103de57600080fd5b8135818111156103ed57600080fd5b8860208260051b850101111561040257600080fd5b95989497505060200194505050565b602080825282518282018190526000919060409081850190868401855b828110156104645761045484835180516001600160a01b03168252602090810151910152565b928401929085019060010161042e565b5091979650505050505050565b60006020828403121561048357600080fd5b5051919050565b634e487b7160e01b600052601160045260246000fd5b818103818111156103765761037661048a565b634e487b7160e01b600052604160045260246000fd5b634e487b7160e01b600052603260045260246000fd5b6000602082840312156104f157600080fd5b81356104fc816102f7565b9392505050565b6000600182016105155761051561048a565b506001019056fea264697066735822122027644c9f1cbb10d96d582d4eeb73f545853df009df64befe97d316d4df9f2cf264736f6c63430008120033",
    "linkReferences": {},
    "deployedLinkReferences": {}
}