{
  "_format": "hh-sol-artifact-1",
  "contractName": "RewardDistributor",
  "sourceName": "contracts/RewardDistributor.sol",
  "abi": [
    {
      "inputs": [],
      "stateMutability": "nonpayable",
      "type": "constructor"
    },
    {
      "anonymous": false,
      "inputs": [
        {
          "indexed": true,
          "internalType": "address",
          "name": "newAdmin",
          "type": "address"
        }
      ],
      "name": "NewAdmin",
      "type": "event"
    },
    {
      "anonymous": false,
      "inputs": [
        {
          "indexed": false,
          "internalType": "address",
          "name": "user",
          "type": "address"
        },
        {
          "indexed": false,
          "internalType": "bool",
          "name": "enabled",
          "type": "bool"
        }
      ],
      "name": "OnlyCallerOptIn",
      "type": "event"
    },
    {
      "anonymous": false,
      "inputs": [
        {
          "indexed": false,
          "internalType": "contract IERC20",
          "name": "token",
          "type": "address"
        },
        {
          "indexed": false,
          "internalType": "uint256",
          "name": "amount",
          "type": "uint256"
        }
      ],
      "name": "RewardDeposit",
      "type": "event"
    },
    {
      "anonymous": false,
      "inputs": [
        {
          "indexed": true,
          "internalType": "address",
          "name": "token",
          "type": "address"
        }
      ],
      "name": "TokenAdded",
      "type": "event"
    },
    {
      "anonymous": false,
      "inputs": [
        {
          "indexed": false,
          "internalType": "contract IERC20",
          "name": "token",
          "type": "address"
        },
        {
          "indexed": false,
          "internalType": "uint256",
          "name": "amount",
          "type": "uint256"
        },
        {
          "indexed": false,
          "internalType": "uint256",
          "name": "lastCheckpointTimestamp",
          "type": "uint256"
        }
      ],
      "name": "TokenCheckpointed",
      "type": "event"
    },
    {
      "anonymous": false,
      "inputs": [
        {
          "indexed": false,
          "internalType": "address",
          "name": "user",
          "type": "address"
        },
        {
          "indexed": false,
          "internalType": "contract IERC20",
          "name": "token",
          "type": "address"
        },
        {
          "indexed": false,
          "internalType": "uint256",
          "name": "amount",
          "type": "uint256"
        },
        {
          "indexed": false,
          "internalType": "uint256",
          "name": "userTokenTimeCursor",
          "type": "uint256"
        }
      ],
      "name": "TokensClaimed",
      "type": "event"
    },
    {
      "inputs": [
        {
          "internalType": "address[]",
          "name": "tokens",
          "type": "address[]"
        }
      ],
      "name": "addAllowedRewardTokens",
      "outputs": [],
      "stateMutability": "nonpayable",
      "type": "function"
    },
    {
      "inputs": [],
      "name": "admin",
      "outputs": [
        {
          "internalType": "address",
          "name": "",
          "type": "address"
        }
      ],
      "stateMutability": "view",
      "type": "function"
    },
    {
      "inputs": [
        {
          "internalType": "address",
          "name": "",
          "type": "address"
        }
      ],
      "name": "allowedRewardTokens",
      "outputs": [
        {
          "internalType": "bool",
          "name": "",
          "type": "bool"
        }
      ],
      "stateMutability": "view",
      "type": "function"
    },
    {
      "inputs": [],
      "name": "checkpoint",
      "outputs": [],
      "stateMutability": "nonpayable",
      "type": "function"
    },
    {
      "inputs": [
        {
          "internalType": "contract IERC20",
          "name": "token",
          "type": "address"
        }
      ],
      "name": "checkpointToken",
      "outputs": [],
      "stateMutability": "nonpayable",
      "type": "function"
    },
    {
      "inputs": [
        {
          "internalType": "contract IERC20[]",
          "name": "tokens",
          "type": "address[]"
        }
      ],
      "name": "checkpointTokens",
      "outputs": [],
      "stateMutability": "nonpayable",
      "type": "function"
    },
    {
      "inputs": [
        {
          "internalType": "address",
          "name": "user",
          "type": "address"
        }
      ],
      "name": "checkpointUser",
      "outputs": [],
      "stateMutability": "nonpayable",
      "type": "function"
    },
    {
      "inputs": [
        {
          "internalType": "address",
          "name": "user",
          "type": "address"
        },
        {
          "internalType": "contract IERC20",
          "name": "token",
          "type": "address"
        }
      ],
      "name": "claimToken",
      "outputs": [
        {
          "internalType": "uint256",
          "name": "",
          "type": "uint256"
        }
      ],
      "stateMutability": "nonpayable",
      "type": "function"
    },
    {
      "inputs": [
        {
          "internalType": "address",
          "name": "user",
          "type": "address"
        },
        {
          "internalType": "contract IERC20[]",
          "name": "tokens",
          "type": "address[]"
        }
      ],
      "name": "claimTokens",
      "outputs": [
        {
          "internalType": "uint256[]",
          "name": "",
          "type": "uint256[]"
        }
      ],
      "stateMutability": "nonpayable",
      "type": "function"
    },
    {
      "inputs": [
        {
          "internalType": "contract IERC20",
          "name": "token",
          "type": "address"
        },
        {
          "internalType": "uint256",
          "name": "amount",
          "type": "uint256"
        }
      ],
      "name": "depositToken",
      "outputs": [],
      "stateMutability": "nonpayable",
      "type": "function"
    },
    {
      "inputs": [
        {
          "internalType": "contract IERC20[]",
          "name": "tokens",
          "type": "address[]"
        },
        {
          "internalType": "uint256[]",
          "name": "amounts",
          "type": "uint256[]"
        }
      ],
      "name": "depositTokens",
      "outputs": [],
      "stateMutability": "nonpayable",
      "type": "function"
    },
    {
      "inputs": [
        {
          "internalType": "contract IERC20",
          "name": "token",
          "type": "address"
        },
        {
          "internalType": "uint256",
          "name": "amount",
          "type": "uint256"
        }
      ],
      "name": "faucetDepositToken",
      "outputs": [],
      "stateMutability": "nonpayable",
      "type": "function"
    },
    {
      "inputs": [],
      "name": "getAllowedRewardTokens",
      "outputs": [
        {
          "internalType": "address[]",
          "name": "",
          "type": "address[]"
        }
      ],
      "stateMutability": "view",
      "type": "function"
    },
    {
      "inputs": [],
      "name": "getDomainSeparator",
      "outputs": [
        {
          "internalType": "bytes32",
          "name": "",
          "type": "bytes32"
        }
      ],
      "stateMutability": "view",
      "type": "function"
    },
    {
      "inputs": [
        {
          "internalType": "address",
          "name": "account",
          "type": "address"
        }
      ],
      "name": "getNextNonce",
      "outputs": [
        {
          "internalType": "uint256",
          "name": "",
          "type": "uint256"
        }
      ],
      "stateMutability": "view",
      "type": "function"
    },
    {
      "inputs": [],
      "name": "getTimeCursor",
      "outputs": [
        {
          "internalType": "uint256",
          "name": "",
          "type": "uint256"
        }
      ],
      "stateMutability": "view",
      "type": "function"
    },
    {
      "inputs": [
        {
          "internalType": "contract IERC20",
          "name": "token",
          "type": "address"
        }
      ],
      "name": "getTokenLastBalance",
      "outputs": [
        {
          "internalType": "uint256",
          "name": "",
          "type": "uint256"
        }
      ],
      "stateMutability": "view",
      "type": "function"
    },
    {
      "inputs": [
        {
          "internalType": "contract IERC20",
          "name": "token",
          "type": "address"
        }
      ],
      "name": "getTokenTimeCursor",
      "outputs": [
        {
          "internalType": "uint256",
          "name": "",
          "type": "uint256"
        }
      ],
      "stateMutability": "view",
      "type": "function"
    },
    {
      "inputs": [
        {
          "internalType": "contract IERC20",
          "name": "token",
          "type": "address"
        },
        {
          "internalType": "uint256",
          "name": "timestamp",
          "type": "uint256"
        }
      ],
      "name": "getTokensDistributedInWeek",
      "outputs": [
        {
          "internalType": "uint256",
          "name": "",
          "type": "uint256"
        }
      ],
      "stateMutability": "view",
      "type": "function"
    },
    {
      "inputs": [
        {
          "internalType": "uint256",
          "name": "timestamp",
          "type": "uint256"
        }
      ],
      "name": "getTotalSupplyAtTimestamp",
      "outputs": [
        {
          "internalType": "uint256",
          "name": "",
          "type": "uint256"
        }
      ],
      "stateMutability": "view",
      "type": "function"
    },
    {
      "inputs": [
        {
          "internalType": "address",
          "name": "user",
          "type": "address"
        },
        {
          "internalType": "uint256",
          "name": "timestamp",
          "type": "uint256"
        }
      ],
      "name": "getUserBalanceAtTimestamp",
      "outputs": [
        {
          "internalType": "uint256",
          "name": "",
          "type": "uint256"
        }
      ],
      "stateMutability": "view",
      "type": "function"
    },
    {
      "inputs": [
        {
          "internalType": "address",
          "name": "user",
          "type": "address"
        }
      ],
      "name": "getUserTimeCursor",
      "outputs": [
        {
          "internalType": "uint256",
          "name": "",
          "type": "uint256"
        }
      ],
      "stateMutability": "view",
      "type": "function"
    },
    {
      "inputs": [
        {
          "internalType": "address",
          "name": "user",
          "type": "address"
        },
        {
          "internalType": "contract IERC20",
          "name": "token",
          "type": "address"
        }
      ],
      "name": "getUserTokenTimeCursor",
      "outputs": [
        {
          "internalType": "uint256",
          "name": "",
          "type": "uint256"
        }
      ],
      "stateMutability": "view",
      "type": "function"
    },
    {
      "inputs": [],
      "name": "getVotingEscrow",
      "outputs": [
        {
          "internalType": "contract IVotingEscrow",
          "name": "",
          "type": "address"
        }
      ],
      "stateMutability": "view",
      "type": "function"
    },
    {
      "inputs": [
        {
          "internalType": "contract IVotingEscrow",
          "name": "votingEscrow",
          "type": "address"
        },
        {
          "internalType": "contract IRewardFaucet",
          "name": "rewardFaucet_",
          "type": "address"
        },
        {
          "internalType": "uint256",
          "name": "startTime",
          "type": "uint256"
        },
        {
          "internalType": "address",
          "name": "admin_",
          "type": "address"
        }
      ],
      "name": "initialize",
      "outputs": [],
      "stateMutability": "nonpayable",
      "type": "function"
    },
    {
      "inputs": [],
      "name": "isInitialized",
      "outputs": [
        {
          "internalType": "bool",
          "name": "",
          "type": "bool"
        }
      ],
      "stateMutability": "view",
      "type": "function"
    },
    {
      "inputs": [
        {
          "internalType": "address",
          "name": "user",
          "type": "address"
        }
      ],
      "name": "isOnlyCallerEnabled",
      "outputs": [
        {
          "internalType": "bool",
          "name": "",
          "type": "bool"
        }
      ],
      "stateMutability": "view",
      "type": "function"
    },
    {
      "inputs": [],
      "name": "rewardFaucet",
      "outputs": [
        {
          "internalType": "contract IRewardFaucet",
          "name": "",
          "type": "address"
        }
      ],
      "stateMutability": "view",
      "type": "function"
    },
    {
      "inputs": [
        {
          "internalType": "bool",
          "name": "enabled",
          "type": "bool"
        }
      ],
      "name": "setOnlyCallerCheck",
      "outputs": [],
      "stateMutability": "nonpayable",
      "type": "function"
    },
    {
      "inputs": [
        {
          "internalType": "address",
          "name": "user",
          "type": "address"
        },
        {
          "internalType": "bool",
          "name": "enabled",
          "type": "bool"
        },
        {
          "internalType": "bytes",
          "name": "signature",
          "type": "bytes"
        }
      ],
      "name": "setOnlyCallerCheckWithSignature",
      "outputs": [],
      "stateMutability": "nonpayable",
      "type": "function"
    },
    {
      "inputs": [
        {
          "internalType": "address",
          "name": "newAdmin",
          "type": "address"
        }
      ],
      "name": "transferAdmin",
      "outputs": [],
      "stateMutability": "nonpayable",
      "type": "function"
    }
  ],
  "bytecode": "0x60e060405234801561001057600080fd5b5060408051808201825260118152702932bbb0b9322234b9ba3934b13aba37b960791b602080830191825283518085019094526001808552603160f81b9185019182529251909120608052915190912060a0527f8b73c3c69bb8fe3d512ecc4cf759cc79239f7b179b0ffacaa9a75d522b39400f60c05260025560805160a05160c0516129716100b660003980611bfd525080611c3f525080611c1e52506129716000f3fe608060405234801561001057600080fd5b50600436106101e55760003560e01c806390193b7c1161010f578063de681faf116100a2578063ed3a088711610071578063ed3a0887146103ea578063f213bd8c146103fd578063f851a44014610410578063fcaa54ee14610418576101e5565b8063de681faf146103a7578063e811f44b146103ba578063ece7514d146103cd578063ed24911d146103e2576101e5565b8063be203094116100de578063be20309414610366578063c2c4c5c114610379578063ca31879d14610381578063d3dc4ca114610394576101e5565b806390193b7c1461031a578063905d10ac1461032d578063a1648aa514610340578063acbc142814610353576101e5565b80634c9a47d8116101875780638050a7ee116101565780638050a7ee146102cc57806382aa5ad4146102df578063876e69a1146102e757806388720467146102fa576101e5565b80634c9a47d8146102805780634f3c50901461029357806375829def146102a65780637b8d6221146102b9576101e5565b8063338b5dea116101c3578063338b5dea1461023d5780633902b9bc14610250578063392e53cd14610263578063397bcd4114610278576101e5565b806308b0308a146101ea57806314866e08146102085780632308805b1461021d575b600080fd5b6101f261042b565b6040516101ff9190612605565b60405180910390f35b61021b6102163660046122db565b61043f565b005b61023061022b3660046122db565b61045b565b6040516101ff91906126df565b61021b61024b36600461242d565b61048a565b61021b61025e3660046122db565b610543565b61026b610556565b6040516101ff91906126d4565b6101f261055f565b61021b61028e36600461242d565b61056e565b6102306102a13660046125d5565b6105fb565b61021b6102b43660046122db565b61060d565b61021b6102c7366004612497565b6106a7565b6102306102da3660046123f5565b610846565b61023061085b565b6102306102f53660046122db565b610861565b61030d6103083660046122f7565b61088c565b6040516101ff919061269c565b6102306103283660046122db565b6109f1565b61021b61033b366004612458565b610a0c565b61026b61034e3660046122db565b610a41565b6102306103613660046122db565b610a5f565b61021b610374366004612519565b610a8a565b61021b610c2c565b61023061038f3660046123f5565b610c46565b6102306103a236600461242d565b610cf0565b6102306103b536600461242d565b610d18565b61021b6103c83660046124ff565b610d40565b6103d5610d4a565b6040516101ff919061265b565b610230610dac565b61026b6103f83660046122db565b610dbb565b61021b61040b366004612458565b610dd0565b6101f2610f6b565b61021b610426366004612349565b610f7a565b60035461010090046001600160a01b031690565b610447611008565b6104508161101f565b610458611415565b50565b6001600160a01b0381166000908152600b6020526040902054600160801b90046001600160801b03165b919050565b610492611008565b6001600160a01b0382166000908152600a602052604090205460ff166104d35760405162461bcd60e51b81526004016104ca90612730565b60405180910390fd5b6104de82600061141c565b6104f36001600160a01b038316333084611747565b6104fe82600161141c565b7f95bf5847357310d24f8d03d8bad76c8ee329dfd3a3cb200df21c7bd1619e93bd828260405161052f929190612642565b60405180910390a161053f611415565b5050565b61054b611008565b61045081600161141c565b60035460ff1681565b6004546001600160a01b031681565b6001600160a01b0382166000908152600a602052604090205460ff166105a65760405162461bcd60e51b81526004016104ca90612730565b6004546001600160a01b031633146105d05760405162461bcd60e51b81526004016104ca906127d1565b6105db82600061141c565b6105f06001600160a01b038316333084611747565b61053f82600161141c565b60009081526007602052604090205490565b6008546001600160a01b031633146106375760405162461bcd60e51b81526004016104ca906128e0565b6001600160a01b03811661065d5760405162461bcd60e51b81526004016104ca90612872565b600880546001600160a01b0319166001600160a01b0383169081179091556040517f71614071b88dee5e0b2ae578a9dd7b2ebbe9ae832ba419dc0242cd065a290b6c90600090a250565b6106af611008565b6106b983826117a1565b8260005b8181101561083657600a60008787848181106106d557fe5b90506020020160208101906106ea91906122db565b6001600160a01b0316815260208101919091526040016000205460ff166107235760405162461bcd60e51b81526004016104ca90612730565b61074e86868381811061073257fe5b905060200201602081019061074791906122db565b600061141c565b610798333086868581811061075f57fe5b9050602002013589898681811061077257fe5b905060200201602081019061078791906122db565b6001600160a01b0316929190611747565b6107c38686838181106107a757fe5b90506020020160208101906107bc91906122db565b600161141c565b7f95bf5847357310d24f8d03d8bad76c8ee329dfd3a3cb200df21c7bd1619e93bd8686838181106107f057fe5b905060200201602081019061080591906122db565b85858481811061081157fe5b90506020020135604051610826929190612642565b60405180910390a16001016106bd565b5050610840611415565b50505050565b600061085283836117ae565b90505b92915050565b60065490565b6001600160a01b03166000908152600d6020526040902054600160401b90046001600160401b031690565b6060610896611008565b836108a08161182b565b6108a8611863565b6108b18561101f565b826000816001600160401b03811180156108ca57600080fd5b506040519080825280602002602001820160405280156108f4578160200160208202803683370190505b50905060005b828110156109dd5761091187878381811061073257fe5b61093b8888888481811061092157fe5b905060200201602081019061093691906122db565b6119b7565b82828151811061094757fe5b60209081029190910101526004546001600160a01b031663c7b56abe88888481811061096f57fe5b905060200201602081019061098491906122db565b6040518263ffffffff1660e01b81526004016109a09190612605565b600060405180830381600087803b1580156109ba57600080fd5b505af11580156109ce573d6000803e3d6000fd5b505050508060010190506108fa565b50925050506109ea611415565b9392505050565b6001600160a01b031660009081526020819052604090205490565b610a14611008565b8060005b81811015610a3757610a2f8484838181106107a757fe5b600101610a18565b505061053f611415565b6001600160a01b031660009081526001602052604090205460ff1690565b6001600160a01b03166000908152600b6020526040902054600160401b90046001600160401b031690565b60035460ff1615610aad5760405162461bcd60e51b81526004016104ca90612792565b6003805460ff191660011790556001600160a01b03811615801590610ada57506001600160a01b03831615155b610af65760405162461bcd60e51b81526004016104ca906127b2565b600880546001600160a01b038084166001600160a01b0319928316179092556004805486841692169190911790556003805491861661010002610100600160a81b0319909216919091179055610b4b82611b89565b91506000610b5842611b89565b905080831015610b7a5760405162461bcd60e51b81526004016104ca9061283d565b80831415610c1e5760405163bd85b03960e01b81526000906001600160a01b0387169063bd85b03990610bb19085906004016126df565b60206040518083038186803b158015610bc957600080fd5b505afa158015610bdd573d6000803e3d6000fd5b505050506040513d601f19601f82011682018060405250810190610c0191906125ed565b11610c1e5760405162461bcd60e51b81526004016104ca90612898565b505060058190556006555050565b610c34611008565b610c3c611863565b610c44611415565b565b6000610c50611008565b82610c5a8161182b565b610c62611863565b610c6b8461101f565b610c7683600061141c565b6000610c8285856119b7565b600480546040516363dab55f60e11b81529293506001600160a01b03169163c7b56abe91610cb291889101612605565b600060405180830381600087803b158015610ccc57600080fd5b505af1158015610ce0573d6000803e3d6000fd5b5092945050505050610855611415565b6001600160a01b03919091166000908152600c60209081526040808320938352929052205490565b6001600160a01b03919091166000908152600e60209081526040808320938352929052205490565b6104583382611b95565b60606009805480602002602001604051908101604052809291908181526020018280548015610da257602002820191906000526020600020905b81546001600160a01b03168152600190910190602001808311610d84575b5050505050905090565b6000610db6611bf9565b905090565b600a6020526000908152604090205460ff1681565b6008546001600160a01b03163314610dfa5760405162461bcd60e51b81526004016104ca906128e0565b60005b81811015610f6657600a6000848484818110610e1557fe5b9050602002016020810190610e2a91906122db565b6001600160a01b0316815260208101919091526040016000205460ff1615610e645760405162461bcd60e51b81526004016104ca90612709565b6001600a6000858585818110610e7657fe5b9050602002016020810190610e8b91906122db565b6001600160a01b031681526020810191909152604001600020805460ff19169115159190911790556009838383818110610ec157fe5b9050602002016020810190610ed691906122db565b81546001810183556000928352602090922090910180546001600160a01b0319166001600160a01b03909216919091179055828282818110610f1457fe5b9050602002016020810190610f2991906122db565b6001600160a01b03167f784c8f4dbf0ffedd6e72c76501c545a70f8b203b30a26ce542bf92ba87c248a460405160405180910390a2600101610dfd565b505050565b6008546001600160a01b031681565b60007fbd291ffccec065968fe20c5f8debdad73ab50837733f357eeae8814178015a908484610fa8876109f1565b60405160200180858152602001846001600160a01b031681526020018315158152602001828152602001945050505050604051602081830303815290604052805190602001209050610ffe8482846101f8611cb7565b6108408484611b95565b611019600280541415610190611cc6565b60028055565b60035460405163010ae75760e01b815260009161010090046001600160a01b03169063010ae75790611055908590600401612605565b60206040518083038186803b15801561106d57600080fd5b505afa158015611081573d6000803e3d6000fd5b505050506040513d601f19601f820116820180604052508101906110a591906125ed565b9050806110b25750610458565b6001600160a01b0382166000908152600d6020526040812080549091600160401b9091046001600160401b031690816110fb576110f485600554600087611cd4565b9050611138565b42821061110b5750505050610458565b508154600160801b90046001600160801b0316601481850311156111385761113585838387611cd4565b90505b80611141575060015b6003546040516328d09d4760e01b815260009161010090046001600160a01b0316906328d09d47906111799089908690600401612642565b60806040518083038186803b15801561119157600080fd5b505afa1580156111a5573d6000803e3d6000fd5b505050506040513d601f19601f820116820180604052508101906111c9919061256b565b9050826112265760055442116111f15760405162461bcd60e51b81526004016104ca906127f6565b6112096005546112048360400151611db3565b611dc3565b845467ffffffffffffffff19166001600160401b03821617855592505b61122e612243565b60005b60328110156113c8578260400151851015801561124e5750868411155b1561132457600184019350829150868411156112965760405180608001604052806000600f0b81526020016000600f0b8152602001600081526020016000815250925061131f565b6003546040516328d09d4760e01b81526101009091046001600160a01b0316906328d09d47906112cc908b908890600401612642565b60806040518083038186803b1580156112e457600080fd5b505afa1580156112f8573d6000803e3d6000fd5b505050506040513d601f19601f8201168201806040525081019061131c919061256b565b92505b6113c0565b428510611330576113c8565b6000826040015186039050600081846020015102600f0b8460000151600f0b1361135b57600061136c565b81846020015102846000015103600f0b5b90508015801561137b57508886115b156113925761138942611db3565b965050506113c8565b6001600160a01b038a166000908152600e602090815260408083208a84529091529020555062093a80909401935b600101611231565b505083546001600160801b0316600019929092016001600160401b03908116600160801b029290921767ffffffffffffffff60401b1916600160401b939092169290920217909155505050565b6001600255565b6001600160a01b0382166000908152600b6020526040812080549091600160401b9091046001600160401b0316908161149d5742915061145b42611b89565b835467ffffffffffffffff19166001600160401b039190911617835560055442116114985760405162461bcd60e51b81526004016104ca906127f6565b6114ef565b8142039050836114ef5760006114b283611b89565b6114bb42611b89565b149050600062015180426114ce42611db3565b031090508180156114dd575080155b156114ec57505050505061053f565b50505b825467ffffffffffffffff60401b1916600160401b426001600160401b0316021783556040516370a0823160e01b81526000906001600160a01b038716906370a0823190611541903090600401612605565b60206040518083038186803b15801561155957600080fd5b505afa15801561156d573d6000803e3d6000fd5b505050506040513d601f19601f8201168201806040525081019061159191906125ed565b84549091506000906115b4908390600160801b90046001600160801b0316611dcf565b9050806115c557505050505061053f565b6001600160801b038211156115ec5760405162461bcd60e51b81526004016104ca9061275b565b84546001600160801b03808416600160801b029116178555600061160f85611b89565b6001600160a01b0389166000908152600c6020526040812091925090815b60148110156116ff578362093a800192508242101561169d578615801561165357508742145b15611671576000848152602083905260409020805486019055611698565b8688420386028161167e57fe5b600086815260208590526040902080549290910490910190555b6116ff565b861580156116aa57508783145b156116c85760008481526020839052604090208054860190556116ef565b868884038602816116d557fe5b600086815260208590526040902080549290910490910190555b919650869250829160010161162d565b507f9b7f1a85a4c9b4e59e1b6527d9969c50cdfb3a1a467d0c4a51fb0ed8bf07f1308a8589604051611733939291906126e8565b60405180910390a150505050505050505050565b604080516001600160a01b0380861660248301528416604482015260648082018490528251808303909101815260849091019091526020810180516001600160e01b03166323b872dd60e01b179052610840908590611ddd565b61053f8183146067611cc6565b6001600160a01b038083166000908152600f6020908152604080832093851683529290529081205480156117e3579050610855565b6001600160a01b038085166000908152600d60209081526040808320549387168352600b909152902054611823916001600160401b039081169116611dc3565b949350505050565b6001600160a01b03811660009081526001602052604090205460ff161561045857610458336001600160a01b03831614610191611cc6565b600654600061187142611b89565b90508082118061188057504281145b1561188c575050610c44565b600360019054906101000a90046001600160a01b03166001600160a01b031663c2c4c5c16040518163ffffffff1660e01b8152600401600060405180830381600087803b1580156118dc57600080fd5b505af11580156118f0573d6000803e3d6000fd5b5050505060005b60148110156119b0578183111561190d576119b0565b60035460405163bd85b03960e01b81526101009091046001600160a01b03169063bd85b039906119419086906004016126df565b60206040518083038186803b15801561195957600080fd5b505afa15801561196d573d6000803e3d6000fd5b505050506040513d601f19601f8201168201806040525081019061199191906125ed565b60008481526007602052604090205562093a80909201916001016118f7565b5050600655565b6001600160a01b0381166000908152600b60205260408120816119da85856117ae565b6006546001600160a01b0387166000908152600d602052604081205492935091611a4191611a2191611a1c9190600160401b90046001600160401b0316611ec7565b611db3565b8454611a3c90600160401b90046001600160401b0316611b89565b611ec7565b6001600160a01b038087166000908152600c60209081526040808320938b168352600e9091528120929350909190805b6014811015611add57848610611a8657611add565b600086815260076020526040902054611a9e57611add565b60008681526007602090815260408083205486835281842054928890529220540281611ac657fe5b62093a809790970196049190910190600101611a71565b506001600160a01b03808a166000908152600f60209081526040808320938c168352929052208590558015611b7d5785546001600160801b03600160801b80830482168490038216029116178655611b3f6001600160a01b0389168a83611ed3565b7fff097c7d8b1957a4ff09ef1361b5fb54dcede3941ba836d0beb9d10bec725de689898388604051611b749493929190612619565b60405180910390a15b98975050505050505050565b62093a80908190040290565b6001600160a01b038216600081815260016020908152604091829020805460ff191685151590811790915582519384529083015280517fac9874a7a931a3f5c9f202c6d9cf40de5d21506993c9f9c38ca8265add89584c9281900390910190a15050565b60007f00000000000000000000000000000000000000000000000000000000000000007f00000000000000000000000000000000000000000000000000000000000000007f0000000000000000000000000000000000000000000000000000000000000000611c66611f25565b3060405160200180868152602001858152602001848152602001838152602001826001600160a01b031681526020019550505050505060405160208183030381529060405280519060200120905090565b61084084848460001985611f29565b8161053f5761053f81611f80565b60008282825b6080811015611da757818310611cef57611da7565b6003546040516328d09d4760e01b81526002858501810104916000916101009091046001600160a01b0316906328d09d4790611d31908d908690600401612642565b60806040518083038186803b158015611d4957600080fd5b505afa158015611d5d573d6000803e3d6000fd5b505050506040513d601f19601f82011682018060405250810190611d81919061256b565b905088816040015111611d9657819450611d9d565b6001820393505b5050600101611cda565b50909695505050505050565b600061085562093a7f8301611b89565b80820390821002900390565b600061085283836001611f90565b600080836001600160a01b0316836040518082805190602001908083835b60208310611e1a5780518252601f199092019160209182019101611dfb565b6001836020036101000a0380198251168184511680821785525050505050509050019150506000604051808303816000865af19150503d8060008114611e7c576040519150601f19603f3d011682016040523d82523d6000602084013e611e81565b606091505b50915091506000821415611e99573d6000803e3d6000fd5b610840815160001480611ebf5750818060200190516020811015611ebc57600080fd5b50515b6101a2611cc6565b80820390821102900390565b604080516001600160a01b038416602482015260448082018490528251808303909101815260649091019091526020810180516001600160e01b031663a9059cbb60e01b179052610f66908490611ddd565b4690565b6000611f3485611fa6565b9050611f4a611f44878387611ff2565b83611cc6565b611f59428410156101b8611cc6565b5050506001600160a01b039092166000908152602081905260409020805460010190555050565b610458816210905360ea1b612110565b6000611f9f8484111583611cc6565b5050900390565b6000611fb0611bf9565b82604051602001808061190160f01b81525060020183815260200182815260200192505050604051602081830303815290604052805190602001209050919050565b6000612006846001600160a01b0316612171565b156120fe5760408051630b135d3f60e11b808252600482018681526024830193845285516044840152855191936001600160a01b03891693631626ba7e938993899390929091606490910190602085019080838360005b8381101561207557818101518382015260200161205d565b50505050905090810190601f1680156120a25780820380516001836020036101000a031916815260200191505b50935050505060206040518083038186803b1580156120c057600080fd5b505afa1580156120d4573d6000803e3d6000fd5b505050506040513d60208110156120ea57600080fd5b50516001600160e01b0319161490506109ea565b612109848484612177565b90506109ea565b62461bcd60e51b600090815260206004526007602452600a808404818106603090810160081b958390069590950190829004918206850160101b01602363ffffff0060e086901c160160181b0190930160c81b60445260e882901c90606490fd5b3b151590565b600061218982516041146101b9611cc6565b60008060006020850151925060408501519150606085015160001a9050600060018783868660405160008152602001604052604051808581526020018460ff1681526020018381526020018281526020019450505050506020604051602081039080840390855afa158015612202573d6000803e3d6000fd5b5050604051601f1901519150506001600160a01b03811615801590611b7d5750876001600160a01b0316816001600160a01b03161498975050505050505050565b60405180608001604052806000600f0b81526020016000600f0b815260200160008152602001600081525090565b60008083601f840112612282578081fd5b5081356001600160401b03811115612298578182fd5b60208301915083602080830285010111156122b257600080fd5b9250929050565b8035801515811461048557600080fd5b8051600f81900b811461048557600080fd5b6000602082840312156122ec578081fd5b81356109ea81612926565b60008060006040848603121561230b578182fd5b833561231681612926565b925060208401356001600160401b03811115612330578283fd5b61233c86828701612271565b9497909650939450505050565b60008060006060848603121561235d578283fd5b833561236881612926565b925060206123778582016122b9565b925060408501356001600160401b0380821115612392578384fd5b818701915087601f8301126123a5578384fd5b8135818111156123b157fe5b6123c3601f8201601f19168501612903565b915080825288848285010111156123d8578485fd5b808484018584013784848284010152508093505050509250925092565b60008060408385031215612407578182fd5b823561241281612926565b9150602083013561242281612926565b809150509250929050565b6000806040838503121561243f578182fd5b823561244a81612926565b946020939093013593505050565b6000806020838503121561246a578182fd5b82356001600160401b0381111561247f578283fd5b61248b85828601612271565b90969095509350505050565b600080600080604085870312156124ac578081fd5b84356001600160401b03808211156124c2578283fd5b6124ce88838901612271565b909650945060208701359150808211156124e6578283fd5b506124f387828801612271565b95989497509550505050565b600060208284031215612510578081fd5b610852826122b9565b6000806000806080858703121561252e578182fd5b843561253981612926565b9350602085013561254981612926565b925060408501359150606085013561256081612926565b939692955090935050565b60006080828403121561257c578081fd5b604051608081018181106001600160401b038211171561259857fe5b6040526125a4836122c9565b81526125b2602084016122c9565b602082015260408301516040820152606083015160608201528091505092915050565b6000602082840312156125e6578081fd5b5035919050565b6000602082840312156125fe578081fd5b5051919050565b6001600160a01b0391909116815260200190565b6001600160a01b0394851681529290931660208301526040820152606081019190915260800190565b6001600160a01b03929092168252602082015260400190565b6020808252825182820181905260009190848201906040850190845b81811015611da75783516001600160a01b031683529284019291840191600101612677565b6020808252825182820181905260009190848201906040850190845b81811015611da7578351835292840192918401916001016126b8565b901515815260200190565b90815260200190565b6001600160a01b039390931683526020830191909152604082015260600190565b6020808252600d908201526c185b1c9958591e48195e1a5cdd609a1b604082015260600190565b6020808252601190820152701d1bdad95b881b9bdd08185b1b1bddd959607a1b604082015260600190565b6020808252601e908201527f4d6178696d756d20746f6b656e2062616c616e63652065786365656465640000604082015260600190565b60208082526006908201526521747769636560d01b604082015260600190565b602080825260059082015264217a65726f60d81b604082015260600190565b6020808252600b908201526a1bdb9b1e4819985d58d95d60aa1b604082015260600190565b60208082526027908201527f52657761726420646973747269627574696f6e20686173206e6f7420737461726040820152661d1959081e595d60ca1b606082015260800190565b6020808252818101527f43616e6e6f74207374617274206265666f72652063757272656e74207765656b604082015260600190565b6020808252600c908201526b7a65726f206164647265737360a01b604082015260600190565b60208082526028908201527f5a65726f20746f74616c20737570706c7920726573756c747320696e206c6f736040820152677420746f6b656e7360c01b606082015260800190565b6020808252600990820152683737ba1030b236b4b760b91b604082015260600190565b6040518181016001600160401b038111828210171561291e57fe5b604052919050565b6001600160a01b038116811461045857600080fdfea2646970667358221220ad324cd4ab8199491addf7b99db6d07b6c05fac36b389e2bc4570bccc1c406e864736f6c63430007060033",
  "linkReferences": {},
  "deployedLinkReferences": {}
}