{
    "_format": "hh-sol-artifact-1",
    "contractName": "RewardFaucet",
    "sourceName": "contracts/RewardFaucet.sol",
    "abi": [
        {
            "anonymous": false,
            "inputs": [
                {
                    "indexed": false,
                    "internalType": "address",
                    "name": "token",
                    "type": "address"
                },
                {
                    "indexed": false,
                    "internalType": "uint256",
                    "name": "amount",
                    "type": "uint256"
                },
                {
                    "indexed": false,
                    "internalType": "uint256",
                    "name": "weekStart",
                    "type": "uint256"
                }
            ],
            "name": "DistributePast",
            "type": "event"
        },
        {
            "anonymous": false,
            "inputs": [
                {
                    "indexed": false,
                    "internalType": "address",
                    "name": "token",
                    "type": "address"
                },
                {
                    "indexed": false,
                    "internalType": "uint256",
                    "name": "totalAmount",
                    "type": "uint256"
                },
                {
                    "indexed": false,
                    "internalType": "uint256",
                    "name": "weeksCount",
                    "type": "uint256"
                }
            ],
            "name": "ExactWeekDistribution",
            "type": "event"
        },
        {
            "anonymous": false,
            "inputs": [
                {
                    "indexed": false,
                    "internalType": "address",
                    "name": "token",
                    "type": "address"
                },
                {
                    "indexed": false,
                    "internalType": "uint256",
                    "name": "moveAmount",
                    "type": "uint256"
                },
                {
                    "indexed": false,
                    "internalType": "uint256",
                    "name": "pastWeekStart",
                    "type": "uint256"
                },
                {
                    "indexed": false,
                    "internalType": "uint256",
                    "name": "nextWeekStart",
                    "type": "uint256"
                }
            ],
            "name": "MovePastRewards",
            "type": "event"
        },
        {
            "anonymous": false,
            "inputs": [
                {
                    "indexed": false,
                    "internalType": "address",
                    "name": "token",
                    "type": "address"
                },
                {
                    "indexed": false,
                    "internalType": "uint256",
                    "name": "totalAmount",
                    "type": "uint256"
                },
                {
                    "indexed": false,
                    "internalType": "uint256",
                    "name": "weeksCount",
                    "type": "uint256"
                }
            ],
            "name": "WeeksDistributions",
            "type": "event"
        },
        {
            "inputs": [
                {
                    "internalType": "address",
                    "name": "token",
                    "type": "address"
                },
                {
                    "internalType": "uint256",
                    "name": "amount",
                    "type": "uint256"
                },
                {
                    "internalType": "uint256",
                    "name": "weeksCount",
                    "type": "uint256"
                }
            ],
            "name": "depositEqualWeeksPeriod",
            "outputs": [],
            "stateMutability": "nonpayable",
            "type": "function"
        },
        {
            "inputs": [
                {
                    "internalType": "address",
                    "name": "token",
                    "type": "address"
                },
                {
                    "internalType": "uint256",
                    "name": "amount",
                    "type": "uint256"
                },
                {
                    "internalType": "uint256",
                    "name": "weekTimeStamp",
                    "type": "uint256"
                }
            ],
            "name": "depositExactWeek",
            "outputs": [],
            "stateMutability": "nonpayable",
            "type": "function"
        },
        {
            "inputs": [
                {
                    "internalType": "address",
                    "name": "token",
                    "type": "address"
                }
            ],
            "name": "distributePastRewards",
            "outputs": [],
            "stateMutability": "nonpayable",
            "type": "function"
        },
        {
            "inputs": [
                {
                    "internalType": "address",
                    "name": "token",
                    "type": "address"
                },
                {
                    "internalType": "uint256",
                    "name": "pointOfWeek",
                    "type": "uint256"
                }
            ],
            "name": "getTokenWeekAmounts",
            "outputs": [
                {
                    "internalType": "uint256",
                    "name": "",
                    "type": "uint256"
                }
            ],
            "stateMutability": "view",
            "type": "function"
        },
        {
            "inputs": [
                {
                    "internalType": "address",
                    "name": "token",
                    "type": "address"
                },
                {
                    "internalType": "uint256",
                    "name": "weeksCount",
                    "type": "uint256"
                }
            ],
            "name": "getUpcomingRewardsForNWeeks",
            "outputs": [
                {
                    "internalType": "uint256[]",
                    "name": "",
                    "type": "uint256[]"
                }
            ],
            "stateMutability": "view",
            "type": "function"
        },
        {
            "inputs": [
                {
                    "internalType": "address",
                    "name": "_rewardDistributor",
                    "type": "address"
                }
            ],
            "name": "initialize",
            "outputs": [],
            "stateMutability": "nonpayable",
            "type": "function"
        },
        {
            "inputs": [],
            "name": "isInitialized",
            "outputs": [
                {
                    "internalType": "bool",
                    "name": "",
                    "type": "bool"
                }
            ],
            "stateMutability": "view",
            "type": "function"
        },
        {
            "inputs": [
                {
                    "internalType": "address",
                    "name": "token",
                    "type": "address"
                },
                {
                    "internalType": "uint256",
                    "name": "pastWeekTimestamp",
                    "type": "uint256"
                }
            ],
            "name": "movePastRewards",
            "outputs": [],
            "stateMutability": "nonpayable",
            "type": "function"
        },
        {
            "inputs": [],
            "name": "rewardDistributor",
            "outputs": [
                {
                    "internalType": "contract IRewardDistributor",
                    "name": "",
                    "type": "address"
                }
            ],
            "stateMutability": "view",
            "type": "function"
        },
        {
            "inputs": [
                {
                    "internalType": "address",
                    "name": "token",
                    "type": "address"
                },
                {
                    "internalType": "uint256",
                    "name": "weekStart",
                    "type": "uint256"
                }
            ],
            "name": "tokenWeekAmounts",
            "outputs": [
                {
                    "internalType": "uint256",
                    "name": "amount",
                    "type": "uint256"
                }
            ],
            "stateMutability": "view",
            "type": "function"
        },
        {
            "inputs": [
                {
                    "internalType": "address",
                    "name": "token",
                    "type": "address"
                }
            ],
            "name": "totalTokenRewards",
            "outputs": [
                {
                    "internalType": "uint256",
                    "name": "rewardAmount",
                    "type": "uint256"
                }
            ],
            "stateMutability": "view",
            "type": "function"
        }
    ],
    "bytecode": "0x608060405234801561001057600080fd5b506001600055611315806100256000396000f3fe608060405234801561001057600080fd5b50600436106100a95760003560e01c806367b870111161007157806367b8701114610139578063871451781461014c578063acc2166a14610177578063c4d66de8146101a7578063c7b56abe146101ba578063cdcea6ad146101cd57600080fd5b80632a419597146100ae5780632d9cd3bb146100c357806336bcebb1146100d6578063392e53cd146101095780635530d7bd14610126575b600080fd5b6100c16100bc3660046110b4565b6101ed565b005b6100c16100d13660046110b4565b6104f0565b6100f66100e43660046110e7565b60026020526000908152604090205481565b6040519081526020015b60405180910390f35b6001546101169060ff1681565b6040519015158152602001610100565b6100c1610134366004611109565b61076c565b6100f6610147366004611109565b610876565b6100f661015a366004611109565b600360209081526000928352604080842090915290825290205481565b60015461018f9061010090046001600160a01b031681565b6040516001600160a01b039091168152602001610100565b6100c16101b53660046110e7565b6108af565b6100c16101c83660046110e7565b610952565b6101e06101db366004611109565b610b28565b6040516101009190611133565b6101f5610c00565b600081118015610206575060688111155b61023f5760405162461bcd60e51b8152602060048201526005602482015264217765656b60d81b60448201526064015b60405180910390fd5b6001600160a01b0383166000818152600260205260408082205490516370a0823160e01b8152306004820152919290916370a0823190602401602060405180830381865afa158015610295573d6000803e3d6000fd5b505050506040513d601f19601f820116820180604052508101906102b99190611177565b6102c391906111a6565b905060008082116102d457836102de565b6102de82856111b9565b905060006102ec84836111cc565b9050836001146103fa57600061030142610c59565b905060025b8581116103c0578581036103715761031f6001876111a6565b61032990846111ee565b61033390856111a6565b6001600160a01b0389166000908152600360209081526040808320868452909152812080549091906103669084906111b9565b909155506103c09050565b6001600160a01b0388166000908152600360209081526040808320858452909152812080548592906103a49084906111b9565b90915550506001016103b962093a80836111b9565b9150610306565b506103cb82846111a6565b6001600160a01b038816600090815260026020526040812080549091906103f39084906111b9565b9091555050505b61040f6001600160a01b038716333088610c70565b6001546001600160a01b036101009091048116906104309088168284610ce1565b60405163099348fb60e31b81526001600160a01b03888116600483015260248201849052821690634c9a47d890604401600060405180830381600087803b15801561047a57600080fd5b505af115801561048e573d6000803e3d6000fd5b5050604080516001600160a01b038b168152602081018790529081018890527f4088fafdc9c718bca399ea616e6c39e860759e8cc97fbda29803d42b0bc6a2249250606001905060405180910390a1505050506104eb6001600055565b505050565b6104f8610c00565b61050142610d70565b811015801561051d5750610519426303bfc4006111b9565b8111155b6105545760405162461bcd60e51b8152602060048201526008602482015267626164207765656b60c01b6044820152606401610236565b6001600160a01b0383166000818152600260205260408082205490516370a0823160e01b8152306004820152919290916370a0823190602401602060405180830381865afa1580156105aa573d6000803e3d6000fd5b505050506040513d601f19601f820116820180604052508101906105ce9190611177565b6105d891906111a6565b905060008082116105e957836105f3565b6105f382856111b9565b905061060a6001600160a01b038616333087610c70565b600061061584610d70565b905061062042610d70565b81036106af576001546001600160a01b036101009091048116906106479088168285610ce1565b60405163099348fb60e31b81526001600160a01b03888116600483015260248201859052821690634c9a47d890604401600060405180830381600087803b15801561069157600080fd5b505af11580156106a5573d6000803e3d6000fd5b5050505050610715565b6001600160a01b0386166000908152600360209081526040808320848452909152812080548492906106e29084906111b9565b90915550506001600160a01b0386166000908152600260205260408120805484929061070f9084906111b9565b90915550505b604080516001600160a01b0388168152602081018490529081018290527fb86a33c5016189ecd35a2699118bc2fe7c716f81d4e837eef84dee0bb67875f59060600160405180910390a15050506104eb6001600055565b600061077782610d70565b905062530e8061078642610d70565b61079091906111a6565b81106107c95760405162461bcd60e51b8152602060048201526008602482015267216f75746461746560c01b6044820152606401610236565b60006107d442610c59565b6001600160a01b0385166000908152600360209081526040808320868452909152808220805490839055838352908220805493945090928392906108199084906111b9565b9091555050604080516001600160a01b038716815260208101839052908101849052606081018390527f6e9630aa131b46b81742f09d3aea83da20d184c4dbe662050e8d6d2d554503929060800160405180910390a15050505050565b60008061088283610d70565b6001600160a01b038516600090815260036020908152604080832093835292905220549150505b92915050565b60015460ff16156108eb5760405162461bcd60e51b815260206004820152600660248201526521747769636560d01b6044820152606401610236565b6001600160a01b0381166109295760405162461bcd60e51b8152602060048201526005602482015264217a65726f60d81b6044820152606401610236565b600180546001600160a01b03909216610100026001600160a81b03199092169190911781179055565b6001600160a01b03811660009081526002602052604081205490036109745750565b600061097f42610d70565b90506000805b600a811015610a20576001600160a01b0384166000908152600360209081526040808320868452909152812054908190036109cf576109c762093a80856111a6565b935050610a10565b6001600160a01b03851660009081526003602090815260408083208784529091528120556109fd81846111b9565b9250610a0c62093a80856111a6565b9350505b610a1981611205565b9050610985565b5080156104eb576001600160a01b03831660009081526002602052604081208054839290610a4f9084906111a6565b90915550506001546001600160a01b03610100909104811690610a759085168284610ce1565b60405163099348fb60e31b81526001600160a01b03858116600483015260248201849052821690634c9a47d890604401600060405180830381600087803b158015610abf57600080fd5b505af1158015610ad3573d6000803e3d6000fd5b5050604080516001600160a01b0388168152602081018690529081018690527f33d07963ee4e58f177134d0a37785787f0056ee388c04e4aff075e61e2856d6c9250606001905060405180910390a150505050565b60606000610b3542610d70565b905060008367ffffffffffffffff811115610b5257610b5261121e565b604051908082528060200260200182016040528015610b7b578160200160208202803683370190505b50905060005b84811015610bf7576001600160a01b038616600090815260036020526040812090610baf8362093a806111ee565b610bb990866111b9565b815260200190815260200160002054828281518110610bda57610bda611234565b602090810291909101015280610bef81611205565b915050610b81565b50949350505050565b600260005403610c525760405162461bcd60e51b815260206004820152601f60248201527f5265656e7472616e637947756172643a207265656e7472616e742063616c6c006044820152606401610236565b6002600055565b60006108a9610c6b8362093a806111b9565b610d70565b6040516001600160a01b0380851660248301528316604482015260648101829052610cdb9085906323b872dd60e01b906084015b60408051601f198184030181529190526020810180516001600160e01b03166001600160e01b031990931692909217909152610d8c565b50505050565b604080516001600160a01b038416602482015260448082018490528251808303909101815260649091019091526020810180516001600160e01b031663095ea7b360e01b179052610d328482610e61565b610cdb576040516001600160a01b038416602482015260006044820152610d6690859063095ea7b360e01b90606401610ca4565b610cdb8482610d8c565b6000610d7f62093a80836111cc565b6108a99062093a806111ee565b6000610de1826040518060400160405280602081526020017f5361666545524332303a206c6f772d6c6576656c2063616c6c206661696c6564815250856001600160a01b0316610f089092919063ffffffff16565b9050805160001480610e02575080806020019051810190610e02919061124a565b6104eb5760405162461bcd60e51b815260206004820152602a60248201527f5361666545524332303a204552433230206f7065726174696f6e20646964206e6044820152691bdd081cdd58d8d9595960b21b6064820152608401610236565b6000806000846001600160a01b031684604051610e7e9190611290565b6000604051808303816000865af19150503d8060008114610ebb576040519150601f19603f3d011682016040523d82523d6000602084013e610ec0565b606091505b5091509150818015610eea575080511580610eea575080806020019051810190610eea919061124a565b8015610eff57506001600160a01b0385163b15155b95945050505050565b6060610f178484600085610f1f565b949350505050565b606082471015610f805760405162461bcd60e51b815260206004820152602660248201527f416464726573733a20696e73756666696369656e742062616c616e636520666f6044820152651c8818d85b1b60d21b6064820152608401610236565b600080866001600160a01b03168587604051610f9c9190611290565b60006040518083038185875af1925050503d8060008114610fd9576040519150601f19603f3d011682016040523d82523d6000602084013e610fde565b606091505b5091509150610fef87838387610ffa565b979650505050505050565b60608315611069578251600003611062576001600160a01b0385163b6110625760405162461bcd60e51b815260206004820152601d60248201527f416464726573733a2063616c6c20746f206e6f6e2d636f6e74726163740000006044820152606401610236565b5081610f17565b610f17838381511561107e5781518083602001fd5b8060405162461bcd60e51b815260040161023691906112ac565b80356001600160a01b03811681146110af57600080fd5b919050565b6000806000606084860312156110c957600080fd5b6110d284611098565b95602085013595506040909401359392505050565b6000602082840312156110f957600080fd5b61110282611098565b9392505050565b6000806040838503121561111c57600080fd5b61112583611098565b946020939093013593505050565b6020808252825182820181905260009190848201906040850190845b8181101561116b5783518352928401929184019160010161114f565b50909695505050505050565b60006020828403121561118957600080fd5b5051919050565b634e487b7160e01b600052601160045260246000fd5b818103818111156108a9576108a9611190565b808201808211156108a9576108a9611190565b6000826111e957634e487b7160e01b600052601260045260246000fd5b500490565b80820281158282048414176108a9576108a9611190565b60006001820161121757611217611190565b5060010190565b634e487b7160e01b600052604160045260246000fd5b634e487b7160e01b600052603260045260246000fd5b60006020828403121561125c57600080fd5b8151801515811461110257600080fd5b60005b8381101561128757818101518382015260200161126f565b50506000910152565b600082516112a281846020870161126c565b9190910192915050565b60208152600082518060208401526112cb81604085016020870161126c565b601f01601f1916919091016040019291505056fea264697066735822122000f918e3a59af92e2a14d9123b3fe1755ca0de77c365c4e3d6bd71bea319dedd64736f6c63430008120033",
    "linkReferences": {},
    "deployedLinkReferences": {}
}