{
    "_format": "hh-sol-artifact-1",
    "contractName": "THXPaymentSplitter",
    "sourceName": "contracts/utils/THXPaymentSplitter.sol",
    "abi": [
        {
            "inputs": [
                {
                    "internalType": "address",
                    "name": "_admin",
                    "type": "address"
                },
                {
                    "internalType": "address",
                    "name": "_registry",
                    "type": "address"
                }
            ],
            "stateMutability": "nonpayable",
            "type": "constructor"
        },
        {
            "inputs": [
                {
                    "internalType": "address",
                    "name": "_owner",
                    "type": "address"
                }
            ],
            "name": "balanceOf",
            "outputs": [
                {
                    "internalType": "uint256",
                    "name": "",
                    "type": "uint256"
                }
            ],
            "stateMutability": "view",
            "type": "function"
        },
        {
            "inputs": [],
            "name": "bpt",
            "outputs": [
                {
                    "internalType": "contract IWeightedPool",
                    "name": "",
                    "type": "address"
                }
            ],
            "stateMutability": "view",
            "type": "function"
        },
        {
            "inputs": [
                {
                    "internalType": "address",
                    "name": "_owner",
                    "type": "address"
                },
                {
                    "internalType": "uint256",
                    "name": "_amount",
                    "type": "uint256"
                },
                {
                    "internalType": "uint256",
                    "name": "_minAmountOut",
                    "type": "uint256"
                }
            ],
            "name": "deposit",
            "outputs": [],
            "stateMutability": "nonpayable",
            "type": "function"
        },
        {
            "inputs": [],
            "name": "gauge",
            "outputs": [
                {
                    "internalType": "contract IGauge",
                    "name": "",
                    "type": "address"
                }
            ],
            "stateMutability": "view",
            "type": "function"
        },
        {
            "inputs": [],
            "name": "paymentToken",
            "outputs": [
                {
                    "internalType": "contract IERC20",
                    "name": "",
                    "type": "address"
                }
            ],
            "stateMutability": "view",
            "type": "function"
        },
        {
            "inputs": [
                {
                    "internalType": "address",
                    "name": "",
                    "type": "address"
                }
            ],
            "name": "rates",
            "outputs": [
                {
                    "internalType": "uint256",
                    "name": "",
                    "type": "uint256"
                }
            ],
            "stateMutability": "view",
            "type": "function"
        },
        {
            "inputs": [],
            "name": "registry",
            "outputs": [
                {
                    "internalType": "contract ITHXRegistry",
                    "name": "",
                    "type": "address"
                }
            ],
            "stateMutability": "view",
            "type": "function"
        },
        {
            "inputs": [
                {
                    "internalType": "address",
                    "name": "_owner",
                    "type": "address"
                },
                {
                    "internalType": "uint256",
                    "name": "_rate",
                    "type": "uint256"
                }
            ],
            "name": "setRate",
            "outputs": [],
            "stateMutability": "nonpayable",
            "type": "function"
        },
        {
            "inputs": [
                {
                    "internalType": "address",
                    "name": "_registry",
                    "type": "address"
                }
            ],
            "name": "setRegistry",
            "outputs": [],
            "stateMutability": "nonpayable",
            "type": "function"
        },
        {
            "inputs": [],
            "name": "vault",
            "outputs": [
                {
                    "internalType": "contract BalancerVault",
                    "name": "",
                    "type": "address"
                }
            ],
            "stateMutability": "view",
            "type": "function"
        }
    ],
    "bytecode": "0x60806040523480156200001157600080fd5b506040516200148138038062001481833981016040819052620000349162000304565b6001600081905580546001600160a01b038085166001600160a01b03199283161790925560028054848416921691909117908190556040805163d41c3a6560e01b81529051919092169163d41c3a65916004808301926020929190829003018186803b158015620000a457600080fd5b505afa158015620000b9573d6000803e3d6000fd5b505050506040513d601f19601f82011682018060405250810190620000df9190620002e0565b600680546001600160a01b0319166001600160a01b039283161790556002546040805163f2803f0360e01b81529051919092169163f2803f03916004808301926020929190829003018186803b1580156200013957600080fd5b505afa1580156200014e573d6000803e3d6000fd5b505050506040513d601f19601f82011682018060405250810190620001749190620002e0565b600380546001600160a01b0319166001600160a01b03928316179081905560408051634163183360e11b8152905191909216916382c63066916004808301926020929190829003018186803b158015620001cd57600080fd5b505afa158015620001e2573d6000803e3d6000fd5b505050506040513d601f19601f82011682018060405250810190620002089190620002e0565b600480546001600160a01b0319166001600160a01b0392831617808255604080516311b2515f60e31b815290519190931692638d928af89281810192602092909190829003018186803b1580156200025f57600080fd5b505afa15801562000274573d6000803e3d6000fd5b505050506040513d601f19601f820116820180604052508101906200029a9190620002e0565b600580546001600160a01b0319166001600160a01b0392909216919091179055506200033b9050565b80516001600160a01b0381168114620002db57600080fd5b919050565b600060208284031215620002f2578081fd5b620002fd82620002c3565b9392505050565b6000806040838503121562000317578081fd5b6200032283620002c3565b91506200033260208401620002c3565b90509250929050565b611136806200034b6000396000f3fe608060405234801561001057600080fd5b506004361061009e5760003560e01c80637b103999116100665780637b10399914610111578063a6f19c8414610119578063a8734f0b14610121578063a91ee0dc14610134578063fbfa77cf146101475761009e565b80630efe6a8b146100a35780632bdb7097146100b85780633013ce29146100cb578063546af3c3146100e957806370a08231146100f1575b600080fd5b6100b66100b1366004610de6565b61014f565b005b6100b66100c6366004610dbb565b610a46565b6100d3610a9c565b6040516100e09190610edd565b60405180910390f35b6100d3610aab565b6101046100ff366004610d83565b610aba565b6040516100e091906110be565b6100d3610b64565b6100d3610b73565b61010461012f366004610d83565b610b82565b6100b6610142366004610d83565b610b94565b6100d3610bf0565b600260005414156101a7576040805162461bcd60e51b815260206004820152601f60248201527f5265656e7472616e637947756172643a207265656e7472616e742063616c6c00604482015290519081900360640190fd5b600260009081556001600160a01b0384168152600760205260409020546101e95760405162461bcd60e51b81526004016101e090611057565b60405180910390fd5b6006546040516323b872dd60e01b81526001600160a01b03909116906323b872dd9061021d90869030908790600401610ef1565b602060405180830381600087803b15801561023757600080fd5b505af115801561024b573d6000803e3d6000fd5b505050506040513d601f19601f8201168201806040525081019061026f9190610e1a565b61028b5760405162461bcd60e51b81526004016101e090611022565b60025460408051637a3d22ad60e11b815290516000926001600160a01b03169163f47a455a916004808301926020929190829003018186803b1580156102d057600080fd5b505afa1580156102e4573d6000803e3d6000fd5b505050506040513d601f19601f820116820180604052508101906103089190610e3a565b9050600061032261271061031c8685610bff565b90610c61565b6006546002546040805163cd44673560e01b815290519394506001600160a01b039283169363a9059cbb939092169163cd44673591600480820192602092909190829003018186803b15801561037757600080fd5b505afa15801561038b573d6000803e3d6000fd5b505050506040513d601f19601f820116820180604052508101906103af9190610d9f565b836040518363ffffffff1660e01b81526004016103cd929190610f15565b602060405180830381600087803b1580156103e757600080fd5b505af11580156103fb573d6000803e3d6000fd5b505050506040513d601f19601f8201168201806040525081019061041f9190610e1a565b61043b5760405162461bcd60e51b81526004016101e090611022565b604080516002808252606082018352600092602083019080368337505060065482519293506001600160a01b03169183915060009061047657fe5b60200260200101906001600160a01b031690816001600160a01b0316815250506000816001815181106104a557fe5b6001600160a01b039290921660209283029190910182015260408051600280825260608201835260009391929091830190803683370190505090506104ea8684610cc8565b816000815181106104f757fe5b60200260200101818152505060008160018151811061051257fe5b602090810291909101015260065460055482516001600160a01b039283169263095ea7b3921690849060009061054457fe5b60200260200101516040518363ffffffff1660e01b8152600401610569929190610f15565b602060405180830381600087803b15801561058357600080fd5b505af1158015610597573d6000803e3d6000fd5b505050506040513d601f19601f820116820180604052508101906105bb9190610e1a565b50600554600480546040805163038fff2d60e41b815290516001600160a01b039485169463b95cac28949316926338fff2d092808201926020929091829003018186803b15801561060b57600080fd5b505afa15801561061f573d6000803e3d6000fd5b505050506040513d601f19601f820116820180604052508101906106439190610e3a565b303060405180608001604052808881526020018781526020016001888d60405160200161067293929190610ff6565b6040516020818303038152906040528152602001600015158152506040518563ffffffff1660e01b81526004016106ac9493929190610f2e565b600060405180830381600087803b1580156106c657600080fd5b505af11580156106da573d6000803e3d6000fd5b5050600480546040516370a0823160e01b8152600094506001600160a01b0390911692506370a082319161071091309101610edd565b60206040518083038186803b15801561072857600080fd5b505afa15801561073c573d6000803e3d6000fd5b505050506040513d601f19601f820116820180604052508101906107609190610e3a565b6004805460035460405163095ea7b360e01b81529394506001600160a01b039182169363095ea7b3936107999390921691869101610f15565b602060405180830381600087803b1580156107b357600080fd5b505af11580156107c7573d6000803e3d6000fd5b505050506040513d601f19601f820116820180604052508101906107eb9190610e1a565b5060035460405163b6b55f2560e01b81526001600160a01b039091169063b6b55f259061081c9084906004016110be565b600060405180830381600087803b15801561083657600080fd5b505af115801561084a573d6000803e3d6000fd5b50506003546040516370a0823160e01b8152600093506001600160a01b0390911691506370a0823190610881903090600401610edd565b60206040518083038186803b15801561089957600080fd5b505afa1580156108ad573d6000803e3d6000fd5b505050506040513d601f19601f820116820180604052508101906108d19190610e3a565b600354600254604080516367906c3960e11b815290519394506001600160a01b039283169363a9059cbb939092169163cf20d87291600480820192602092909190829003018186803b15801561092657600080fd5b505afa15801561093a573d6000803e3d6000fd5b505050506040513d601f19601f8201168201806040525081019061095e9190610d9f565b836040518363ffffffff1660e01b815260040161097c929190610f15565b602060405180830381600087803b15801561099657600080fd5b505af11580156109aa573d6000803e3d6000fd5b505050506040513d601f19601f820116820180604052508101906109ce9190610e1a565b6109ea5760405162461bcd60e51b81526004016101e090611022565b6001600160a01b038916600090815260086020526040902054610a0d9089610d25565b6001600160a01b0390991660009081526008602090815260408083209b909b556009905298892042905550506001909655505050505050565b6001546001600160a01b0316610a5a610d7f565b6001600160a01b031614610a805760405162461bcd60e51b81526004016101e090611087565b6001600160a01b03909116600090815260076020526040902055565b6006546001600160a01b031681565b6004546001600160a01b031681565b6001600160a01b038116600090815260076020908152604080832054600990925282205480610aee57600092505050610b5f565b426000610b0584610aff8486610cc8565b90610bff565b6001600160a01b038716600090815260086020526040902054909150811115610b35576000945050505050610b5f565b6001600160a01b038616600090815260086020526040902054610b589082610cc8565b9450505050505b919050565b6002546001600160a01b031681565b6003546001600160a01b031681565b60076020526000908152604090205481565b6001546001600160a01b0316610ba8610d7f565b6001600160a01b031614610bce5760405162461bcd60e51b81526004016101e090611087565b600280546001600160a01b0319166001600160a01b0392909216919091179055565b6005546001600160a01b031681565b600082610c0e57506000610c5b565b82820282848281610c1b57fe5b0414610c585760405162461bcd60e51b81526004018080602001828103825260218152602001806110e06021913960400191505060405180910390fd5b90505b92915050565b6000808211610cb7576040805162461bcd60e51b815260206004820152601a60248201527f536166654d6174683a206469766973696f6e206279207a65726f000000000000604482015290519081900360640190fd5b818381610cc057fe5b049392505050565b600082821115610d1f576040805162461bcd60e51b815260206004820152601e60248201527f536166654d6174683a207375627472616374696f6e206f766572666c6f770000604482015290519081900360640190fd5b50900390565b600082820183811015610c58576040805162461bcd60e51b815260206004820152601b60248201527f536166654d6174683a206164646974696f6e206f766572666c6f770000000000604482015290519081900360640190fd5b3390565b600060208284031215610d94578081fd5b8135610c58816110c7565b600060208284031215610db0578081fd5b8151610c58816110c7565b60008060408385031215610dcd578081fd5b8235610dd8816110c7565b946020939093013593505050565b600080600060608486031215610dfa578081fd5b8335610e05816110c7565b95602085013595506040909401359392505050565b600060208284031215610e2b578081fd5b81518015158114610c58578182fd5b600060208284031215610e4b578081fd5b5051919050565b6000815180845260208085019450808401835b83811015610e8157815187529582019590820190600101610e65565b509495945050505050565b15159052565b60008151808452815b81811015610eb757602081850181015186830182015201610e9b565b81811115610ec85782602083870101525b50601f01601f19169290920160200192915050565b6001600160a01b0391909116815260200190565b6001600160a01b039384168152919092166020820152604081019190915260600190565b6001600160a01b03929092168252602082015260400190565b6000858252602060018060a01b0380871682850152808616604085015260806060850152610100840185516080808701528181518084526101208801915085830193508692505b80831015610f9757835185168252928501926001929092019190850190610f75565b50848801519450607f199350838782030160a0880152610fb78186610e52565b94505050506040850151818584030160c0860152610fd58382610e92565b925050506060840151610feb60e0850182610e8c565b509695505050505050565b600060ff85168252606060208301526110126060830185610e52565b9050826040830152949350505050565b6020808252818101527f5061796d656e7453706c69747465723a207472616e73666572206661696c6564604082015260600190565b6020808252601690820152755061796d656e7453706c69747465723a20217261746560501b604082015260600190565b60208082526017908201527f5061796d656e7453706c69747465723a202161646d696e000000000000000000604082015260600190565b90815260200190565b6001600160a01b03811681146110dc57600080fd5b5056fe536166654d6174683a206d756c7469706c69636174696f6e206f766572666c6f77a2646970667358221220eba06cbcd528d8589e50089c90e52f7dc3fa5e7165ae1e40435ece99c19f65c564736f6c63430007060033",
    "linkReferences": {},
    "deployedLinkReferences": {}
}