{
    "_format": "hh-sol-artifact-1",
    "contractName": "THXPaymentSplitter",
    "sourceName": "contracts/utils/THXPaymentSplitter.sol",
    "abi": [
        {
            "inputs": [
                {
                    "internalType": "address",
                    "name": "_admin",
                    "type": "address"
                },
                {
                    "internalType": "address",
                    "name": "_registry",
                    "type": "address"
                }
            ],
            "stateMutability": "nonpayable",
            "type": "constructor"
        },
        {
            "inputs": [
                {
                    "internalType": "address",
                    "name": "_owner",
                    "type": "address"
                }
            ],
            "name": "balanceOf",
            "outputs": [
                {
                    "internalType": "uint256",
                    "name": "",
                    "type": "uint256"
                }
            ],
            "stateMutability": "view",
            "type": "function"
        },
        {
            "inputs": [],
            "name": "bpt",
            "outputs": [
                {
                    "internalType": "contract IWeightedPool",
                    "name": "",
                    "type": "address"
                }
            ],
            "stateMutability": "view",
            "type": "function"
        },
        {
            "inputs": [
                {
                    "internalType": "address",
                    "name": "_owner",
                    "type": "address"
                },
                {
                    "internalType": "uint256",
                    "name": "_amount",
                    "type": "uint256"
                }
            ],
            "name": "deposit",
            "outputs": [],
            "stateMutability": "nonpayable",
            "type": "function"
        },
        {
            "inputs": [],
            "name": "gauge",
            "outputs": [
                {
                    "internalType": "contract BPTGauge",
                    "name": "",
                    "type": "address"
                }
            ],
            "stateMutability": "view",
            "type": "function"
        },
        {
            "inputs": [],
            "name": "paymentToken",
            "outputs": [
                {
                    "internalType": "contract ERC20",
                    "name": "",
                    "type": "address"
                }
            ],
            "stateMutability": "view",
            "type": "function"
        },
        {
            "inputs": [
                {
                    "internalType": "address",
                    "name": "",
                    "type": "address"
                }
            ],
            "name": "rates",
            "outputs": [
                {
                    "internalType": "uint256",
                    "name": "",
                    "type": "uint256"
                }
            ],
            "stateMutability": "view",
            "type": "function"
        },
        {
            "inputs": [],
            "name": "registry",
            "outputs": [
                {
                    "internalType": "contract ITHXRegistry",
                    "name": "",
                    "type": "address"
                }
            ],
            "stateMutability": "view",
            "type": "function"
        },
        {
            "inputs": [
                {
                    "internalType": "address",
                    "name": "_owner",
                    "type": "address"
                },
                {
                    "internalType": "uint256",
                    "name": "_rate",
                    "type": "uint256"
                }
            ],
            "name": "setRate",
            "outputs": [],
            "stateMutability": "nonpayable",
            "type": "function"
        },
        {
            "inputs": [
                {
                    "internalType": "address",
                    "name": "_registry",
                    "type": "address"
                }
            ],
            "name": "setRegistry",
            "outputs": [],
            "stateMutability": "nonpayable",
            "type": "function"
        },
        {
            "inputs": [],
            "name": "vault",
            "outputs": [
                {
                    "internalType": "contract BalancerVault",
                    "name": "",
                    "type": "address"
                }
            ],
            "stateMutability": "view",
            "type": "function"
        }
    ],
    "bytecode": "0x60806040523480156200001157600080fd5b506040516200120838038062001208833981016040819052620000349162000304565b6001600081905580546001600160a01b038085166001600160a01b03199283161790925560028054848416921691909117908190556040805163d41c3a6560e01b81529051919092169163d41c3a65916004808301926020929190829003018186803b158015620000a457600080fd5b505afa158015620000b9573d6000803e3d6000fd5b505050506040513d601f19601f82011682018060405250810190620000df9190620002e0565b600680546001600160a01b0319166001600160a01b039283161790556002546040805163f2803f0360e01b81529051919092169163f2803f03916004808301926020929190829003018186803b1580156200013957600080fd5b505afa1580156200014e573d6000803e3d6000fd5b505050506040513d601f19601f82011682018060405250810190620001749190620002e0565b600380546001600160a01b0319166001600160a01b03928316179081905560408051634163183360e11b8152905191909216916382c63066916004808301926020929190829003018186803b158015620001cd57600080fd5b505afa158015620001e2573d6000803e3d6000fd5b505050506040513d601f19601f82011682018060405250810190620002089190620002e0565b600480546001600160a01b0319166001600160a01b0392831617808255604080516311b2515f60e31b815290519190931692638d928af89281810192602092909190829003018186803b1580156200025f57600080fd5b505afa15801562000274573d6000803e3d6000fd5b505050506040513d601f19601f820116820180604052508101906200029a9190620002e0565b600580546001600160a01b0319166001600160a01b0392909216919091179055506200033b9050565b80516001600160a01b0381168114620002db57600080fd5b919050565b600060208284031215620002f2578081fd5b620002fd82620002c3565b9392505050565b6000806040838503121562000317578081fd5b6200032283620002c3565b91506200033260208401620002c3565b90509250929050565b610ebd806200034b6000396000f3fe608060405234801561001057600080fd5b506004361061009e5760003560e01c80637b103999116100665780637b10399914610111578063a6f19c8414610119578063a8734f0b14610121578063a91ee0dc14610134578063fbfa77cf146101475761009e565b80632bdb7097146100a35780633013ce29146100b857806347e7ef24146100d6578063546af3c3146100e957806370a08231146100f1575b600080fd5b6100b66100b1366004610bc3565b61014f565b005b6100c061019e565b6040516100cd9190610cb1565b60405180910390f35b6100b66100e4366004610bc3565b6101ad565b6100c0610a5e565b6101046100ff366004610b84565b610a6d565b6040516100cd9190610e66565b6100c0610af9565b6100c0610b08565b61010461012f366004610b84565b610b17565b6100b6610142366004610b84565b610b29565b6100c0610b75565b6001546001600160a01b031633146101825760405162461bcd60e51b815260040161017990610e2f565b60405180910390fd5b6001600160a01b03909116600090815260076020526040902055565b6006546001600160a01b031681565b60026000541415610205576040805162461bcd60e51b815260206004820152601f60248201527f5265656e7472616e637947756172643a207265656e7472616e742063616c6c00604482015290519081900360640190fd5b600260009081556001600160a01b03831681526007602052604090205461023e5760405162461bcd60e51b815260040161017990610dff565b6006546040516323b872dd60e01b81526001600160a01b03909116906323b872dd9061027290339030908690600401610cc5565b602060405180830381600087803b15801561028c57600080fd5b505af11580156102a0573d6000803e3d6000fd5b505050506040513d601f19601f820116820180604052508101906102c49190610bee565b6102e05760405162461bcd60e51b815260040161017990610dca565b6000612710600260009054906101000a90046001600160a01b03166001600160a01b031663f47a455a6040518163ffffffff1660e01b815260040160206040518083038186803b15801561033357600080fd5b505afa158015610347573d6000803e3d6000fd5b505050506040513d601f19601f8201168201806040525081019061036b9190610c0e565b83028161037457fe5b6006546002546040805163cd44673560e01b815290519490930494506001600160a01b039182169363a9059cbb93929091169163cd446735916004808301926020929190829003018186803b1580156103cc57600080fd5b505afa1580156103e0573d6000803e3d6000fd5b505050506040513d601f19601f820116820180604052508101906104049190610ba7565b836040518363ffffffff1660e01b8152600401610422929190610ce9565b602060405180830381600087803b15801561043c57600080fd5b505af1158015610450573d6000803e3d6000fd5b505050506040513d601f19601f820116820180604052508101906104749190610bee565b6104905760405162461bcd60e51b815260040161017990610dca565b604080516002808252606082018352600092602083019080368337505060065482519293506001600160a01b0316918391506000906104cb57fe5b60200260200101906001600160a01b031690816001600160a01b0316815250506000816001815181106104fa57fe5b6001600160a01b039290921660209283029190910182015260408051600280825260608201835260009391929091830190803683370190505090508284038160008151811061054557fe5b60200260200101818152505060008160018151811061056057fe5b602090810291909101015260065460055482516001600160a01b039283169263095ea7b3921690849060009061059257fe5b60200260200101516040518363ffffffff1660e01b81526004016105b7929190610ce9565b602060405180830381600087803b1580156105d157600080fd5b505af11580156105e5573d6000803e3d6000fd5b505050506040513d601f19601f820116820180604052508101906106099190610bee565b50604080516080810182528381526020808201849052825180840184526002815261060f60f31b81830152828401526000606083015260055460048054855163038fff2d60e41b8152955194956001600160a01b039384169563b95cac289592909416936338fff2d0938281019392829003018186803b15801561068c57600080fd5b505afa1580156106a0573d6000803e3d6000fd5b505050506040513d601f19601f820116820180604052508101906106c49190610c0e565b3030856040518563ffffffff1660e01b81526004016106e69493929190610d02565b600060405180830381600087803b15801561070057600080fd5b505af1158015610714573d6000803e3d6000fd5b5050600480546040516370a0823160e01b8152600094506001600160a01b0390911692506370a082319161074a91309101610cb1565b60206040518083038186803b15801561076257600080fd5b505afa158015610776573d6000803e3d6000fd5b505050506040513d601f19601f8201168201806040525081019061079a9190610c0e565b6004805460035460405163095ea7b360e01b81529394506001600160a01b039182169363095ea7b3936107d39390921691869101610ce9565b602060405180830381600087803b1580156107ed57600080fd5b505af1158015610801573d6000803e3d6000fd5b505050506040513d601f19601f820116820180604052508101906108259190610bee565b5060035460405163b6b55f2560e01b81526001600160a01b039091169063b6b55f2590610856908490600401610e66565b600060405180830381600087803b15801561087057600080fd5b505af1158015610884573d6000803e3d6000fd5b50506003546040516370a0823160e01b8152600093506001600160a01b0390911691506370a08231906108bb903090600401610cb1565b60206040518083038186803b1580156108d357600080fd5b505afa1580156108e7573d6000803e3d6000fd5b505050506040513d601f19601f8201168201806040525081019061090b9190610c0e565b600354600254604080516367906c3960e11b815290519394506001600160a01b039283169363a9059cbb939092169163cf20d87291600480820192602092909190829003018186803b15801561096057600080fd5b505afa158015610974573d6000803e3d6000fd5b505050506040513d601f19601f820116820180604052508101906109989190610ba7565b836040518363ffffffff1660e01b81526004016109b6929190610ce9565b602060405180830381600087803b1580156109d057600080fd5b505af11580156109e4573d6000803e3d6000fd5b505050506040513d601f19601f82011682018060405250810190610a089190610bee565b610a245760405162461bcd60e51b815260040161017990610dca565b5050506001600160a01b03909416600090815260086020908152604080832080549096019095556009905292832042905550506001905550565b6004546001600160a01b031681565b6001600160a01b038116600090815260076020908152604080832054600990925282205480610aa157600092505050610af4565b6001600160a01b03841660009081526008602052604090205481830242039081900315610aec576001600160a01b038516600090815260086020526040902054039250610af4915050565b600093505050505b919050565b6002546001600160a01b031681565b6003546001600160a01b031681565b60076020526000908152604090205481565b6001546001600160a01b03163314610b535760405162461bcd60e51b815260040161017990610e2f565b600280546001600160a01b0319166001600160a01b0392909216919091179055565b6005546001600160a01b031681565b600060208284031215610b95578081fd5b8135610ba081610e6f565b9392505050565b600060208284031215610bb8578081fd5b8151610ba081610e6f565b60008060408385031215610bd5578081fd5b8235610be081610e6f565b946020939093013593505050565b600060208284031215610bff578081fd5b81518015158114610ba0578182fd5b600060208284031215610c1f578081fd5b5051919050565b6000815180845260208085019450808401835b83811015610c5557815187529582019590820190600101610c39565b509495945050505050565b15159052565b60008151808452815b81811015610c8b57602081850181015186830182015201610c6f565b81811115610c9c5782602083870101525b50601f01601f19169290920160200192915050565b6001600160a01b0391909116815260200190565b6001600160a01b039384168152919092166020820152604081019190915260600190565b6001600160a01b03929092168252602082015260400190565b6000858252602060018060a01b0380871682850152808616604085015260806060850152610100840185516080808701528181518084526101208801915085830193508692505b80831015610d6b57835185168252928501926001929092019190850190610d49565b50848801519450607f199350838782030160a0880152610d8b8186610c26565b94505050506040850151818584030160c0860152610da98382610c66565b925050506060840151610dbf60e0850182610c60565b509695505050505050565b6020808252818101527f5061796d656e7453706c69747465723a207472616e73666572206661696c6564604082015260600190565b6020808252601690820152755061796d656e7453706c69747465723a20217261746560501b604082015260600190565b60208082526017908201527f5061796d656e7453706c69747465723a202161646d696e000000000000000000604082015260600190565b90815260200190565b6001600160a01b0381168114610e8457600080fd5b5056fea2646970667358221220e53d2aa207b387a3694a4109dcfc28335d5bc96f435e02b96ffdd41c59e1ac8864736f6c63430007060033",
    "linkReferences": {},
    "deployedLinkReferences": {}
}