{
    "_format": "hh-sol-artifact-1",
    "contractName": "THXPaymentSplitter",
    "sourceName": "contracts/utils/THXPaymentSplitter.sol",
    "abi": [
        {
            "inputs": [
                {
                    "internalType": "address",
                    "name": "_admin",
                    "type": "address"
                },
                {
                    "internalType": "address",
                    "name": "_registry",
                    "type": "address"
                }
            ],
            "stateMutability": "nonpayable",
            "type": "constructor"
        },
        {
            "inputs": [
                {
                    "internalType": "address",
                    "name": "_owner",
                    "type": "address"
                }
            ],
            "name": "balanceOf",
            "outputs": [
                {
                    "internalType": "uint256",
                    "name": "",
                    "type": "uint256"
                }
            ],
            "stateMutability": "view",
            "type": "function"
        },
        {
            "inputs": [],
            "name": "bpt",
            "outputs": [
                {
                    "internalType": "contract IWeightedPool",
                    "name": "",
                    "type": "address"
                }
            ],
            "stateMutability": "view",
            "type": "function"
        },
        {
            "inputs": [
                {
                    "internalType": "address",
                    "name": "_owner",
                    "type": "address"
                },
                {
                    "internalType": "uint256",
                    "name": "_amount",
                    "type": "uint256"
                }
            ],
            "name": "deposit",
            "outputs": [],
            "stateMutability": "nonpayable",
            "type": "function"
        },
        {
            "inputs": [],
            "name": "gauge",
            "outputs": [
                {
                    "internalType": "contract BPTGauge",
                    "name": "",
                    "type": "address"
                }
            ],
            "stateMutability": "view",
            "type": "function"
        },
        {
            "inputs": [],
            "name": "paymentToken",
            "outputs": [
                {
                    "internalType": "contract ERC20",
                    "name": "",
                    "type": "address"
                }
            ],
            "stateMutability": "view",
            "type": "function"
        },
        {
            "inputs": [
                {
                    "internalType": "address",
                    "name": "",
                    "type": "address"
                }
            ],
            "name": "rates",
            "outputs": [
                {
                    "internalType": "uint256",
                    "name": "",
                    "type": "uint256"
                }
            ],
            "stateMutability": "view",
            "type": "function"
        },
        {
            "inputs": [],
            "name": "registry",
            "outputs": [
                {
                    "internalType": "contract ITHXRegistry",
                    "name": "",
                    "type": "address"
                }
            ],
            "stateMutability": "view",
            "type": "function"
        },
        {
            "inputs": [
                {
                    "internalType": "address",
                    "name": "_owner",
                    "type": "address"
                },
                {
                    "internalType": "uint256",
                    "name": "_rate",
                    "type": "uint256"
                }
            ],
            "name": "setRate",
            "outputs": [],
            "stateMutability": "nonpayable",
            "type": "function"
        },
        {
            "inputs": [
                {
                    "internalType": "address",
                    "name": "_registry",
                    "type": "address"
                }
            ],
            "name": "setRegistry",
            "outputs": [],
            "stateMutability": "nonpayable",
            "type": "function"
        },
        {
            "inputs": [],
            "name": "vault",
            "outputs": [
                {
                    "internalType": "contract BalancerVault",
                    "name": "",
                    "type": "address"
                }
            ],
            "stateMutability": "view",
            "type": "function"
        }
    ],
    "bytecode": "0x60806040523480156200001157600080fd5b50604051620013ad380380620013ad833981016040819052620000349162000304565b6001600081905580546001600160a01b038085166001600160a01b03199283161790925560028054848416921691909117908190556040805163d41c3a6560e01b81529051919092169163d41c3a65916004808301926020929190829003018186803b158015620000a457600080fd5b505afa158015620000b9573d6000803e3d6000fd5b505050506040513d601f19601f82011682018060405250810190620000df9190620002e0565b600680546001600160a01b0319166001600160a01b039283161790556002546040805163f2803f0360e01b81529051919092169163f2803f03916004808301926020929190829003018186803b1580156200013957600080fd5b505afa1580156200014e573d6000803e3d6000fd5b505050506040513d601f19601f82011682018060405250810190620001749190620002e0565b600380546001600160a01b0319166001600160a01b03928316179081905560408051634163183360e11b8152905191909216916382c63066916004808301926020929190829003018186803b158015620001cd57600080fd5b505afa158015620001e2573d6000803e3d6000fd5b505050506040513d601f19601f82011682018060405250810190620002089190620002e0565b600480546001600160a01b0319166001600160a01b0392831617808255604080516311b2515f60e31b815290519190931692638d928af89281810192602092909190829003018186803b1580156200025f57600080fd5b505afa15801562000274573d6000803e3d6000fd5b505050506040513d601f19601f820116820180604052508101906200029a9190620002e0565b600580546001600160a01b0319166001600160a01b0392909216919091179055506200033b9050565b80516001600160a01b0381168114620002db57600080fd5b919050565b600060208284031215620002f2578081fd5b620002fd82620002c3565b9392505050565b6000806040838503121562000317578081fd5b6200032283620002c3565b91506200033260208401620002c3565b90509250929050565b611062806200034b6000396000f3fe608060405234801561001057600080fd5b506004361061009e5760003560e01c80637b103999116100665780637b10399914610111578063a6f19c8414610119578063a8734f0b14610121578063a91ee0dc14610134578063fbfa77cf146101475761009e565b80632bdb7097146100a35780633013ce29146100b857806347e7ef24146100d6578063546af3c3146100e957806370a08231146100f1575b600080fd5b6100b66100b1366004610d47565b61014f565b005b6100c06101ae565b6040516100cd9190610e35565b60405180910390f35b6100b66100e4366004610d47565b6101bd565b6100c0610a9b565b6101046100ff366004610d0f565b610aaa565b6040516100cd9190610fea565b6100c0610b54565b6100c0610b63565b61010461012f366004610d0f565b610b72565b6100b6610142366004610d0f565b610b84565b6100c0610be0565b6001546001600160a01b0316610163610bef565b6001600160a01b0316146101925760405162461bcd60e51b815260040161018990610fb3565b60405180910390fd5b6001600160a01b03909116600090815260076020526040902055565b6006546001600160a01b031681565b60026000541415610215576040805162461bcd60e51b815260206004820152601f60248201527f5265656e7472616e637947756172643a207265656e7472616e742063616c6c00604482015290519081900360640190fd5b600260009081556001600160a01b03831681526007602052604090205461024e5760405162461bcd60e51b815260040161018990610f83565b6006546001600160a01b03166323b872dd610267610bef565b30846040518463ffffffff1660e01b815260040161028793929190610e49565b602060405180830381600087803b1580156102a157600080fd5b505af11580156102b5573d6000803e3d6000fd5b505050506040513d601f19601f820116820180604052508101906102d99190610d72565b6102f55760405162461bcd60e51b815260040161018990610f4e565b6000612710600260009054906101000a90046001600160a01b03166001600160a01b031663f47a455a6040518163ffffffff1660e01b815260040160206040518083038186803b15801561034857600080fd5b505afa15801561035c573d6000803e3d6000fd5b505050506040513d601f19601f820116820180604052508101906103809190610d92565b83028161038957fe5b6006546002546040805163cd44673560e01b815290519490930494506001600160a01b039182169363a9059cbb93929091169163cd446735916004808301926020929190829003018186803b1580156103e157600080fd5b505afa1580156103f5573d6000803e3d6000fd5b505050506040513d601f19601f820116820180604052508101906104199190610d2b565b836040518363ffffffff1660e01b8152600401610437929190610e6d565b602060405180830381600087803b15801561045157600080fd5b505af1158015610465573d6000803e3d6000fd5b505050506040513d601f19601f820116820180604052508101906104899190610d72565b6104a55760405162461bcd60e51b815260040161018990610f4e565b604080516002808252606082018352600092602083019080368337505060065482519293506001600160a01b0316918391506000906104e057fe5b60200260200101906001600160a01b031690816001600160a01b03168152505060008160018151811061050f57fe5b6001600160a01b039290921660209283029190910182015260408051600280825260608201835260009391929091830190803683370190505090506105548484610bf3565b8160008151811061056157fe5b60200260200101818152505060008160018151811061057c57fe5b602090810291909101015260065460055482516001600160a01b039283169263095ea7b392169084906000906105ae57fe5b60200260200101516040518363ffffffff1660e01b81526004016105d3929190610e6d565b602060405180830381600087803b1580156105ed57600080fd5b505af1158015610601573d6000803e3d6000fd5b505050506040513d601f19601f820116820180604052508101906106259190610d72565b50604080516080810182528381526020808201849052825180840184526002815261060f60f31b81830152828401526000606083015260055460048054855163038fff2d60e41b8152955194956001600160a01b039384169563b95cac289592909416936338fff2d0938281019392829003018186803b1580156106a857600080fd5b505afa1580156106bc573d6000803e3d6000fd5b505050506040513d601f19601f820116820180604052508101906106e09190610d92565b3030856040518563ffffffff1660e01b81526004016107029493929190610e86565b600060405180830381600087803b15801561071c57600080fd5b505af1158015610730573d6000803e3d6000fd5b5050600480546040516370a0823160e01b8152600094506001600160a01b0390911692506370a082319161076691309101610e35565b60206040518083038186803b15801561077e57600080fd5b505afa158015610792573d6000803e3d6000fd5b505050506040513d601f19601f820116820180604052508101906107b69190610d92565b6004805460035460405163095ea7b360e01b81529394506001600160a01b039182169363095ea7b3936107ef9390921691869101610e6d565b602060405180830381600087803b15801561080957600080fd5b505af115801561081d573d6000803e3d6000fd5b505050506040513d601f19601f820116820180604052508101906108419190610d72565b5060035460405163b6b55f2560e01b81526001600160a01b039091169063b6b55f2590610872908490600401610fea565b600060405180830381600087803b15801561088c57600080fd5b505af11580156108a0573d6000803e3d6000fd5b50506003546040516370a0823160e01b8152600093506001600160a01b0390911691506370a08231906108d7903090600401610e35565b60206040518083038186803b1580156108ef57600080fd5b505afa158015610903573d6000803e3d6000fd5b505050506040513d601f19601f820116820180604052508101906109279190610d92565b600354600254604080516367906c3960e11b815290519394506001600160a01b039283169363a9059cbb939092169163cf20d87291600480820192602092909190829003018186803b15801561097c57600080fd5b505afa158015610990573d6000803e3d6000fd5b505050506040513d601f19601f820116820180604052508101906109b49190610d2b565b836040518363ffffffff1660e01b81526004016109d2929190610e6d565b602060405180830381600087803b1580156109ec57600080fd5b505af1158015610a00573d6000803e3d6000fd5b505050506040513d601f19601f82011682018060405250810190610a249190610d72565b610a405760405162461bcd60e51b815260040161018990610f4e565b6001600160a01b038816600090815260086020526040902054610a639088610c55565b6001600160a01b0390981660009081526008602090815260408083209a909a5560099052978820429055505060019095555050505050565b6004546001600160a01b031681565b6001600160a01b038116600090815260076020908152604080832054600990925282205480610ade57600092505050610b4f565b426000610af584610aef8486610bf3565b90610cb6565b6001600160a01b038716600090815260086020526040902054909150811115610b25576000945050505050610b4f565b6001600160a01b038616600090815260086020526040902054610b489082610bf3565b9450505050505b919050565b6002546001600160a01b031681565b6003546001600160a01b031681565b60076020526000908152604090205481565b6001546001600160a01b0316610b98610bef565b6001600160a01b031614610bbe5760405162461bcd60e51b815260040161018990610fb3565b600280546001600160a01b0319166001600160a01b0392909216919091179055565b6005546001600160a01b031681565b3390565b600082821115610c4a576040805162461bcd60e51b815260206004820152601e60248201527f536166654d6174683a207375627472616374696f6e206f766572666c6f770000604482015290519081900360640190fd5b508082035b92915050565b600082820183811015610caf576040805162461bcd60e51b815260206004820152601b60248201527f536166654d6174683a206164646974696f6e206f766572666c6f770000000000604482015290519081900360640190fd5b9392505050565b600082610cc557506000610c4f565b82820282848281610cd257fe5b0414610caf5760405162461bcd60e51b815260040180806020018281038252602181526020018061100c6021913960400191505060405180910390fd5b600060208284031215610d20578081fd5b8135610caf81610ff3565b600060208284031215610d3c578081fd5b8151610caf81610ff3565b60008060408385031215610d59578081fd5b8235610d6481610ff3565b946020939093013593505050565b600060208284031215610d83578081fd5b81518015158114610caf578182fd5b600060208284031215610da3578081fd5b5051919050565b6000815180845260208085019450808401835b83811015610dd957815187529582019590820190600101610dbd565b509495945050505050565b15159052565b60008151808452815b81811015610e0f57602081850181015186830182015201610df3565b81811115610e205782602083870101525b50601f01601f19169290920160200192915050565b6001600160a01b0391909116815260200190565b6001600160a01b039384168152919092166020820152604081019190915260600190565b6001600160a01b03929092168252602082015260400190565b6000858252602060018060a01b0380871682850152808616604085015260806060850152610100840185516080808701528181518084526101208801915085830193508692505b80831015610eef57835185168252928501926001929092019190850190610ecd565b50848801519450607f199350838782030160a0880152610f0f8186610daa565b94505050506040850151818584030160c0860152610f2d8382610dea565b925050506060840151610f4360e0850182610de4565b509695505050505050565b6020808252818101527f5061796d656e7453706c69747465723a207472616e73666572206661696c6564604082015260600190565b6020808252601690820152755061796d656e7453706c69747465723a20217261746560501b604082015260600190565b60208082526017908201527f5061796d656e7453706c69747465723a202161646d696e000000000000000000604082015260600190565b90815260200190565b6001600160a01b038116811461100857600080fd5b5056fe536166654d6174683a206d756c7469706c69636174696f6e206f766572666c6f77a264697066735822122079e6a0e02056e52a080bfc00169f62acbcf548004ffdbb87a5c2e41c0fbcacef64736f6c63430007060033",
    "linkReferences": {},
    "deployedLinkReferences": {}
}