{
  "address": "0xad302009b6a7125F8B3220CDDc77f321D285f23A",
  "abi": [
    {
      "anonymous": false,
      "inputs": [
        {
          "indexed": true,
          "internalType": "bytes32",
          "name": "role",
          "type": "bytes32"
        },
        {
          "indexed": true,
          "internalType": "bytes32",
          "name": "previousAdminRole",
          "type": "bytes32"
        },
        {
          "indexed": true,
          "internalType": "bytes32",
          "name": "newAdminRole",
          "type": "bytes32"
        }
      ],
      "name": "RoleAdminChanged",
      "type": "event"
    },
    {
      "anonymous": false,
      "inputs": [
        {
          "indexed": true,
          "internalType": "bytes32",
          "name": "role",
          "type": "bytes32"
        },
        {
          "indexed": true,
          "internalType": "address",
          "name": "account",
          "type": "address"
        },
        {
          "indexed": true,
          "internalType": "address",
          "name": "sender",
          "type": "address"
        }
      ],
      "name": "RoleGranted",
      "type": "event"
    },
    {
      "anonymous": false,
      "inputs": [
        {
          "indexed": true,
          "internalType": "bytes32",
          "name": "role",
          "type": "bytes32"
        },
        {
          "indexed": true,
          "internalType": "address",
          "name": "account",
          "type": "address"
        },
        {
          "indexed": true,
          "internalType": "address",
          "name": "sender",
          "type": "address"
        }
      ],
      "name": "RoleRevoked",
      "type": "event"
    },
    {
      "inputs": [
        {
          "internalType": "bytes32",
          "name": "role",
          "type": "bytes32"
        }
      ],
      "name": "getRoleAdmin",
      "outputs": [
        {
          "internalType": "bytes32",
          "name": "",
          "type": "bytes32"
        }
      ],
      "stateMutability": "view",
      "type": "function"
    },
    {
      "inputs": [
        {
          "internalType": "bytes32",
          "name": "role",
          "type": "bytes32"
        },
        {
          "internalType": "uint256",
          "name": "index",
          "type": "uint256"
        }
      ],
      "name": "getRoleMember",
      "outputs": [
        {
          "internalType": "address",
          "name": "",
          "type": "address"
        }
      ],
      "stateMutability": "view",
      "type": "function"
    },
    {
      "inputs": [
        {
          "internalType": "bytes32",
          "name": "role",
          "type": "bytes32"
        }
      ],
      "name": "getRoleMemberCount",
      "outputs": [
        {
          "internalType": "uint256",
          "name": "",
          "type": "uint256"
        }
      ],
      "stateMutability": "view",
      "type": "function"
    },
    {
      "inputs": [
        {
          "internalType": "bytes32",
          "name": "role",
          "type": "bytes32"
        },
        {
          "internalType": "address",
          "name": "account",
          "type": "address"
        }
      ],
      "name": "grantRole",
      "outputs": [],
      "stateMutability": "nonpayable",
      "type": "function"
    },
    {
      "inputs": [
        {
          "internalType": "bytes32",
          "name": "role",
          "type": "bytes32"
        },
        {
          "internalType": "address",
          "name": "account",
          "type": "address"
        }
      ],
      "name": "hasRole",
      "outputs": [
        {
          "internalType": "bool",
          "name": "",
          "type": "bool"
        }
      ],
      "stateMutability": "view",
      "type": "function"
    },
    {
      "inputs": [
        {
          "internalType": "bytes32",
          "name": "role",
          "type": "bytes32"
        },
        {
          "internalType": "address",
          "name": "account",
          "type": "address"
        }
      ],
      "name": "renounceRole",
      "outputs": [],
      "stateMutability": "nonpayable",
      "type": "function"
    },
    {
      "inputs": [
        {
          "internalType": "bytes32",
          "name": "role",
          "type": "bytes32"
        },
        {
          "internalType": "address",
          "name": "account",
          "type": "address"
        }
      ],
      "name": "revokeRole",
      "outputs": [],
      "stateMutability": "nonpayable",
      "type": "function"
    },
    {
      "inputs": [
        {
          "internalType": "bytes32",
          "name": "role",
          "type": "bytes32"
        },
        {
          "internalType": "address",
          "name": "account",
          "type": "address"
        }
      ],
      "name": "setupRole",
      "outputs": [],
      "stateMutability": "nonpayable",
      "type": "function"
    }
  ],
  "transactionHash": "0x41b9f7e1b250acd226d2073d062635dfed317c80fdb0c5caf186d8dedf88c09b",
  "args": [],
  "numDeployments": 2,
  "solcInputHash": "e05e2e2b5a61185fc376a30ea11af505",
  "bytecode": "0x608060405234801561001057600080fd5b5061080d806100206000396000f3fe608060405234801561001057600080fd5b50600436106100885760003560e01c806391d148541161005b57806391d1485414610155578063ca15c87314610195578063d547741f146101b2578063fa82ac76146101de57610088565b8063248a9ca31461008d5780632f2ff15d146100bc57806336568abe146100ea5780639010d07c14610116575b600080fd5b6100aa600480360360208110156100a357600080fd5b503561020a565b60408051918252519081900360200190f35b6100e8600480360360408110156100d257600080fd5b50803590602001356001600160a01b0316610228565b005b6100e86004803603604081101561010057600080fd5b50803590602001356001600160a01b0316610295565b6101396004803603604081101561012c57600080fd5b50803590602001356102e6565b604080516001600160a01b039092168252519081900360200190f35b6101816004803603604081101561016b57600080fd5b50803590602001356001600160a01b0316610312565b604080519115158252519081900360200190f35b6100aa600480360360208110156101ab57600080fd5b503561031e565b6100e8600480360360408110156101c857600080fd5b50803590602001356001600160a01b031661033f565b6100e8600480360360408110156101f457600080fd5b50803590602001356001600160a01b0316610385565b60006102146103e0565b600092835260205250604090206002015490565b61024c6102336103e0565b6000848152602091909152604090206002015433610404565b6102875760405162461bcd60e51b815260040180806020018281038252602f81526020018061074a602f913960400191505060405180910390fd5b6102918282610432565b5050565b6001600160a01b03811633146102dc5760405162461bcd60e51b815260040180806020018281038252602f8152602001806107a9602f913960400191505060405180910390fd5b610291828261049a565b6000610309826102f46103e0565b60008681526020919091526040902090610501565b90505b92915050565b60006103098383610404565b600061030c61032b6103e0565b60008481526020919091526040902061050d565b61034a6102336103e0565b6102dc5760405162461bcd60e51b81526004018080602001828103825260308152602001806107796030913960400191505060405180910390fd5b3361038e610518565b6001600160a01b0316146103d5576040805162461bcd60e51b81526020600482015260096024820152682727aa2fa7aba722a960b91b604482015290519081900360640190fd5b610287600082610432565b7f6282190449f76f72a9f692e4d8619a03764b7253394788948e36a7a57ba4a00e90565b60008061040f6103e0565b600085815260208290526040902090915061042a9084610534565b949350505050565b600061043c6103e0565b60008481526020829052604090209091506104579083610549565b156104955760405133906001600160a01b0384169085907f2f8788117e7eff1d82e926ec794901d17c78024a50270940304540a733656f0d90600090a45b505050565b60006104a46103e0565b60008481526020829052604090209091506104bf908361055e565b156104955760405133906001600160a01b0384169085907ff6391f5c32d9c69d2a47ea670b442974b53935d1edc7fd64eb21e047a839171b90600090a4505050565b60006103098383610573565b600061030c826105d7565b60006105226105db565b600401546001600160a01b0316919050565b6000610309836001600160a01b0384166105ff565b6000610309836001600160a01b038416610617565b6000610309836001600160a01b038416610661565b815460009082106105b55760405162461bcd60e51b81526004018080602001828103825260228152602001806107286022913960400191505060405180910390fd5b8260000182815481106105c457fe5b9060005260206000200154905092915050565b5490565b7fc8fcad8db84d3cc18b4c41d551ea0ee66dd599cde068d998e57d5e09332c131c90565b60009081526001919091016020526040902054151590565b600061062383836105ff565b6106595750815460018181018455600084815260208082209093018490558454848252828601909352604090209190915561030c565b50600061030c565b6000818152600183016020526040812054801561071d578354600019808301919081019060009087908390811061069457fe5b90600052602060002001549050808760000184815481106106b157fe5b6000918252602080832090910192909255828152600189810190925260409020908401905586548790806106e157fe5b6001900381819060005260206000200160009055905586600101600087815260200190815260200160002060009055600194505050505061030c565b600091505061030c56fe456e756d657261626c655365743a20696e646578206f7574206f6620626f756e6473416363657373436f6e74726f6c3a2073656e646572206d75737420626520616e2061646d696e20746f206772616e74416363657373436f6e74726f6c3a2073656e646572206d75737420626520616e2061646d696e20746f207265766f6b65416363657373436f6e74726f6c3a2063616e206f6e6c792072656e6f756e636520726f6c657320666f722073656c66a26469706673582212202c190042c7af106d2cce48a46e6fdb8da3ab2fa57400b763b43f83aff45e2d3c64736f6c63430007060033",
  "devdoc": {
    "kind": "dev",
    "methods": {
      "getRoleAdmin(bytes32)": {
        "params": {
          "role": "Bytes32 array representing the role"
        },
        "returns": {
          "_0": "Bytes32 array of the administrative role for the given role."
        }
      },
      "getRoleMember(bytes32,uint256)": {
        "params": {
          "index": "Index of the pool member.",
          "role": "Role of the pool member."
        },
        "returns": {
          "_0": "member address."
        }
      },
      "getRoleMemberCount(bytes32)": {
        "params": {
          "role": "Role to get the count for."
        },
        "returns": {
          "_0": "the amount of members for the role."
        }
      },
      "grantRole(bytes32,address)": {
        "params": {
          "account": "Address of the account that is given the role.",
          "role": "Bytes32 array representing the role."
        }
      },
      "hasRole(bytes32,address)": {
        "params": {
          "account": "Account to check the role for.",
          "role": "Role to check account for."
        },
        "returns": {
          "_0": "if the account bears the role."
        }
      },
      "renounceRole(bytes32,address)": {
        "params": {
          "account": "Address of the account",
          "role": "Bytes32 array representing the role."
        }
      },
      "revokeRole(bytes32,address)": {
        "params": {
          "account": "Address of the account",
          "role": "Bytes32 array representing the role."
        }
      },
      "setupRole(bytes32,address)": {
        "details": "Called in initialize methods.",
        "params": {
          "account": "Address of the account",
          "role": "Bytes32 array representing the role."
        }
      }
    },
    "version": 1
  },
  "userdoc": {
    "kind": "user",
    "methods": {
      "getRoleAdmin(bytes32)": {
        "notice": "Determines what role is required to manage the role."
      },
      "getRoleMember(bytes32,uint256)": {
        "notice": "Gets the member address for a given role."
      },
      "getRoleMemberCount(bytes32)": {
        "notice": "Gets the amount of members for a role."
      },
      "grantRole(bytes32,address)": {
        "notice": "Grants a role to a given account address."
      },
      "hasRole(bytes32,address)": {
        "notice": "Checks if an address bears a given role."
      },
      "renounceRole(bytes32,address)": {
        "notice": "Renounces the role for a given account address if equal to sender address."
      },
      "revokeRole(bytes32,address)": {
        "notice": "Revokes the role for a given account address if sender is admin of the role."
      }
    },
    "version": 1
  },
  "storageLayout": {
    "storage": [],
    "types": null
  }
}