{
  "address": "0xf687DB34eC569B778FB02F0D4FBC385e3fb05185",
  "abi": [
    {
      "anonymous": false,
      "inputs": [
        {
          "indexed": true,
          "internalType": "bytes32",
          "name": "role",
          "type": "bytes32"
        },
        {
          "indexed": true,
          "internalType": "bytes32",
          "name": "previousAdminRole",
          "type": "bytes32"
        },
        {
          "indexed": true,
          "internalType": "bytes32",
          "name": "newAdminRole",
          "type": "bytes32"
        }
      ],
      "name": "RoleAdminChanged",
      "type": "event"
    },
    {
      "anonymous": false,
      "inputs": [
        {
          "indexed": true,
          "internalType": "bytes32",
          "name": "role",
          "type": "bytes32"
        },
        {
          "indexed": true,
          "internalType": "address",
          "name": "account",
          "type": "address"
        },
        {
          "indexed": true,
          "internalType": "address",
          "name": "sender",
          "type": "address"
        }
      ],
      "name": "RoleGranted",
      "type": "event"
    },
    {
      "anonymous": false,
      "inputs": [
        {
          "indexed": true,
          "internalType": "bytes32",
          "name": "role",
          "type": "bytes32"
        },
        {
          "indexed": true,
          "internalType": "address",
          "name": "account",
          "type": "address"
        },
        {
          "indexed": true,
          "internalType": "address",
          "name": "sender",
          "type": "address"
        }
      ],
      "name": "RoleRevoked",
      "type": "event"
    },
    {
      "inputs": [
        {
          "internalType": "bytes32",
          "name": "role",
          "type": "bytes32"
        }
      ],
      "name": "getRoleAdmin",
      "outputs": [
        {
          "internalType": "bytes32",
          "name": "",
          "type": "bytes32"
        }
      ],
      "stateMutability": "view",
      "type": "function"
    },
    {
      "inputs": [
        {
          "internalType": "bytes32",
          "name": "role",
          "type": "bytes32"
        },
        {
          "internalType": "uint256",
          "name": "index",
          "type": "uint256"
        }
      ],
      "name": "getRoleMember",
      "outputs": [
        {
          "internalType": "address",
          "name": "",
          "type": "address"
        }
      ],
      "stateMutability": "view",
      "type": "function"
    },
    {
      "inputs": [
        {
          "internalType": "bytes32",
          "name": "role",
          "type": "bytes32"
        }
      ],
      "name": "getRoleMemberCount",
      "outputs": [
        {
          "internalType": "uint256",
          "name": "",
          "type": "uint256"
        }
      ],
      "stateMutability": "view",
      "type": "function"
    },
    {
      "inputs": [
        {
          "internalType": "bytes32",
          "name": "role",
          "type": "bytes32"
        },
        {
          "internalType": "address",
          "name": "account",
          "type": "address"
        }
      ],
      "name": "grantRole",
      "outputs": [],
      "stateMutability": "nonpayable",
      "type": "function"
    },
    {
      "inputs": [
        {
          "internalType": "bytes32",
          "name": "role",
          "type": "bytes32"
        },
        {
          "internalType": "address",
          "name": "account",
          "type": "address"
        }
      ],
      "name": "hasRole",
      "outputs": [
        {
          "internalType": "bool",
          "name": "",
          "type": "bool"
        }
      ],
      "stateMutability": "view",
      "type": "function"
    },
    {
      "inputs": [
        {
          "internalType": "bytes32",
          "name": "role",
          "type": "bytes32"
        },
        {
          "internalType": "address",
          "name": "account",
          "type": "address"
        }
      ],
      "name": "renounceRole",
      "outputs": [],
      "stateMutability": "nonpayable",
      "type": "function"
    },
    {
      "inputs": [
        {
          "internalType": "bytes32",
          "name": "role",
          "type": "bytes32"
        },
        {
          "internalType": "address",
          "name": "account",
          "type": "address"
        }
      ],
      "name": "revokeRole",
      "outputs": [],
      "stateMutability": "nonpayable",
      "type": "function"
    }
  ],
  "transactionHash": "0x4adaae34a9d40c64a01fb21c6d0f4c4590870bd3c368a54603f823b5e1a653b1",
  "args": [],
  "numDeployments": 1,
  "solcInputHash": "bedbddaa7a51d62abf37dc894b9fb6be",
  "bytecode": "0x608060405234801561001057600080fd5b5061073b806100206000396000f3fe608060405234801561001057600080fd5b506004361061007d5760003560e01c80639010d07c1161005b5780639010d07c1461010b57806391d148541461014a578063ca15c8731461018a578063d547741f146101a75761007d565b8063248a9ca3146100825780632f2ff15d146100b157806336568abe146100df575b600080fd5b61009f6004803603602081101561009857600080fd5b50356101d3565b60408051918252519081900360200190f35b6100dd600480360360408110156100c757600080fd5b50803590602001356001600160a01b03166101f1565b005b6100dd600480360360408110156100f557600080fd5b50803590602001356001600160a01b031661025e565b61012e6004803603604081101561012157600080fd5b50803590602001356102af565b604080516001600160a01b039092168252519081900360200190f35b6101766004803603604081101561016057600080fd5b50803590602001356001600160a01b03166102db565b604080519115158252519081900360200190f35b61009f600480360360208110156101a057600080fd5b50356102e7565b6100dd600480360360408110156101bd57600080fd5b50803590602001356001600160a01b0316610308565b60006101dd61034e565b600092835260205250604090206002015490565b6102156101fc61034e565b6000848152602091909152604090206002015433610372565b6102505760405162461bcd60e51b815260040180806020018281038252602f815260200180610678602f913960400191505060405180910390fd5b61025a82826103a0565b5050565b6001600160a01b03811633146102a55760405162461bcd60e51b815260040180806020018281038252602f8152602001806106d7602f913960400191505060405180910390fd5b61025a8282610408565b60006102d2826102bd61034e565b6000868152602091909152604090209061046f565b90505b92915050565b60006102d28383610372565b60006102d56102f461034e565b60008481526020919091526040902061047b565b6103136101fc61034e565b6102a55760405162461bcd60e51b81526004018080602001828103825260308152602001806106a76030913960400191505060405180910390fd5b7f6282190449f76f72a9f692e4d8619a03764b7253394788948e36a7a57ba4a00e90565b60008061037d61034e565b60008581526020829052604090209091506103989084610486565b949350505050565b60006103aa61034e565b60008481526020829052604090209091506103c5908361049b565b156104035760405133906001600160a01b0384169085907f2f8788117e7eff1d82e926ec794901d17c78024a50270940304540a733656f0d90600090a45b505050565b600061041261034e565b600084815260208290526040902090915061042d90836104b0565b156104035760405133906001600160a01b0384169085907ff6391f5c32d9c69d2a47ea670b442974b53935d1edc7fd64eb21e047a839171b90600090a4505050565b60006102d283836104c5565b60006102d582610529565b60006102d2836001600160a01b03841661052d565b60006102d2836001600160a01b038416610545565b60006102d2836001600160a01b03841661058f565b815460009082106105075760405162461bcd60e51b81526004018080602001828103825260228152602001806106566022913960400191505060405180910390fd5b82600001828154811061051657fe5b9060005260206000200154905092915050565b5490565b60009081526001919091016020526040902054151590565b6000610551838361052d565b610587575081546001818101845560008481526020808220909301849055845484825282860190935260409020919091556102d5565b5060006102d5565b6000818152600183016020526040812054801561064b57835460001980830191908101906000908790839081106105c257fe5b90600052602060002001549050808760000184815481106105df57fe5b60009182526020808320909101929092558281526001898101909252604090209084019055865487908061060f57fe5b600190038181906000526020600020016000905590558660010160008781526020019081526020016000206000905560019450505050506102d5565b60009150506102d556fe456e756d657261626c655365743a20696e646578206f7574206f6620626f756e6473416363657373436f6e74726f6c3a2073656e646572206d75737420626520616e2061646d696e20746f206772616e74416363657373436f6e74726f6c3a2073656e646572206d75737420626520616e2061646d696e20746f207265766f6b65416363657373436f6e74726f6c3a2063616e206f6e6c792072656e6f756e636520726f6c657320666f722073656c66a2646970667358221220be7c2a18cba877b29ef76dbb97aa3b3e396c7c4181d6ca4803c487c55f769add64736f6c63430007060033",
  "devdoc": {
    "kind": "dev",
    "methods": {
      "getRoleAdmin(bytes32)": {
        "params": {
          "role": "Bytes32 array representing the role"
        },
        "returns": {
          "_0": "Bytes32 array of the administrative role for the given role."
        }
      },
      "getRoleMember(bytes32,uint256)": {
        "params": {
          "index": "Index of the pool member.",
          "role": "Role of the pool member."
        },
        "returns": {
          "_0": "member address."
        }
      },
      "getRoleMemberCount(bytes32)": {
        "params": {
          "role": "Role to get the count for."
        },
        "returns": {
          "_0": "the amount of members for the role."
        }
      },
      "grantRole(bytes32,address)": {
        "params": {
          "account": "Address of the account that is given the role.",
          "role": "Bytes32 array representing the role."
        }
      },
      "hasRole(bytes32,address)": {
        "params": {
          "account": "Account to check the role for.",
          "role": "Role to check account for."
        },
        "returns": {
          "_0": "if the account bears the role."
        }
      },
      "renounceRole(bytes32,address)": {
        "params": {
          "account": "Address of the account",
          "role": "Bytes32 array representing the role."
        }
      },
      "revokeRole(bytes32,address)": {
        "params": {
          "account": "Address of the account",
          "role": "Bytes32 array representing the role."
        }
      }
    },
    "version": 1
  },
  "userdoc": {
    "kind": "user",
    "methods": {
      "getRoleAdmin(bytes32)": {
        "notice": "Determines what role is required to manage the role."
      },
      "getRoleMember(bytes32,uint256)": {
        "notice": "Gets the member address for a given role."
      },
      "getRoleMemberCount(bytes32)": {
        "notice": "Gets the amount of members for a role."
      },
      "grantRole(bytes32,address)": {
        "notice": "Grants a role to a given account address."
      },
      "hasRole(bytes32,address)": {
        "notice": "Checks if an address bears a given role."
      },
      "renounceRole(bytes32,address)": {
        "notice": "Renounces the role for a given account address if equal to sender address."
      },
      "revokeRole(bytes32,address)": {
        "notice": "Revokes the role for a given account address if sender is admin of the role."
      }
    },
    "version": 1
  },
  "storageLayout": {
    "storage": [],
    "types": null
  }
}