{
  "address": "0x4612E42a352E65457797188cCE0d4e8d2e0A2730",
  "abi": [
    {
      "inputs": [
        {
          "internalType": "address",
          "name": "_bondContractAddress",
          "type": "address"
        }
      ],
      "stateMutability": "nonpayable",
      "type": "constructor"
    },
    {
      "inputs": [
        {
          "internalType": "address",
          "name": "_user",
          "type": "address"
        }
      ],
      "name": "largestTruePricePaidOf",
      "outputs": [
        {
          "internalType": "uint256",
          "name": "",
          "type": "uint256"
        }
      ],
      "stateMutability": "view",
      "type": "function"
    }
  ],
  "transactionHash": "0x841a609a74eebe7fd595f68bb02a732708a89e90d13d2f396d66b75175af6dc6",
  "args": [
    "0x3b8E9B6047B9ea84Ea7E9758347F2fF15021c632"
  ],
  "numDeployments": 1,
  "solcInputHash": "7a622f4a2847b06e40eaa51f0cb0c3aa",
  "bytecode": "0x608060405234801561001057600080fd5b506040516104ad3803806104ad83398101604081905261002f91610054565b600080546001600160a01b0319166001600160a01b0392909216919091179055610084565b60006020828403121561006657600080fd5b81516001600160a01b038116811461007d57600080fd5b9392505050565b61041a806100936000396000f3fe608060405234801561001057600080fd5b506004361061002b5760003560e01c8063fddf17c514610030575b600080fd5b61004361003e3660046101fd565b610055565b60405190815260200160405180910390f35b60006001600160a01b0382166100995760405162461bcd60e51b815260206004820152600560248201526410bab9b2b960d91b604482015260640160405180910390fd5b600080546040516363fd5ce160e11b81526001600160a01b0385811660048301529091169063c7fab9c29060240160006040518083038186803b1580156100df57600080fd5b505afa1580156100f3573d6000803e3d6000fd5b505050506040513d6000823e601f3d908101601f1916820160405261011b919081019061022d565b90506000805b82518110156101f5576000805484516001600160a01b03909116906352f61b0590869085908110610154576101546103b8565b60200260200101516040518263ffffffff1660e01b815260040161017a91815260200190565b60e06040518083038186803b15801561019257600080fd5b505afa1580156101a6573d6000803e3d6000fd5b505050506040513d601f19601f820116820180604052508101906101ca91906102da565b60c0015190508281116101dd57826101df565b805b92505080806101ed9061038f565b915050610121565b509392505050565b60006020828403121561020f57600080fd5b81356001600160a01b038116811461022657600080fd5b9392505050565b6000602080838503121561024057600080fd5b825167ffffffffffffffff8082111561025857600080fd5b818501915085601f83011261026c57600080fd5b81518181111561027e5761027e6103ce565b8060051b915061028f84830161035e565b8181528481019084860184860187018a10156102aa57600080fd5b600095505b838610156102cd5780518352600195909501949186019186016102af565b5098975050505050505050565b600060e082840312156102ec57600080fd5b60405160e0810181811067ffffffffffffffff8211171561030f5761030f6103ce565b8060405250825181526020830151602082015260408301516040820152606083015160608201526080830151608082015260a083015160a082015260c083015160c08201528091505092915050565b604051601f8201601f1916810167ffffffffffffffff81118282101715610387576103876103ce565b604052919050565b60006000198214156103b157634e487b7160e01b600052601160045260246000fd5b5060010190565b634e487b7160e01b600052603260045260246000fd5b634e487b7160e01b600052604160045260246000fdfea26469706673582212200b427666c79e217328a7c2ba5c1e789ebc4b1dbef9a0cac1b839c30d8a2bac1c64736f6c63430008060033",
  "devdoc": {
    "kind": "dev",
    "methods": {},
    "version": 1
  },
  "userdoc": {
    "kind": "user",
    "methods": {},
    "version": 1
  },
  "storageLayout": {
    "storage": [
      {
        "astId": 52,
        "contract": "contracts/utils/BondPurchaseChecker.sol:BondPurchaseChecker",
        "label": "bond",
        "offset": 0,
        "slot": "0",
        "type": "t_contract(ICustomBill)34"
      }
    ],
    "types": {
      "t_contract(ICustomBill)34": {
        "encoding": "inplace",
        "label": "contract ICustomBill",
        "numberOfBytes": "20"
      }
    }
  }
}