{
  "address": "0xD84c919B62f72B4CCA939552a8f1b9D3E738F359",
  "abi": [
    {
      "inputs": [
        {
          "internalType": "address",
          "name": "",
          "type": "address"
        },
        {
          "internalType": "address",
          "name": "",
          "type": "address"
        },
        {
          "internalType": "uint256[]",
          "name": "",
          "type": "uint256[]"
        },
        {
          "internalType": "uint256[]",
          "name": "",
          "type": "uint256[]"
        },
        {
          "internalType": "bytes",
          "name": "",
          "type": "bytes"
        }
      ],
      "name": "onERC1155BatchReceived",
      "outputs": [
        {
          "internalType": "bytes4",
          "name": "",
          "type": "bytes4"
        }
      ],
      "stateMutability": "pure",
      "type": "function"
    },
    {
      "inputs": [
        {
          "internalType": "address",
          "name": "",
          "type": "address"
        },
        {
          "internalType": "address",
          "name": "",
          "type": "address"
        },
        {
          "internalType": "uint256",
          "name": "",
          "type": "uint256"
        },
        {
          "internalType": "uint256",
          "name": "",
          "type": "uint256"
        },
        {
          "internalType": "bytes",
          "name": "",
          "type": "bytes"
        }
      ],
      "name": "onERC1155Received",
      "outputs": [
        {
          "internalType": "bytes4",
          "name": "",
          "type": "bytes4"
        }
      ],
      "stateMutability": "pure",
      "type": "function"
    }
  ],
  "transactionHash": "0xe9f032843f5ee8b6a432dce953ec5abf28a3fe0baf3c382e3fea6bb18a5ec8b2",
  "args": [],
  "numDeployments": 1,
  "solcInputHash": "58ce55c6b2a972e45f509cf26e646234",
  "bytecode": "0x608060405234801561001057600080fd5b5061033a806100206000396000f3fe608060405234801561001057600080fd5b50600436106100365760003560e01c8063bc197c811461003b578063f23a6e6114610219575b600080fd5b6101fc600480360360a081101561005157600080fd5b6001600160a01b038235811692602081013590911691810190606081016040820135600160201b81111561008457600080fd5b82018360208201111561009657600080fd5b803590602001918460208302840111600160201b831117156100b757600080fd5b9190808060200260200160405190810160405280939291908181526020018383602002808284376000920191909152509295949360208101935035915050600160201b81111561010657600080fd5b82018360208201111561011857600080fd5b803590602001918460208302840111600160201b8311171561013957600080fd5b9190808060200260200160405190810160405280939291908181526020018383602002808284376000920191909152509295949360208101935035915050600160201b81111561018857600080fd5b82018360208201111561019a57600080fd5b803590602001918460018302840111600160201b831117156101bb57600080fd5b91908080601f0160208091040260200160405190810160405280939291908181526020018383808284376000920191909152509295506102e2945050505050565b604080516001600160e01b03199092168252519081900360200190f35b6101fc600480360360a081101561022f57600080fd5b6001600160a01b03823581169260208101359091169160408201359160608101359181019060a081016080820135600160201b81111561026e57600080fd5b82018360208201111561028057600080fd5b803590602001918460018302840111600160201b831117156102a157600080fd5b91908080601f0160208091040260200160405190810160405280939291908181526020018383808284376000920191909152509295506102f3945050505050565b63bc197c8160e01b95945050505050565b63f23a6e6160e01b9594505050505056fea264697066735822122004bc18b74684a6cc054b876d4acf715ca5918ab6c214f0aa477906553a7f837964736f6c63430007060033",
  "devdoc": {
    "kind": "dev",
    "methods": {},
    "version": 1
  },
  "userdoc": {
    "kind": "user",
    "methods": {},
    "version": 1
  },
  "storageLayout": {
    "storage": [],
    "types": null
  }
}