{
  "address": "0xf314C062a6b5C1AB5ec669F50a2E608A0B346830",
  "abi": [
    {
      "anonymous": false,
      "inputs": [
        {
          "indexed": true,
          "internalType": "uint256",
          "name": "memberID",
          "type": "uint256"
        },
        {
          "indexed": true,
          "internalType": "address",
          "name": "previousAddress",
          "type": "address"
        },
        {
          "indexed": true,
          "internalType": "address",
          "name": "newAddress",
          "type": "address"
        }
      ],
      "name": "MemberAddressChanged",
      "type": "event"
    },
    {
      "anonymous": false,
      "inputs": [
        {
          "indexed": true,
          "internalType": "bytes32",
          "name": "role",
          "type": "bytes32"
        },
        {
          "indexed": true,
          "internalType": "bytes32",
          "name": "previousAdminRole",
          "type": "bytes32"
        },
        {
          "indexed": true,
          "internalType": "bytes32",
          "name": "newAdminRole",
          "type": "bytes32"
        }
      ],
      "name": "RoleAdminChanged",
      "type": "event"
    },
    {
      "anonymous": false,
      "inputs": [
        {
          "indexed": true,
          "internalType": "bytes32",
          "name": "role",
          "type": "bytes32"
        },
        {
          "indexed": true,
          "internalType": "address",
          "name": "account",
          "type": "address"
        },
        {
          "indexed": true,
          "internalType": "address",
          "name": "sender",
          "type": "address"
        }
      ],
      "name": "RoleGranted",
      "type": "event"
    },
    {
      "anonymous": false,
      "inputs": [
        {
          "indexed": true,
          "internalType": "bytes32",
          "name": "role",
          "type": "bytes32"
        },
        {
          "indexed": true,
          "internalType": "address",
          "name": "account",
          "type": "address"
        },
        {
          "indexed": true,
          "internalType": "address",
          "name": "sender",
          "type": "address"
        }
      ],
      "name": "RoleRevoked",
      "type": "event"
    },
    {
      "inputs": [
        {
          "internalType": "address",
          "name": "_account",
          "type": "address"
        }
      ],
      "name": "addManager",
      "outputs": [],
      "stateMutability": "nonpayable",
      "type": "function"
    },
    {
      "inputs": [
        {
          "internalType": "address",
          "name": "_account",
          "type": "address"
        }
      ],
      "name": "addMember",
      "outputs": [],
      "stateMutability": "nonpayable",
      "type": "function"
    },
    {
      "inputs": [
        {
          "internalType": "uint256",
          "name": "_member",
          "type": "uint256"
        }
      ],
      "name": "getAddressByMember",
      "outputs": [
        {
          "internalType": "address",
          "name": "",
          "type": "address"
        }
      ],
      "stateMutability": "view",
      "type": "function"
    },
    {
      "inputs": [
        {
          "internalType": "address",
          "name": "_address",
          "type": "address"
        }
      ],
      "name": "getMemberByAddress",
      "outputs": [
        {
          "internalType": "uint256",
          "name": "",
          "type": "uint256"
        }
      ],
      "stateMutability": "view",
      "type": "function"
    },
    {
      "inputs": [],
      "name": "getOwner",
      "outputs": [
        {
          "internalType": "address",
          "name": "",
          "type": "address"
        }
      ],
      "stateMutability": "view",
      "type": "function"
    },
    {
      "inputs": [
        {
          "internalType": "address",
          "name": "_owner",
          "type": "address"
        }
      ],
      "name": "initializeRoles",
      "outputs": [],
      "stateMutability": "nonpayable",
      "type": "function"
    },
    {
      "inputs": [
        {
          "internalType": "address",
          "name": "_account",
          "type": "address"
        }
      ],
      "name": "isManager",
      "outputs": [
        {
          "internalType": "bool",
          "name": "",
          "type": "bool"
        }
      ],
      "stateMutability": "view",
      "type": "function"
    },
    {
      "inputs": [
        {
          "internalType": "address",
          "name": "_account",
          "type": "address"
        }
      ],
      "name": "isManagerRoleAdmin",
      "outputs": [
        {
          "internalType": "bool",
          "name": "",
          "type": "bool"
        }
      ],
      "stateMutability": "view",
      "type": "function"
    },
    {
      "inputs": [
        {
          "internalType": "address",
          "name": "_account",
          "type": "address"
        }
      ],
      "name": "isMember",
      "outputs": [
        {
          "internalType": "bool",
          "name": "",
          "type": "bool"
        }
      ],
      "stateMutability": "view",
      "type": "function"
    },
    {
      "inputs": [
        {
          "internalType": "address",
          "name": "_account",
          "type": "address"
        }
      ],
      "name": "isMemberRoleAdmin",
      "outputs": [
        {
          "internalType": "bool",
          "name": "",
          "type": "bool"
        }
      ],
      "stateMutability": "view",
      "type": "function"
    },
    {
      "inputs": [
        {
          "internalType": "address",
          "name": "_account",
          "type": "address"
        }
      ],
      "name": "removeManager",
      "outputs": [],
      "stateMutability": "nonpayable",
      "type": "function"
    },
    {
      "inputs": [
        {
          "internalType": "address",
          "name": "_account",
          "type": "address"
        }
      ],
      "name": "removeMember",
      "outputs": [],
      "stateMutability": "nonpayable",
      "type": "function"
    },
    {
      "inputs": [
        {
          "internalType": "address",
          "name": "_oldAddress",
          "type": "address"
        },
        {
          "internalType": "address",
          "name": "_newAddress",
          "type": "address"
        }
      ],
      "name": "upgradeAddress",
      "outputs": [],
      "stateMutability": "nonpayable",
      "type": "function"
    }
  ],
  "transactionHash": "0x753bc2be5a1ca13a5d276b93a94c5632fc3c4c8d1c543d7a6627bc018bb95773",
  "args": [],
  "numDeployments": 1,
  "solcInputHash": "954101db8fd21c30da9bb6a572893bde",
  "bytecode": "0x608060405234801561001057600080fd5b50610d86806100206000396000f3fe608060405234801561001057600080fd5b50600436106100cf5760003560e01c806384c7b5d21161008c578063a230c52411610066578063a230c5241461024f578063ac18de4314610275578063ca6d56dc1461029b578063f3ae2415146102c1576100cf565b806384c7b5d2146101e857806388ba03101461020e578063893d20e814610247576100cf565b80630b1ca49a146100d457806327eef566146100fc5780632d06177a1461012a5780633dd9899f1461015057806354208a2f146101885780637f8057d5146101ae575b600080fd5b6100fa600480360360208110156100ea57600080fd5b50356001600160a01b03166102e7565b005b6100fa6004803603604081101561011257600080fd5b506001600160a01b038135811691602001351661036e565b6100fa6004803603602081101561014057600080fd5b50356001600160a01b031661055f565b6101766004803603602081101561016657600080fd5b50356001600160a01b03166105e7565b60408051918252519081900360200190f35b6100fa6004803603602081101561019e57600080fd5b50356001600160a01b0316610613565b6101d4600480360360208110156101c457600080fd5b50356001600160a01b03166106a7565b604080519115158252519081900360200190f35b6101d4600480360360208110156101fe57600080fd5b50356001600160a01b03166106e2565b61022b6004803603602081101561022457600080fd5b5035610717565b604080516001600160a01b039092168252519081900360200190f35b61022b61073e565b6101d46004803603602081101561026557600080fd5b50356001600160a01b031661074d565b6100fa6004803603602081101561028b57600080fd5b50356001600160a01b0316610758565b6100fa600480360360208110156102b157600080fd5b50356001600160a01b0316610833565b6101d4600480360360208110156102d757600080fd5b50356001600160a01b03166108bb565b610306600080516020610d118339815191526103016108c6565b610913565b80610319575061031960006103016108c6565b610353576040805162461bcd60e51b815260206004820152600660248201526541434345535360d01b604482015290519081900360640190fd5b61036b600080516020610d3183398151915282610941565b50565b6103766108c6565b6001600160a01b0316826001600160a01b0316146103cc576040805162461bcd60e51b815260206004820152600e60248201526d27a6222fa727aa2fa9a2a72222a960911b604482015290519081900360640190fd5b60006103d66109b9565b6001600160a01b038416600090815260018201602052604090205490915080610433576040805162461bcd60e51b815260206004820152600a6024820152692727a72fa6a2a6a122a960b11b604482015290519081900360640190fd5b6001600160a01b03808516600090815260018401602090815260408083208390559286168083528383208590558483526002860190915291902080546001600160a01b0319169091179055610496600080516020610d3183398151915285610913565b156104cb576104b3600080516020610d3183398151915285610941565b6104cb600080516020610d31833981519152846109dd565b6104e3600080516020610d1183398151915285610913565b1561051857610500600080516020610d1183398151915285610941565b610518600080516020610d11833981519152846109dd565b826001600160a01b0316846001600160a01b0316827f8132c6c688b9e92e30d65e58365bf9ddec7ca7333f82e764d6a1c66d08d7f33660405160405180910390a450505050565b610579600080516020610d118339815191526103016108c6565b8061058c575061058c60006103016108c6565b6105c6576040805162461bcd60e51b815260206004820152600660248201526541434345535360d01b604482015290519081900360640190fd5b6105cf81610a54565b61036b600080516020610d11833981519152826109dd565b60006105f16109b9565b6001600160a01b03929092166000908152600190920160205250604090205490565b61061b6109b9565b5415610657576040805162461bcd60e51b815260206004808301919091526024820152631253925560e21b604482015290519081900360640190fd5b6103e86106626109b9565b5561066e600082610ad4565b610686600080516020610d3183398151915282610ad4565b61069e600080516020610d1183398151915282610ad4565b61036b81610a54565b60006106dc6106b4610ae2565b600080516020610d118339815191526000908152602091909152604090206002015483610913565b92915050565b60006106dc6106ef610ae2565b600080516020610d318339815191526000908152602091909152604090206002015483610913565b60006107216109b9565b60009283526002016020525060409020546001600160a01b031690565b6000610748610b06565b905090565b60006106dc82610b10565b610772600080516020610d118339815191526103016108c6565b80610785575061078560006103016108c6565b6107bf576040805162461bcd60e51b815260206004820152600660248201526541434345535360d01b604482015290519081900360640190fd5b806001600160a01b03166107d16108c6565b6001600160a01b0316141561081b576040805162461bcd60e51b815260206004820152600b60248201526a13d5d397d050d0d3d5539560aa1b604482015290519081900360640190fd5b61036b600080516020610d1183398151915282610941565b61084d600080516020610d118339815191526103016108c6565b80610860575061086060006103016108c6565b61089a576040805162461bcd60e51b815260206004820152600660248201526541434345535360d01b604482015290519081900360640190fd5b6108a381610a54565b61036b600080516020610d31833981519152826109dd565b60006106dc82610b48565b600060606000368080601f0160208091040260200160405190810160405280939291908181526020018383808284376000920191909152505050503601516001600160a01b031692915050565b60008061091e610ae2565b60008581526020829052604090209091506109399084610b62565b949350505050565b600061094b610ae2565b60008481526020829052604090209091506109669083610b7e565b156109b4576109736108c6565b6001600160a01b0316826001600160a01b0316847ff6391f5c32d9c69d2a47ea670b442974b53935d1edc7fd64eb21e047a839171b60405160405180910390a45b505050565b7faa97fdeef5de5607974189e6a2429d502dcc32b43d658c3c065d5ca083ee1fab90565b60006109e7610ae2565b6000848152602082905260409020909150610a029083610b93565b156109b457610a0f6108c6565b6001600160a01b0316826001600160a01b0316847f2f8788117e7eff1d82e926ec794901d17c78024a50270940304540a733656f0d60405160405180910390a4505050565b6000610a5e6109b9565b6001600160a01b03831660009081526001820160205260409020549091508015610a8957505061036b565b50805460019081018083556001600160a01b0384166000818152928401602090815260408085208490559284526002909401909352902080546001600160a01b031916909117905550565b610ade82826109dd565b5050565b7f6282190449f76f72a9f692e4d8619a03764b7253394788948e36a7a57ba4a00e90565b6000610748610ba8565b6000610b2a600080516020610d3183398151915283610913565b806106dc57506106dc600080516020610d1183398151915283610913565b60006106dc600080516020610d1183398151915283610913565b6000610b77836001600160a01b038416610bc4565b9392505050565b6000610b77836001600160a01b038416610bdc565b6000610b77836001600160a01b038416610ca2565b6000610bb2610cec565b600401546001600160a01b0316919050565b60009081526001919091016020526040902054151590565b60008181526001830160205260408120548015610c985783546000198083019190810190600090879083908110610c0f57fe5b9060005260206000200154905080876000018481548110610c2c57fe5b600091825260208083209091019290925582815260018981019092526040902090840190558654879080610c5c57fe5b600190038181906000526020600020016000905590558660010160008781526020019081526020016000206000905560019450505050506106dc565b60009150506106dc565b6000610cae8383610bc4565b610ce4575081546001818101845560008481526020808220909301849055845484825282860190935260409020919091556106dc565b5060006106dc565b7fc8fcad8db84d3cc18b4c41d551ea0ee66dd599cde068d998e57d5e09332c131c9056fe241ecf16d79d0f8dbfb92cbc07fe17840425976cf0667f022fe9877caa831b08829b824e2329e205435d941c9f13baf578548505283d29261236d8e6596d4636a2646970667358221220b26a186a7172e058a71a87c042c705ee587967b4ad4a65bb83ec890c0e7ec02364736f6c63430007040033",
  "devdoc": {
    "kind": "dev",
    "methods": {
      "addManager(address)": {
        "params": {
          "_account": "Address of the account to give the manager role to."
        }
      },
      "addMember(address)": {
        "params": {
          "_account": "Address of the account to give the member role to."
        }
      },
      "getAddressByMember(uint256)": {
        "details": "Different member id's can map to the same address.",
        "params": {
          "_member": "The index of the member account."
        },
        "returns": {
          "_0": "Address of the member for the given member index in the memberToAddress storage."
        }
      },
      "getMemberByAddress(address)": {
        "params": {
          "_address": "The address of the member account."
        },
        "returns": {
          "_0": "Index of the member for a given address."
        }
      },
      "getOwner()": {
        "returns": {
          "_0": "address of the contract owner."
        }
      },
      "initializeRoles(address)": {
        "details": "Should be called right after deploying the contract. _owner will become member, manager and role admin.",
        "params": {
          "_owner": "Address of the account that should own the contract."
        }
      },
      "isManager(address)": {
        "params": {
          "_account": "Address of the account to check the manager role for."
        },
        "returns": {
          "_0": "if the given address bears the manager role."
        }
      },
      "isManagerRoleAdmin(address)": {
        "params": {
          "_account": "Address of the account to check the manager role admin account for."
        },
        "returns": {
          "_0": "if the given address is the manager role admin."
        }
      },
      "isMember(address)": {
        "params": {
          "_account": "Address of the account to check the member role for."
        },
        "returns": {
          "_0": "if the given address bears the member role."
        }
      },
      "isMemberRoleAdmin(address)": {
        "params": {
          "_account": "Address of the account to check the member role admin account for."
        },
        "returns": {
          "_0": "if the given address is the member role admin."
        }
      },
      "removeManager(address)": {
        "params": {
          "_account": "Address of the account to revoke the manager role for."
        }
      },
      "removeMember(address)": {
        "params": {
          "_account": "Address of the account to revoke the member role for."
        }
      },
      "upgradeAddress(address,address)": {
        "details": "Different member id's can map to the same address.",
        "params": {
          "_newAddress": "The new address of the member.",
          "_oldAddress": "The current address of the member."
        }
      }
    },
    "version": 1
  },
  "userdoc": {
    "kind": "user",
    "methods": {
      "getAddressByMember(uint256)": {
        "notice": "Upgrades an existing member address to a new member address, can only be called by the member itself."
      },
      "upgradeAddress(address,address)": {
        "notice": "Upgrades an existing member address to a new member address, can only be called by the member itself."
      }
    },
    "version": 1
  },
  "storageLayout": {
    "storage": [],
    "types": null
  }
}