{
  "address": "0x21e99bE789375497467Cdf94F52b9a16520E9FEB",
  "abi": [
    {
      "anonymous": false,
      "inputs": [
        {
          "indexed": false,
          "internalType": "address",
          "name": "assetPool",
          "type": "address"
        }
      ],
      "name": "AssetPoolDeployed",
      "type": "event"
    },
    {
      "anonymous": false,
      "inputs": [
        {
          "indexed": false,
          "internalType": "address",
          "name": "assetPool",
          "type": "address"
        }
      ],
      "name": "AssetPoolRegistered",
      "type": "event"
    },
    {
      "inputs": [
        {
          "components": [
            {
              "internalType": "address",
              "name": "facetAddress",
              "type": "address"
            },
            {
              "internalType": "enum IDiamondCut.FacetCutAction",
              "name": "action",
              "type": "uint8"
            },
            {
              "internalType": "bytes4[]",
              "name": "functionSelectors",
              "type": "bytes4[]"
            }
          ],
          "internalType": "struct IDiamondCut.FacetCut[]",
          "name": "_facets",
          "type": "tuple[]"
        },
        {
          "internalType": "address",
          "name": "_registry",
          "type": "address"
        }
      ],
      "name": "deployAssetPool",
      "outputs": [],
      "stateMutability": "nonpayable",
      "type": "function"
    },
    {
      "inputs": [
        {
          "internalType": "address",
          "name": "_pool",
          "type": "address"
        }
      ],
      "name": "isAssetPool",
      "outputs": [
        {
          "internalType": "bool",
          "name": "",
          "type": "bool"
        }
      ],
      "stateMutability": "view",
      "type": "function"
    },
    {
      "inputs": [
        {
          "internalType": "address",
          "name": "_pool",
          "type": "address"
        }
      ],
      "name": "registerAssetPool",
      "outputs": [],
      "stateMutability": "nonpayable",
      "type": "function"
    },
    {
      "inputs": [
        {
          "internalType": "address",
          "name": "_controller",
          "type": "address"
        }
      ],
      "name": "setDefaultController",
      "outputs": [],
      "stateMutability": "nonpayable",
      "type": "function"
    }
  ],
  "transactionHash": "0xde08fc224f007c4c1b991c3fbb551ae2b257556cfdb2dfc3bb508676aef7d50d",
  "args": [],
  "numDeployments": 2,
  "solcInputHash": "5147407d0775ba0cf6eae58ab83a63ad",
  "bytecode": "0x608060405234801561001057600080fd5b50612a4b806100206000396000f3fe60806040523480156200001157600080fd5b5060043610620000525760003560e01c80631a08afd3146200005757806355196bd91462000086578063950adfde146200009f578063fc4235b014620000b6575b600080fd5b6200006e6200006836600462000558565b620000cd565b6040516200007d919062000793565b60405180910390f35b6200009d6200009736600462000558565b62000102565b005b6200009d620000b036600462000558565b62000138565b6200009d620000c73660046200057c565b620001dc565b600080620000da62000422565b6001600160a01b03841660009081526002909101602052604090205460ff169150505b919050565b6200010c62000446565b806200011762000422565b80546001600160a01b0319166001600160a01b039290921691909117905550565b6200014262000446565b60006200014e62000422565b6001818101805480830182556000918252602080832090910180546001600160a01b0319166001600160a01b0388169081179091558252600284019052604090819020805460ff1916909217909155519091507fbf5beb20ae7301145226fb09b7cac90f9bda5abcfd83f91d589d431282c6accb90620001d0908490620006a4565b60405180910390a15050565b6001600160a01b0381166200020e5760405162461bcd60e51b81526004016200020590620007e0565b60405180910390fd5b6200021862000446565b60006200022462000422565b9050600083306040516200023890620004a4565b62000245929190620006b8565b604051809103906000f08015801562000262573d6000803e3d6000fd5b50604051633dbbe6b560e11b815290915081906001600160a01b03821690637b77cd6a9062000296908790600401620006a4565b600060405180830381600087803b158015620002b157600080fd5b505af1158015620002c6573d6000803e3d6000fd5b5050845460405163f2fde38b60e01b81526001600160a01b03808616945063f2fde38b9350620002fb921690600401620006a4565b600060405180830381600087803b1580156200031657600080fd5b505af11580156200032b573d6000803e3d6000fd5b505084546040516354208a2f60e01b81526001600160a01b0380861694506354208a2f935062000360921690600401620006a4565b600060405180830381600087803b1580156200037b57600080fd5b505af115801562000390573d6000803e3d6000fd5b505050506001838101805480830182556000918252602080832090910180546001600160a01b0319166001600160a01b0387169081179091558252600286019052604090819020805460ff1916909217909155517fd4751d882ce3a4eab04fc8d1b33792536e48979816123dd418de92d5e67895d79062000413908490620006a4565b60405180910390a15050505050565b7f45817ba6b30d8ede47e03b406ff166d55a47263294241efd9c0dcf683d919a4c90565b6200045062000480565b600401546001600160a01b031633146200047e5760405162461bcd60e51b815260040162000205906200079e565b565b7fc8fcad8db84d3cc18b4c41d551ea0ee66dd599cde068d998e57d5e09332c131c90565b6121cc806200084a83390190565b80356001600160a01b0381168114620000fd57600080fd5b600082601f830112620004db578081fd5b8135620004f2620004ec826200082a565b62000805565b8181529150602080830190848101818402860182018710156200051457600080fd5b6000805b858110156200054c5782356001600160e01b03198116811462000539578283fd5b8552938301939183019160010162000518565b50505050505092915050565b6000602082840312156200056a578081fd5b6200057582620004b2565b9392505050565b600080604083850312156200058f578081fd5b823567ffffffffffffffff80821115620005a7578283fd5b818501915085601f830112620005bb578283fd5b8135620005cc620004ec826200082a565b81815260208082019190858101875b858110156200067657813588016060818e03601f19011215620005fc57898afd5b604051606081018181108a821117156200061257fe5b60405262000622828601620004b2565b815260408201356003811062000636578b8cfd5b818601526060820135898111156200064c578b8cfd5b6200065c8f8783860101620004ca565b6040830152508652509382019390820190600101620005db565b505081975062000688818a01620004b2565b96505050505050509250929050565b6001600160a01b03169052565b6001600160a01b0391909116815260200190565b604080825283518282018190526000919060609081850190602080820287018401818a01875b848110156200077357898303605f19018652815180516001600160a01b031684528481015188850190600381106200071257fe5b85870152908901518985018990528051918290528501908a9060808601905b808310156200075d5783516001600160e01b031916825292870192600192909201919087019062000731565b50978601979450505090830190600101620006de565b505080965050620007878188018962000697565b50505050509392505050565b901515815260200190565b60208082526022908201527f4c69624469616d6f6e643a204d75737420626520636f6e7472616374206f776e60408201526132b960f11b606082015260800190565b6020808252600b908201526a4e4f5f524547495354525960a81b604082015260600190565b60405181810167ffffffffffffffff811182821017156200082257fe5b604052919050565b600067ffffffffffffffff8211156200083f57fe5b506020908102019056fe6080604052604051620021cc380380620021cc833981016040819052620000269162000a0e565b604080516000808252602082019092526200004e918491620000f160201b620000be1760201c565b62000064816200023860201b620001ef1760201c565b60006200007b6200029a60201b6200024f1760201c565b6301ffc9a760e01b600090815260039091016020526040808220805460ff1990811660019081179092556307e4c70760e21b845282842080548216831790556348e2b09360e01b845282842080548216831790556307f5828d60e41b845291909220805490911690911790555062001178915050565b6000620000fd6200029a565b600281015490915061ffff16806000806008830611156200012f57506008810460009081526001840160205260409020545b60005b8751811015620001a7576200019983838a84815181106200014f57fe5b6020026020010151600001518b85815181106200016857fe5b6020026020010151602001518c86815181106200018157fe5b602002602001015160400151620002be60201b60201c565b909350915060010162000132565b50828214620001c45760028401805461ffff191661ffff84161790555b6007821615620001e65760088204600090815260018501602052604090208190555b7f8faa70878671ccd212d20771b795c50af8fd3ff6cf27f4bde57e5d4de0aeb6738787876040516200021b9392919062000b81565b60405180910390a16200022f8686620007fe565b50505050505050565b6000620002446200029a565b6004810180546001600160a01b038581166001600160a01b031983168117909355604051939450169182907f8be0079c531659141344cd1fd0a4f28419497f9722a3daafe3b4186f6b6457e090600090a3505050565b7fc8fcad8db84d3cc18b4c41d551ea0ee66dd599cde068d998e57d5e09332c131c90565b60008080620002cc6200029a565b90506000845111620002fb5760405162461bcd60e51b8152600401620002f29062000d30565b60405180910390fd5b60008560028111156200030a57fe5b141562000443576001600160a01b0386166200033a5760405162461bcd60e51b8152600401620002f29062000e1f565b6200035f8660405180606001604052806024815260200162002158602491396200093f565b60005b84518110156200043c5760008582815181106200037b57fe5b6020908102919091018101516001600160e01b03198116600090815291859052604090912054909150606081901c15620003c95760405162461bcd60e51b8152600401620002f29062000f66565b6001600160e01b03198281166000818152602087815260409091206001600160601b031960608e901b168f17905560078e160290811c91811c199b909b16179960e08114156200042c5760088c04600090815260018601602052604081209b909b555b5050506001988901980162000362565b50620007f2565b60018560028111156200045257fe5b1415620005b4576001600160a01b038616620004825760405162461bcd60e51b8152600401620002f29062000e6b565b620004a786604051806060016040528060288152602001620021a4602891396200093f565b60005b84518110156200043c576000858281518110620004c357fe5b6020908102919091018101516001600160e01b03198116600090815291859052604090912054909150606081901c30811415620005145760405162461bcd60e51b8152600401620002f2906200106c565b896001600160a01b0316816001600160a01b03161415620005495760405162461bcd60e51b8152600401620002f29062000fc3565b6001600160a01b038116620005725760405162461bcd60e51b8152600401620002f290620010bb565b506001600160e01b031990911660009081526020849052604090206001600160601b03919091166001600160601b031960608a901b16179055600101620004aa565b6002856002811115620005c357fe5b1415620007d8576001600160a01b03861615620005f45760405162461bcd60e51b8152600401620002f2906200100f565b6008880460001960078a160160005b8651811015620007c6578962000632576000199092016000818152600185016020526040902054995091600791505b6000806000808a85815181106200064557fe5b6020908102919091018101516001600160e01b031981166000908152918a9052604090912054909150606081901c620006925760405162461bcd60e51b8152600401620002f29062000d7b565b606081901c301415620006b95760405162461bcd60e51b8152600401620002f29062000f18565b602087028f901b94506001600160e01b0319808616908316146200070a576001600160e01b03198516600090815260208a90526040902080546001600160601b0319166001600160601b0383161790555b6001600160e01b03198216600090815260208a9052604081205561ffff811660088104945060088106602002935050505085821462000773576000828152600188016020526040902080546001600160e01b031980841c19909116908516831c17905562000797565b80836001600160e01b031916901c816001600160e01b031960001b901c198e16179c505b84620007b357600086815260018801602052604081208190559c505b5050600019909201915060010162000603565b506001600890920201019750620007f2565b60405162461bcd60e51b8152600401620002f29062000dd8565b50959694955050505050565b6001600160a01b03821662000835578051156200082f5760405162461bcd60e51b8152600401620002f29062000c8d565b6200093b565b6000815111620008595760405162461bcd60e51b8152600401620002f29062000ebb565b6001600160a01b03821630146200088f576200088f826040518060600160405280602881526020016200217c602891396200093f565b60006060836001600160a01b031683604051620008ad919062000b63565b600060405180830381855af49150503d8060008114620008ea576040519150601f19603f3d011682016040523d82523d6000602084013e620008ef565b606091505b50915091508162000938578051156200091e578060405162461bcd60e51b8152600401620002f2919062000c71565b60405162461bcd60e51b8152600401620002f29062000cea565b50505b5050565b813b8181620009385760405162461bcd60e51b8152600401620002f2919062000c71565b80516001600160a01b03811681146200097b57600080fd5b919050565b600082601f83011262000991578081fd5b8151620009a8620009a2826200112b565b62001107565b818152915060208083019084810181840286018201871015620009ca57600080fd5b6000805b8581101562000a025782516001600160e01b031981168114620009ef578283fd5b85529383019391830191600101620009ce565b50505050505092915050565b6000806040838503121562000a21578182fd5b82516001600160401b038082111562000a38578384fd5b818501915085601f83011262000a4c578384fd5b815162000a5d620009a2826200112b565b81815260208082019190858101885b8581101562000b0757815188016060818e03601f1901121562000a8d578a8bfd5b604051606081018181108a8211171562000aa357fe5b60405262000ab382860162000963565b815260408201516003811062000ac7578c8dfd5b8186015260608201518981111562000add578c8dfd5b62000aed8f878386010162000980565b604083015250865250938201939082019060010162000a6c565b505081975062000b19818a0162000963565b96505050505050509250929050565b6001600160a01b03169052565b6000815180845262000b4f81602086016020860162001149565b601f01601f19169290920160200192915050565b6000825162000b7781846020870162001149565b9190910192915050565b606080825284518282018190526000919060809081850190602080820287018401818b01875b8481101562000c3e57898303607f19018652815180516001600160a01b0316845284810151898501906003811062000bdb57fe5b858701526040918201519185018a9052815190819052908501908a90898601905b8083101562000c285783516001600160e01b031916825292870192600192909201919087019062000bfc565b5097860197945050509083019060010162000ba7565b505062000c4e8289018b62000b28565b878103604089015262000c62818a62000b35565b9b9a5050505050505050505050565b60006020825262000c86602083018462000b35565b9392505050565b6020808252603c908201527f4c69624469616d6f6e644375743a205f696e697420697320616464726573732860408201527f3029206275745f63616c6c64617461206973206e6f7420656d70747900000000606082015260800190565b60208082526026908201527f4c69624469616d6f6e644375743a205f696e69742066756e6374696f6e2072656040820152651d995c9d195960d21b606082015260800190565b6020808252602b908201527f4c69624469616d6f6e644375743a204e6f2073656c6563746f727320696e206660408201526a1858d95d081d1bc818dd5d60aa1b606082015260800190565b60208082526037908201527f4c69624469616d6f6e644375743a2043616e27742072656d6f76652066756e6360408201527f74696f6e207468617420646f65736e2774206578697374000000000000000000606082015260800190565b60208082526027908201527f4c69624469616d6f6e644375743a20496e636f727265637420466163657443756040820152663a20b1ba34b7b760c91b606082015260800190565b6020808252602c908201527f4c69624469616d6f6e644375743a204164642066616365742063616e2774206260408201526b65206164647265737328302960a01b606082015260800190565b60208082526030908201527f4c69624469616d6f6e644375743a205265706c6163652066616365742063616e60408201526f2774206265206164647265737328302960801b606082015260800190565b6020808252603d908201527f4c69624469616d6f6e644375743a205f63616c6c6461746120697320656d707460408201527f7920627574205f696e6974206973206e6f742061646472657373283029000000606082015260800190565b6020808252602e908201527f4c69624469616d6f6e644375743a2043616e27742072656d6f766520696d6d7560408201526d3a30b1363290333ab731ba34b7b760911b606082015260800190565b60208082526035908201527f4c69624469616d6f6e644375743a2043616e2774206164642066756e6374696f60408201527f6e207468617420616c7265616479206578697374730000000000000000000000606082015260800190565b60208082526038908201526000805160206200213883398151915260408201527f6374696f6e20776974682073616d652066756e6374696f6e0000000000000000606082015260800190565b60208082526036908201527f4c69624469616d6f6e644375743a2052656d6f7665206661636574206164647260408201527f657373206d757374206265206164647265737328302900000000000000000000606082015260800190565b6020808252602f908201527f4c69624469616d6f6e644375743a2043616e2774207265706c61636520696d6d60408201526e3aba30b1363290333ab731ba34b7b760891b606082015260800190565b60208082526038908201526000805160206200213883398151915260408201527f6374696f6e207468617420646f65736e27742065786973740000000000000000606082015260800190565b6040518181016001600160401b03811182821017156200112357fe5b604052919050565b60006001600160401b038211156200113f57fe5b5060209081020190565b60005b83811015620011665781810151838201526020016200114c565b83811115620009385750506000910152565b610fb080620011886000396000f3fe60806040523661000b57005b600080356001600160e01b03191681527fc8fcad8db84d3cc18b4c41d551ea0ee66dd599cde068d998e57d5e09332c131c6020819052604090912054819060601c806100725760405162461bcd60e51b815260040161006990610c46565b60405180910390fd5b36600080373033141561009e57600080366000845af43d6000803e808015610099573d6000f35b3d6000fd5b333652600080602036016000845af43d6000803e808015610099573d6000f35b60006100c861024f565b600281015490915061ffff16806000806008830611156100f957506008810460009081526001840160205260409020545b60005b87518110156101645761015783838a848151811061011657fe5b6020026020010151600001518b858151811061012e57fe5b6020026020010151602001518c868151811061014657fe5b602002602001015160400151610273565b90935091506001016100fc565b508282146101805760028401805461ffff191661ffff84161790555b60078216156101a15760088204600090815260018501602052604090208190555b7f8faa70878671ccd212d20771b795c50af8fd3ff6cf27f4bde57e5d4de0aeb6738787876040516101d493929190610917565b60405180910390a16101e68686610776565b50505050505050565b60006101f961024f565b6004810180546001600160a01b038581166001600160a01b031983168117909355604051939450169182907f8be0079c531659141344cd1fd0a4f28419497f9722a3daafe3b4186f6b6457e090600090a3505050565b7fc8fcad8db84d3cc18b4c41d551ea0ee66dd599cde068d998e57d5e09332c131c90565b600080600061028061024f565b905060008451116102a35760405162461bcd60e51b815260040161006990610abb565b60008560028111156102b157fe5b14156103db576001600160a01b0386166102dd5760405162461bcd60e51b815260040161006990610baa565b6102ff86604051806060016040528060248152602001610f07602491396108a1565b60005b84518110156103d557600085828151811061031957fe5b6020908102919091018101516001600160e01b03198116600090815291859052604090912054909150606081901c156103645760405162461bcd60e51b815260040161006990610d26565b6001600160e01b03198281166000818152602087815260409091206001600160601b031960608e901b168f17905560078e160290811c91811c199b909b16179960e08114156103c65760088c04600090815260018601602052604081209b909b555b50505060019889019801610302565b5061076a565b60018560028111156103e957fe5b141561053d576001600160a01b0386166104155760405162461bcd60e51b815260040161006990610bf6565b61043786604051806060016040528060288152602001610f53602891396108a1565b60005b84518110156103d557600085828151811061045157fe5b6020908102919091018101516001600160e01b03198116600090815291859052604090912054909150606081901c3081141561049f5760405162461bcd60e51b815260040161006990610e2e565b896001600160a01b0316816001600160a01b031614156104d15760405162461bcd60e51b815260040161006990610d7b565b6001600160a01b0381166104f75760405162461bcd60e51b815260040161006990610e7d565b506001600160e01b031990911660009081526020849052604090206bffffffffffffffffffffffff919091166001600160601b031960608a901b1617905560010161043a565b600285600281111561054b57fe5b1415610752576001600160a01b038616156105785760405162461bcd60e51b815260040161006990610dd8565b6008880460001960078a160160005b865181101561074157896105b4576000199092016000818152600185016020526040902054995091600791505b6000806000808a85815181106105c657fe5b6020908102919091018101516001600160e01b031981166000908152918a9052604090912054909150606081901c6106105760405162461bcd60e51b815260040161006990610b06565b606081901c3014156106345760405162461bcd60e51b815260040161006990610cd8565b602087028f901b94506001600160e01b031980861690831614610689576001600160e01b03198516600090815260208a90526040902080546001600160601b0319166bffffffffffffffffffffffff83161790555b6001600160e01b03198216600090815260208a9052604081205561ffff81166008810494506008810660200293505050508582146106f0576000828152600188016020526040902080546001600160e01b031980841c19909116908516831c179055610714565b80836001600160e01b031916901c816001600160e01b031960001b901c198e16179c505b8461072f57600086815260018801602052604081208190559c505b50506000199092019150600101610587565b50600160089092020101975061076a565b60405162461bcd60e51b815260040161006990610b63565b50959694955050505050565b6001600160a01b0382166107a8578051156107a35760405162461bcd60e51b815260040161006990610a18565b61089d565b60008151116107c95760405162461bcd60e51b815260040161006990610c7b565b6001600160a01b03821630146107fb576107fb82604051806060016040528060288152602001610f2b602891396108a1565b60006060836001600160a01b03168360405161081791906108fb565b600060405180830381855af49150503d8060008114610852576040519150601f19603f3d011682016040523d82523d6000602084013e610857565b606091505b50915091508161089a57805115610882578060405162461bcd60e51b815260040161006991906109fe565b60405162461bcd60e51b815260040161006990610a75565b50505b5050565b813b818161089a5760405162461bcd60e51b815260040161006991906109fe565b6001600160a01b03169052565b600081518084526108e7816020860160208601610eda565b601f01601f19169290920160200192915050565b6000825161090d818460208701610eda565b9190910192915050565b606080825284518282018190526000919060809081850190602080820287018401818b01875b848110156109cf57898303607f19018652815180516001600160a01b0316845284810151898501906003811061096f57fe5b858701526040918201519185018a9052815190819052908501908a90898601905b808310156109ba5783516001600160e01b0319168252928701926001929092019190870190610990565b5097860197945050509083019060010161093d565b50506109dd8289018b6108c2565b87810360408901526109ef818a6108cf565b9b9a5050505050505050505050565b600060208252610a1160208301846108cf565b9392505050565b6020808252603c908201527f4c69624469616d6f6e644375743a205f696e697420697320616464726573732860408201527f3029206275745f63616c6c64617461206973206e6f7420656d70747900000000606082015260800190565b60208082526026908201527f4c69624469616d6f6e644375743a205f696e69742066756e6374696f6e2072656040820152651d995c9d195960d21b606082015260800190565b6020808252602b908201527f4c69624469616d6f6e644375743a204e6f2073656c6563746f727320696e206660408201526a1858d95d081d1bc818dd5d60aa1b606082015260800190565b60208082526037908201527f4c69624469616d6f6e644375743a2043616e27742072656d6f76652066756e6360408201527f74696f6e207468617420646f65736e2774206578697374000000000000000000606082015260800190565b60208082526027908201527f4c69624469616d6f6e644375743a20496e636f727265637420466163657443756040820152663a20b1ba34b7b760c91b606082015260800190565b6020808252602c908201527f4c69624469616d6f6e644375743a204164642066616365742063616e2774206260408201526b65206164647265737328302960a01b606082015260800190565b60208082526030908201527f4c69624469616d6f6e644375743a205265706c6163652066616365742063616e60408201526f2774206265206164647265737328302960801b606082015260800190565b6020808252818101527f4469616d6f6e643a2046756e6374696f6e20646f6573206e6f74206578697374604082015260600190565b6020808252603d908201527f4c69624469616d6f6e644375743a205f63616c6c6461746120697320656d707460408201527f7920627574205f696e6974206973206e6f742061646472657373283029000000606082015260800190565b6020808252602e908201527f4c69624469616d6f6e644375743a2043616e27742072656d6f766520696d6d7560408201526d3a30b1363290333ab731ba34b7b760911b606082015260800190565b60208082526035908201527f4c69624469616d6f6e644375743a2043616e2774206164642066756e6374696f6040820152746e207468617420616c72656164792065786973747360581b606082015260800190565b60208082526038908201527f4c69624469616d6f6e644375743a2043616e2774207265706c6163652066756e60408201527f6374696f6e20776974682073616d652066756e6374696f6e0000000000000000606082015260800190565b60208082526036908201527f4c69624469616d6f6e644375743a2052656d6f76652066616365742061646472604082015275657373206d757374206265206164647265737328302960501b606082015260800190565b6020808252602f908201527f4c69624469616d6f6e644375743a2043616e2774207265706c61636520696d6d60408201526e3aba30b1363290333ab731ba34b7b760891b606082015260800190565b60208082526038908201527f4c69624469616d6f6e644375743a2043616e2774207265706c6163652066756e60408201527f6374696f6e207468617420646f65736e27742065786973740000000000000000606082015260800190565b60005b83811015610ef5578181015183820152602001610edd565b8381111561089a575050600091015256fe4c69624469616d6f6e644375743a2041646420666163657420686173206e6f20636f64654c69624469616d6f6e644375743a205f696e6974206164647265737320686173206e6f20636f64654c69624469616d6f6e644375743a205265706c61636520666163657420686173206e6f20636f6465a2646970667358221220eb5a59df46dbb9238f343b97b26772889800fda705718d555e09c6aef95a309664736f6c634300070400334c69624469616d6f6e644375743a2043616e2774207265706c6163652066756e4c69624469616d6f6e644375743a2041646420666163657420686173206e6f20636f64654c69624469616d6f6e644375743a205f696e6974206164647265737320686173206e6f20636f64654c69624469616d6f6e644375743a205265706c61636520666163657420686173206e6f20636f6465a26469706673582212208e7441d850514ec2e2b0e748862715913e075c4c93e6e822a39bf4a3d2f3974c64736f6c63430007040033",
  "devdoc": {
    "kind": "dev",
    "methods": {
      "deployAssetPool((address,uint8,bytes4[])[],address)": {
        "details": "Transfers ownership to the controller and initializes access control.",
        "params": {
          "_facets": "Asset Pool facets for the factory diamond to deploy.",
          "_registry": "Registry address to point the pool to."
        }
      },
      "registerAssetPool(address)": {
        "params": {
          "_pool": "Address of pool that should be registered."
        }
      },
      "setDefaultController(address)": {
        "params": {
          "_controller": "Address of the diamond controller."
        }
      }
    },
    "version": 1
  },
  "userdoc": {
    "kind": "user",
    "methods": {
      "deployAssetPool((address,uint8,bytes4[])[],address)": {
        "notice": "Deploys and stores the reference to an asset pool based on the current defaultCut."
      },
      "registerAssetPool(address)": {
        "notice": "Registers a pool address in the internal register. Only accessible for diamond owner."
      },
      "setDefaultController(address)": {
        "notice": "Sets the controller for the factory diamond."
      }
    },
    "version": 1
  },
  "storageLayout": {
    "storage": [],
    "types": null
  }
}