{
  "address": "0x3ADB33D93dbA503028aA0DcB34ddb8b37A4A9831",
  "abi": [
    {
      "anonymous": false,
      "inputs": [
        {
          "indexed": false,
          "internalType": "bool",
          "name": "success",
          "type": "bool"
        },
        {
          "indexed": false,
          "internalType": "bytes",
          "name": "data",
          "type": "bytes"
        }
      ],
      "name": "Result",
      "type": "event"
    },
    {
      "inputs": [
        {
          "internalType": "bytes",
          "name": "_call",
          "type": "bytes"
        },
        {
          "internalType": "uint256",
          "name": "_nonce",
          "type": "uint256"
        },
        {
          "internalType": "bytes",
          "name": "_sig",
          "type": "bytes"
        }
      ],
      "name": "call",
      "outputs": [],
      "stateMutability": "nonpayable",
      "type": "function"
    },
    {
      "inputs": [
        {
          "internalType": "address",
          "name": "_signer",
          "type": "address"
        }
      ],
      "name": "getLatestNonce",
      "outputs": [
        {
          "internalType": "uint256",
          "name": "",
          "type": "uint256"
        }
      ],
      "stateMutability": "view",
      "type": "function"
    }
  ],
  "transactionHash": "0xbff50259e3de78122be1b76c5714b1f57de9573a7221bde2c4fa79010d94806e",
  "args": [],
  "numDeployments": 1,
  "solcInputHash": "954101db8fd21c30da9bb6a572893bde",
  "bytecode": "0x608060405234801561001057600080fd5b5061079c806100206000396000f3fe608060405234801561001057600080fd5b50600436106100365760003560e01c80635d40e1781461003b578063977a6be114610172575b600080fd5b6101706004803603606081101561005157600080fd5b81019060208101813564010000000081111561006c57600080fd5b82018360208201111561007e57600080fd5b803590602001918460018302840111640100000000831117156100a057600080fd5b91908080601f016020809104026020016040519081016040528093929190818152602001838380828437600092019190915250929584359590949093506040810192506020013590506401000000008111156100fb57600080fd5b82018360208201111561010d57600080fd5b8035906020019184600183028401116401000000008311171561012f57600080fd5b91908080601f0160208091040260200160405190810160405280939291908181526020018383808284376000920191909152509295506101aa945050505050565b005b6101986004803603602081101561018857600080fd5b50356001600160a01b031661040c565b60408051918252519081900360200190f35b600061022284846040516020018083805190602001908083835b602083106101e35780518252601f1990920191602091820191016101c4565b51815160209384036101000a60001901801990921691161790529201938452506040805180850381529382019052825192019190912091506104389050565b905060006102308284610489565b905061023c8185610670565b60006060306001600160a01b031687846040516020018083805190602001908083835b6020831061027e5780518252601f19909201916020918201910161025f565b6001836020036101000a038019825116818451168082178552505050505050905001826001600160a01b031660601b8152601401925050506040516020818303038152906040526040518082805190602001908083835b602083106102f45780518252601f1990920191602091820191016102d5565b6001836020036101000a0380198251168184511680821785525050505050509050019150506000604051808303816000865af19150503d8060008114610356576040519150601f19603f3d011682016040523d82523d6000602084013e61035b565b606091505b50915091507f9c8fce69d12b0d1b74922f842b082830121576bc2d7bed72fe98c14608c3facf828260405180831515815260200180602001828103825283818151815260200191508051906020019080838360005b838110156103c85781810151838201526020016103b0565b50505050905090810190601f1680156103f55780820380516001836020036101000a031916815260200191505b50935050505060405180910390a150505050505050565b60006104166106fe565b6001600160a01b03929092166000908152600190920160205250604090205490565b604080517f19457468657265756d205369676e6564204d6573736167653a0a333200000000602080830191909152603c8083019490945282518083039094018452605c909101909152815191012090565b600081516041146104e1576040805162461bcd60e51b815260206004820152601f60248201527f45434453413a20696e76616c6964207369676e6174757265206c656e67746800604482015290519081900360640190fd5b60208201516040830151606084015160001a7f7fffffffffffffffffffffffffffffff5d576e7357a4501ddfe92f46681b20a08211156105525760405162461bcd60e51b81526004018080602001828103825260228152602001806107236022913960400191505060405180910390fd5b8060ff16601b148061056757508060ff16601c145b6105a25760405162461bcd60e51b81526004018080602001828103825260228152602001806107456022913960400191505060405180910390fd5b600060018783868660405160008152602001604052604051808581526020018460ff1681526020018381526020018281526020019450505050506020604051602081039080840390855afa1580156105fe573d6000803e3d6000fd5b5050604051601f1901519150506001600160a01b038116610666576040805162461bcd60e51b815260206004820152601860248201527f45434453413a20696e76616c6964207369676e61747572650000000000000000604482015290519081900360640190fd5b9695505050505050565b600061067a6106fe565b6001600160a01b038416600090815260018083016020526040909120549192500182146106de576040805162461bcd60e51b815260206004820152600d60248201526c494e56414c49445f4e4f4e434560981b604482015290519081900360640190fd5b6001600160a01b0390921660009081526001909201602052604090912055565b7f75aa67619483afd2923d9e8066d7afa86b2853b85794f2e18c43f688a5ee48049056fe45434453413a20696e76616c6964207369676e6174757265202773272076616c756545434453413a20696e76616c6964207369676e6174757265202776272076616c7565a26469706673582212202dac6906b7c0ba9410e00ea017f100ce29d5c6f2f5a5c87f982d213b2c24da6364736f6c63430007040033",
  "devdoc": {
    "kind": "dev",
    "methods": {
      "call(bytes,uint256,bytes)": {
        "params": {
          "_call": "Encoded function + arguments data",
          "_nonce": "Latest nonce for the original sender",
          "_sig": "Signed message"
        }
      },
      "getLatestNonce(address)": {
        "details": "Get the latest nonce of a given signer",
        "params": {
          "_signer": "Address of the signer"
        }
      }
    },
    "version": 1
  },
  "userdoc": {
    "kind": "user",
    "methods": {},
    "version": 1
  },
  "storageLayout": {
    "storage": [],
    "types": null
  }
}