{
  "address": "0x319777eD82bc0D1A4DaA2E0D12098dedbe4c50C7",
  "abi": [
    {
      "anonymous": false,
      "inputs": [
        {
          "indexed": false,
          "internalType": "uint256",
          "name": "fee",
          "type": "uint256"
        }
      ],
      "name": "DepositFeeCollected",
      "type": "event"
    },
    {
      "anonymous": false,
      "inputs": [
        {
          "indexed": false,
          "internalType": "address",
          "name": "sender",
          "type": "address"
        },
        {
          "indexed": false,
          "internalType": "uint256",
          "name": "amount",
          "type": "uint256"
        }
      ],
      "name": "Depositted",
      "type": "event"
    },
    {
      "anonymous": false,
      "inputs": [
        {
          "indexed": false,
          "internalType": "address",
          "name": "old",
          "type": "address"
        },
        {
          "indexed": false,
          "internalType": "address",
          "name": "current",
          "type": "address"
        }
      ],
      "name": "RegistryUpdated",
      "type": "event"
    },
    {
      "anonymous": false,
      "inputs": [
        {
          "indexed": false,
          "internalType": "address",
          "name": "old",
          "type": "address"
        },
        {
          "indexed": false,
          "internalType": "address",
          "name": "current",
          "type": "address"
        }
      ],
      "name": "TokenUpdated",
      "type": "event"
    },
    {
      "inputs": [
        {
          "internalType": "address",
          "name": "_token",
          "type": "address"
        }
      ],
      "name": "addToken",
      "outputs": [],
      "stateMutability": "nonpayable",
      "type": "function"
    },
    {
      "inputs": [
        {
          "internalType": "uint256",
          "name": "_amount",
          "type": "uint256"
        }
      ],
      "name": "deposit",
      "outputs": [],
      "stateMutability": "nonpayable",
      "type": "function"
    },
    {
      "inputs": [],
      "name": "getBalance",
      "outputs": [
        {
          "internalType": "uint256",
          "name": "",
          "type": "uint256"
        }
      ],
      "stateMutability": "view",
      "type": "function"
    },
    {
      "inputs": [],
      "name": "getPoolRegistry",
      "outputs": [
        {
          "internalType": "address",
          "name": "",
          "type": "address"
        }
      ],
      "stateMutability": "view",
      "type": "function"
    },
    {
      "inputs": [],
      "name": "getToken",
      "outputs": [
        {
          "internalType": "address",
          "name": "",
          "type": "address"
        }
      ],
      "stateMutability": "view",
      "type": "function"
    },
    {
      "inputs": [
        {
          "internalType": "address",
          "name": "_registry",
          "type": "address"
        }
      ],
      "name": "setPoolRegistry",
      "outputs": [],
      "stateMutability": "nonpayable",
      "type": "function"
    }
  ],
  "transactionHash": "0x6d193af9bb0339a0b76887da7d64f0b799073d10128055a6442f6b7dd641eaae",
  "args": [],
  "numDeployments": 2,
  "solcInputHash": "5147407d0775ba0cf6eae58ab83a63ad",
  "bytecode": "0x608060405234801561001057600080fd5b50610c00806100206000396000f3fe608060405234801561001057600080fd5b50600436106100625760003560e01c806312065fe01461006757806321df0da7146100815780637a9bd5e4146100a55780637b77cd6a146100ad578063b6b55f25146100d5578063d48bfca7146100f2575b600080fd5b61006f610118565b60408051918252519081900360200190f35b61008961012b565b604080516001600160a01b039092168252519081900360200190f35b610089610147565b6100d3600480360360208110156100c357600080fd5b50356001600160a01b0316610160565b005b6100d3600480360360208110156100eb57600080fd5b50356101ca565b6100d36004803603602081101561010857600080fd5b50356001600160a01b031661040e565b6000610122610511565b60010154905090565b6000610135610511565b600201546001600160a01b0316905090565b6000610151610511565b546001600160a01b0316905090565b610168610535565b80610171610511565b80546001600160a01b0319166001600160a01b039283161790556040805160008152918316602083015280517f482b97c53e48ffa324a976e2738053e9aff6eee04d8aac63b10e19411d869b829281900390910190a150565b6000811161020d576040805162461bcd60e51b815260206004820152600b60248201526a16915493d7d05353d5539560aa1b604482015290519081900360640190fd5b6000610217610511565b905060008160000160009054906101000a90046001600160a01b0316905060006102b8670de0b6b3a76400006102b2846001600160a01b031663a001ecdd6040518163ffffffff1660e01b815260040160206040518083038186803b15801561027f57600080fd5b505afa158015610293573d6000803e3d6000fd5b505050506040513d60208110156102a957600080fd5b50518790610573565b906105d5565b905060006102c68583610617565b90508115610388576103546102d9610659565b846001600160a01b031663c415b95c6040518163ffffffff1660e01b815260040160206040518083038186803b15801561031257600080fd5b505afa158015610326573d6000803e3d6000fd5b505050506040513d602081101561033c57600080fd5b505160028701546001600160a01b03169190856106a6565b6040805183815290517fe3d5dd3e3fd992b8c9a3480930dee0beab242e94f56dc05778245d31dd8423b99181900360200190a15b60018401546103979082610706565b60018501556103bd6103a7610659565b60028601546001600160a01b03169030846106a6565b7f46fc0825df492a7a7f1fb1b690f6912ecb69575484fbb24be0f398ae70d97db46103e6610659565b604080516001600160a01b039092168252602082018490528051918290030190a15050505050565b6000610418610511565b600201546001600160a01b031614610460576040805162461bcd60e51b815260206004808301919091526024820152631253925560e21b604482015290519081900360640190fd5b6001600160a01b0381166104a4576040805162461bcd60e51b815260206004808301919091526024820152635a45524f60e01b604482015290519081900360640190fd5b6104ac610535565b806104b5610511565b60020180546001600160a01b0319166001600160a01b039283161790556040805160008152918316602083015280517f0b1186973f810894b87ab0bfbee422fddcaad21b46dc705a561451bbb6bac1179281900390910190a150565b7fa716b7cce20ffbe12e5c0af3eb2f57d81251cd975b53428558ae4ad51b4f942590565b61053d610760565b600401546001600160a01b031633146105715760405162461bcd60e51b815260040161056890610b17565b60405180910390fd5b565b600082610582575060006105cf565b8282028284828161058f57fe5b04146105cc5760405162461bcd60e51b8152600401808060200182810382526021815260200180610b806021913960400191505060405180910390fd5b90505b92915050565b60006105cc83836040518060400160405280601a81526020017f536166654d6174683a206469766973696f6e206279207a65726f000000000000815250610784565b60006105cc83836040518060400160405280601e81526020017f536166654d6174683a207375627472616374696f6e206f766572666c6f770000815250610828565b600060606000368080601f0160208091040260200160405190810160405280939291908181526020018383808284376000920191909152505050503601516001600160a01b031692915050565b604080516001600160a01b0380861660248301528416604482015260648082018490528251808303909101815260849091019091526020810180516001600160e01b03166323b872dd60e01b179052610700908590610882565b50505050565b6000828201838110156105cc576040805162461bcd60e51b815260206004820152601b60248201527f536166654d6174683a206164646974696f6e206f766572666c6f770000000000604482015290519081900360640190fd5b7fc8fcad8db84d3cc18b4c41d551ea0ee66dd599cde068d998e57d5e09332c131c90565b600081836108105760405162461bcd60e51b81526004018080602001828103825283818151815260200191508051906020019080838360005b838110156107d55781810151838201526020016107bd565b50505050905090810190601f1680156108025780820380516001836020036101000a031916815260200191505b509250505060405180910390fd5b50600083858161081c57fe5b049150505b9392505050565b6000818484111561087a5760405162461bcd60e51b81526020600482018181528351602484015283519092839260449091019190850190808383600083156107d55781810151838201526020016107bd565b505050900390565b60606108d7826040518060400160405280602081526020017f5361666545524332303a206c6f772d6c6576656c2063616c6c206661696c6564815250856001600160a01b03166109389092919063ffffffff16565b805190915015610933578080602001905160208110156108f657600080fd5b50516109335760405162461bcd60e51b815260040180806020018281038252602a815260200180610ba1602a913960400191505060405180910390fd5b505050565b6060610947848460008561094f565b949350505050565b6060824710156109905760405162461bcd60e51b8152600401808060200182810382526026815260200180610b5a6026913960400191505060405180910390fd5b61099985610aab565b6109ea576040805162461bcd60e51b815260206004820152601d60248201527f416464726573733a2063616c6c20746f206e6f6e2d636f6e7472616374000000604482015290519081900360640190fd5b60006060866001600160a01b031685876040518082805190602001908083835b60208310610a295780518252601f199092019160209182019101610a0a565b6001836020036101000a03801982511681845116808217855250505050505090500191505060006040518083038185875af1925050503d8060008114610a8b576040519150601f19603f3d011682016040523d82523d6000602084013e610a90565b606091505b5091509150610aa0828286610ab1565b979650505050505050565b3b151590565b60608315610ac0575081610821565b825115610ad05782518084602001fd5b60405162461bcd60e51b81526020600482018181528451602484015284518593919283926044019190850190808383600083156107d55781810151838201526020016107bd565b60208082526022908201527f4c69624469616d6f6e643a204d75737420626520636f6e7472616374206f776e60408201526132b960f11b60608201526080019056fe416464726573733a20696e73756666696369656e742062616c616e636520666f722063616c6c536166654d6174683a206d756c7469706c69636174696f6e206f766572666c6f775361666545524332303a204552433230206f7065726174696f6e20646964206e6f742073756363656564a26469706673582212202b13ddb5e2eb4b325b46ee9131b8721dfdf0dc2a6447e074708c1b4bc3f0a81764736f6c63430007040033",
  "devdoc": {
    "kind": "dev",
    "methods": {
      "addToken(address)": {
        "details": "Can only be set once.",
        "params": {
          "_token": "Address of the ERC20 contract to use in the asset pool."
        }
      },
      "deposit(uint256)": {
        "details": "Make sure a transfer for the given amount is approved before calling.",
        "params": {
          "_amount": "Deposit amount to transfer to the pool."
        }
      },
      "getBalance()": {
        "returns": {
          "_0": "pool token balance for the asset pool"
        }
      },
      "getPoolRegistry()": {
        "returns": {
          "_0": "address of the registry contract of the asset pool."
        }
      },
      "getToken()": {
        "returns": {
          "_0": "address of the ERC20 contract used in the asset pool."
        }
      },
      "setPoolRegistry(address)": {
        "details": "Registry contains general pool settings and will be governable at some point.",
        "params": {
          "_registry": "Address of the registry contract."
        }
      }
    },
    "version": 1
  },
  "userdoc": {
    "kind": "user",
    "methods": {
      "deposit(uint256)": {
        "notice": "Calculates the deposit fee over the amount and substracts of the total. Fee is transfered to FeeCollector address as stored in the registry."
      },
      "setPoolRegistry(address)": {
        "notice": "Sets registry address for the asset pool."
      }
    },
    "version": 1
  },
  "storageLayout": {
    "storage": [],
    "types": null
  }
}