{
  "address": "0x1C452480aBc0F95d3d6aE4614a1d78313eBe4578",
  "abi": [
    {
      "anonymous": false,
      "inputs": [
        {
          "indexed": false,
          "internalType": "address",
          "name": "token",
          "type": "address"
        },
        {
          "indexed": false,
          "internalType": "enum ITokenFactory.TokenType",
          "name": "tokenType",
          "type": "uint8"
        }
      ],
      "name": "TokenDeployed",
      "type": "event"
    },
    {
      "inputs": [
        {
          "internalType": "string",
          "name": "_name",
          "type": "string"
        },
        {
          "internalType": "string",
          "name": "_symbol",
          "type": "string"
        },
        {
          "internalType": "address",
          "name": "to",
          "type": "address"
        },
        {
          "internalType": "uint256",
          "name": "amount",
          "type": "uint256"
        }
      ],
      "name": "deployLimitedSupplyToken",
      "outputs": [],
      "stateMutability": "nonpayable",
      "type": "function"
    },
    {
      "inputs": [
        {
          "internalType": "string",
          "name": "_name",
          "type": "string"
        },
        {
          "internalType": "string",
          "name": "_symbol",
          "type": "string"
        },
        {
          "internalType": "address",
          "name": "_to",
          "type": "address"
        },
        {
          "internalType": "string",
          "name": "_baseURI",
          "type": "string"
        }
      ],
      "name": "deployNonFungibleToken",
      "outputs": [],
      "stateMutability": "nonpayable",
      "type": "function"
    },
    {
      "inputs": [
        {
          "internalType": "string",
          "name": "_name",
          "type": "string"
        },
        {
          "internalType": "string",
          "name": "_symbol",
          "type": "string"
        },
        {
          "internalType": "address",
          "name": "_unlimited",
          "type": "address"
        }
      ],
      "name": "deployUnlimitedSupplyToken",
      "outputs": [],
      "stateMutability": "nonpayable",
      "type": "function"
    }
  ],
  "transactionHash": "0x9aba8eb20e30cacef121f136d8c1fed466a8be1a6fb445119c70db9178853fd0",
  "args": [],
  "numDeployments": 4,
  "solcInputHash": "5147407d0775ba0cf6eae58ab83a63ad",
  "bytecode": "0x608060405234801561001057600080fd5b506148d2806100206000396000f3fe60806040523480156200001157600080fd5b5060043610620000465760003560e01c80630a11a432146200004b5780631e05efea14620000645780636d066b06146200007b575b600080fd5b620000626200005c3660046200035c565b62000092565b005b6200006262000075366004620003d6565b6200011f565b620000626200008c36600462000477565b620001af565b6200009c62000230565b6000838383604051620000af9062000297565b620000bd939291906200056f565b604051809103906000f080158015620000da573d6000803e3d6000fd5b5090507f5c0bdd573f1186139a66b523ab6e6ce1e2deb91d74e1b98c56ecac41c7627b018160016040516200011192919062000547565b60405180910390a150505050565b6200012962000230565b6000848484846040516200013d90620002a5565b6200014c9493929190620005b1565b604051809103906000f08015801562000169573d6000803e3d6000fd5b5090507f5c0bdd573f1186139a66b523ab6e6ce1e2deb91d74e1b98c56ecac41c7627b01816002604051620001a092919062000547565b60405180910390a15050505050565b620001b962000230565b600084848484604051620001cd90620002b3565b620001dc94939291906200060a565b604051809103906000f080158015620001f9573d6000803e3d6000fd5b5090507f5c0bdd573f1186139a66b523ab6e6ce1e2deb91d74e1b98c56ecac41c7627b01816000604051620001a092919062000547565b6200023a62000273565b600401546001600160a01b03163314620002715760405162461bcd60e51b8152600401620002689062000650565b60405180910390fd5b565b7fc8fcad8db84d3cc18b4c41d551ea0ee66dd599cde068d998e57d5e09332c131c90565b610e46806200069383390190565b61259f80620014d983390190565b610e258062003a7883390190565b80356001600160a01b0381168114620002d957600080fd5b919050565b600082601f830112620002ef578081fd5b813567ffffffffffffffff808211156200030557fe5b604051601f8301601f1916810160200182811182821017156200032457fe5b6040528281529250828483016020018610156200034057600080fd5b8260208601602083013760006020848301015250505092915050565b60008060006060848603121562000371578283fd5b833567ffffffffffffffff8082111562000389578485fd5b6200039787838801620002de565b94506020860135915080821115620003ad578384fd5b50620003bc86828701620002de565b925050620003cd60408501620002c1565b90509250925092565b60008060008060808587031215620003ec578081fd5b843567ffffffffffffffff8082111562000404578283fd5b6200041288838901620002de565b9550602087013591508082111562000428578283fd5b6200043688838901620002de565b94506200044660408801620002c1565b935060608701359150808211156200045c578283fd5b506200046b87828801620002de565b91505092959194509250565b600080600080608085870312156200048d578384fd5b843567ffffffffffffffff80821115620004a5578586fd5b620004b388838901620002de565b95506020870135915080821115620004c9578485fd5b50620004d887828801620002de565b935050620004e960408601620002c1565b9396929550929360600135925050565b60008151808452815b81811015620005205760208185018101518683018201520162000502565b81811115620005325782602083870101525b50601f01601f19169290920160200192915050565b6001600160a01b038316815260408101600383106200056257fe5b8260208301529392505050565b600060608252620005846060830186620004f9565b8281036020840152620005988186620004f9565b91505060018060a01b0383166040830152949350505050565b600060808252620005c66080830187620004f9565b8281036020840152620005da8187620004f9565b6001600160a01b038616604085015283810360608501529050620005ff8185620004f9565b979650505050505050565b6000608082526200061f6080830187620004f9565b8281036020840152620006338187620004f9565b6001600160a01b0395909516604084015250506060015292915050565b60208082526022908201527f4c69624469616d6f6e643a204d75737420626520636f6e7472616374206f776e60408201526132b960f11b60608201526080019056fe60a06040523480156200001157600080fd5b5060405162000e4638038062000e46833981810160405260608110156200003757600080fd5b81019080805160405193929190846401000000008211156200005857600080fd5b9083019060208201858111156200006e57600080fd5b82516401000000008111828201881017156200008957600080fd5b82525081516020918201929091019080838360005b83811015620000b85781810151838201526020016200009e565b50505050905090810190601f168015620000e65780820380516001836020036101000a031916815260200191505b50604052602001805160405193929190846401000000008211156200010a57600080fd5b9083019060208201858111156200012057600080fd5b82516401000000008111828201881017156200013b57600080fd5b82525081516020918201929091019080838360005b838110156200016a57818101518382015260200162000150565b50505050905090810190601f168015620001985780820380516001836020036101000a031916815260200191505b5060405260209081015185519093508592508491620001bd91600391850190620001fe565b508051620001d3906004906020840190620001fe565b505060058054601260ff199091161790555060601b6001600160601b03191660805250620002aa9050565b828054600181600116156101000203166002900490600052602060002090601f01602090048101928262000236576000855562000281565b82601f106200025157805160ff191683800117855562000281565b8280016001018555821562000281579182015b828111156200028157825182559160200191906001019062000264565b506200028f92915062000293565b5090565b5b808211156200028f576000815560010162000294565b60805160601c610b79620002cd60003980610579528061090b5250610b796000f3fe608060405234801561001057600080fd5b50600436106100b45760003560e01c806370a082311161007157806370a082311461021057806395d89b4114610236578063a457c2d71461023e578063a9059cbb1461026a578063cb457d4714610296578063dd62ed3e146102ba576100b4565b806306fdde03146100b9578063095ea7b31461013657806318160ddd1461017657806323b872dd14610190578063313ce567146101c657806339509351146101e4575b600080fd5b6100c16102e8565b6040805160208082528351818301528351919283929083019185019080838360005b838110156100fb5781810151838201526020016100e3565b50505050905090810190601f1680156101285780820380516001836020036101000a031916815260200191505b509250505060405180910390f35b6101626004803603604081101561014c57600080fd5b506001600160a01b03813516906020013561037e565b604080519115158252519081900360200190f35b61017e61039b565b60408051918252519081900360200190f35b610162600480360360608110156101a657600080fd5b506001600160a01b038135811691602081013590911690604001356103a1565b6101ce610428565b6040805160ff9092168252519081900360200190f35b610162600480360360408110156101fa57600080fd5b506001600160a01b038135169060200135610431565b61017e6004803603602081101561022657600080fd5b50356001600160a01b031661047f565b6100c161049a565b6101626004803603604081101561025457600080fd5b506001600160a01b0381351690602001356104fb565b6101626004803603604081101561028057600080fd5b506001600160a01b038135169060200135610563565b61029e610577565b604080516001600160a01b039092168252519081900360200190f35b61017e600480360360408110156102d057600080fd5b506001600160a01b038135811691602001351661059b565b60038054604080516020601f60026000196101006001881615020190951694909404938401819004810282018101909252828152606093909290918301828280156103745780601f1061034957610100808354040283529160200191610374565b820191906000526020600020905b81548152906001019060200180831161035757829003601f168201915b5050505050905090565b600061039261038b6105c6565b84846105ca565b50600192915050565b60025490565b60006103ae8484846106b6565b61041e846103ba6105c6565b61041985604051806060016040528060288152602001610aae602891396001600160a01b038a166000908152600160205260408120906103f86105c6565b6001600160a01b031681526020810191909152604001600020549190610811565b6105ca565b5060019392505050565b60055460ff1690565b600061039261043e6105c6565b84610419856001600061044f6105c6565b6001600160a01b03908116825260208083019390935260409182016000908120918c1681529252902054906108a8565b6001600160a01b031660009081526020819052604090205490565b60048054604080516020601f60026000196101006001881615020190951694909404938401819004810282018101909252828152606093909290918301828280156103745780601f1061034957610100808354040283529160200191610374565b60006103926105086105c6565b8461041985604051806060016040528060258152602001610b1f60259139600160006105326105c6565b6001600160a01b03908116825260208083019390935260409182016000908120918d16815292529020549190610811565b60006103926105706105c6565b84846106b6565b7f000000000000000000000000000000000000000000000000000000000000000081565b6001600160a01b03918216600090815260016020908152604080832093909416825291909152205490565b3390565b6001600160a01b03831661060f5760405162461bcd60e51b8152600401808060200182810382526024815260200180610afb6024913960400191505060405180910390fd5b6001600160a01b0382166106545760405162461bcd60e51b8152600401808060200182810382526022815260200180610a666022913960400191505060405180910390fd5b6001600160a01b03808416600081815260016020908152604080832094871680845294825291829020859055815185815291517f8c5be1e5ebec7d5bd14f71427d1e84f3dd0314c0f7b2291e5b200ac8c7c3b9259281900390910190a3505050565b6001600160a01b0383166106fb5760405162461bcd60e51b8152600401808060200182810382526025815260200180610ad66025913960400191505060405180910390fd5b6001600160a01b0382166107405760405162461bcd60e51b8152600401808060200182810382526023815260200180610a436023913960400191505060405180910390fd5b61074b838383610909565b61078881604051806060016040528060268152602001610a88602691396001600160a01b0386166000908152602081905260409020549190610811565b6001600160a01b0380851660009081526020819052604080822093909355908416815220546107b790826108a8565b6001600160a01b038084166000818152602081815260409182902094909455805185815290519193928716927fddf252ad1be2c89b69c2b068fc378daa952ba7f163c4a11628f55a4df523b3ef92918290030190a3505050565b600081848411156108a05760405162461bcd60e51b81526004018080602001828103825283818151815260200191508051906020019080838360005b8381101561086557818101518382015260200161084d565b50505050905090810190601f1680156108925780820380516001836020036101000a031916815260200191505b509250505060405180910390fd5b505050900390565b600082820183811015610902576040805162461bcd60e51b815260206004820152601b60248201527f536166654d6174683a206164646974696f6e206f766572666c6f770000000000604482015290519081900360640190fd5b9392505050565b7f00000000000000000000000000000000000000000000000000000000000000006001600160a01b0316836001600160a01b0316141561094d5761094d8382610952565b505050565b6001600160a01b0382166109ad576040805162461bcd60e51b815260206004820152601f60248201527f45524332303a206d696e7420746f20746865207a65726f206164647265737300604482015290519081900360640190fd5b6109b960008383610909565b6002546109c690826108a8565b6002556001600160a01b0382166000908152602081905260409020546109ec90826108a8565b6001600160a01b0383166000818152602081815260408083209490945583518581529351929391927fddf252ad1be2c89b69c2b068fc378daa952ba7f163c4a11628f55a4df523b3ef9281900390910190a3505056fe45524332303a207472616e7366657220746f20746865207a65726f206164647265737345524332303a20617070726f766520746f20746865207a65726f206164647265737345524332303a207472616e7366657220616d6f756e7420657863656564732062616c616e636545524332303a207472616e7366657220616d6f756e74206578636565647320616c6c6f77616e636545524332303a207472616e736665722066726f6d20746865207a65726f206164647265737345524332303a20617070726f76652066726f6d20746865207a65726f206164647265737345524332303a2064656372656173656420616c6c6f77616e63652062656c6f77207a65726fa2646970667358221220c20f2687a89f81628819b49828e94212a002022b01f165247535cb84e267c74064736f6c6343000704003360806040523480156200001157600080fd5b506040516200259f3803806200259f833981810160405260808110156200003757600080fd5b81019080805160405193929190846401000000008211156200005857600080fd5b9083019060208201858111156200006e57600080fd5b82516401000000008111828201881017156200008957600080fd5b82525081516020918201929091019080838360005b83811015620000b85781810151838201526020016200009e565b50505050905090810190601f168015620000e65780820380516001836020036101000a031916815260200191505b50604052602001805160405193929190846401000000008211156200010a57600080fd5b9083019060208201858111156200012057600080fd5b82516401000000008111828201881017156200013b57600080fd5b82525081516020918201929091019080838360005b838110156200016a57818101518382015260200162000150565b50505050905090810190601f168015620001985780820380516001836020036101000a031916815260200191505b50604081815260208301519201805192949193919284640100000000821115620001c157600080fd5b908301906020820185811115620001d757600080fd5b8251640100000000811182820188101715620001f257600080fd5b82525081516020918201929091019080838360005b838110156200022157818101518382015260200162000207565b50505050905090810190601f1680156200024f5780820380516001836020036101000a031916815260200191505b50604052508591508490506200026c6301ffc9a760e01b6200033a565b815162000281906006906020850190620004db565b50805162000297906007906020840190620004db565b50620002aa6380ac58cd60e01b6200033a565b620002bc635b5e139f60e01b6200033a565b620002ce63780e9d6360e01b6200033a565b5060009050620002dd620003bf565b600a80546001600160a01b0319166001600160a01b038316908117909155604051919250906000906000805160206200257f833981519152908290a3506200032582620003c3565b6200033081620004c2565b5050505062000587565b6001600160e01b031980821614156200039a576040805162461bcd60e51b815260206004820152601c60248201527f4552433136353a20696e76616c696420696e7465726661636520696400000000604482015290519081900360640190fd5b6001600160e01b0319166000908152602081905260409020805460ff19166001179055565b3390565b620003cd620003bf565b600a546001600160a01b0390811691161462000430576040805162461bcd60e51b815260206004820181905260248201527f4f776e61626c653a2063616c6c6572206973206e6f7420746865206f776e6572604482015290519081900360640190fd5b6001600160a01b038116620004775760405162461bcd60e51b8152600401808060200182810382526026815260200180620025596026913960400191505060405180910390fd5b600a546040516001600160a01b038084169216906000805160206200257f83398151915290600090a3600a80546001600160a01b0319166001600160a01b0392909216919091179055565b8051620004d7906009906020840190620004db565b5050565b828054600181600116156101000203166002900490600052602060002090601f0160209004810192826200051357600085556200055e565b82601f106200052e57805160ff19168380011785556200055e565b828001600101855582156200055e579182015b828111156200055e57825182559160200191906001019062000541565b506200056c92915062000570565b5090565b5b808211156200056c576000815560010162000571565b611fc280620005976000396000f3fe608060405234801561001057600080fd5b50600436106101375760003560e01c80636c0360eb116100b8578063a22cb4651161007c578063a22cb4651461038d578063b88d4fde146103bb578063c87b56dd14610481578063d0def5211461049e578063e985e9c514610554578063f2fde38b1461058257610137565b80636c0360eb1461034757806370a082311461034f578063715018a6146103755780638da5cb5b1461037d57806395d89b411461038557610137565b806323b872dd116100ff57806323b872dd146102755780632f745c59146102ab57806342842e0e146102d75780634f6ccce71461030d5780636352211e1461032a57610137565b806301ffc9a71461013c57806306fdde0314610177578063081812fc146101f4578063095ea7b31461022d57806318160ddd1461025b575b600080fd5b6101636004803603602081101561015257600080fd5b50356001600160e01b0319166105a8565b604080519115158252519081900360200190f35b61017f6105cb565b6040805160208082528351818301528351919283929083019185019080838360005b838110156101b95781810151838201526020016101a1565b50505050905090810190601f1680156101e65780820380516001836020036101000a031916815260200191505b509250505060405180910390f35b6102116004803603602081101561020a57600080fd5b5035610661565b604080516001600160a01b039092168252519081900360200190f35b6102596004803603604081101561024357600080fd5b506001600160a01b0381351690602001356106c3565b005b61026361079e565b60408051918252519081900360200190f35b6102596004803603606081101561028b57600080fd5b506001600160a01b038135811691602081013590911690604001356107af565b610263600480360360408110156102c157600080fd5b506001600160a01b038135169060200135610806565b610259600480360360608110156102ed57600080fd5b506001600160a01b03813581169160208101359091169060400135610831565b6102636004803603602081101561032357600080fd5b503561084c565b6102116004803603602081101561034057600080fd5b5035610862565b61017f61088a565b6102636004803603602081101561036557600080fd5b50356001600160a01b03166108eb565b610259610953565b610211610a07565b61017f610a16565b610259600480360360408110156103a357600080fd5b506001600160a01b0381351690602001351515610a77565b610259600480360360808110156103d157600080fd5b6001600160a01b0382358116926020810135909116916040820135919081019060808101606082013564010000000081111561040c57600080fd5b82018360208201111561041e57600080fd5b8035906020019184600183028401116401000000008311171561044057600080fd5b91908080601f016020809104026020016040519081016040528093929190818152602001838380828437600092019190915250929550610b7c945050505050565b61017f6004803603602081101561049757600080fd5b5035610bda565b610263600480360360408110156104b457600080fd5b6001600160a01b0382351691908101906040810160208201356401000000008111156104df57600080fd5b8201836020820111156104f157600080fd5b8035906020019184600183028401116401000000008311171561051357600080fd5b91908080601f016020809104026020016040519081016040528093929190818152602001838380828437600092019190915250929550610e81945050505050565b6101636004803603604081101561056a57600080fd5b506001600160a01b0381358116916020013516610f19565b6102596004803603602081101561059857600080fd5b50356001600160a01b0316610f47565b6001600160e01b0319811660009081526020819052604090205460ff165b919050565b60068054604080516020601f60026000196101006001881615020190951694909404938401819004810282018101909252828152606093909290918301828280156106575780601f1061062c57610100808354040283529160200191610657565b820191906000526020600020905b81548152906001019060200180831161063a57829003601f168201915b5050505050905090565b600061066c82611052565b6106a75760405162461bcd60e51b815260040180806020018281038252602c815260200180611e8b602c913960400191505060405180910390fd5b506000908152600460205260409020546001600160a01b031690565b60006106ce82610862565b9050806001600160a01b0316836001600160a01b031614156107215760405162461bcd60e51b8152600401808060200182810382526021815260200180611f3b6021913960400191505060405180910390fd5b806001600160a01b031661073361105f565b6001600160a01b0316148061075457506107548161074f61105f565b610f19565b61078f5760405162461bcd60e51b8152600401808060200182810382526038815260200180611dde6038913960400191505060405180910390fd5b6107998383611063565b505050565b60006107aa60026110d1565b905090565b6107c06107ba61105f565b826110dc565b6107fb5760405162461bcd60e51b8152600401808060200182810382526031815260200180611f5c6031913960400191505060405180910390fd5b610799838383611180565b6001600160a01b038216600090815260016020526040812061082890836112cc565b90505b92915050565b61079983838360405180602001604052806000815250610b7c565b60008061085a6002846112d8565b509392505050565b600061082b82604051806060016040528060298152602001611e4060299139600291906112f4565b60098054604080516020601f60026000196101006001881615020190951694909404938401819004810282018101909252828152606093909290918301828280156106575780601f1061062c57610100808354040283529160200191610657565b60006001600160a01b0382166109325760405162461bcd60e51b815260040180806020018281038252602a815260200180611e16602a913960400191505060405180910390fd5b6001600160a01b038216600090815260016020526040902061082b906110d1565b61095b61105f565b600a546001600160a01b039081169116146109bd576040805162461bcd60e51b815260206004820181905260248201527f4f776e61626c653a2063616c6c6572206973206e6f7420746865206f776e6572604482015290519081900360640190fd5b600a546040516000916001600160a01b0316907f8be0079c531659141344cd1fd0a4f28419497f9722a3daafe3b4186f6b6457e0908390a3600a80546001600160a01b0319169055565b600a546001600160a01b031690565b60078054604080516020601f60026000196101006001881615020190951694909404938401819004810282018101909252828152606093909290918301828280156106575780601f1061062c57610100808354040283529160200191610657565b610a7f61105f565b6001600160a01b0316826001600160a01b03161415610ae5576040805162461bcd60e51b815260206004820152601960248201527f4552433732313a20617070726f766520746f2063616c6c657200000000000000604482015290519081900360640190fd5b8060056000610af261105f565b6001600160a01b03908116825260208083019390935260409182016000908120918716808252919093529120805460ff191692151592909217909155610b3661105f565b6001600160a01b03167f17307eab39ab6107e8899845ad3d59bd9653f200f220920489ca2b5937696c318360405180821515815260200191505060405180910390a35050565b610b8d610b8761105f565b836110dc565b610bc85760405162461bcd60e51b8152600401808060200182810382526031815260200180611f5c6031913960400191505060405180910390fd5b610bd48484848461130b565b50505050565b6060610be582611052565b610c205760405162461bcd60e51b815260040180806020018281038252602f815260200180611f0c602f913960400191505060405180910390fd5b60008281526008602090815260409182902080548351601f6002600019610100600186161502019093169290920491820184900484028101840190945280845260609392830182828015610cb55780601f10610c8a57610100808354040283529160200191610cb5565b820191906000526020600020905b815481529060010190602001808311610c9857829003601f168201915b505060095493945050505060026000196101006001841615020190911604610cde5790506105c6565b805115610daf576009816040516020018083805460018160011615610100020316600290048015610d465780601f10610d24576101008083540402835291820191610d46565b820191906000526020600020905b815481529060010190602001808311610d32575b5050825160208401908083835b60208310610d725780518252601f199092019160209182019101610d53565b6001836020036101000a038019825116818451168082178552505050505050905001925050506040516020818303038152906040529150506105c6565b6009610dba8461135d565b6040516020018083805460018160011615610100020316600290048015610e185780601f10610df6576101008083540402835291820191610e18565b820191906000526020600020905b815481529060010190602001808311610e04575b5050825160208401908083835b60208310610e445780518252601f199092019160209182019101610e25565b6001836020036101000a03801982511681845116808217855250505050505090500192505050604051602081830303815290604052915050919050565b6000610e8b61105f565b600a546001600160a01b03908116911614610eed576040805162461bcd60e51b815260206004820181905260248201527f4f776e61626c653a2063616c6c6572206973206e6f7420746865206f776e6572604482015290519081900360640190fd5b610ef7600b611438565b6000610f03600b611441565b9050610f0f8482611445565b6108288184611573565b6001600160a01b03918216600090815260056020908152604080832093909416825291909152205460ff1690565b610f4f61105f565b600a546001600160a01b03908116911614610fb1576040805162461bcd60e51b815260206004820181905260248201527f4f776e61626c653a2063616c6c6572206973206e6f7420746865206f776e6572604482015290519081900360640190fd5b6001600160a01b038116610ff65760405162461bcd60e51b8152600401808060200182810382526026815260200180611d686026913960400191505060405180910390fd5b600a546040516001600160a01b038084169216907f8be0079c531659141344cd1fd0a4f28419497f9722a3daafe3b4186f6b6457e090600090a3600a80546001600160a01b0319166001600160a01b0392909216919091179055565b600061082b6002836115d6565b3390565b600081815260046020526040902080546001600160a01b0319166001600160a01b038416908117909155819061109882610862565b6001600160a01b03167f8c5be1e5ebec7d5bd14f71427d1e84f3dd0314c0f7b2291e5b200ac8c7c3b92560405160405180910390a45050565b600061082b82611441565b60006110e782611052565b6111225760405162461bcd60e51b815260040180806020018281038252602c815260200180611db2602c913960400191505060405180910390fd5b600061112d83610862565b9050806001600160a01b0316846001600160a01b031614806111685750836001600160a01b031661115d84610661565b6001600160a01b0316145b8061117857506111788185610f19565b949350505050565b826001600160a01b031661119382610862565b6001600160a01b0316146111d85760405162461bcd60e51b8152600401808060200182810382526029815260200180611ee36029913960400191505060405180910390fd5b6001600160a01b03821661121d5760405162461bcd60e51b8152600401808060200182810382526024815260200180611d8e6024913960400191505060405180910390fd5b611228838383610799565b611233600082611063565b6001600160a01b038316600090815260016020526040902061125590826115e2565b506001600160a01b038216600090815260016020526040902061127890826115ee565b50611285600282846115fa565b5080826001600160a01b0316846001600160a01b03167fddf252ad1be2c89b69c2b068fc378daa952ba7f163c4a11628f55a4df523b3ef60405160405180910390a4505050565b60006108288383611610565b60008080806112e78686611674565b9097909650945050505050565b60006113018484846116ef565b90505b9392505050565b611316848484611180565b611322848484846117b9565b610bd45760405162461bcd60e51b8152600401808060200182810382526032815260200180611d366032913960400191505060405180910390fd5b60608161138257506040805180820190915260018152600360fc1b60208201526105c6565b8160005b811561139a57600101600a82049150611386565b60608167ffffffffffffffff811180156113b357600080fd5b506040519080825280601f01601f1916602001820160405280156113de576020820181803683370190505b50859350905060001982015b831561142f57600a840660300160f81b8282806001900393508151811061140d57fe5b60200101906001600160f81b031916908160001a905350600a840493506113ea565b50949350505050565b80546001019055565b5490565b6001600160a01b0382166114a0576040805162461bcd60e51b815260206004820181905260248201527f4552433732313a206d696e7420746f20746865207a65726f2061646472657373604482015290519081900360640190fd5b6114a981611052565b156114fb576040805162461bcd60e51b815260206004820152601c60248201527f4552433732313a20746f6b656e20616c7265616479206d696e74656400000000604482015290519081900360640190fd5b61150760008383610799565b6001600160a01b038216600090815260016020526040902061152990826115ee565b50611536600282846115fa565b5060405181906001600160a01b038416906000907fddf252ad1be2c89b69c2b068fc378daa952ba7f163c4a11628f55a4df523b3ef908290a45050565b61157c82611052565b6115b75760405162461bcd60e51b815260040180806020018281038252602c815260200180611eb7602c913960400191505060405180910390fd5b6000828152600860209081526040909120825161079992840190611c72565b60006108288383611921565b60006108288383611939565b600061082883836119ff565b600061130184846001600160a01b038516611a49565b815460009082106116525760405162461bcd60e51b8152600401808060200182810382526022815260200180611d146022913960400191505060405180910390fd5b82600001828154811061166157fe5b9060005260206000200154905092915050565b8154600090819083106116b85760405162461bcd60e51b8152600401808060200182810382526022815260200180611e696022913960400191505060405180910390fd5b60008460000184815481106116c957fe5b906000526020600020906002020190508060000154816001015492509250509250929050565b6000828152600184016020526040812054828161178a5760405162461bcd60e51b81526004018080602001828103825283818151815260200191508051906020019080838360005b8381101561174f578181015183820152602001611737565b50505050905090810190601f16801561177c5780820380516001836020036101000a031916815260200191505b509250505060405180910390fd5b5084600001600182038154811061179d57fe5b9060005260206000209060020201600101549150509392505050565b60006117cd846001600160a01b0316611ae0565b6117d957506001611178565b60606118e7630a85bd0160e11b6117ee61105f565b88878760405160240180856001600160a01b03168152602001846001600160a01b0316815260200183815260200180602001828103825283818151815260200191508051906020019080838360005b8381101561185557818101518382015260200161183d565b50505050905090810190601f1680156118825780820380516001836020036101000a031916815260200191505b5095505050505050604051602081830303815290604052906001600160e01b0319166020820180516001600160e01b038381831617835250505050604051806060016040528060328152602001611d36603291396001600160a01b0388169190611ae6565b9050600081806020019051602081101561190057600080fd5b50516001600160e01b031916630a85bd0160e11b1492505050949350505050565b60009081526001919091016020526040902054151590565b600081815260018301602052604081205480156119f5578354600019808301919081019060009087908390811061196c57fe5b906000526020600020015490508087600001848154811061198957fe5b6000918252602080832090910192909255828152600189810190925260409020908401905586548790806119b957fe5b6001900381819060005260206000200160009055905586600101600087815260200190815260200160002060009055600194505050505061082b565b600091505061082b565b6000611a0b8383611921565b611a415750815460018181018455600084815260208082209093018490558454848252828601909352604090209190915561082b565b50600061082b565b600082815260018401602052604081205480611aae575050604080518082018252838152602080820184815286546001818101895560008981528481209551600290930290950191825591519082015586548684528188019092529290912055611304565b82856000016001830381548110611ac157fe5b9060005260206000209060020201600101819055506000915050611304565b3b151590565b6060611301848460008585611afa85611ae0565b611b4b576040805162461bcd60e51b815260206004820152601d60248201527f416464726573733a2063616c6c20746f206e6f6e2d636f6e7472616374000000604482015290519081900360640190fd5b60006060866001600160a01b031685876040518082805190602001908083835b60208310611b8a5780518252601f199092019160209182019101611b6b565b6001836020036101000a03801982511681845116808217855250505050505090500191505060006040518083038185875af1925050503d8060008114611bec576040519150601f19603f3d011682016040523d82523d6000602084013e611bf1565b606091505b5091509150611c01828286611c0c565b979650505050505050565b60608315611c1b575081611304565b825115611c2b5782518084602001fd5b60405162461bcd60e51b815260206004820181815284516024840152845185939192839260440191908501908083836000831561174f578181015183820152602001611737565b828054600181600116156101000203166002900490600052602060002090601f016020900481019282611ca85760008555611cee565b82601f10611cc157805160ff1916838001178555611cee565b82800160010185558215611cee579182015b82811115611cee578251825591602001919060010190611cd3565b50611cfa929150611cfe565b5090565b5b80821115611cfa5760008155600101611cff56fe456e756d657261626c655365743a20696e646578206f7574206f6620626f756e64734552433732313a207472616e7366657220746f206e6f6e20455243373231526563656976657220696d706c656d656e7465724f776e61626c653a206e6577206f776e657220697320746865207a65726f20616464726573734552433732313a207472616e7366657220746f20746865207a65726f20616464726573734552433732313a206f70657261746f7220717565727920666f72206e6f6e6578697374656e7420746f6b656e4552433732313a20617070726f76652063616c6c6572206973206e6f74206f776e6572206e6f7220617070726f76656420666f7220616c6c4552433732313a2062616c616e636520717565727920666f7220746865207a65726f20616464726573734552433732313a206f776e657220717565727920666f72206e6f6e6578697374656e7420746f6b656e456e756d657261626c654d61703a20696e646578206f7574206f6620626f756e64734552433732313a20617070726f76656420717565727920666f72206e6f6e6578697374656e7420746f6b656e4552433732314d657461646174613a2055524920736574206f66206e6f6e6578697374656e7420746f6b656e4552433732313a207472616e73666572206f6620746f6b656e2074686174206973206e6f74206f776e4552433732314d657461646174613a2055524920717565727920666f72206e6f6e6578697374656e7420746f6b656e4552433732313a20617070726f76616c20746f2063757272656e74206f776e65724552433732313a207472616e736665722063616c6c6572206973206e6f74206f776e6572206e6f7220617070726f766564a26469706673582212201b047c407c47913b6c10dddb6fcb3d5f7113b4c6f88bef388f5226928ed9f51e64736f6c634300070400334f776e61626c653a206e6577206f776e657220697320746865207a65726f20616464726573738be0079c531659141344cd1fd0a4f28419497f9722a3daafe3b4186f6b6457e060806040523480156200001157600080fd5b5060405162000e2538038062000e25833981810160405260808110156200003757600080fd5b81019080805160405193929190846401000000008211156200005857600080fd5b9083019060208201858111156200006e57600080fd5b82516401000000008111828201881017156200008957600080fd5b82525081516020918201929091019080838360005b83811015620000b85781810151838201526020016200009e565b50505050905090810190601f168015620000e65780820380516001836020036101000a031916815260200191505b50604052602001805160405193929190846401000000008211156200010a57600080fd5b9083019060208201858111156200012057600080fd5b82516401000000008111828201881017156200013b57600080fd5b82525081516020918201929091019080838360005b838110156200016a57818101518382015260200162000150565b50505050905090810190601f168015620001985780820380516001836020036101000a031916815260200191505b50604090815260208281015192909101518651929450925085918591620001c59160039185019062000377565b508051620001db90600490602084019062000377565b50506005805460ff1916601217905550620001f7828262000201565b5050505062000423565b6001600160a01b0382166200025d576040805162461bcd60e51b815260206004820152601f60248201527f45524332303a206d696e7420746f20746865207a65726f206164647265737300604482015290519081900360640190fd5b6200026b6000838362000310565b62000287816002546200031560201b620005731790919060201c565b6002556001600160a01b03821660009081526020818152604090912054620002ba9183906200057362000315821b17901c565b6001600160a01b0383166000818152602081815260408083209490945583518581529351929391927fddf252ad1be2c89b69c2b068fc378daa952ba7f163c4a11628f55a4df523b3ef9281900390910190a35050565b505050565b60008282018381101562000370576040805162461bcd60e51b815260206004820152601b60248201527f536166654d6174683a206164646974696f6e206f766572666c6f770000000000604482015290519081900360640190fd5b9392505050565b828054600181600116156101000203166002900490600052602060002090601f016020900481019282620003af5760008555620003fa565b82601f10620003ca57805160ff1916838001178555620003fa565b82800160010185558215620003fa579182015b82811115620003fa578251825591602001919060010190620003dd565b50620004089291506200040c565b5090565b5b808211156200040857600081556001016200040d565b6109f280620004336000396000f3fe608060405234801561001057600080fd5b50600436106100a95760003560e01c8063395093511161007157806339509351146101d957806370a082311461020557806395d89b411461022b578063a457c2d714610233578063a9059cbb1461025f578063dd62ed3e1461028b576100a9565b806306fdde03146100ae578063095ea7b31461012b57806318160ddd1461016b57806323b872dd14610185578063313ce567146101bb575b600080fd5b6100b66102b9565b6040805160208082528351818301528351919283929083019185019080838360005b838110156100f05781810151838201526020016100d8565b50505050905090810190601f16801561011d5780820380516001836020036101000a031916815260200191505b509250505060405180910390f35b6101576004803603604081101561014157600080fd5b506001600160a01b03813516906020013561034f565b604080519115158252519081900360200190f35b61017361036c565b60408051918252519081900360200190f35b6101576004803603606081101561019b57600080fd5b506001600160a01b03813581169160208101359091169060400135610372565b6101c36103f9565b6040805160ff9092168252519081900360200190f35b610157600480360360408110156101ef57600080fd5b506001600160a01b038135169060200135610402565b6101736004803603602081101561021b57600080fd5b50356001600160a01b0316610450565b6100b661046b565b6101576004803603604081101561024957600080fd5b506001600160a01b0381351690602001356104cc565b6101576004803603604081101561027557600080fd5b506001600160a01b038135169060200135610534565b610173600480360360408110156102a157600080fd5b506001600160a01b0381358116916020013516610548565b60038054604080516020601f60026000196101006001881615020190951694909404938401819004810282018101909252828152606093909290918301828280156103455780601f1061031a57610100808354040283529160200191610345565b820191906000526020600020905b81548152906001019060200180831161032857829003601f168201915b5050505050905090565b600061036361035c6105d4565b84846105d8565b50600192915050565b60025490565b600061037f8484846106c4565b6103ef8461038b6105d4565b6103ea85604051806060016040528060288152602001610927602891396001600160a01b038a166000908152600160205260408120906103c96105d4565b6001600160a01b03168152602081019190915260400160002054919061081f565b6105d8565b5060019392505050565b60055460ff1690565b600061036361040f6105d4565b846103ea85600160006104206105d4565b6001600160a01b03908116825260208083019390935260409182016000908120918c168152925290205490610573565b6001600160a01b031660009081526020819052604090205490565b60048054604080516020601f60026000196101006001881615020190951694909404938401819004810282018101909252828152606093909290918301828280156103455780601f1061031a57610100808354040283529160200191610345565b60006103636104d96105d4565b846103ea8560405180606001604052806025815260200161099860259139600160006105036105d4565b6001600160a01b03908116825260208083019390935260409182016000908120918d1681529252902054919061081f565b60006103636105416105d4565b84846106c4565b6001600160a01b03918216600090815260016020908152604080832093909416825291909152205490565b6000828201838110156105cd576040805162461bcd60e51b815260206004820152601b60248201527f536166654d6174683a206164646974696f6e206f766572666c6f770000000000604482015290519081900360640190fd5b9392505050565b3390565b6001600160a01b03831661061d5760405162461bcd60e51b81526004018080602001828103825260248152602001806109746024913960400191505060405180910390fd5b6001600160a01b0382166106625760405162461bcd60e51b81526004018080602001828103825260228152602001806108df6022913960400191505060405180910390fd5b6001600160a01b03808416600081815260016020908152604080832094871680845294825291829020859055815185815291517f8c5be1e5ebec7d5bd14f71427d1e84f3dd0314c0f7b2291e5b200ac8c7c3b9259281900390910190a3505050565b6001600160a01b0383166107095760405162461bcd60e51b815260040180806020018281038252602581526020018061094f6025913960400191505060405180910390fd5b6001600160a01b03821661074e5760405162461bcd60e51b81526004018080602001828103825260238152602001806108bc6023913960400191505060405180910390fd5b6107598383836108b6565b61079681604051806060016040528060268152602001610901602691396001600160a01b038616600090815260208190526040902054919061081f565b6001600160a01b0380851660009081526020819052604080822093909355908416815220546107c59082610573565b6001600160a01b038084166000818152602081815260409182902094909455805185815290519193928716927fddf252ad1be2c89b69c2b068fc378daa952ba7f163c4a11628f55a4df523b3ef92918290030190a3505050565b600081848411156108ae5760405162461bcd60e51b81526004018080602001828103825283818151815260200191508051906020019080838360005b8381101561087357818101518382015260200161085b565b50505050905090810190601f1680156108a05780820380516001836020036101000a031916815260200191505b509250505060405180910390fd5b505050900390565b50505056fe45524332303a207472616e7366657220746f20746865207a65726f206164647265737345524332303a20617070726f766520746f20746865207a65726f206164647265737345524332303a207472616e7366657220616d6f756e7420657863656564732062616c616e636545524332303a207472616e7366657220616d6f756e74206578636565647320616c6c6f77616e636545524332303a207472616e736665722066726f6d20746865207a65726f206164647265737345524332303a20617070726f76652066726f6d20746865207a65726f206164647265737345524332303a2064656372656173656420616c6c6f77616e63652062656c6f77207a65726fa2646970667358221220dbac8520d623673d467c7cc1b77ba61c59670835314944558115413b8ab50a4564736f6c63430007040033a2646970667358221220fe673c676674033cbbae89e5833e1a575e62ae5bf6eafc305ee0a96fd5317d6f64736f6c63430007040033",
  "devdoc": {
    "kind": "dev",
    "methods": {
      "deployLimitedSupplyToken(string,string,address,uint256)": {
        "params": {
          "_name": "string Token name.",
          "_symbol": "string Token symbol.",
          "amount": "uint256 Total supply of this token.",
          "to": "address Address the total supply will be minted to."
        }
      },
      "deployNonFungibleToken(string,string,address,string)": {
        "params": {
          "_name": "string Token name.",
          "_symbol": "string Token symbol.",
          "_to": "address Address the total supply will be minted to."
        }
      },
      "deployUnlimitedSupplyToken(string,string,address)": {
        "params": {
          "_name": "string Token name.",
          "_symbol": "string Token symbol.",
          "_unlimited": "address Addres which is allowed to transfer tokens which are minted on the fly."
        }
      }
    },
    "version": 1
  },
  "userdoc": {
    "kind": "user",
    "methods": {},
    "version": 1
  },
  "storageLayout": {
    "storage": [],
    "types": null
  }
}