{
  "address": "0x24A2a947A385BEd15ec3945D72696887db5eBab3",
  "abi": [
    {
      "anonymous": false,
      "inputs": [
        {
          "indexed": true,
          "internalType": "bytes32",
          "name": "role",
          "type": "bytes32"
        },
        {
          "indexed": true,
          "internalType": "bytes32",
          "name": "previousAdminRole",
          "type": "bytes32"
        },
        {
          "indexed": true,
          "internalType": "bytes32",
          "name": "newAdminRole",
          "type": "bytes32"
        }
      ],
      "name": "RoleAdminChanged",
      "type": "event"
    },
    {
      "anonymous": false,
      "inputs": [
        {
          "indexed": true,
          "internalType": "bytes32",
          "name": "role",
          "type": "bytes32"
        },
        {
          "indexed": true,
          "internalType": "address",
          "name": "account",
          "type": "address"
        },
        {
          "indexed": true,
          "internalType": "address",
          "name": "sender",
          "type": "address"
        }
      ],
      "name": "RoleGranted",
      "type": "event"
    },
    {
      "anonymous": false,
      "inputs": [
        {
          "indexed": true,
          "internalType": "bytes32",
          "name": "role",
          "type": "bytes32"
        },
        {
          "indexed": true,
          "internalType": "address",
          "name": "account",
          "type": "address"
        },
        {
          "indexed": true,
          "internalType": "address",
          "name": "sender",
          "type": "address"
        }
      ],
      "name": "RoleRevoked",
      "type": "event"
    },
    {
      "anonymous": false,
      "inputs": [
        {
          "indexed": false,
          "internalType": "uint256",
          "name": "id",
          "type": "uint256"
        },
        {
          "indexed": true,
          "internalType": "uint256",
          "name": "member",
          "type": "uint256"
        }
      ],
      "name": "WithdrawPollCreated",
      "type": "event"
    },
    {
      "inputs": [],
      "name": "getProposeWithdrawPollDuration",
      "outputs": [
        {
          "internalType": "uint256",
          "name": "",
          "type": "uint256"
        }
      ],
      "stateMutability": "view",
      "type": "function"
    },
    {
      "inputs": [
        {
          "internalType": "uint256[]",
          "name": "_amounts",
          "type": "uint256[]"
        },
        {
          "internalType": "address[]",
          "name": "_beneficiaries",
          "type": "address[]"
        }
      ],
      "name": "proposeBulkWithdraw",
      "outputs": [],
      "stateMutability": "nonpayable",
      "type": "function"
    },
    {
      "inputs": [
        {
          "internalType": "uint256",
          "name": "_amount",
          "type": "uint256"
        },
        {
          "internalType": "address",
          "name": "_beneficiary",
          "type": "address"
        }
      ],
      "name": "proposeWithdraw",
      "outputs": [],
      "stateMutability": "nonpayable",
      "type": "function"
    },
    {
      "inputs": [
        {
          "internalType": "uint256",
          "name": "_duration",
          "type": "uint256"
        }
      ],
      "name": "setProposeWithdrawPollDuration",
      "outputs": [],
      "stateMutability": "nonpayable",
      "type": "function"
    }
  ],
  "transactionHash": "0x20a806586c462a588695da3d35e7ce24a385cadad781b79223d2ed25c687b2a4",
  "args": [],
  "numDeployments": 2,
  "solcInputHash": "5147407d0775ba0cf6eae58ab83a63ad",
  "bytecode": "0x608060405234801561001057600080fd5b50610a60806100206000396000f3fe608060405234801561001057600080fd5b506004361061004c5760003560e01c8063a14248f114610051578063d19f01a214610066578063f0854aac14610079578063f14ad3a91461008c575b600080fd5b61006461005f36600461084e565b6100aa565b005b610064610074366004610908565b610240565b610064610087366004610920565b6102bd565b61009461034d565b6040516100a19190610995565b60405180910390f35b6100b261035d565b6001600160a01b03166100c36103aa565b6001600160a01b03161461010a576040805162461bcd60e51b81526020600482015260096024820152682727aa2fa7aba722a960b91b604482015290519081900360640190fd5b81516101315760405162461bcd60e51b81526004016101289061094b565b60405180910390fd5b805161014f5760405162461bcd60e51b81526004016101289061094b565b80518251146101705760405162461bcd60e51b81526004016101289061094b565b60005b815181101561023b5782818151811061018857fe5b6020026020010151600014156101b05760405162461bcd60e51b815260040161012890610972565b60006001600160a01b03168282815181106101c757fe5b60200260200101516001600160a01b031614156101f65760405162461bcd60e51b815260040161012890610972565b61023283828151811061020557fe5b60200260200101516102156103c6565b6000015484848151811061022557fe5b60200260200101516103ea565b50600101610173565b505050565b6102717f241ecf16d79d0f8dbfb92cbc07fe17840425976cf0667f022fe9877caa831b0861026c61035d565b610547565b6102b0576040805162461bcd60e51b815260206004820152600b60248201526a2727aa2fa6a0a720a3a2a960a91b604482015290519081900360640190fd5b806102b96103c6565b5550565b6102c561035d565b6001600160a01b03166102d66103aa565b6001600160a01b03161461031d576040805162461bcd60e51b81526020600482015260096024820152682727aa2fa7aba722a960b91b604482015290519081900360640190fd5b8161033a5760405162461bcd60e51b815260040161012890610972565b61023b826103466103c6565b54836103ea565b60006103576103c6565b54905090565b600060606000368080601f0160208091040260200160405190810160405280939291908181526020018383808284376000920191909152505050503601516001600160a01b031692915050565b60006103b4610577565b600401546001600160a01b0316919050565b7fa86131b0e9c214bb6e027183ea39a379ec2404b3693e933e1a0cd73b647fc98e90565b6000806103f561059b565b805460010180825590915060009061040c906105bf565b825481554260018201819055860160028201558254909150600090610430906105d2565b9050600061043c6105de565b90506104687f829b824e2329e205435d941c9f13baf578548505283d29261236d8e6596d463687610547565b6104db57805460019081018083556001600160a01b038816600081815292840160209081526040808520849055928452600285019052912080546001600160a01b03191690911790556104db7f829b824e2329e205435d941c9f13baf578548505283d29261236d8e6596d463687610602565b6001600160a01b03861660009081526001808301602052604091829020548085559084018a90558554915190917f91aa418bfd26049fe46510fca1b7593f8348efbf8e8e29a3844bb16584ff1448916105349190610995565b60405180910390a2505050509392505050565b600080610552610679565b600085815260208290526040902090915061056d908461069d565b9150505b92915050565b7fc8fcad8db84d3cc18b4c41d551ea0ee66dd599cde068d998e57d5e09332c131c90565b7fe9264b9da64504fcbd8e41f0f0eb90a5e885b3fe366dad83c81095d9285d25e190565b6000806105cb836106b2565b9392505050565b6000806105cb836106ff565b7faa97fdeef5de5607974189e6a2429d502dcc32b43d658c3c065d5ca083ee1fab90565b600061060c610679565b6000848152602082905260409020909150610627908361074b565b1561023b5761063461035d565b6001600160a01b0316826001600160a01b0316847f2f8788117e7eff1d82e926ec794901d17c78024a50270940304540a733656f0d60405160405180910390a4505050565b7f6282190449f76f72a9f692e4d8619a03764b7253394788948e36a7a57ba4a00e90565b60006105cb836001600160a01b038416610760565b600081604051602001808060200183815260200182810382526023815260200180610a0860239139604001925050506040516020818303038152906040528051906020012090505b919050565b6000816040516020018080602001838152602001828103825260278152602001806109e16027913960400192505050604051602081830303815290604052805190602001209050919050565b60006105cb836001600160a01b038416610778565b60009081526001919091016020526040902054151590565b60006107848383610760565b6107ba57508154600181810184556000848152602080822090930184905584548482528286019093526040902091909155610571565b506000610571565b80356001600160a01b03811681146106fa57600080fd5b600082601f8301126107e9578081fd5b81356107fc6107f7826109c2565b61099e565b81815291506020808301908481018184028601820187101561081d57600080fd5b60005b8481101561084357610831826107c2565b84529282019290820190600101610820565b505050505092915050565b60008060408385031215610860578182fd5b823567ffffffffffffffff80821115610877578384fd5b818501915085601f83011261088a578384fd5b81356108986107f7826109c2565b80828252602080830192508086018a8283870289010111156108b8578889fd5b8896505b848710156108da5780358452600196909601959281019281016108bc565b5090965087013593505050808211156108f1578283fd5b506108fe858286016107d9565b9150509250929050565b600060208284031215610919578081fd5b5035919050565b60008060408385031215610932578182fd5b82359150610942602084016107c2565b90509250929050565b6020808252600d908201526c1253959053125117d253941555609a1b604082015260600190565b6020808252600990820152681393d517d59053125160ba1b604082015260600190565b90815260200190565b60405181810167ffffffffffffffff811182821017156109ba57fe5b604052919050565b600067ffffffffffffffff8211156109d657fe5b506020908102019056fe6469616d6f6e642e636f6e74726163742e6173736574706f6f6c2e7769746864726177706f6c6c6469616d6f6e642e636f6e74726163742e6173736574706f6f6c2e62617365706f6c6ca26469706673582212200d4b1305c05cf2ff948469120775e254e6209d81727f8cdce4600900bbf5226964736f6c63430007040033",
  "devdoc": {
    "kind": "dev",
    "methods": {
      "getProposeWithdrawPollDuration()": {
        "returns": {
          "_0": "default duration in seconds for polls for proposed withdrawals."
        }
      },
      "proposeBulkWithdraw(uint256[],address[])": {
        "params": {
          "_amounts": "Sizes of the proposed withdrawal.",
          "_beneficiaries": "Beneficiaries of the reward."
        }
      },
      "proposeWithdraw(uint256,address)": {
        "params": {
          "_amount": "Size of the proposed withdrawal.",
          "_beneficiary": "Beneficiary of the reward."
        }
      },
      "setProposeWithdrawPollDuration(uint256)": {
        "params": {
          "_duration": "Default duration of the poll for proposed withdrawals."
        }
      }
    },
    "version": 1
  },
  "userdoc": {
    "kind": "user",
    "methods": {
      "proposeBulkWithdraw(uint256[],address[])": {
        "notice": "Proposes a withdraw poll with the default withdrawPollDuration in bulk."
      },
      "proposeWithdraw(uint256,address)": {
        "notice": "Proposes a withdraw poll with the default withdrawPollDuration."
      }
    },
    "version": 1
  },
  "storageLayout": {
    "storage": [],
    "types": null
  }
}