{
  "address": "0x0A561908A387fA9b944345dDC7092E30c3Ee46BC",
  "abi": [
    {
      "anonymous": false,
      "inputs": [
        {
          "indexed": false,
          "internalType": "address",
          "name": "recipient",
          "type": "address"
        },
        {
          "indexed": false,
          "internalType": "uint256[]",
          "name": "_ids",
          "type": "uint256[]"
        },
        {
          "indexed": false,
          "internalType": "uint256[]",
          "name": "amounts",
          "type": "uint256[]"
        },
        {
          "indexed": false,
          "internalType": "address",
          "name": "_tokenAddress",
          "type": "address"
        }
      ],
      "name": "ERC1155MintedBatch",
      "type": "event"
    },
    {
      "anonymous": false,
      "inputs": [
        {
          "indexed": false,
          "internalType": "address",
          "name": "recipient",
          "type": "address"
        },
        {
          "indexed": false,
          "internalType": "uint256",
          "name": "_id",
          "type": "uint256"
        },
        {
          "indexed": false,
          "internalType": "uint256",
          "name": "amount",
          "type": "uint256"
        },
        {
          "indexed": false,
          "internalType": "address",
          "name": "_tokenAddress",
          "type": "address"
        }
      ],
      "name": "ERC1155MintedSingle",
      "type": "event"
    },
    {
      "anonymous": false,
      "inputs": [
        {
          "indexed": false,
          "internalType": "address",
          "name": "from",
          "type": "address"
        },
        {
          "indexed": false,
          "internalType": "address",
          "name": "to",
          "type": "address"
        },
        {
          "indexed": false,
          "internalType": "uint256[]",
          "name": "_ids",
          "type": "uint256[]"
        },
        {
          "indexed": false,
          "internalType": "uint256[]",
          "name": "amounts",
          "type": "uint256[]"
        }
      ],
      "name": "ERC71155TransferredBatch",
      "type": "event"
    },
    {
      "anonymous": false,
      "inputs": [
        {
          "indexed": false,
          "internalType": "address",
          "name": "from",
          "type": "address"
        },
        {
          "indexed": false,
          "internalType": "address",
          "name": "to",
          "type": "address"
        },
        {
          "indexed": false,
          "internalType": "uint256",
          "name": "_id",
          "type": "uint256"
        },
        {
          "indexed": false,
          "internalType": "uint256",
          "name": "amount",
          "type": "uint256"
        }
      ],
      "name": "ERC71155TransferredSingle",
      "type": "event"
    },
    {
      "inputs": [],
      "name": "MINTER_ROLE",
      "outputs": [
        {
          "internalType": "bytes32",
          "name": "",
          "type": "bytes32"
        }
      ],
      "stateMutability": "view",
      "type": "function"
    },
    {
      "inputs": [
        {
          "internalType": "address",
          "name": "_tokenAddress",
          "type": "address"
        },
        {
          "internalType": "address",
          "name": "_to",
          "type": "address"
        },
        {
          "internalType": "uint256[]",
          "name": "_ids",
          "type": "uint256[]"
        },
        {
          "internalType": "uint256[]",
          "name": "_amounts",
          "type": "uint256[]"
        }
      ],
      "name": "batchTransferFromERC1155",
      "outputs": [],
      "stateMutability": "nonpayable",
      "type": "function"
    },
    {
      "inputs": [
        {
          "internalType": "address",
          "name": "_tokenAddress",
          "type": "address"
        },
        {
          "internalType": "address",
          "name": "_recipient",
          "type": "address"
        },
        {
          "internalType": "uint256[]",
          "name": "_ids",
          "type": "uint256[]"
        },
        {
          "internalType": "uint256[]",
          "name": "_amounts",
          "type": "uint256[]"
        }
      ],
      "name": "mintBatchForERC1155",
      "outputs": [],
      "stateMutability": "nonpayable",
      "type": "function"
    },
    {
      "inputs": [
        {
          "internalType": "address",
          "name": "_tokenAddress",
          "type": "address"
        },
        {
          "internalType": "address",
          "name": "_recipient",
          "type": "address"
        },
        {
          "internalType": "uint256",
          "name": "_id",
          "type": "uint256"
        },
        {
          "internalType": "uint256",
          "name": "_amount",
          "type": "uint256"
        }
      ],
      "name": "mintForERC1155",
      "outputs": [],
      "stateMutability": "nonpayable",
      "type": "function"
    },
    {
      "inputs": [
        {
          "internalType": "address",
          "name": "_tokenAddress",
          "type": "address"
        },
        {
          "internalType": "address",
          "name": "_to",
          "type": "address"
        },
        {
          "internalType": "uint256",
          "name": "_id",
          "type": "uint256"
        },
        {
          "internalType": "uint256",
          "name": "_amount",
          "type": "uint256"
        }
      ],
      "name": "transferFromERC1155",
      "outputs": [],
      "stateMutability": "nonpayable",
      "type": "function"
    }
  ],
  "transactionHash": "0x288eaa3958788c12af73d76095d9360990838ac58d0c92c5e425dc5c49001cda",
  "args": [],
  "numDeployments": 1,
  "solcInputHash": "00a288f66074a4f4979dbca865f773a0",
  "bytecode": "0x608060405234801561001057600080fd5b50610bc1806100206000396000f3fe608060405234801561001057600080fd5b50600436106100575760003560e01c80634a4f19f51461005c5780634af846081461019a578063b94b69bf146101d6578063be781db414610312578063d53913931461034e575b600080fd5b6101986004803603608081101561007257600080fd5b6001600160a01b038235811692602081013590911691810190606081016040820135600160201b8111156100a557600080fd5b8201836020820111156100b757600080fd5b803590602001918460208302840111600160201b831117156100d857600080fd5b9190808060200260200160405190810160405280939291908181526020018383602002808284376000920191909152509295949360208101935035915050600160201b81111561012757600080fd5b82018360208201111561013957600080fd5b803590602001918460208302840111600160201b8311171561015a57600080fd5b919080806020026020016040519081016040528093929190818152602001838360200280828437600092019190915250929550610368945050505050565b005b610198600480360360808110156101b057600080fd5b506001600160a01b038135811691602081013590911690604081013590606001356105e4565b610198600480360360808110156101ec57600080fd5b6001600160a01b038235811692602081013590911691810190606081016040820135600160201b81111561021f57600080fd5b82018360208201111561023157600080fd5b803590602001918460208302840111600160201b8311171561025257600080fd5b9190808060200260200160405190810160405280939291908181526020018383602002808284376000920191909152509295949360208101935035915050600160201b8111156102a157600080fd5b8201836020820111156102b357600080fd5b803590602001918460208302840111600160201b831117156102d457600080fd5b919080806020026020016040519081016040528093929190818152602001838360200280828437600092019190915250929550610752945050505050565b6101986004803603608081101561032857600080fd5b506001600160a01b038135811691602081013590911690604081013590606001356109b5565b610356610b27565b60408051918252519081900360200190f35b33610371610b4b565b6001600160a01b0316146103b8576040805162461bcd60e51b81526020600482015260096024820152682727aa2fa7aba722a960b91b604482015290519081900360640190fd5b6001600160a01b0384166103fe576040805162461bcd60e51b81526020600482015260086024820152672727afaa27a5a2a760c11b604482015290519081900360640190fd5b604051630fbfeffd60e11b81526001600160a01b0384811660048301908152608060248401908152855160848501528551889493851693631f7fdffa938993899389936044810191606482019160a401906020808901910280838360005b8381101561047457818101518382015260200161045c565b50505050905001848103835285818151815260200191508051906020019060200280838360005b838110156104b357818101518382015260200161049b565b505050509050018481038252600081526020019650505050505050600060405180830381600087803b1580156104e857600080fd5b505af11580156104fc573d6000803e3d6000fd5b505050507f13f8e4c12f0efbd772e22a40ae29af984830d3dfb6ba693a0e5759032b3a33998484848860405180856001600160a01b031681526020018060200180602001846001600160a01b03168152602001838103835286818151815260200191508051906020019060200280838360005b8381101561058757818101518382015260200161056f565b50505050905001838103825285818151815260200191508051906020019060200280838360005b838110156105c65781810151838201526020016105ae565b50505050905001965050505050505060405180910390a15050505050565b336105ed610b4b565b6001600160a01b031614610634576040805162461bcd60e51b81526020600482015260096024820152682727aa2fa7aba722a960b91b604482015290519081900360640190fd5b6001600160a01b03841661067a576040805162461bcd60e51b81526020600482015260086024820152672727afaa27a5a2a760c11b604482015290519081900360640190fd5b6040805163731133e960e01b81526001600160a01b038581166004830152602482018590526044820184905260806064830152600060848301819052925187939184169263731133e99260a480830193919282900301818387803b1580156106e157600080fd5b505af11580156106f5573d6000803e3d6000fd5b5050604080516001600160a01b038089168252602082018890528183018790528916606082015290517f3127881c4d2f2b75cb278220d0c1e1aa8205e92069b21f8f2aaf1bdcb6b442629350908190036080019150a15050505050565b3361075b610b4b565b6001600160a01b0316146107a2576040805162461bcd60e51b81526020600482015260096024820152682727aa2fa7aba722a960b91b604482015290519081900360640190fd5b6001600160a01b0384166107e8576040805162461bcd60e51b81526020600482015260086024820152672727afaa27a5a2a760c11b604482015290519081900360640190fd5b604051631759616b60e11b815230600482018181526001600160a01b03868116602485015260a060448501908152865160a48601528651899592861694632eb2c2d69490938a938a938a93926064810191608482019160c401906020808901910280838360005b8381101561086757818101518382015260200161084f565b50505050905001848103835285818151815260200191508051906020019060200280838360005b838110156108a657818101518382015260200161088e565b50505050905001848103825260008152602001975050505050505050600060405180830381600087803b1580156108dc57600080fd5b505af11580156108f0573d6000803e3d6000fd5b505050507f112813dfc477277f8acbc8d4e3d0951fb20ce1031b520c9f77d9a053b05554383085858560405180856001600160a01b03168152602001846001600160a01b031681526020018060200180602001838103835285818151815260200191508051906020019060200280838360005b8381101561097b578181015183820152602001610963565b50505050919091018481038352855181528551602091820192508187019102808383600083156105c65781810151838201526020016105ae565b336109be610b4b565b6001600160a01b031614610a05576040805162461bcd60e51b81526020600482015260096024820152682727aa2fa7aba722a960b91b604482015290519081900360640190fd5b6001600160a01b038416610a4b576040805162461bcd60e51b81526020600482015260086024820152672727afaa27a5a2a760c11b604482015290519081900360640190fd5b60408051637921219560e11b81523060048201526001600160a01b038581166024830152604482018590526064820184905260a06084830152600060a48301819052925187939184169263f242432a9260c480830193919282900301818387803b158015610ab857600080fd5b505af1158015610acc573d6000803e3d6000fd5b5050604080513081526001600160a01b03881660208201528082018790526060810186905290517fcd0e1c7eb178f5a17694d1de970b6dbf996339412e43ee25713ca4932d25c3919350908190036080019150a15050505050565b7f9f2df0fed2c77648de5860a4cc508cd0818c85b8b8a1ab4ceeef8d981c8956a681565b6000610b55610b67565b600401546001600160a01b0316919050565b7fc8fcad8db84d3cc18b4c41d551ea0ee66dd599cde068d998e57d5e09332c131c9056fea2646970667358221220c7a85e23979525cf285b3678ff46f8950a1729e32b260aa8a9f90c9c097b3a5b64736f6c63430007060033",
  "devdoc": {
    "kind": "dev",
    "methods": {
      "batchTransferFromERC1155(address,address,uint256[],uint256[])": {
        "details": "See {IERC1155-safeBatchTransferFrom}."
      }
    },
    "version": 1
  },
  "userdoc": {
    "kind": "user",
    "methods": {},
    "version": 1
  },
  "storageLayout": {
    "storage": [],
    "types": null
  }
}