{
  "address": "0x61969F90e0C8aE1B2f32282CFbcCFCeF7F89aB2f",
  "abi": [
    {
      "anonymous": false,
      "inputs": [
        {
          "indexed": false,
          "internalType": "uint256",
          "name": "fee",
          "type": "uint256"
        }
      ],
      "name": "ERC20ProxyFeeCollected",
      "type": "event"
    },
    {
      "anonymous": false,
      "inputs": [
        {
          "indexed": false,
          "internalType": "address",
          "name": "sender",
          "type": "address"
        },
        {
          "indexed": false,
          "internalType": "address",
          "name": "recipient",
          "type": "address"
        },
        {
          "indexed": false,
          "internalType": "uint256",
          "name": "amount",
          "type": "uint256"
        }
      ],
      "name": "ERC20ProxyTransferFrom",
      "type": "event"
    },
    {
      "anonymous": false,
      "inputs": [
        {
          "indexed": false,
          "internalType": "address",
          "name": "old",
          "type": "address"
        },
        {
          "indexed": false,
          "internalType": "address",
          "name": "current",
          "type": "address"
        }
      ],
      "name": "ERC20ProxyUpdated",
      "type": "event"
    },
    {
      "inputs": [
        {
          "internalType": "address",
          "name": "_account",
          "type": "address"
        }
      ],
      "name": "balanceOf",
      "outputs": [
        {
          "internalType": "uint256",
          "name": "",
          "type": "uint256"
        }
      ],
      "stateMutability": "view",
      "type": "function"
    },
    {
      "inputs": [],
      "name": "getERC20",
      "outputs": [
        {
          "internalType": "address",
          "name": "",
          "type": "address"
        }
      ],
      "stateMutability": "view",
      "type": "function"
    },
    {
      "inputs": [],
      "name": "name",
      "outputs": [
        {
          "internalType": "string",
          "name": "",
          "type": "string"
        }
      ],
      "stateMutability": "view",
      "type": "function"
    },
    {
      "inputs": [
        {
          "internalType": "address",
          "name": "_erc20",
          "type": "address"
        }
      ],
      "name": "setERC20",
      "outputs": [],
      "stateMutability": "nonpayable",
      "type": "function"
    },
    {
      "inputs": [],
      "name": "symbol",
      "outputs": [
        {
          "internalType": "string",
          "name": "",
          "type": "string"
        }
      ],
      "stateMutability": "view",
      "type": "function"
    },
    {
      "inputs": [],
      "name": "totalSupply",
      "outputs": [
        {
          "internalType": "uint256",
          "name": "",
          "type": "uint256"
        }
      ],
      "stateMutability": "view",
      "type": "function"
    },
    {
      "inputs": [
        {
          "internalType": "address",
          "name": "_sender",
          "type": "address"
        },
        {
          "internalType": "address",
          "name": "_recipient",
          "type": "address"
        },
        {
          "internalType": "uint256",
          "name": "_amount",
          "type": "uint256"
        }
      ],
      "name": "transferFrom",
      "outputs": [],
      "stateMutability": "nonpayable",
      "type": "function"
    },
    {
      "inputs": [
        {
          "internalType": "address[]",
          "name": "_senders",
          "type": "address[]"
        },
        {
          "internalType": "address[]",
          "name": "_recipients",
          "type": "address[]"
        },
        {
          "internalType": "uint256[]",
          "name": "_amounts",
          "type": "uint256[]"
        }
      ],
      "name": "transferFromMany",
      "outputs": [],
      "stateMutability": "nonpayable",
      "type": "function"
    }
  ],
  "transactionHash": "0x1d02d64d87341127c0115869ae17400610bc25c652933023ac98f5ae4d7e7312",
  "args": [],
  "numDeployments": 2,
  "solcInputHash": "f1f855b9687fca24f90a851ff0512e11",
  "bytecode": "0x608060405234801561001057600080fd5b50610e11806100206000396000f3fe608060405234801561001057600080fd5b50600436106100885760003560e01c806370a082311161005b57806370a0823114610180578063831867f4146101a657806395d89b411461034b578063c29a6fda1461035357610088565b806306fdde031461008d57806318160ddd1461010a57806323b872dd146101245780634ece90a81461015c575b600080fd5b610095610379565b6040805160208082528351818301528351919283929083019185019080838360005b838110156100cf5781810151838201526020016100b7565b50505050905090810190601f1680156100fc5780820380516001836020036101000a031916815260200191505b509250505060405180910390f35b6101126104c2565b60408051918252519081900360200190f35b61015a6004803603606081101561013a57600080fd5b506001600160a01b0381358116916020810135909116906040013561054c565b005b6101646105ef565b604080516001600160a01b039092168252519081900360200190f35b6101126004803603602081101561019657600080fd5b50356001600160a01b031661060b565b61015a600480360360608110156101bc57600080fd5b810190602081018135600160201b8111156101d657600080fd5b8201836020820111156101e857600080fd5b803590602001918460208302840111600160201b8311171561020957600080fd5b9190808060200260200160405190810160405280939291908181526020018383602002808284376000920191909152509295949360208101935035915050600160201b81111561025857600080fd5b82018360208201111561026a57600080fd5b803590602001918460208302840111600160201b8311171561028b57600080fd5b9190808060200260200160405190810160405280939291908181526020018383602002808284376000920191909152509295949360208101935035915050600160201b8111156102da57600080fd5b8201836020820111156102ec57600080fd5b803590602001918460208302840111600160201b8311171561030d57600080fd5b919080806020026020016040519081016040528093929190818152602001838360200280828437600092019190915250929550610695945050505050565b610095610743565b61015a6004803603602081101561036957600080fd5b50356001600160a01b031661079c565b6060610383610991565b60020160009054906101000a90046001600160a01b03166001600160a01b03166306fdde036040518163ffffffff1660e01b815260040160006040518083038186803b1580156103d257600080fd5b505afa1580156103e6573d6000803e3d6000fd5b505050506040513d6000823e601f3d908101601f19168201604052602081101561040f57600080fd5b8101908080516040519392919084600160201b82111561042e57600080fd5b90830190602082018581111561044357600080fd5b8251600160201b81118282018810171561045c57600080fd5b82525081516020918201929091019080838360005b83811015610489578181015183820152602001610471565b50505050905090810190601f1680156104b65780820380516001836020036101000a031916815260200191505b50604052505050905090565b60006104cc610991565b60020160009054906101000a90046001600160a01b03166001600160a01b03166318160ddd6040518163ffffffff1660e01b815260040160206040518083038186803b15801561051b57600080fd5b505afa15801561052f573d6000803e3d6000fd5b505050506040513d602081101561054557600080fd5b5051905090565b336105556109b5565b6001600160a01b03161461059c576040805162461bcd60e51b81526020600482015260096024820152682727aa2fa7aba722a960b91b604482015290519081900360640190fd5b600081116105df576040805162461bcd60e51b815260206004820152600b60248201526a16915493d7d05353d5539560aa1b604482015290519081900360640190fd5b6105ea8383836109d1565b505050565b60006105f9610991565b600201546001600160a01b0316905090565b6000610615610991565b60020154604080516370a0823160e01b81526001600160a01b038581166004830152915191909216916370a08231916024808301926020929190829003018186803b15801561066357600080fd5b505afa158015610677573d6000803e3d6000fd5b505050506040513d602081101561068d57600080fd5b505192915050565b3361069e6109b5565b6001600160a01b0316146106e5576040805162461bcd60e51b81526020600482015260096024820152682727aa2fa7aba722a960b91b604482015290519081900360640190fd5b60005b825181101561073d5761073584828151811061070057fe5b602002602001015184838151811061071457fe5b602002602001015184848151811061072857fe5b60200260200101516109d1565b6001016106e8565b50505050565b606061074d610991565b60020160009054906101000a90046001600160a01b03166001600160a01b03166395d89b416040518163ffffffff1660e01b815260040160006040518083038186803b1580156103d257600080fd5b336107a56109b5565b6001600160a01b0316146107ec576040805162461bcd60e51b81526020600482015260096024820152682727aa2fa7aba722a960b91b604482015290519081900360640190fd5b60006107f6610991565b60028101549091506001600160a01b03161580610822575060028101546001600160a01b038381169116145b610862576040805162461bcd60e51b815260206004820152600c60248201526b105111149154d4d7d253925560a21b604482015290519081900360640190fd5b6001600160a01b0382166108ac576040805162461bcd60e51b815260206004820152600c60248201526b414444524553535f5a45524f60a01b604482015290519081900360640190fd5b6002810180546001600160a01b0319166001600160a01b0384811691909117918290556040805163095ea7b360e01b815230600482015260001960248201819052915191939092169163095ea7b39160448083019260209291908290030181600087803b15801561091c57600080fd5b505af1158015610930573d6000803e3d6000fd5b505050506040513d602081101561094657600080fd5b505060408051600081526001600160a01b038516602082015281517fac3b659f0265158e007604c432c78c623973a9f7a73040dc921aaa9bbf55675a929181900390910190a1505050565b7fa716b7cce20ffbe12e5c0af3eb2f57d81251cd975b53428558ae4ad51b4f942590565b60006109bf610a43565b600401546001600160a01b0316919050565b6109f48383836109df610991565b600201546001600160a01b0316929190610a67565b604080516001600160a01b0380861682528416602082015280820183905290517fae9b3db93cfb6e9b954a70fa8fb2810334348829e258995d416cfb74bf922ca19181900360600190a1505050565b7fc8fcad8db84d3cc18b4c41d551ea0ee66dd599cde068d998e57d5e09332c131c90565b604080516001600160a01b0380861660248301528416604482015260648082018490528251808303909101815260849091019091526020810180516001600160e01b03166323b872dd60e01b17905261073d9085906000610b11826040518060400160405280602081526020017f5361666545524332303a206c6f772d6c6576656c2063616c6c206661696c6564815250856001600160a01b0316610b6d9092919063ffffffff16565b8051909150156105ea57808060200190516020811015610b3057600080fd5b50516105ea5760405162461bcd60e51b815260040180806020018281038252602a815260200180610db2602a913960400191505060405180910390fd5b6060610b7c8484600085610b86565b90505b9392505050565b606082471015610bc75760405162461bcd60e51b8152600401808060200182810382526026815260200180610d8c6026913960400191505060405180910390fd5b610bd085610ce1565b610c21576040805162461bcd60e51b815260206004820152601d60248201527f416464726573733a2063616c6c20746f206e6f6e2d636f6e7472616374000000604482015290519081900360640190fd5b600080866001600160a01b031685876040518082805190602001908083835b60208310610c5f5780518252601f199092019160209182019101610c40565b6001836020036101000a03801982511681845116808217855250505050505090500191505060006040518083038185875af1925050503d8060008114610cc1576040519150601f19603f3d011682016040523d82523d6000602084013e610cc6565b606091505b5091509150610cd6828286610ce7565b979650505050505050565b3b151590565b60608315610cf6575081610b7f565b825115610d065782518084602001fd5b8160405162461bcd60e51b81526004018080602001828103825283818151815260200191508051906020019080838360005b83811015610d50578181015183820152602001610d38565b50505050905090810190601f168015610d7d5780820380516001836020036101000a031916815260200191505b509250505060405180910390fdfe416464726573733a20696e73756666696369656e742062616c616e636520666f722063616c6c5361666545524332303a204552433230206f7065726174696f6e20646964206e6f742073756363656564a26469706673582212205443be9f6902febfb05d7eabf6e524ef02437a498929eb11d2a6272fee25070664736f6c63430007060033",
  "devdoc": {
    "kind": "dev",
    "methods": {},
    "version": 1
  },
  "userdoc": {
    "kind": "user",
    "methods": {},
    "version": 1
  },
  "storageLayout": {
    "storage": [],
    "types": null
  }
}