{
  "address": "0x2D7B6b31f555fD66bF8f09B4A0FEA6b80B12E38C",
  "abi": [
    {
      "anonymous": false,
      "inputs": [
        {
          "indexed": false,
          "internalType": "address",
          "name": "old",
          "type": "address"
        },
        {
          "indexed": false,
          "internalType": "address",
          "name": "current",
          "type": "address"
        }
      ],
      "name": "RegistryProxyUpdated",
      "type": "event"
    },
    {
      "inputs": [],
      "name": "getRegistry",
      "outputs": [
        {
          "internalType": "address",
          "name": "",
          "type": "address"
        }
      ],
      "stateMutability": "view",
      "type": "function"
    },
    {
      "inputs": [
        {
          "internalType": "address",
          "name": "_registry",
          "type": "address"
        }
      ],
      "name": "setRegistry",
      "outputs": [],
      "stateMutability": "nonpayable",
      "type": "function"
    }
  ],
  "transactionHash": "0xd07a0053068bb586afbc59de43ad522836e57f4de0dc74a2b015ba88bcbdb7b2",
  "args": [],
  "numDeployments": 1,
  "solcInputHash": "bedbddaa7a51d62abf37dc894b9fb6be",
  "bytecode": "0x608060405234801561001057600080fd5b506101ec806100206000396000f3fe608060405234801561001057600080fd5b50600436106100365760003560e01c80635ab1bd531461003b578063a91ee0dc1461005f575b600080fd5b610043610087565b604080516001600160a01b039092168252519081900360200190f35b6100856004803603602081101561007557600080fd5b50356001600160a01b03166100a0565b005b6000610091610152565b546001600160a01b0316905090565b336100a9610176565b6001600160a01b0316146100f0576040805162461bcd60e51b81526020600482015260096024820152682727aa2fa7aba722a960b91b604482015290519081900360640190fd5b806100f9610152565b80546001600160a01b0319166001600160a01b039283161790556040805160008152918316602083015280517f23fbc675c1a989476b5bee64062a9e9ff14e44ebcdf77d34f5f6aa3381a341f29281900390910190a150565b7fe2b137aa028a281d47518018de2bad17cb018b5577be30a222ca2bbc4078dffd90565b6000610180610192565b600401546001600160a01b0316919050565b7fc8fcad8db84d3cc18b4c41d551ea0ee66dd599cde068d998e57d5e09332c131c9056fea2646970667358221220d710cade697ef6746c66e958ad15f97b0a10e02d1281d888b56916f9e28ae96664736f6c63430007060033",
  "devdoc": {
    "kind": "dev",
    "methods": {
      "getRegistry()": {
        "returns": {
          "_0": "address of the registry contract of the asset pool."
        }
      },
      "setRegistry(address)": {
        "details": "Registry contains general pool settings and will be governable at some point.",
        "params": {
          "_registry": "Address of the registry contract."
        }
      }
    },
    "version": 1
  },
  "userdoc": {
    "kind": "user",
    "methods": {
      "setRegistry(address)": {
        "notice": "Sets registry address for the asset pool."
      }
    },
    "version": 1
  },
  "storageLayout": {
    "storage": [],
    "types": null
  }
}