{
  "address": "0x19F3f6AfF29a89a654663C258E7c329c5282c29F",
  "abi": [
    {
      "anonymous": false,
      "inputs": [
        {
          "indexed": true,
          "internalType": "bytes32",
          "name": "role",
          "type": "bytes32"
        },
        {
          "indexed": true,
          "internalType": "bytes32",
          "name": "previousAdminRole",
          "type": "bytes32"
        },
        {
          "indexed": true,
          "internalType": "bytes32",
          "name": "newAdminRole",
          "type": "bytes32"
        }
      ],
      "name": "RoleAdminChanged",
      "type": "event"
    },
    {
      "anonymous": false,
      "inputs": [
        {
          "indexed": true,
          "internalType": "bytes32",
          "name": "role",
          "type": "bytes32"
        },
        {
          "indexed": true,
          "internalType": "address",
          "name": "account",
          "type": "address"
        },
        {
          "indexed": true,
          "internalType": "address",
          "name": "sender",
          "type": "address"
        }
      ],
      "name": "RoleGranted",
      "type": "event"
    },
    {
      "anonymous": false,
      "inputs": [
        {
          "indexed": true,
          "internalType": "bytes32",
          "name": "role",
          "type": "bytes32"
        },
        {
          "indexed": true,
          "internalType": "address",
          "name": "account",
          "type": "address"
        },
        {
          "indexed": true,
          "internalType": "address",
          "name": "sender",
          "type": "address"
        }
      ],
      "name": "RoleRevoked",
      "type": "event"
    },
    {
      "inputs": [
        {
          "internalType": "bytes32",
          "name": "role",
          "type": "bytes32"
        }
      ],
      "name": "getRoleAdmin",
      "outputs": [
        {
          "internalType": "bytes32",
          "name": "",
          "type": "bytes32"
        }
      ],
      "stateMutability": "view",
      "type": "function"
    },
    {
      "inputs": [
        {
          "internalType": "bytes32",
          "name": "role",
          "type": "bytes32"
        },
        {
          "internalType": "uint256",
          "name": "index",
          "type": "uint256"
        }
      ],
      "name": "getRoleMember",
      "outputs": [
        {
          "internalType": "address",
          "name": "",
          "type": "address"
        }
      ],
      "stateMutability": "view",
      "type": "function"
    },
    {
      "inputs": [
        {
          "internalType": "bytes32",
          "name": "role",
          "type": "bytes32"
        }
      ],
      "name": "getRoleMemberCount",
      "outputs": [
        {
          "internalType": "uint256",
          "name": "",
          "type": "uint256"
        }
      ],
      "stateMutability": "view",
      "type": "function"
    },
    {
      "inputs": [
        {
          "internalType": "bytes32",
          "name": "role",
          "type": "bytes32"
        },
        {
          "internalType": "address",
          "name": "account",
          "type": "address"
        }
      ],
      "name": "grantRole",
      "outputs": [],
      "stateMutability": "nonpayable",
      "type": "function"
    },
    {
      "inputs": [
        {
          "internalType": "bytes32",
          "name": "role",
          "type": "bytes32"
        },
        {
          "internalType": "address",
          "name": "account",
          "type": "address"
        }
      ],
      "name": "hasRole",
      "outputs": [
        {
          "internalType": "bool",
          "name": "",
          "type": "bool"
        }
      ],
      "stateMutability": "view",
      "type": "function"
    },
    {
      "inputs": [
        {
          "internalType": "bytes32",
          "name": "role",
          "type": "bytes32"
        },
        {
          "internalType": "address",
          "name": "account",
          "type": "address"
        }
      ],
      "name": "renounceRole",
      "outputs": [],
      "stateMutability": "nonpayable",
      "type": "function"
    },
    {
      "inputs": [
        {
          "internalType": "bytes32",
          "name": "role",
          "type": "bytes32"
        },
        {
          "internalType": "address",
          "name": "account",
          "type": "address"
        }
      ],
      "name": "revokeRole",
      "outputs": [],
      "stateMutability": "nonpayable",
      "type": "function"
    }
  ],
  "transactionHash": "0x7be4dd5111a8e9ba8cd75a3a9673a222999265c2f159789deeea7d983faa3bd7",
  "args": [],
  "numDeployments": 1,
  "solcInputHash": "954101db8fd21c30da9bb6a572893bde",
  "bytecode": "0x608060405234801561001057600080fd5b506107bf806100206000396000f3fe608060405234801561001057600080fd5b506004361061007d5760003560e01c80639010d07c1161005b5780639010d07c1461010b57806391d148541461014a578063ca15c8731461018a578063d547741f146101a75761007d565b8063248a9ca3146100825780632f2ff15d146100b157806336568abe146100df575b600080fd5b61009f6004803603602081101561009857600080fd5b50356101d3565b60408051918252519081900360200190f35b6100dd600480360360408110156100c757600080fd5b50803590602001356001600160a01b03166101f1565b005b6100dd600480360360408110156100f557600080fd5b50803590602001356001600160a01b0316610265565b61012e6004803603604081101561012157600080fd5b50803590602001356102c6565b604080516001600160a01b039092168252519081900360200190f35b6101766004803603604081101561016057600080fd5b50803590602001356001600160a01b03166102f2565b604080519115158252519081900360200190f35b61009f600480360360208110156101a057600080fd5b50356102fe565b6100dd600480360360408110156101bd57600080fd5b50803590602001356001600160a01b031661031f565b60006101dd610365565b600092835260205250604090206002015490565b61021c6101fc610365565b60008481526020919091526040902060020154610217610389565b6103d6565b6102575760405162461bcd60e51b815260040180806020018281038252602f8152602001806106fc602f913960400191505060405180910390fd5b6102618282610404565b5050565b61026d610389565b6001600160a01b0316816001600160a01b0316146102bc5760405162461bcd60e51b815260040180806020018281038252602f81526020018061075b602f913960400191505060405180910390fd5b610261828261047c565b60006102e9826102d4610365565b600086815260209190915260409020906104f3565b90505b92915050565b60006102e983836103d6565b60006102ec61030b610365565b6000848152602091909152604090206104ff565b61032a6101fc610365565b6102bc5760405162461bcd60e51b815260040180806020018281038252603081526020018061072b6030913960400191505060405180910390fd5b7f6282190449f76f72a9f692e4d8619a03764b7253394788948e36a7a57ba4a00e90565b600060606000368080601f0160208091040260200160405190810160405280939291908181526020018383808284376000920191909152505050503601516001600160a01b031692915050565b6000806103e1610365565b60008581526020829052604090209091506103fc908461050a565b949350505050565b600061040e610365565b6000848152602082905260409020909150610429908361051f565b1561047757610436610389565b6001600160a01b0316826001600160a01b0316847f2f8788117e7eff1d82e926ec794901d17c78024a50270940304540a733656f0d60405160405180910390a45b505050565b6000610486610365565b60008481526020829052604090209091506104a19083610534565b15610477576104ae610389565b6001600160a01b0316826001600160a01b0316847ff6391f5c32d9c69d2a47ea670b442974b53935d1edc7fd64eb21e047a839171b60405160405180910390a4505050565b60006102e98383610549565b60006102ec826105ad565b60006102e9836001600160a01b0384166105b1565b60006102e9836001600160a01b0384166105c9565b60006102e9836001600160a01b038416610613565b8154600090821061058b5760405162461bcd60e51b81526004018080602001828103825260228152602001806106da6022913960400191505060405180910390fd5b82600001828154811061059a57fe5b9060005260206000200154905092915050565b5490565b60009081526001919091016020526040902054151590565b60006105d583836105b1565b61060b575081546001818101845560008481526020808220909301849055845484825282860190935260409020919091556102ec565b5060006102ec565b600081815260018301602052604081205480156106cf578354600019808301919081019060009087908390811061064657fe5b906000526020600020015490508087600001848154811061066357fe5b60009182526020808320909101929092558281526001898101909252604090209084019055865487908061069357fe5b600190038181906000526020600020016000905590558660010160008781526020019081526020016000206000905560019450505050506102ec565b60009150506102ec56fe456e756d657261626c655365743a20696e646578206f7574206f6620626f756e6473416363657373436f6e74726f6c3a2073656e646572206d75737420626520616e2061646d696e20746f206772616e74416363657373436f6e74726f6c3a2073656e646572206d75737420626520616e2061646d696e20746f207265766f6b65416363657373436f6e74726f6c3a2063616e206f6e6c792072656e6f756e636520726f6c657320666f722073656c66a2646970667358221220458f66cf22294882c2bb87cb2edc1de84b334c741b55ec926577e6c0f88d00fb64736f6c63430007040033",
  "devdoc": {
    "kind": "dev",
    "methods": {
      "getRoleAdmin(bytes32)": {
        "params": {
          "role": "Bytes32 array representing the role"
        },
        "returns": {
          "_0": "Bytes32 array of the administrative role for the given role."
        }
      },
      "getRoleMember(bytes32,uint256)": {
        "params": {
          "index": "Index of the pool member.",
          "role": "Role of the pool member."
        },
        "returns": {
          "_0": "member address."
        }
      },
      "getRoleMemberCount(bytes32)": {
        "params": {
          "role": "Role to get the count for."
        },
        "returns": {
          "_0": "the amount of members for the role."
        }
      },
      "grantRole(bytes32,address)": {
        "params": {
          "account": "Address of the account that is given the role.",
          "role": "Bytes32 array representing the role."
        }
      },
      "hasRole(bytes32,address)": {
        "params": {
          "account": "Account to check the role for.",
          "role": "Role to check account for."
        },
        "returns": {
          "_0": "if the account bears the role."
        }
      },
      "renounceRole(bytes32,address)": {
        "params": {
          "account": "Address of the account",
          "role": "Bytes32 array representing the role."
        }
      },
      "revokeRole(bytes32,address)": {
        "params": {
          "account": "Address of the account",
          "role": "Bytes32 array representing the role."
        }
      }
    },
    "version": 1
  },
  "userdoc": {
    "kind": "user",
    "methods": {
      "getRoleAdmin(bytes32)": {
        "notice": "Determines what role is required to manage the role."
      },
      "getRoleMember(bytes32,uint256)": {
        "notice": "Gets the member address for a given role."
      },
      "getRoleMemberCount(bytes32)": {
        "notice": "Gets the amount of members for a role."
      },
      "grantRole(bytes32,address)": {
        "notice": "Grants a role to a given account address."
      },
      "hasRole(bytes32,address)": {
        "notice": "Checks if an address bears a given role."
      },
      "renounceRole(bytes32,address)": {
        "notice": "Renounces the role for a given account address if equal to sender address."
      },
      "revokeRole(bytes32,address)": {
        "notice": "Revokes the role for a given account address if sender is admin of the role."
      }
    },
    "version": 1
  },
  "storageLayout": {
    "storage": [],
    "types": null
  }
}