{
  "address": "0xcA66c1dA0619cf9C3aD1de57e2F7b0a7e44dBb88",
  "abi": [
    {
      "anonymous": false,
      "inputs": [
        {
          "indexed": true,
          "internalType": "bytes32",
          "name": "role",
          "type": "bytes32"
        },
        {
          "indexed": true,
          "internalType": "bytes32",
          "name": "previousAdminRole",
          "type": "bytes32"
        },
        {
          "indexed": true,
          "internalType": "bytes32",
          "name": "newAdminRole",
          "type": "bytes32"
        }
      ],
      "name": "RoleAdminChanged",
      "type": "event"
    },
    {
      "anonymous": false,
      "inputs": [
        {
          "indexed": true,
          "internalType": "bytes32",
          "name": "role",
          "type": "bytes32"
        },
        {
          "indexed": true,
          "internalType": "address",
          "name": "account",
          "type": "address"
        },
        {
          "indexed": true,
          "internalType": "address",
          "name": "sender",
          "type": "address"
        }
      ],
      "name": "RoleGranted",
      "type": "event"
    },
    {
      "anonymous": false,
      "inputs": [
        {
          "indexed": true,
          "internalType": "bytes32",
          "name": "role",
          "type": "bytes32"
        },
        {
          "indexed": true,
          "internalType": "address",
          "name": "account",
          "type": "address"
        },
        {
          "indexed": true,
          "internalType": "address",
          "name": "sender",
          "type": "address"
        }
      ],
      "name": "RoleRevoked",
      "type": "event"
    },
    {
      "anonymous": false,
      "inputs": [
        {
          "indexed": false,
          "internalType": "uint256",
          "name": "fee",
          "type": "uint256"
        }
      ],
      "name": "WithdrawFeeCollected",
      "type": "event"
    },
    {
      "anonymous": false,
      "inputs": [
        {
          "indexed": false,
          "internalType": "uint256",
          "name": "id",
          "type": "uint256"
        },
        {
          "indexed": false,
          "internalType": "bool",
          "name": "approved",
          "type": "bool"
        }
      ],
      "name": "WithdrawPollFinalized",
      "type": "event"
    },
    {
      "anonymous": false,
      "inputs": [
        {
          "indexed": false,
          "internalType": "uint256",
          "name": "id",
          "type": "uint256"
        },
        {
          "indexed": true,
          "internalType": "address",
          "name": "member",
          "type": "address"
        }
      ],
      "name": "WithdrawPollRevokedVote",
      "type": "event"
    },
    {
      "anonymous": false,
      "inputs": [
        {
          "indexed": false,
          "internalType": "uint256",
          "name": "id",
          "type": "uint256"
        },
        {
          "indexed": true,
          "internalType": "address",
          "name": "member",
          "type": "address"
        },
        {
          "indexed": false,
          "internalType": "bool",
          "name": "vote",
          "type": "bool"
        }
      ],
      "name": "WithdrawPollVoted",
      "type": "event"
    },
    {
      "anonymous": false,
      "inputs": [
        {
          "indexed": false,
          "internalType": "uint256",
          "name": "id",
          "type": "uint256"
        },
        {
          "indexed": true,
          "internalType": "address",
          "name": "member",
          "type": "address"
        },
        {
          "indexed": false,
          "internalType": "uint256",
          "name": "reward",
          "type": "uint256"
        }
      ],
      "name": "Withdrawn",
      "type": "event"
    },
    {
      "inputs": [],
      "name": "_withdrawPollApprovalState",
      "outputs": [
        {
          "internalType": "bool",
          "name": "",
          "type": "bool"
        }
      ],
      "stateMutability": "view",
      "type": "function"
    },
    {
      "inputs": [],
      "name": "_withdrawPollFinalize",
      "outputs": [],
      "stateMutability": "nonpayable",
      "type": "function"
    },
    {
      "inputs": [],
      "name": "_withdrawPollRevokeVote",
      "outputs": [],
      "stateMutability": "nonpayable",
      "type": "function"
    },
    {
      "inputs": [
        {
          "internalType": "bool",
          "name": "_agree",
          "type": "bool"
        }
      ],
      "name": "_withdrawPollVote",
      "outputs": [],
      "stateMutability": "nonpayable",
      "type": "function"
    },
    {
      "inputs": [
        {
          "internalType": "uint256",
          "name": "_id",
          "type": "uint256"
        }
      ],
      "name": "getAmount",
      "outputs": [
        {
          "internalType": "uint256",
          "name": "",
          "type": "uint256"
        }
      ],
      "stateMutability": "view",
      "type": "function"
    },
    {
      "inputs": [
        {
          "internalType": "uint256",
          "name": "_id",
          "type": "uint256"
        }
      ],
      "name": "getBeneficiary",
      "outputs": [
        {
          "internalType": "uint256",
          "name": "",
          "type": "uint256"
        }
      ],
      "stateMutability": "view",
      "type": "function"
    }
  ],
  "transactionHash": "0xe016b05b3490f60c2a110a825c04d52f3632beec556db14c86852a8e502b9cb2",
  "args": [],
  "numDeployments": 1,
  "solcInputHash": "954101db8fd21c30da9bb6a572893bde",
  "bytecode": "0x608060405234801561001057600080fd5b506112c9806100206000396000f3fe608060405234801561001057600080fd5b50600436106100625760003560e01c8063302df083146100675780637bfefd65146100905780637dad9c39146100a55780639980ec86146100af578063b414838f146100c2578063d18faaa8146100d5575b600080fd5b61007a61007536600461114a565b6100dd565b60405161008791906111d4565b60405180910390f35b6100986100ef565b604051610087919061117a565b6100ad61013e565b005b61007a6100bd36600461114a565b610192565b6100ad6100d036600461112a565b6101a7565b6100ad61024f565b60006100e8826102f3565b5492915050565b6000806100fa610306565b9050600061010b82600001546102f3565b80549091506101355760405162461bcd60e51b815260040161012c90611185565b60405180910390fd5b60019250505090565b6000610148610306565b9050600061015982600001546102f3565b805490915061017a5760405162461bcd60e51b815260040161012c90611185565b33301461018657600080fd5b61018e61031d565b5050565b600061019d826102f3565b6001015492915050565b60006101b1610306565b905060006101c282600001546102f3565b80549091506101e35760405162461bcd60e51b815260040161012c90611185565b3330146101ef57600080fd5b6101f8836103a4565b610200610588565b6001600160a01b03167fa9fd0834e2afbba73e314f3cf92c04a694d27ab99e31eb4ce8e51d57f7890d59610232610306565b54604051610242919087906111dd565b60405180910390a2505050565b6000610259610306565b9050600061026a82600001546102f3565b805490915061028b5760405162461bcd60e51b815260040161012c90611185565b33301461029757600080fd5b61029f6105d5565b6102a7610588565b6001600160a01b03167fee64e7a6623d1cff201c83363d0162fe855c5f1b7fc38f48bdb14968a1c8fb576102d9610306565b546040516102e791906111d4565b60405180910390a25050565b6000806102ff8361073d565b9392505050565b6000610318610313610789565b6107d1565b905090565b6000610327610306565b90508060020154421015610370576040805162461bcd60e51b815260206004820152600b60248201526a57524f4e475f535441544560a81b604482015290519081900360640190fd5b805461037b906107d4565b600080825560018201819055600282018190556003820181905560048201819055600590910155565b60006103ae610306565b9050806001015442101580156103c8575080600201544211155b61040c576040805162461bcd60e51b815260206004820152601060248201526f49535f4e4f5f56414c49445f54494d4560801b604482015290519081900360640190fd5b61041c610417610588565b610acd565b6000610426610306565b9050806006016000610436610588565b6001600160a01b031681526020810191909152604001600020541561048e576040805162461bcd60e51b8152602060048201526009602482015268121054d7d593d5115160ba1b604482015290519081900360640190fd5b600183156104af5760038201546104a59082610af5565b60038301556104c4565b60048201546104be9082610af5565b60048301555b428260060160006104d3610588565b6001600160a01b03166001600160a01b031681526020019081526020016000206000018190555080826006016000610509610588565b6001600160a01b03166001600160a01b03168152602001908152602001600020600101819055508382600601600061053f610588565b6001600160a01b031681526020810191909152604001600020600201805460ff1916911515919091179055600582015461057a906001610af5565b826005018190555050505050565b600060606000368080601f0160208091040260200160405190810160405280939291908181526020018383808284376000920191909152505050503601516001600160a01b031692915050565b60006105df610306565b9050806001015442101580156105f9575080600201544211155b61063d576040805162461bcd60e51b815260206004820152601060248201526f49535f4e4f5f56414c49445f54494d4560801b604482015290519081900360640190fd5b6000610647610306565b90506000610653610588565b6001600160a01b03811660009081526006840160205260409020549091506106b2576040805162461bcd60e51b815260206004820152600d60248201526c121054d7d393d517d593d51151609a1b604482015290519081900360640190fd5b6001600160a01b0381166000908152600683016020526040812060018082018054600284018054948690559490915560ff198316909355600585015460ff909216916106fd91610b58565b600585015580156107215760038401546107179083610b58565b6003850155610736565b60048401546107309083610b58565b60048501555b5050505050565b6000816040516020018080602001838152602001828103825260278152602001806112436027913960400192505050604051602081830303815290604052805190602001209050919050565b600060606000368080601f0160208091040260200160405190810160405280939291908181526020018383808284376000920191909152505050503601601319015192915050565b90565b60006107de6100ef565b905060006107eb836102f3565b90508115610a855760006107fd610b9a565b905060008160000160009054906101000a90046001600160a01b0316905060006108ae670de0b6b3a76400006108a8846001600160a01b031663a001ecdd6040518163ffffffff1660e01b815260040160206040518083038186803b15801561086557600080fd5b505afa158015610879573d6000803e3d6000fd5b505050506040513d601f19601f8201168201806040525081019061089d9190611162565b600188015490610bbe565b90610c17565b905080156109a85761093f826001600160a01b031663c415b95c6040518163ffffffff1660e01b815260040160206040518083038186803b1580156108f257600080fd5b505afa158015610906573d6000803e3d6000fd5b505050506040513d601f19601f8201168201806040525081019061092a9190611103565b60028501546001600160a01b03169083610c59565b600183015415801590610956575080836001015410155b1561097057600183015461096a9082610b58565b60018401555b7f5e4930f7742bd71d2de1552a88134ec1f7408a0bdf834f9e1b1f35e976b169e08160405161099f91906111d4565b60405180910390a15b60006109b2610cb0565b85546000908152600291909101602052604090205460018601546001600160a01b03909116915015610a8057600185015460028501546109ff916001600160a01b03909116908390610c59565b600184015415801590610a1a57508460010154846001015410155b15610a385760018086015490850154610a3291610b58565b60018501555b806001600160a01b03167fcf7d23a3cbe4e8b36ff82fd1b05b1b17373dc7804b4ebbd6e2356716ef202372888760010154604051610a779291906111ed565b60405180910390a25b505050505b7fa207d5145c3030050ff72fa91f5f37445b6aa4850cf1f03c11c24b5f7dd458338383604051610ab69291906111dd565b60405180910390a160008082556001909101555050565b610ad681610cd4565b610af25760405162461bcd60e51b815260040161012c906111b0565b50565b600082820183811015610b4f576040805162461bcd60e51b815260206004820152601b60248201527f536166654d6174683a206164646974696f6e206f766572666c6f770000000000604482015290519081900360640190fd5b90505b92915050565b6000610b4f83836040518060400160405280601e81526020017f536166654d6174683a207375627472616374696f6e206f766572666c6f770000815250610d00565b7fa716b7cce20ffbe12e5c0af3eb2f57d81251cd975b53428558ae4ad51b4f942590565b600082610bcd57506000610b52565b82820282848281610bda57fe5b0414610b4f5760405162461bcd60e51b81526004018080602001828103825260218152602001806112226021913960400191505060405180910390fd5b6000610b4f83836040518060400160405280601a81526020017f536166654d6174683a206469766973696f6e206279207a65726f000000000000815250610d97565b604080516001600160a01b038416602482015260448082018490528251808303909101815260649091019091526020810180516001600160e01b031663a9059cbb60e01b179052610cab908490610dfc565b505050565b7faa97fdeef5de5607974189e6a2429d502dcc32b43d658c3c065d5ca083ee1fab90565b6000610b527f241ecf16d79d0f8dbfb92cbc07fe17840425976cf0667f022fe9877caa831b0883610ead565b60008184841115610d8f5760405162461bcd60e51b81526004018080602001828103825283818151815260200191508051906020019080838360005b83811015610d54578181015183820152602001610d3c565b50505050905090810190601f168015610d815780820380516001836020036101000a031916815260200191505b509250505060405180910390fd5b505050900390565b60008183610de65760405162461bcd60e51b8152602060048201818152835160248401528351909283926044909101919085019080838360008315610d54578181015183820152602001610d3c565b506000838581610df257fe5b0495945050505050565b6060610e51826040518060400160405280602081526020017f5361666545524332303a206c6f772d6c6576656c2063616c6c206661696c6564815250856001600160a01b0316610edb9092919063ffffffff16565b805190915015610cab57808060200190516020811015610e7057600080fd5b5051610cab5760405162461bcd60e51b815260040180806020018281038252602a81526020018061126a602a913960400191505060405180910390fd5b600080610eb8610eea565b6000858152602082905260409020909150610ed39084610f0e565b949350505050565b6060610ed38484600085610f23565b7f6282190449f76f72a9f692e4d8619a03764b7253394788948e36a7a57ba4a00e90565b6000610b4f836001600160a01b03841661107f565b606082471015610f645760405162461bcd60e51b81526004018080602001828103825260268152602001806111fc6026913960400191505060405180910390fd5b610f6d85611097565b610fbe576040805162461bcd60e51b815260206004820152601d60248201527f416464726573733a2063616c6c20746f206e6f6e2d636f6e7472616374000000604482015290519081900360640190fd5b60006060866001600160a01b031685876040518082805190602001908083835b60208310610ffd5780518252601f199092019160209182019101610fde565b6001836020036101000a03801982511681845116808217855250505050505090500191505060006040518083038185875af1925050503d806000811461105f576040519150601f19603f3d011682016040523d82523d6000602084013e611064565b606091505b509150915061107482828661109d565b979650505050505050565b60009081526001919091016020526040902054151590565b3b151590565b606083156110ac5750816102ff565b8251156110bc5782518084602001fd5b60405162461bcd60e51b8152602060048201818152845160248401528451859391928392604401919085019080838360008315610d54578181015183820152602001610d3c565b600060208284031215611114578081fd5b81516001600160a01b0381168114610b4f578182fd5b60006020828403121561113b578081fd5b81358015158114610b4f578182fd5b60006020828403121561115b578081fd5b5035919050565b600060208284031215611173578081fd5b5051919050565b901515815260200190565b6020808252601190820152701393d517d5d2551211149055d7d413d313607a1b604082015260600190565b6020808252600a90820152692727afa6a0a720a3a2a960b11b604082015260600190565b90815260200190565b9182521515602082015260400190565b91825260208201526040019056fe416464726573733a20696e73756666696369656e742062616c616e636520666f722063616c6c536166654d6174683a206d756c7469706c69636174696f6e206f766572666c6f776469616d6f6e642e636f6e74726163742e6173736574706f6f6c2e7769746864726177706f6c6c5361666545524332303a204552433230206f7065726174696f6e20646964206e6f742073756363656564a26469706673582212200c28d9660a8510064a98b560b3de0bf1644c793e1497386eda9f0140b87a564464736f6c63430007040033",
  "devdoc": {
    "kind": "dev",
    "methods": {
      "getAmount(uint256)": {
        "params": {
          "_id": "ID of the withdrawPoll to get the reward size for."
        },
        "returns": {
          "_0": "size of the withdrawal."
        }
      },
      "getBeneficiary(uint256)": {
        "params": {
          "_id": "ID of the withdrawPoll to get the beneficiary for."
        },
        "returns": {
          "_0": "address of the beneficicary of the reward."
        }
      }
    },
    "version": 1
  },
  "userdoc": {
    "kind": "user",
    "methods": {},
    "version": 1
  },
  "storageLayout": {
    "storage": [],
    "types": null
  }
}