{
  "address": "0x439F0128d07f005e0703602f366599ACaaBfEA18",
  "abi": [
    {
      "inputs": [
        {
          "internalType": "string",
          "name": "name_",
          "type": "string"
        },
        {
          "internalType": "string",
          "name": "symbol_",
          "type": "string"
        },
        {
          "internalType": "string",
          "name": "baseURI_",
          "type": "string"
        },
        {
          "internalType": "address",
          "name": "owner_",
          "type": "address"
        }
      ],
      "stateMutability": "nonpayable",
      "type": "constructor"
    },
    {
      "anonymous": false,
      "inputs": [
        {
          "indexed": true,
          "internalType": "address",
          "name": "owner",
          "type": "address"
        },
        {
          "indexed": true,
          "internalType": "address",
          "name": "approved",
          "type": "address"
        },
        {
          "indexed": true,
          "internalType": "uint256",
          "name": "tokenId",
          "type": "uint256"
        }
      ],
      "name": "Approval",
      "type": "event"
    },
    {
      "anonymous": false,
      "inputs": [
        {
          "indexed": true,
          "internalType": "address",
          "name": "owner",
          "type": "address"
        },
        {
          "indexed": true,
          "internalType": "address",
          "name": "operator",
          "type": "address"
        },
        {
          "indexed": false,
          "internalType": "bool",
          "name": "approved",
          "type": "bool"
        }
      ],
      "name": "ApprovalForAll",
      "type": "event"
    },
    {
      "anonymous": false,
      "inputs": [
        {
          "indexed": true,
          "internalType": "address",
          "name": "previousOwner",
          "type": "address"
        },
        {
          "indexed": true,
          "internalType": "address",
          "name": "newOwner",
          "type": "address"
        }
      ],
      "name": "OwnershipTransferred",
      "type": "event"
    },
    {
      "anonymous": false,
      "inputs": [
        {
          "indexed": true,
          "internalType": "bytes32",
          "name": "role",
          "type": "bytes32"
        },
        {
          "indexed": true,
          "internalType": "bytes32",
          "name": "previousAdminRole",
          "type": "bytes32"
        },
        {
          "indexed": true,
          "internalType": "bytes32",
          "name": "newAdminRole",
          "type": "bytes32"
        }
      ],
      "name": "RoleAdminChanged",
      "type": "event"
    },
    {
      "anonymous": false,
      "inputs": [
        {
          "indexed": true,
          "internalType": "bytes32",
          "name": "role",
          "type": "bytes32"
        },
        {
          "indexed": true,
          "internalType": "address",
          "name": "account",
          "type": "address"
        },
        {
          "indexed": true,
          "internalType": "address",
          "name": "sender",
          "type": "address"
        }
      ],
      "name": "RoleGranted",
      "type": "event"
    },
    {
      "anonymous": false,
      "inputs": [
        {
          "indexed": true,
          "internalType": "bytes32",
          "name": "role",
          "type": "bytes32"
        },
        {
          "indexed": true,
          "internalType": "address",
          "name": "account",
          "type": "address"
        },
        {
          "indexed": true,
          "internalType": "address",
          "name": "sender",
          "type": "address"
        }
      ],
      "name": "RoleRevoked",
      "type": "event"
    },
    {
      "anonymous": false,
      "inputs": [
        {
          "indexed": true,
          "internalType": "address",
          "name": "from",
          "type": "address"
        },
        {
          "indexed": true,
          "internalType": "address",
          "name": "to",
          "type": "address"
        },
        {
          "indexed": true,
          "internalType": "uint256",
          "name": "tokenId",
          "type": "uint256"
        }
      ],
      "name": "Transfer",
      "type": "event"
    },
    {
      "inputs": [],
      "name": "DEFAULT_ADMIN_ROLE",
      "outputs": [
        {
          "internalType": "bytes32",
          "name": "",
          "type": "bytes32"
        }
      ],
      "stateMutability": "view",
      "type": "function"
    },
    {
      "inputs": [],
      "name": "MINTER_ROLE",
      "outputs": [
        {
          "internalType": "bytes32",
          "name": "",
          "type": "bytes32"
        }
      ],
      "stateMutability": "view",
      "type": "function"
    },
    {
      "inputs": [
        {
          "internalType": "address",
          "name": "to",
          "type": "address"
        },
        {
          "internalType": "uint256",
          "name": "tokenId",
          "type": "uint256"
        }
      ],
      "name": "approve",
      "outputs": [],
      "stateMutability": "nonpayable",
      "type": "function"
    },
    {
      "inputs": [
        {
          "internalType": "address",
          "name": "owner",
          "type": "address"
        }
      ],
      "name": "balanceOf",
      "outputs": [
        {
          "internalType": "uint256",
          "name": "",
          "type": "uint256"
        }
      ],
      "stateMutability": "view",
      "type": "function"
    },
    {
      "inputs": [],
      "name": "baseURI",
      "outputs": [
        {
          "internalType": "string",
          "name": "",
          "type": "string"
        }
      ],
      "stateMutability": "view",
      "type": "function"
    },
    {
      "inputs": [
        {
          "internalType": "uint256",
          "name": "tokenId",
          "type": "uint256"
        }
      ],
      "name": "getApproved",
      "outputs": [
        {
          "internalType": "address",
          "name": "",
          "type": "address"
        }
      ],
      "stateMutability": "view",
      "type": "function"
    },
    {
      "inputs": [
        {
          "internalType": "bytes32",
          "name": "role",
          "type": "bytes32"
        }
      ],
      "name": "getRoleAdmin",
      "outputs": [
        {
          "internalType": "bytes32",
          "name": "",
          "type": "bytes32"
        }
      ],
      "stateMutability": "view",
      "type": "function"
    },
    {
      "inputs": [
        {
          "internalType": "bytes32",
          "name": "role",
          "type": "bytes32"
        },
        {
          "internalType": "uint256",
          "name": "index",
          "type": "uint256"
        }
      ],
      "name": "getRoleMember",
      "outputs": [
        {
          "internalType": "address",
          "name": "",
          "type": "address"
        }
      ],
      "stateMutability": "view",
      "type": "function"
    },
    {
      "inputs": [
        {
          "internalType": "bytes32",
          "name": "role",
          "type": "bytes32"
        }
      ],
      "name": "getRoleMemberCount",
      "outputs": [
        {
          "internalType": "uint256",
          "name": "",
          "type": "uint256"
        }
      ],
      "stateMutability": "view",
      "type": "function"
    },
    {
      "inputs": [
        {
          "internalType": "bytes32",
          "name": "role",
          "type": "bytes32"
        },
        {
          "internalType": "address",
          "name": "account",
          "type": "address"
        }
      ],
      "name": "grantRole",
      "outputs": [],
      "stateMutability": "nonpayable",
      "type": "function"
    },
    {
      "inputs": [
        {
          "internalType": "bytes32",
          "name": "role",
          "type": "bytes32"
        },
        {
          "internalType": "address",
          "name": "account",
          "type": "address"
        }
      ],
      "name": "hasRole",
      "outputs": [
        {
          "internalType": "bool",
          "name": "",
          "type": "bool"
        }
      ],
      "stateMutability": "view",
      "type": "function"
    },
    {
      "inputs": [
        {
          "internalType": "address",
          "name": "owner",
          "type": "address"
        },
        {
          "internalType": "address",
          "name": "operator",
          "type": "address"
        }
      ],
      "name": "isApprovedForAll",
      "outputs": [
        {
          "internalType": "bool",
          "name": "",
          "type": "bool"
        }
      ],
      "stateMutability": "view",
      "type": "function"
    },
    {
      "inputs": [
        {
          "internalType": "address",
          "name": "_recipient",
          "type": "address"
        },
        {
          "internalType": "string",
          "name": "_tokenURI",
          "type": "string"
        }
      ],
      "name": "mint",
      "outputs": [
        {
          "internalType": "uint256",
          "name": "",
          "type": "uint256"
        }
      ],
      "stateMutability": "nonpayable",
      "type": "function"
    },
    {
      "inputs": [],
      "name": "name",
      "outputs": [
        {
          "internalType": "string",
          "name": "",
          "type": "string"
        }
      ],
      "stateMutability": "view",
      "type": "function"
    },
    {
      "inputs": [],
      "name": "owner",
      "outputs": [
        {
          "internalType": "address",
          "name": "",
          "type": "address"
        }
      ],
      "stateMutability": "view",
      "type": "function"
    },
    {
      "inputs": [
        {
          "internalType": "uint256",
          "name": "tokenId",
          "type": "uint256"
        }
      ],
      "name": "ownerOf",
      "outputs": [
        {
          "internalType": "address",
          "name": "",
          "type": "address"
        }
      ],
      "stateMutability": "view",
      "type": "function"
    },
    {
      "inputs": [],
      "name": "renounceOwnership",
      "outputs": [],
      "stateMutability": "nonpayable",
      "type": "function"
    },
    {
      "inputs": [
        {
          "internalType": "bytes32",
          "name": "role",
          "type": "bytes32"
        },
        {
          "internalType": "address",
          "name": "account",
          "type": "address"
        }
      ],
      "name": "renounceRole",
      "outputs": [],
      "stateMutability": "nonpayable",
      "type": "function"
    },
    {
      "inputs": [
        {
          "internalType": "bytes32",
          "name": "role",
          "type": "bytes32"
        },
        {
          "internalType": "address",
          "name": "account",
          "type": "address"
        }
      ],
      "name": "revokeRole",
      "outputs": [],
      "stateMutability": "nonpayable",
      "type": "function"
    },
    {
      "inputs": [
        {
          "internalType": "address",
          "name": "from",
          "type": "address"
        },
        {
          "internalType": "address",
          "name": "to",
          "type": "address"
        },
        {
          "internalType": "uint256",
          "name": "tokenId",
          "type": "uint256"
        }
      ],
      "name": "safeTransferFrom",
      "outputs": [],
      "stateMutability": "nonpayable",
      "type": "function"
    },
    {
      "inputs": [
        {
          "internalType": "address",
          "name": "from",
          "type": "address"
        },
        {
          "internalType": "address",
          "name": "to",
          "type": "address"
        },
        {
          "internalType": "uint256",
          "name": "tokenId",
          "type": "uint256"
        },
        {
          "internalType": "bytes",
          "name": "_data",
          "type": "bytes"
        }
      ],
      "name": "safeTransferFrom",
      "outputs": [],
      "stateMutability": "nonpayable",
      "type": "function"
    },
    {
      "inputs": [
        {
          "internalType": "address",
          "name": "operator",
          "type": "address"
        },
        {
          "internalType": "bool",
          "name": "approved",
          "type": "bool"
        }
      ],
      "name": "setApprovalForAll",
      "outputs": [],
      "stateMutability": "nonpayable",
      "type": "function"
    },
    {
      "inputs": [
        {
          "internalType": "bytes4",
          "name": "interfaceId",
          "type": "bytes4"
        }
      ],
      "name": "supportsInterface",
      "outputs": [
        {
          "internalType": "bool",
          "name": "",
          "type": "bool"
        }
      ],
      "stateMutability": "view",
      "type": "function"
    },
    {
      "inputs": [],
      "name": "symbol",
      "outputs": [
        {
          "internalType": "string",
          "name": "",
          "type": "string"
        }
      ],
      "stateMutability": "view",
      "type": "function"
    },
    {
      "inputs": [
        {
          "internalType": "uint256",
          "name": "index",
          "type": "uint256"
        }
      ],
      "name": "tokenByIndex",
      "outputs": [
        {
          "internalType": "uint256",
          "name": "",
          "type": "uint256"
        }
      ],
      "stateMutability": "view",
      "type": "function"
    },
    {
      "inputs": [
        {
          "internalType": "address",
          "name": "owner",
          "type": "address"
        },
        {
          "internalType": "uint256",
          "name": "index",
          "type": "uint256"
        }
      ],
      "name": "tokenOfOwnerByIndex",
      "outputs": [
        {
          "internalType": "uint256",
          "name": "",
          "type": "uint256"
        }
      ],
      "stateMutability": "view",
      "type": "function"
    },
    {
      "inputs": [
        {
          "internalType": "uint256",
          "name": "tokenId",
          "type": "uint256"
        }
      ],
      "name": "tokenURI",
      "outputs": [
        {
          "internalType": "string",
          "name": "",
          "type": "string"
        }
      ],
      "stateMutability": "view",
      "type": "function"
    },
    {
      "inputs": [],
      "name": "totalSupply",
      "outputs": [
        {
          "internalType": "uint256",
          "name": "",
          "type": "uint256"
        }
      ],
      "stateMutability": "view",
      "type": "function"
    },
    {
      "inputs": [
        {
          "internalType": "address",
          "name": "from",
          "type": "address"
        },
        {
          "internalType": "address",
          "name": "to",
          "type": "address"
        },
        {
          "internalType": "uint256",
          "name": "tokenId",
          "type": "uint256"
        }
      ],
      "name": "transferFrom",
      "outputs": [],
      "stateMutability": "nonpayable",
      "type": "function"
    },
    {
      "inputs": [
        {
          "internalType": "address",
          "name": "newOwner",
          "type": "address"
        }
      ],
      "name": "transferOwnership",
      "outputs": [],
      "stateMutability": "nonpayable",
      "type": "function"
    }
  ],
  "transactionHash": "0x7e54df10383b1b9253d7111cbecf54c9823a05f9d7d0a46cbf81bdff04312021",
  "args": [
    "THX Non Fungible Token",
    "NFT-THX",
    "https://api.thx.network/v1/metadata/",
    "0x08302CF8648A961c607e3e7Bd7B7Ec3230c2A6c5"
  ],
  "numDeployments": 1,
  "solcInputHash": "8c4924532ce05a548d7c435e3e2e9d55",
  "bytecode": "0x60806040523480156200001157600080fd5b5060405162002bf438038062002bf4833981810160405260808110156200003757600080fd5b81019080805160405193929190846401000000008211156200005857600080fd5b9083019060208201858111156200006e57600080fd5b82516401000000008111828201881017156200008957600080fd5b82525081516020918201929091019080838360005b83811015620000b85781810151838201526020016200009e565b50505050905090810190601f168015620000e65780820380516001836020036101000a031916815260200191505b50604052602001805160405193929190846401000000008211156200010a57600080fd5b9083019060208201858111156200012057600080fd5b82516401000000008111828201881017156200013b57600080fd5b82525081516020918201929091019080838360005b838110156200016a57818101518382015260200162000150565b50505050905090810190601f168015620001985780820380516001836020036101000a031916815260200191505b5060405260200180516040519392919084640100000000821115620001bc57600080fd5b908301906020820185811115620001d257600080fd5b8251640100000000811182820188101715620001ed57600080fd5b82525081516020918201929091019080838360005b838110156200021c57818101518382015260200162000202565b50505050905090810190601f1680156200024a5780820380516001836020036101000a031916815260200191505b50604052602001519150849050836200026a6301ffc9a760e01b62000371565b81516200027f9060069060208501906200063b565b508051620002959060079060208401906200063b565b50620002a86380ac58cd60e01b62000371565b620002ba635b5e139f60e01b62000371565b620002cc63780e9d6360e01b62000371565b5060009050620002db620003f6565b600b80546001600160a01b0319166001600160a01b0383169081179091556040519192509060009060008051602062002bd4833981519152908290a3506200032381620003fa565b6200033060008262000505565b6200035c7f9f2df0fed2c77648de5860a4cc508cd0818c85b8b8a1ab4ceeef8d981c8956a68262000505565b620003678262000515565b50505050620006e7565b6001600160e01b03198082161415620003d1576040805162461bcd60e51b815260206004820152601c60248201527f4552433136353a20696e76616c696420696e7465726661636520696400000000604482015290519081900360640190fd5b6001600160e01b0319166000908152602081905260409020805460ff19166001179055565b3390565b62000404620003f6565b6001600160a01b0316620004176200052a565b6001600160a01b03161462000473576040805162461bcd60e51b815260206004820181905260248201527f4f776e61626c653a2063616c6c6572206973206e6f7420746865206f776e6572604482015290519081900360640190fd5b6001600160a01b038116620004ba5760405162461bcd60e51b815260040180806020018281038252602681526020018062002bae6026913960400191505060405180910390fd5b600b546040516001600160a01b0380841692169060008051602062002bd483398151915290600090a3600b80546001600160a01b0319166001600160a01b0392909216919091179055565b62000511828262000539565b5050565b8051620005119060099060208401906200063b565b600b546001600160a01b031690565b6000828152600a6020908152604090912062000560918390620013a9620005b4821b17901c565b15620005115762000570620003f6565b6001600160a01b0316816001600160a01b0316837f2f8788117e7eff1d82e926ec794901d17c78024a50270940304540a733656f0d60405160405180910390a45050565b6000620005cb836001600160a01b038416620005d4565b90505b92915050565b6000620005e2838362000623565b6200061a57508154600181810184556000848152602080822090930184905584548482528286019093526040902091909155620005ce565b506000620005ce565b60009081526001919091016020526040902054151590565b828054600181600116156101000203166002900490600052602060002090601f016020900481019282620006735760008555620006be565b82601f106200068e57805160ff1916838001178555620006be565b82800160010185558215620006be579182015b82811115620006be578251825591602001919060010190620006a1565b50620006cc929150620006d0565b5090565b5b80821115620006cc5760008155600101620006d1565b6124b780620006f76000396000f3fe608060405234801561001057600080fd5b50600436106101da5760003560e01c8063715018a611610104578063b88d4fde116100a2578063d539139311610071578063d5391393146106e0578063d547741f146106e8578063e985e9c514610714578063f2fde38b14610742576101da565b8063b88d4fde1461052a578063c87b56dd146105f0578063ca15c8731461060d578063d0def5211461062a576101da565b806391d14854116100de57806391d14854146104c057806395d89b41146104ec578063a217fddf146104f4578063a22cb465146104fc576101da565b8063715018a61461048d5780638da5cb5b146104955780639010d07c1461049d576101da565b80632f2ff15d1161017c5780634f6ccce71161014b5780634f6ccce7146104255780636352211e146104425780636c0360eb1461045f57806370a0823114610467576101da565b80632f2ff15d1461036b5780632f745c591461039757806336568abe146103c357806342842e0e146103ef576101da565b8063095ea7b3116101b8578063095ea7b3146102d057806318160ddd146102fe57806323b872dd14610318578063248a9ca31461034e576101da565b806301ffc9a7146101df57806306fdde031461021a578063081812fc14610297575b600080fd5b610206600480360360208110156101f557600080fd5b50356001600160e01b031916610768565b604080519115158252519081900360200190f35b61022261078b565b6040805160208082528351818301528351919283929083019185019080838360005b8381101561025c578181015183820152602001610244565b50505050905090810190601f1680156102895780820380516001836020036101000a031916815260200191505b509250505060405180910390f35b6102b4600480360360208110156102ad57600080fd5b5035610821565b604080516001600160a01b039092168252519081900360200190f35b6102fc600480360360408110156102e657600080fd5b506001600160a01b038135169060200135610883565b005b61030661095e565b60408051918252519081900360200190f35b6102fc6004803603606081101561032e57600080fd5b506001600160a01b0381358116916020810135909116906040013561096f565b6103066004803603602081101561036457600080fd5b50356109c6565b6102fc6004803603604081101561038157600080fd5b50803590602001356001600160a01b03166109db565b610306600480360360408110156103ad57600080fd5b506001600160a01b038135169060200135610a47565b6102fc600480360360408110156103d957600080fd5b50803590602001356001600160a01b0316610a72565b6102fc6004803603606081101561040557600080fd5b506001600160a01b03813581169160208101359091169060400135610ad3565b6103066004803603602081101561043b57600080fd5b5035610aee565b6102b46004803603602081101561045857600080fd5b5035610b04565b610222610b2c565b6103066004803603602081101561047d57600080fd5b50356001600160a01b0316610b8d565b6102fc610bf5565b6102b4610cb3565b6102b4600480360360408110156104b357600080fd5b5080359060200135610cc2565b610206600480360360408110156104d657600080fd5b50803590602001356001600160a01b0316610cda565b610222610cf2565b610306610d53565b6102fc6004803603604081101561051257600080fd5b506001600160a01b0381351690602001351515610d58565b6102fc6004803603608081101561054057600080fd5b6001600160a01b0382358116926020810135909116916040820135919081019060808101606082013564010000000081111561057b57600080fd5b82018360208201111561058d57600080fd5b803590602001918460018302840111640100000000831117156105af57600080fd5b91908080601f016020809104026020016040519081016040528093929190818152602001838380828437600092019190915250929550610e5d945050505050565b6102226004803603602081101561060657600080fd5b5035610ebb565b6103066004803603602081101561062357600080fd5b503561113c565b6103066004803603604081101561064057600080fd5b6001600160a01b03823516919081019060408101602082013564010000000081111561066b57600080fd5b82018360208201111561067d57600080fd5b8035906020019184600183028401116401000000008311171561069f57600080fd5b91908080601f016020809104026020016040519081016040528093929190818152602001838380828437600092019190915250929550611153945050505050565b6103066111e9565b6102fc600480360360408110156106fe57600080fd5b50803590602001356001600160a01b031661120d565b6102066004803603604081101561072a57600080fd5b506001600160a01b0381358116916020013516611266565b6102fc6004803603602081101561075857600080fd5b50356001600160a01b0316611294565b6001600160e01b0319811660009081526020819052604090205460ff165b919050565b60068054604080516020601f60026000196101006001881615020190951694909404938401819004810282018101909252828152606093909290918301828280156108175780601f106107ec57610100808354040283529160200191610817565b820191906000526020600020905b8154815290600101906020018083116107fa57829003601f168201915b5050505050905090565b600061082c826113be565b6108675760405162461bcd60e51b815260040180806020018281038252602c815260200180612351602c913960400191505060405180910390fd5b506000908152600460205260409020546001600160a01b031690565b600061088e82610b04565b9050806001600160a01b0316836001600160a01b031614156108e15760405162461bcd60e51b81526004018080602001828103825260218152602001806124016021913960400191505060405180910390fd5b806001600160a01b03166108f36113cb565b6001600160a01b0316148061091457506109148161090f6113cb565b611266565b61094f5760405162461bcd60e51b81526004018080602001828103825260388152602001806122a46038913960400191505060405180910390fd5b61095983836113cf565b505050565b600061096a600261143d565b905090565b61098061097a6113cb565b82611448565b6109bb5760405162461bcd60e51b81526004018080602001828103825260318152602001806124226031913960400191505060405180910390fd5b6109598383836114ec565b6000908152600a602052604090206002015490565b6000828152600a60205260409020600201546109fe906109f96113cb565b610cda565b610a395760405162461bcd60e51b815260040180806020018281038252602f81526020018061219d602f913960400191505060405180910390fd5b610a438282611638565b5050565b6001600160a01b0382166000908152600160205260408120610a6990836116a1565b90505b92915050565b610a7a6113cb565b6001600160a01b0316816001600160a01b031614610ac95760405162461bcd60e51b815260040180806020018281038252602f815260200180612453602f913960400191505060405180910390fd5b610a4382826116ad565b61095983838360405180602001604052806000815250610e5d565b600080610afc600284611716565b509392505050565b6000610a6c826040518060600160405280602981526020016123066029913960029190611732565b60098054604080516020601f60026000196101006001881615020190951694909404938401819004810282018101909252828152606093909290918301828280156108175780601f106107ec57610100808354040283529160200191610817565b60006001600160a01b038216610bd45760405162461bcd60e51b815260040180806020018281038252602a8152602001806122dc602a913960400191505060405180910390fd5b6001600160a01b0382166000908152600160205260409020610a6c9061143d565b610bfd6113cb565b6001600160a01b0316610c0e610cb3565b6001600160a01b031614610c69576040805162461bcd60e51b815260206004820181905260248201527f4f776e61626c653a2063616c6c6572206973206e6f7420746865206f776e6572604482015290519081900360640190fd5b600b546040516000916001600160a01b0316907f8be0079c531659141344cd1fd0a4f28419497f9722a3daafe3b4186f6b6457e0908390a3600b80546001600160a01b0319169055565b600b546001600160a01b031690565b6000828152600a60205260408120610a6990836116a1565b6000828152600a60205260408120610a699083611749565b60078054604080516020601f60026000196101006001881615020190951694909404938401819004810282018101909252828152606093909290918301828280156108175780601f106107ec57610100808354040283529160200191610817565b600081565b610d606113cb565b6001600160a01b0316826001600160a01b03161415610dc6576040805162461bcd60e51b815260206004820152601960248201527f4552433732313a20617070726f766520746f2063616c6c657200000000000000604482015290519081900360640190fd5b8060056000610dd36113cb565b6001600160a01b03908116825260208083019390935260409182016000908120918716808252919093529120805460ff191692151592909217909155610e176113cb565b6001600160a01b03167f17307eab39ab6107e8899845ad3d59bd9653f200f220920489ca2b5937696c318360405180821515815260200191505060405180910390a35050565b610e6e610e686113cb565b83611448565b610ea95760405162461bcd60e51b81526004018080602001828103825260318152602001806124226031913960400191505060405180910390fd5b610eb58484848461175e565b50505050565b6060610ec6826113be565b610f015760405162461bcd60e51b815260040180806020018281038252602f8152602001806123d2602f913960400191505060405180910390fd5b60008281526008602090815260408083208054825160026001831615610100026000190190921691909104601f810185900485028201850190935282815292909190830182828015610f945780601f10610f6957610100808354040283529160200191610f94565b820191906000526020600020905b815481529060010190602001808311610f7757829003601f168201915b505050505090506000610fa5610b2c565b9050805160001415610fb957509050610786565b81511561107a5780826040516020018083805190602001908083835b60208310610ff45780518252601f199092019160209182019101610fd5565b51815160209384036101000a600019018019909216911617905285519190930192850191508083835b6020831061103c5780518252601f19909201916020918201910161101d565b6001836020036101000a0380198251168184511680821785525050505050509050019250505060405160208183030381529060405292505050610786565b80611084856117b0565b6040516020018083805190602001908083835b602083106110b65780518252601f199092019160209182019101611097565b51815160209384036101000a600019018019909216911617905285519190930192850191508083835b602083106110fe5780518252601f1990920191602091820191016110df565b6001836020036101000a0380198251168184511680821785525050505050509050019250505060405160208183030381529060405292505050919050565b6000818152600a60205260408120610a6c9061143d565b600061117f7f9f2df0fed2c77648de5860a4cc508cd0818c85b8b8a1ab4ceeef8d981c8956a633610cda565b6111bd576040805162461bcd60e51b815260206004820152600a6024820152692727aa2fa6a4a72a22a960b11b604482015290519081900360640190fd5b6111c7600c61188b565b60006111d3600c611894565b90506111df8482611898565b610a6981846119c6565b7f9f2df0fed2c77648de5860a4cc508cd0818c85b8b8a1ab4ceeef8d981c8956a681565b6000828152600a602052604090206002015461122b906109f96113cb565b610ac95760405162461bcd60e51b81526004018080602001828103825260308152602001806122746030913960400191505060405180910390fd5b6001600160a01b03918216600090815260056020908152604080832093909416825291909152205460ff1690565b61129c6113cb565b6001600160a01b03166112ad610cb3565b6001600160a01b031614611308576040805162461bcd60e51b815260206004820181905260248201527f4f776e61626c653a2063616c6c6572206973206e6f7420746865206f776e6572604482015290519081900360640190fd5b6001600160a01b03811661134d5760405162461bcd60e51b81526004018080602001828103825260268152602001806121fe6026913960400191505060405180910390fd5b600b546040516001600160a01b038084169216907f8be0079c531659141344cd1fd0a4f28419497f9722a3daafe3b4186f6b6457e090600090a3600b80546001600160a01b0319166001600160a01b0392909216919091179055565b6000610a69836001600160a01b038416611a29565b6000610a6c600283611a73565b3390565b600081815260046020526040902080546001600160a01b0319166001600160a01b038416908117909155819061140482610b04565b6001600160a01b03167f8c5be1e5ebec7d5bd14f71427d1e84f3dd0314c0f7b2291e5b200ac8c7c3b92560405160405180910390a45050565b6000610a6c82611894565b6000611453826113be565b61148e5760405162461bcd60e51b815260040180806020018281038252602c815260200180612248602c913960400191505060405180910390fd5b600061149983610b04565b9050806001600160a01b0316846001600160a01b031614806114d45750836001600160a01b03166114c984610821565b6001600160a01b0316145b806114e457506114e48185611266565b949350505050565b826001600160a01b03166114ff82610b04565b6001600160a01b0316146115445760405162461bcd60e51b81526004018080602001828103825260298152602001806123a96029913960400191505060405180910390fd5b6001600160a01b0382166115895760405162461bcd60e51b81526004018080602001828103825260248152602001806122246024913960400191505060405180910390fd5b611594838383610959565b61159f6000826113cf565b6001600160a01b03831660009081526001602052604090206115c19082611a7f565b506001600160a01b03821660009081526001602052604090206115e49082611a8b565b506115f160028284611a97565b5080826001600160a01b0316846001600160a01b03167fddf252ad1be2c89b69c2b068fc378daa952ba7f163c4a11628f55a4df523b3ef60405160405180910390a4505050565b6000828152600a6020526040902061165090826113a9565b15610a435761165d6113cb565b6001600160a01b0316816001600160a01b0316837f2f8788117e7eff1d82e926ec794901d17c78024a50270940304540a733656f0d60405160405180910390a45050565b6000610a698383611aad565b6000828152600a602052604090206116c59082611b11565b15610a43576116d26113cb565b6001600160a01b0316816001600160a01b0316837ff6391f5c32d9c69d2a47ea670b442974b53935d1edc7fd64eb21e047a839171b60405160405180910390a45050565b60008080806117258686611b26565b9097909650945050505050565b600061173f848484611ba1565b90505b9392505050565b6000610a69836001600160a01b038416611c6b565b6117698484846114ec565b61177584848484611c83565b610eb55760405162461bcd60e51b81526004018080602001828103825260328152602001806121cc6032913960400191505060405180910390fd5b6060816117d557506040805180820190915260018152600360fc1b6020820152610786565b8160005b81156117ed57600101600a820491506117d9565b60008167ffffffffffffffff8111801561180657600080fd5b506040519080825280601f01601f191660200182016040528015611831576020820181803683370190505b50859350905060001982015b831561188257600a840660300160f81b8282806001900393508151811061186057fe5b60200101906001600160f81b031916908160001a905350600a8404935061183d565b50949350505050565b80546001019055565b5490565b6001600160a01b0382166118f3576040805162461bcd60e51b815260206004820181905260248201527f4552433732313a206d696e7420746f20746865207a65726f2061646472657373604482015290519081900360640190fd5b6118fc816113be565b1561194e576040805162461bcd60e51b815260206004820152601c60248201527f4552433732313a20746f6b656e20616c7265616479206d696e74656400000000604482015290519081900360640190fd5b61195a60008383610959565b6001600160a01b038216600090815260016020526040902061197c9082611a8b565b5061198960028284611a97565b5060405181906001600160a01b038416906000907fddf252ad1be2c89b69c2b068fc378daa952ba7f163c4a11628f55a4df523b3ef908290a45050565b6119cf826113be565b611a0a5760405162461bcd60e51b815260040180806020018281038252602c81526020018061237d602c913960400191505060405180910390fd5b60008281526008602090815260409091208251610959928401906120d9565b6000611a358383611c6b565b611a6b57508154600181810184556000848152602080822090930184905584548482528286019093526040902091909155610a6c565b506000610a6c565b6000610a698383611c6b565b6000610a698383611deb565b6000610a698383611a29565b600061173f84846001600160a01b038516611eb1565b81546000908210611aef5760405162461bcd60e51b815260040180806020018281038252602281526020018061217b6022913960400191505060405180910390fd5b826000018281548110611afe57fe5b9060005260206000200154905092915050565b6000610a69836001600160a01b038416611deb565b815460009081908310611b6a5760405162461bcd60e51b815260040180806020018281038252602281526020018061232f6022913960400191505060405180910390fd5b6000846000018481548110611b7b57fe5b906000526020600020906002020190508060000154816001015492509250509250929050565b60008281526001840160205260408120548281611c3c5760405162461bcd60e51b81526004018080602001828103825283818151815260200191508051906020019080838360005b83811015611c01578181015183820152602001611be9565b50505050905090810190601f168015611c2e5780820380516001836020036101000a031916815260200191505b509250505060405180910390fd5b50846000016001820381548110611c4f57fe5b9060005260206000209060020201600101549150509392505050565b60009081526001919091016020526040902054151590565b6000611c97846001600160a01b0316611f48565b611ca3575060016114e4565b6000611db1630a85bd0160e11b611cb86113cb565b88878760405160240180856001600160a01b03168152602001846001600160a01b0316815260200183815260200180602001828103825283818151815260200191508051906020019080838360005b83811015611d1f578181015183820152602001611d07565b50505050905090810190601f168015611d4c5780820380516001836020036101000a031916815260200191505b5095505050505050604051602081830303815290604052906001600160e01b0319166020820180516001600160e01b0383818316178352505050506040518060600160405280603281526020016121cc603291396001600160a01b0388169190611f4e565b90506000818060200190516020811015611dca57600080fd5b50516001600160e01b031916630a85bd0160e11b1492505050949350505050565b60008181526001830160205260408120548015611ea75783546000198083019190810190600090879083908110611e1e57fe5b9060005260206000200154905080876000018481548110611e3b57fe5b600091825260208083209091019290925582815260018981019092526040902090840190558654879080611e6b57fe5b60019003818190600052602060002001600090559055866001016000878152602001908152602001600020600090556001945050505050610a6c565b6000915050610a6c565b600082815260018401602052604081205480611f16575050604080518082018252838152602080820184815286546001818101895560008981528481209551600290930290950191825591519082015586548684528188019092529290912055611742565b82856000016001830381548110611f2957fe5b9060005260206000209060020201600101819055506000915050611742565b3b151590565b606061173f848460008585611f6285611f48565b611fb3576040805162461bcd60e51b815260206004820152601d60248201527f416464726573733a2063616c6c20746f206e6f6e2d636f6e7472616374000000604482015290519081900360640190fd5b600080866001600160a01b031685876040518082805190602001908083835b60208310611ff15780518252601f199092019160209182019101611fd2565b6001836020036101000a03801982511681845116808217855250505050505090500191505060006040518083038185875af1925050503d8060008114612053576040519150601f19603f3d011682016040523d82523d6000602084013e612058565b606091505b5091509150612068828286612073565b979650505050505050565b60608315612082575081611742565b8251156120925782518084602001fd5b60405162461bcd60e51b8152602060048201818152845160248401528451859391928392604401919085019080838360008315611c01578181015183820152602001611be9565b828054600181600116156101000203166002900490600052602060002090601f01602090048101928261210f5760008555612155565b82601f1061212857805160ff1916838001178555612155565b82800160010185558215612155579182015b8281111561215557825182559160200191906001019061213a565b50612161929150612165565b5090565b5b80821115612161576000815560010161216656fe456e756d657261626c655365743a20696e646578206f7574206f6620626f756e6473416363657373436f6e74726f6c3a2073656e646572206d75737420626520616e2061646d696e20746f206772616e744552433732313a207472616e7366657220746f206e6f6e20455243373231526563656976657220696d706c656d656e7465724f776e61626c653a206e6577206f776e657220697320746865207a65726f20616464726573734552433732313a207472616e7366657220746f20746865207a65726f20616464726573734552433732313a206f70657261746f7220717565727920666f72206e6f6e6578697374656e7420746f6b656e416363657373436f6e74726f6c3a2073656e646572206d75737420626520616e2061646d696e20746f207265766f6b654552433732313a20617070726f76652063616c6c6572206973206e6f74206f776e6572206e6f7220617070726f76656420666f7220616c6c4552433732313a2062616c616e636520717565727920666f7220746865207a65726f20616464726573734552433732313a206f776e657220717565727920666f72206e6f6e6578697374656e7420746f6b656e456e756d657261626c654d61703a20696e646578206f7574206f6620626f756e64734552433732313a20617070726f76656420717565727920666f72206e6f6e6578697374656e7420746f6b656e4552433732314d657461646174613a2055524920736574206f66206e6f6e6578697374656e7420746f6b656e4552433732313a207472616e73666572206f6620746f6b656e2074686174206973206e6f74206f776e4552433732314d657461646174613a2055524920717565727920666f72206e6f6e6578697374656e7420746f6b656e4552433732313a20617070726f76616c20746f2063757272656e74206f776e65724552433732313a207472616e736665722063616c6c6572206973206e6f74206f776e6572206e6f7220617070726f766564416363657373436f6e74726f6c3a2063616e206f6e6c792072656e6f756e636520726f6c657320666f722073656c66a2646970667358221220d0f9e0c6b425beadef6cbc735dc3be571f6eb1fe65676b8fe1eb24031c13f81e64736f6c634300070600334f776e61626c653a206e6577206f776e657220697320746865207a65726f20616464726573738be0079c531659141344cd1fd0a4f28419497f9722a3daafe3b4186f6b6457e0",
  "devdoc": {
    "kind": "dev",
    "methods": {
      "approve(address,uint256)": {
        "details": "See {IERC721-approve}."
      },
      "balanceOf(address)": {
        "details": "See {IERC721-balanceOf}."
      },
      "baseURI()": {
        "details": "Returns the base URI set via {_setBaseURI}. This will be automatically added as a prefix in {tokenURI} to each token's URI, or to the token ID if no specific URI is set for that token ID."
      },
      "getApproved(uint256)": {
        "details": "See {IERC721-getApproved}."
      },
      "getRoleAdmin(bytes32)": {
        "details": "Returns the admin role that controls `role`. See {grantRole} and {revokeRole}. To change a role's admin, use {_setRoleAdmin}."
      },
      "getRoleMember(bytes32,uint256)": {
        "details": "Returns one of the accounts that have `role`. `index` must be a value between 0 and {getRoleMemberCount}, non-inclusive. Role bearers are not sorted in any particular way, and their ordering may change at any point. WARNING: When using {getRoleMember} and {getRoleMemberCount}, make sure you perform all queries on the same block. See the following https://forum.openzeppelin.com/t/iterating-over-elements-on-enumerableset-in-openzeppelin-contracts/2296[forum post] for more information."
      },
      "getRoleMemberCount(bytes32)": {
        "details": "Returns the number of accounts that have `role`. Can be used together with {getRoleMember} to enumerate all bearers of a role."
      },
      "grantRole(bytes32,address)": {
        "details": "Grants `role` to `account`. If `account` had not been already granted `role`, emits a {RoleGranted} event. Requirements: - the caller must have ``role``'s admin role."
      },
      "hasRole(bytes32,address)": {
        "details": "Returns `true` if `account` has been granted `role`."
      },
      "isApprovedForAll(address,address)": {
        "details": "See {IERC721-isApprovedForAll}."
      },
      "name()": {
        "details": "See {IERC721Metadata-name}."
      },
      "owner()": {
        "details": "Returns the address of the current owner."
      },
      "ownerOf(uint256)": {
        "details": "See {IERC721-ownerOf}."
      },
      "renounceOwnership()": {
        "details": "Leaves the contract without owner. It will not be possible to call `onlyOwner` functions anymore. Can only be called by the current owner. NOTE: Renouncing ownership will leave the contract without an owner, thereby removing any functionality that is only available to the owner."
      },
      "renounceRole(bytes32,address)": {
        "details": "Revokes `role` from the calling account. Roles are often managed via {grantRole} and {revokeRole}: this function's purpose is to provide a mechanism for accounts to lose their privileges if they are compromised (such as when a trusted device is misplaced). If the calling account had been granted `role`, emits a {RoleRevoked} event. Requirements: - the caller must be `account`."
      },
      "revokeRole(bytes32,address)": {
        "details": "Revokes `role` from `account`. If `account` had been granted `role`, emits a {RoleRevoked} event. Requirements: - the caller must have ``role``'s admin role."
      },
      "safeTransferFrom(address,address,uint256)": {
        "details": "See {IERC721-safeTransferFrom}."
      },
      "safeTransferFrom(address,address,uint256,bytes)": {
        "details": "See {IERC721-safeTransferFrom}."
      },
      "setApprovalForAll(address,bool)": {
        "details": "See {IERC721-setApprovalForAll}."
      },
      "supportsInterface(bytes4)": {
        "details": "See {IERC165-supportsInterface}. Time complexity O(1), guaranteed to always use less than 30 000 gas."
      },
      "symbol()": {
        "details": "See {IERC721Metadata-symbol}."
      },
      "tokenByIndex(uint256)": {
        "details": "See {IERC721Enumerable-tokenByIndex}."
      },
      "tokenOfOwnerByIndex(address,uint256)": {
        "details": "See {IERC721Enumerable-tokenOfOwnerByIndex}."
      },
      "tokenURI(uint256)": {
        "details": "See {IERC721Metadata-tokenURI}."
      },
      "totalSupply()": {
        "details": "See {IERC721Enumerable-totalSupply}."
      },
      "transferFrom(address,address,uint256)": {
        "details": "See {IERC721-transferFrom}."
      },
      "transferOwnership(address)": {
        "details": "Transfers ownership of the contract to a new account (`newOwner`). Can only be called by the current owner."
      }
    },
    "version": 1
  },
  "userdoc": {
    "kind": "user",
    "methods": {},
    "version": 1
  },
  "storageLayout": {
    "storage": [
      {
        "astId": 406,
        "contract": "contracts/utils/ERC721/NonFungibleToken.sol:NonFungibleToken",
        "label": "_supportedInterfaces",
        "offset": 0,
        "slot": "0",
        "type": "t_mapping(t_bytes4,t_bool)"
      },
      {
        "astId": 1656,
        "contract": "contracts/utils/ERC721/NonFungibleToken.sol:NonFungibleToken",
        "label": "_holderTokens",
        "offset": 0,
        "slot": "1",
        "type": "t_mapping(t_address,t_struct(UintSet)4072_storage)"
      },
      {
        "astId": 1658,
        "contract": "contracts/utils/ERC721/NonFungibleToken.sol:NonFungibleToken",
        "label": "_tokenOwners",
        "offset": 0,
        "slot": "2",
        "type": "t_struct(UintToAddressMap)3449_storage"
      },
      {
        "astId": 1662,
        "contract": "contracts/utils/ERC721/NonFungibleToken.sol:NonFungibleToken",
        "label": "_tokenApprovals",
        "offset": 0,
        "slot": "4",
        "type": "t_mapping(t_uint256,t_address)"
      },
      {
        "astId": 1668,
        "contract": "contracts/utils/ERC721/NonFungibleToken.sol:NonFungibleToken",
        "label": "_operatorApprovals",
        "offset": 0,
        "slot": "5",
        "type": "t_mapping(t_address,t_mapping(t_address,t_bool))"
      },
      {
        "astId": 1670,
        "contract": "contracts/utils/ERC721/NonFungibleToken.sol:NonFungibleToken",
        "label": "_name",
        "offset": 0,
        "slot": "6",
        "type": "t_string_storage"
      },
      {
        "astId": 1672,
        "contract": "contracts/utils/ERC721/NonFungibleToken.sol:NonFungibleToken",
        "label": "_symbol",
        "offset": 0,
        "slot": "7",
        "type": "t_string_storage"
      },
      {
        "astId": 1676,
        "contract": "contracts/utils/ERC721/NonFungibleToken.sol:NonFungibleToken",
        "label": "_tokenURIs",
        "offset": 0,
        "slot": "8",
        "type": "t_mapping(t_uint256,t_string_storage)"
      },
      {
        "astId": 1678,
        "contract": "contracts/utils/ERC721/NonFungibleToken.sol:NonFungibleToken",
        "label": "_baseURI",
        "offset": 0,
        "slot": "9",
        "type": "t_string_storage"
      },
      {
        "astId": 22,
        "contract": "contracts/utils/ERC721/NonFungibleToken.sol:NonFungibleToken",
        "label": "_roles",
        "offset": 0,
        "slot": "10",
        "type": "t_mapping(t_bytes32,t_struct(RoleData)18_storage)"
      },
      {
        "astId": 290,
        "contract": "contracts/utils/ERC721/NonFungibleToken.sol:NonFungibleToken",
        "label": "_owner",
        "offset": 0,
        "slot": "11",
        "type": "t_address"
      },
      {
        "astId": 6679,
        "contract": "contracts/utils/ERC721/NonFungibleToken.sol:NonFungibleToken",
        "label": "_tokenIds",
        "offset": 0,
        "slot": "12",
        "type": "t_struct(Counter)3075_storage"
      }
    ],
    "types": {
      "t_address": {
        "encoding": "inplace",
        "label": "address",
        "numberOfBytes": "20"
      },
      "t_array(t_bytes32)dyn_storage": {
        "base": "t_bytes32",
        "encoding": "dynamic_array",
        "label": "bytes32[]",
        "numberOfBytes": "32"
      },
      "t_array(t_struct(MapEntry)3123_storage)dyn_storage": {
        "base": "t_struct(MapEntry)3123_storage",
        "encoding": "dynamic_array",
        "label": "struct EnumerableMap.MapEntry[]",
        "numberOfBytes": "32"
      },
      "t_bool": {
        "encoding": "inplace",
        "label": "bool",
        "numberOfBytes": "1"
      },
      "t_bytes32": {
        "encoding": "inplace",
        "label": "bytes32",
        "numberOfBytes": "32"
      },
      "t_bytes4": {
        "encoding": "inplace",
        "label": "bytes4",
        "numberOfBytes": "4"
      },
      "t_mapping(t_address,t_bool)": {
        "encoding": "mapping",
        "key": "t_address",
        "label": "mapping(address => bool)",
        "numberOfBytes": "32",
        "value": "t_bool"
      },
      "t_mapping(t_address,t_mapping(t_address,t_bool))": {
        "encoding": "mapping",
        "key": "t_address",
        "label": "mapping(address => mapping(address => bool))",
        "numberOfBytes": "32",
        "value": "t_mapping(t_address,t_bool)"
      },
      "t_mapping(t_address,t_struct(UintSet)4072_storage)": {
        "encoding": "mapping",
        "key": "t_address",
        "label": "mapping(address => struct EnumerableSet.UintSet)",
        "numberOfBytes": "32",
        "value": "t_struct(UintSet)4072_storage"
      },
      "t_mapping(t_bytes32,t_struct(RoleData)18_storage)": {
        "encoding": "mapping",
        "key": "t_bytes32",
        "label": "mapping(bytes32 => struct AccessControl.RoleData)",
        "numberOfBytes": "32",
        "value": "t_struct(RoleData)18_storage"
      },
      "t_mapping(t_bytes32,t_uint256)": {
        "encoding": "mapping",
        "key": "t_bytes32",
        "label": "mapping(bytes32 => uint256)",
        "numberOfBytes": "32",
        "value": "t_uint256"
      },
      "t_mapping(t_bytes4,t_bool)": {
        "encoding": "mapping",
        "key": "t_bytes4",
        "label": "mapping(bytes4 => bool)",
        "numberOfBytes": "32",
        "value": "t_bool"
      },
      "t_mapping(t_uint256,t_address)": {
        "encoding": "mapping",
        "key": "t_uint256",
        "label": "mapping(uint256 => address)",
        "numberOfBytes": "32",
        "value": "t_address"
      },
      "t_mapping(t_uint256,t_string_storage)": {
        "encoding": "mapping",
        "key": "t_uint256",
        "label": "mapping(uint256 => string)",
        "numberOfBytes": "32",
        "value": "t_string_storage"
      },
      "t_string_storage": {
        "encoding": "bytes",
        "label": "string",
        "numberOfBytes": "32"
      },
      "t_struct(AddressSet)3951_storage": {
        "encoding": "inplace",
        "label": "struct EnumerableSet.AddressSet",
        "members": [
          {
            "astId": 3950,
            "contract": "contracts/utils/ERC721/NonFungibleToken.sol:NonFungibleToken",
            "label": "_inner",
            "offset": 0,
            "slot": "0",
            "type": "t_struct(Set)3686_storage"
          }
        ],
        "numberOfBytes": "64"
      },
      "t_struct(Counter)3075_storage": {
        "encoding": "inplace",
        "label": "struct Counters.Counter",
        "members": [
          {
            "astId": 3074,
            "contract": "contracts/utils/ERC721/NonFungibleToken.sol:NonFungibleToken",
            "label": "_value",
            "offset": 0,
            "slot": "0",
            "type": "t_uint256"
          }
        ],
        "numberOfBytes": "32"
      },
      "t_struct(Map)3131_storage": {
        "encoding": "inplace",
        "label": "struct EnumerableMap.Map",
        "members": [
          {
            "astId": 3126,
            "contract": "contracts/utils/ERC721/NonFungibleToken.sol:NonFungibleToken",
            "label": "_entries",
            "offset": 0,
            "slot": "0",
            "type": "t_array(t_struct(MapEntry)3123_storage)dyn_storage"
          },
          {
            "astId": 3130,
            "contract": "contracts/utils/ERC721/NonFungibleToken.sol:NonFungibleToken",
            "label": "_indexes",
            "offset": 0,
            "slot": "1",
            "type": "t_mapping(t_bytes32,t_uint256)"
          }
        ],
        "numberOfBytes": "64"
      },
      "t_struct(MapEntry)3123_storage": {
        "encoding": "inplace",
        "label": "struct EnumerableMap.MapEntry",
        "members": [
          {
            "astId": 3120,
            "contract": "contracts/utils/ERC721/NonFungibleToken.sol:NonFungibleToken",
            "label": "_key",
            "offset": 0,
            "slot": "0",
            "type": "t_bytes32"
          },
          {
            "astId": 3122,
            "contract": "contracts/utils/ERC721/NonFungibleToken.sol:NonFungibleToken",
            "label": "_value",
            "offset": 0,
            "slot": "1",
            "type": "t_bytes32"
          }
        ],
        "numberOfBytes": "64"
      },
      "t_struct(RoleData)18_storage": {
        "encoding": "inplace",
        "label": "struct AccessControl.RoleData",
        "members": [
          {
            "astId": 15,
            "contract": "contracts/utils/ERC721/NonFungibleToken.sol:NonFungibleToken",
            "label": "members",
            "offset": 0,
            "slot": "0",
            "type": "t_struct(AddressSet)3951_storage"
          },
          {
            "astId": 17,
            "contract": "contracts/utils/ERC721/NonFungibleToken.sol:NonFungibleToken",
            "label": "adminRole",
            "offset": 0,
            "slot": "2",
            "type": "t_bytes32"
          }
        ],
        "numberOfBytes": "96"
      },
      "t_struct(Set)3686_storage": {
        "encoding": "inplace",
        "label": "struct EnumerableSet.Set",
        "members": [
          {
            "astId": 3681,
            "contract": "contracts/utils/ERC721/NonFungibleToken.sol:NonFungibleToken",
            "label": "_values",
            "offset": 0,
            "slot": "0",
            "type": "t_array(t_bytes32)dyn_storage"
          },
          {
            "astId": 3685,
            "contract": "contracts/utils/ERC721/NonFungibleToken.sol:NonFungibleToken",
            "label": "_indexes",
            "offset": 0,
            "slot": "1",
            "type": "t_mapping(t_bytes32,t_uint256)"
          }
        ],
        "numberOfBytes": "64"
      },
      "t_struct(UintSet)4072_storage": {
        "encoding": "inplace",
        "label": "struct EnumerableSet.UintSet",
        "members": [
          {
            "astId": 4071,
            "contract": "contracts/utils/ERC721/NonFungibleToken.sol:NonFungibleToken",
            "label": "_inner",
            "offset": 0,
            "slot": "0",
            "type": "t_struct(Set)3686_storage"
          }
        ],
        "numberOfBytes": "64"
      },
      "t_struct(UintToAddressMap)3449_storage": {
        "encoding": "inplace",
        "label": "struct EnumerableMap.UintToAddressMap",
        "members": [
          {
            "astId": 3448,
            "contract": "contracts/utils/ERC721/NonFungibleToken.sol:NonFungibleToken",
            "label": "_inner",
            "offset": 0,
            "slot": "0",
            "type": "t_struct(Map)3131_storage"
          }
        ],
        "numberOfBytes": "64"
      },
      "t_uint256": {
        "encoding": "inplace",
        "label": "uint256",
        "numberOfBytes": "32"
      }
    }
  }
}