{
  "address": "0xE30b24eb8158688c6647e41a3205b06A965bDE3b",
  "abi": [
    {
      "anonymous": false,
      "inputs": [
        {
          "indexed": false,
          "internalType": "uint256",
          "name": "fee",
          "type": "uint256"
        }
      ],
      "name": "ERC20DepositFeeCollected",
      "type": "event"
    },
    {
      "anonymous": false,
      "inputs": [
        {
          "indexed": false,
          "internalType": "address",
          "name": "sender",
          "type": "address"
        },
        {
          "indexed": false,
          "internalType": "uint256",
          "name": "amount",
          "type": "uint256"
        }
      ],
      "name": "ERC20DepositFrom",
      "type": "event"
    },
    {
      "inputs": [
        {
          "internalType": "address",
          "name": "_sender",
          "type": "address"
        },
        {
          "internalType": "uint256",
          "name": "_amount",
          "type": "uint256"
        }
      ],
      "name": "depositFrom",
      "outputs": [],
      "stateMutability": "nonpayable",
      "type": "function"
    },
    {
      "inputs": [
        {
          "internalType": "address[]",
          "name": "_senders",
          "type": "address[]"
        },
        {
          "internalType": "uint256[]",
          "name": "_amounts",
          "type": "uint256[]"
        }
      ],
      "name": "depositFromMany",
      "outputs": [],
      "stateMutability": "nonpayable",
      "type": "function"
    }
  ],
  "transactionHash": "0xf8f162c28e4b65cd5f76e76b80169fcb6ae404f1898340bb48e371c24a974432",
  "args": [],
  "numDeployments": 1,
  "solcInputHash": "bedbddaa7a51d62abf37dc894b9fb6be",
  "bytecode": "0x608060405234801561001057600080fd5b506109d3806100206000396000f3fe608060405234801561001057600080fd5b50600436106100365760003560e01c80630b076c631461003b57806315cc36f214610164575b600080fd5b6101626004803603604081101561005157600080fd5b81019060208101813564010000000081111561006c57600080fd5b82018360208201111561007e57600080fd5b803590602001918460208302840111640100000000831117156100a057600080fd5b91908080602002602001604051908101604052809392919081815260200183836020028082843760009201919091525092959493602081019350359150506401000000008111156100f057600080fd5b82018360208201111561010257600080fd5b8035906020019184602083028401116401000000008311171561012457600080fd5b919080806020026020016040519081016040528093929190818152602001838360200280828437600092019190915250929550610190945050505050565b005b6101626004803603604081101561017a57600080fd5b506001600160a01b0381351690602001356101d9565b60005b82518110156101d4576101cc8382815181106101ab57fe5b60200260200101518383815181106101bf57fe5b602002602001015161022a565b600101610193565b505050565b6000811161021c576040805162461bcd60e51b815260206004820152600b60248201526a16915493d7d05353d5539560aa1b604482015290519081900360640190fd5b610226828261022a565b5050565b6000610234610411565b90506000610240610435565b905060008260000160009054906101000a90046001600160a01b0316905060006102e1670de0b6b3a76400006102db846001600160a01b031663a001ecdd6040518163ffffffff1660e01b815260040160206040518083038186803b1580156102a857600080fd5b505afa1580156102bc573d6000803e3d6000fd5b505050506040513d60208110156102d257600080fd5b50518890610459565b906104bb565b905060006102ef86836104fd565b905081156103aa5761037687846001600160a01b031663c415b95c6040518163ffffffff1660e01b815260040160206040518083038186803b15801561033457600080fd5b505afa158015610348573d6000803e3d6000fd5b505050506040513d602081101561035e57600080fd5b505160028701546001600160a01b031691908561053f565b6040805183815290517fbbb70402df7b66d61ea5d02bd09a5e2911037481117b980352a840206bb2f4ee9181900360200190a15b60028401546103c4906001600160a01b031688308461053f565b604080516001600160a01b03891681526020810183905281517fca201fa3ed240f16325fb2340f7c4e8cac73bc9aa6b8b7f2b0aca5b4d5a91d10929181900390910190a150505050505050565b7fe2b137aa028a281d47518018de2bad17cb018b5577be30a222ca2bbc4078dffd90565b7fa716b7cce20ffbe12e5c0af3eb2f57d81251cd975b53428558ae4ad51b4f942590565b600082610468575060006104b5565b8282028284828161047557fe5b04146104b25760405162461bcd60e51b81526004018080602001828103825260218152602001806109536021913960400191505060405180910390fd5b90505b92915050565b60006104b283836040518060400160405280601a81526020017f536166654d6174683a206469766973696f6e206279207a65726f00000000000081525061059f565b60006104b283836040518060400160405280601e81526020017f536166654d6174683a207375627472616374696f6e206f766572666c6f770000815250610643565b604080516001600160a01b0380861660248301528416604482015260648082018490528251808303909101815260849091019091526020810180516001600160e01b03166323b872dd60e01b17905261059990859061069d565b50505050565b6000818361062b5760405162461bcd60e51b81526004018080602001828103825283818151815260200191508051906020019080838360005b838110156105f05781810151838201526020016105d8565b50505050905090810190601f16801561061d5780820380516001836020036101000a031916815260200191505b509250505060405180910390fd5b50600083858161063757fe5b049150505b9392505050565b600081848411156106955760405162461bcd60e51b81526020600482018181528351602484015283519092839260449091019190850190808383600083156105f05781810151838201526020016105d8565b505050900390565b60006106f2826040518060400160405280602081526020017f5361666545524332303a206c6f772d6c6576656c2063616c6c206661696c6564815250856001600160a01b031661074e9092919063ffffffff16565b8051909150156101d45780806020019051602081101561071157600080fd5b50516101d45760405162461bcd60e51b815260040180806020018281038252602a815260200180610974602a913960400191505060405180910390fd5b606061075d8484600085610765565b949350505050565b6060824710156107a65760405162461bcd60e51b815260040180806020018281038252602681526020018061092d6026913960400191505060405180910390fd5b6107af856108c0565b610800576040805162461bcd60e51b815260206004820152601d60248201527f416464726573733a2063616c6c20746f206e6f6e2d636f6e7472616374000000604482015290519081900360640190fd5b600080866001600160a01b031685876040518082805190602001908083835b6020831061083e5780518252601f19909201916020918201910161081f565b6001836020036101000a03801982511681845116808217855250505050505090500191505060006040518083038185875af1925050503d80600081146108a0576040519150601f19603f3d011682016040523d82523d6000602084013e6108a5565b606091505b50915091506108b58282866108c6565b979650505050505050565b3b151590565b606083156108d557508161063c565b8251156108e55782518084602001fd5b60405162461bcd60e51b81526020600482018181528451602484015284518593919283926044019190850190808383600083156105f05781810151838201526020016105d856fe416464726573733a20696e73756666696369656e742062616c616e636520666f722063616c6c536166654d6174683a206d756c7469706c69636174696f6e206f766572666c6f775361666545524332303a204552433230206f7065726174696f6e20646964206e6f742073756363656564a264697066735822122023c8140a0b5ee35b14e1320a3c95d692172f42f8ff843ba13d1fcceec747434964736f6c63430007060033",
  "devdoc": {
    "kind": "dev",
    "methods": {},
    "version": 1
  },
  "userdoc": {
    "kind": "user",
    "methods": {},
    "version": 1
  },
  "storageLayout": {
    "storage": [],
    "types": null
  }
}