{
  "address": "0x4b5b381026105fd099aAEeCA7dfE26b848665E5D",
  "abi": [
    {
      "anonymous": false,
      "inputs": [
        {
          "indexed": false,
          "internalType": "uint256",
          "name": "fee",
          "type": "uint256"
        }
      ],
      "name": "ERC20WithdrawFeeCollected",
      "type": "event"
    },
    {
      "anonymous": false,
      "inputs": [
        {
          "indexed": false,
          "internalType": "address",
          "name": "receiver",
          "type": "address"
        },
        {
          "indexed": false,
          "internalType": "uint256",
          "name": "amount",
          "type": "uint256"
        }
      ],
      "name": "ERC20WithdrawFor",
      "type": "event"
    },
    {
      "inputs": [
        {
          "internalType": "address",
          "name": "_receiver",
          "type": "address"
        },
        {
          "internalType": "uint256",
          "name": "_amount",
          "type": "uint256"
        }
      ],
      "name": "withdrawFor",
      "outputs": [],
      "stateMutability": "nonpayable",
      "type": "function"
    },
    {
      "inputs": [
        {
          "internalType": "address[]",
          "name": "_receivers",
          "type": "address[]"
        },
        {
          "internalType": "uint256[]",
          "name": "_amounts",
          "type": "uint256[]"
        }
      ],
      "name": "withdrawForMany",
      "outputs": [],
      "stateMutability": "nonpayable",
      "type": "function"
    }
  ],
  "transactionHash": "0x8d8a83c8edec8a54c80790cfd0d24cd044d71aee63e9e90cd16472c9b6d5cdb8",
  "args": [],
  "numDeployments": 2,
  "solcInputHash": "f1f855b9687fca24f90a851ff0512e11",
  "bytecode": "0x608060405234801561001057600080fd5b50610a3d806100206000396000f3fe608060405234801561001057600080fd5b50600436106100365760003560e01c8063472ed11d1461003b578063db518db214610164575b600080fd5b6101626004803603604081101561005157600080fd5b81019060208101813564010000000081111561006c57600080fd5b82018360208201111561007e57600080fd5b803590602001918460208302840111640100000000831117156100a057600080fd5b91908080602002602001604051908101604052809392919081815260200183836020028082843760009201919091525092959493602081019350359150506401000000008111156100f057600080fd5b82018360208201111561010257600080fd5b8035906020019184602083028401116401000000008311171561012457600080fd5b919080806020026020016040519081016040528093929190818152602001838360200280828437600092019190915250929550610190945050505050565b005b6101626004803603604081101561017a57600080fd5b506001600160a01b03813516906020013561026f565b33610199610310565b6001600160a01b0316146101e0576040805162461bcd60e51b81526020600482015260096024820152682727aa2fa7aba722a960b91b604482015290519081900360640190fd5b8151815114610226576040805162461bcd60e51b815260206004820152600d60248201526c1253959053125117d253941555609a1b604482015290519081900360640190fd5b60005b825181101561026a5761026283828151811061024157fe5b602002602001015183838151811061025557fe5b602002602001015161032c565b600101610229565b505050565b33610278610310565b6001600160a01b0316146102bf576040805162461bcd60e51b81526020600482015260096024820152682727aa2fa7aba722a960b91b604482015290519081900360640190fd5b60008111610302576040805162461bcd60e51b815260206004820152600b60248201526a16915493d7d05353d5539560aa1b604482015290519081900360640190fd5b61030c828261032c565b5050565b600061031a610501565b600401546001600160a01b0316919050565b6000610336610525565b90506000610342610549565b905060008260000160009054906101000a90046001600160a01b0316905060006103e3670de0b6b3a76400006103dd846001600160a01b031663a001ecdd6040518163ffffffff1660e01b815260040160206040518083038186803b1580156103aa57600080fd5b505afa1580156103be573d6000803e3d6000fd5b505050506040513d60208110156103d457600080fd5b5051889061056d565b906105cf565b9050801561049c57610468826001600160a01b031663c415b95c6040518163ffffffff1660e01b815260040160206040518083038186803b15801561042757600080fd5b505afa15801561043b573d6000803e3d6000fd5b505050506040513d602081101561045157600080fd5b505160028501546001600160a01b03169083610611565b6040805182815290517f4b20499ca9b20b71ee2eba2b99bea46c1e5c4dec0d3ae004deac60948a25d99b9181900360200190a15b60028301546104b5906001600160a01b03168787610611565b604080516001600160a01b03881681526020810187905281517fbcb2b856ab76058c786485bf213f0aecb50bb3d2dc0ea79f2480ca5372b1ca37929181900390910190a1505050505050565b7fc8fcad8db84d3cc18b4c41d551ea0ee66dd599cde068d998e57d5e09332c131c90565b7fe2b137aa028a281d47518018de2bad17cb018b5577be30a222ca2bbc4078dffd90565b7fa716b7cce20ffbe12e5c0af3eb2f57d81251cd975b53428558ae4ad51b4f942590565b60008261057c575060006105c9565b8282028284828161058957fe5b04146105c65760405162461bcd60e51b81526004018080602001828103825260218152602001806109bd6021913960400191505060405180910390fd5b90505b92915050565b60006105c683836040518060400160405280601a81526020017f536166654d6174683a206469766973696f6e206279207a65726f000000000000815250610663565b604080516001600160a01b038416602482015260448082018490528251808303909101815260649091019091526020810180516001600160e01b031663a9059cbb60e01b17905261026a908490610707565b600081836106ef5760405162461bcd60e51b81526004018080602001828103825283818151815260200191508051906020019080838360005b838110156106b457818101518382015260200161069c565b50505050905090810190601f1680156106e15780820380516001836020036101000a031916815260200191505b509250505060405180910390fd5b5060008385816106fb57fe5b049150505b9392505050565b600061075c826040518060400160405280602081526020017f5361666545524332303a206c6f772d6c6576656c2063616c6c206661696c6564815250856001600160a01b03166107b89092919063ffffffff16565b80519091501561026a5780806020019051602081101561077b57600080fd5b505161026a5760405162461bcd60e51b815260040180806020018281038252602a8152602001806109de602a913960400191505060405180910390fd5b60606107c784846000856107cf565b949350505050565b6060824710156108105760405162461bcd60e51b81526004018080602001828103825260268152602001806109976026913960400191505060405180910390fd5b6108198561092a565b61086a576040805162461bcd60e51b815260206004820152601d60248201527f416464726573733a2063616c6c20746f206e6f6e2d636f6e7472616374000000604482015290519081900360640190fd5b600080866001600160a01b031685876040518082805190602001908083835b602083106108a85780518252601f199092019160209182019101610889565b6001836020036101000a03801982511681845116808217855250505050505090500191505060006040518083038185875af1925050503d806000811461090a576040519150601f19603f3d011682016040523d82523d6000602084013e61090f565b606091505b509150915061091f828286610930565b979650505050505050565b3b151590565b6060831561093f575081610700565b82511561094f5782518084602001fd5b60405162461bcd60e51b81526020600482018181528451602484015284518593919283926044019190850190808383600083156106b457818101518382015260200161069c56fe416464726573733a20696e73756666696369656e742062616c616e636520666f722063616c6c536166654d6174683a206d756c7469706c69636174696f6e206f766572666c6f775361666545524332303a204552433230206f7065726174696f6e20646964206e6f742073756363656564a264697066735822122073601d70f663cdf2b73168f2138449a810b3ee92d3c08d4abb233b1edd256d2464736f6c63430007060033",
  "devdoc": {
    "kind": "dev",
    "methods": {},
    "version": 1
  },
  "userdoc": {
    "kind": "user",
    "methods": {},
    "version": 1
  },
  "storageLayout": {
    "storage": [],
    "types": null
  }
}