{
  "address": "0x5dEB0b00989F79e0f8484506B1cCF1b8c13EC352",
  "abi": [
    {
      "anonymous": false,
      "inputs": [
        {
          "indexed": false,
          "internalType": "uint256",
          "name": "amount",
          "type": "uint256"
        }
      ],
      "name": "ERC20SwapFeeCollected",
      "type": "event"
    },
    {
      "anonymous": false,
      "inputs": [
        {
          "indexed": false,
          "internalType": "address",
          "name": "sender",
          "type": "address"
        },
        {
          "indexed": false,
          "internalType": "uint256",
          "name": "amountIn",
          "type": "uint256"
        },
        {
          "indexed": false,
          "internalType": "uint256",
          "name": "amountOut",
          "type": "uint256"
        },
        {
          "indexed": false,
          "internalType": "address",
          "name": "tokenIn",
          "type": "address"
        },
        {
          "indexed": false,
          "internalType": "address",
          "name": "tokenOut",
          "type": "address"
        }
      ],
      "name": "ERC20SwapFor",
      "type": "event"
    },
    {
      "anonymous": false,
      "inputs": [
        {
          "indexed": false,
          "internalType": "address",
          "name": "tokenAddress",
          "type": "address"
        },
        {
          "indexed": false,
          "internalType": "uint256",
          "name": "multiplier",
          "type": "uint256"
        }
      ],
      "name": "ERC20SwapRuleUpdated",
      "type": "event"
    },
    {
      "inputs": [
        {
          "internalType": "address",
          "name": "_tokenAddress",
          "type": "address"
        }
      ],
      "name": "getSwapRule",
      "outputs": [
        {
          "internalType": "uint256",
          "name": "",
          "type": "uint256"
        }
      ],
      "stateMutability": "view",
      "type": "function"
    },
    {
      "inputs": [
        {
          "internalType": "address",
          "name": "_tokenAddress",
          "type": "address"
        },
        {
          "internalType": "uint256",
          "name": "multiplier",
          "type": "uint256"
        }
      ],
      "name": "setSwapRule",
      "outputs": [],
      "stateMutability": "nonpayable",
      "type": "function"
    },
    {
      "inputs": [
        {
          "internalType": "address",
          "name": "_sender",
          "type": "address"
        },
        {
          "internalType": "uint256",
          "name": "_amountIn",
          "type": "uint256"
        },
        {
          "internalType": "address",
          "name": "_tokenAddress",
          "type": "address"
        }
      ],
      "name": "swapFor",
      "outputs": [],
      "stateMutability": "nonpayable",
      "type": "function"
    }
  ],
  "transactionHash": "0x7ce43600ad66d943a9cbe659eee385cfe538d5b3038483861b81c95557bcb590",
  "args": [],
  "numDeployments": 2,
  "solcInputHash": "f1f855b9687fca24f90a851ff0512e11",
  "bytecode": "0x608060405234801561001057600080fd5b50610d15806100206000396000f3fe608060405234801561001057600080fd5b50600436106100415760003560e01c80633f4dd064146100465780637469c0861461007e578063dfe68a32146100aa575b600080fd5b61007c6004803603606081101561005c57600080fd5b506001600160a01b038135811691602081013591604090910135166100e2565b005b61007c6004803603604081101561009457600080fd5b506001600160a01b0381351690602001356105d8565b6100d0600480360360208110156100c057600080fd5b50356001600160a01b0316610690565b60408051918252519081900360200190f35b336100eb6106bc565b6001600160a01b031614610132576040805162461bcd60e51b81526020600482015260096024820152682727aa2fa7aba722a960b91b604482015290519081900360640190fd5b600061013c6106d8565b905060006101486106fc565b9050600083905084816001600160a01b03166370a08231886040518263ffffffff1660e01b815260040180826001600160a01b0316815260200191505060206040518083038186803b15801561019d57600080fd5b505afa1580156101b1573d6000803e3d6000fd5b505050506040513d60208110156101c757600080fd5b5051101561021c576040805162461bcd60e51b815260206004820152601c60248201527f494e53554646494349454e545f544f4b454e5f425f42414c414e434500000000604482015290519081900360640190fd5b6001600160a01b038416600090815260038301602052604090205461027b576040805162461bcd60e51b815260206004820152601060248201526f14d5d05417d393d517d0531313d5d15160821b604482015290519081900360640190fd5b6001600160a01b03841660009081526003830160205260408120546102a1908790610720565b6002840154604080516370a0823160e01b8152306004820152905192935083926001600160a01b03909216916370a0823191602480820192602092909190829003018186803b1580156102f357600080fd5b505afa158015610307573d6000803e3d6000fd5b505050506040513d602081101561031d57600080fd5b50511015610372576040805162461bcd60e51b815260206004820152601c60248201527f494e53554646494349454e545f544f4b454e5f415f42414c414e434500000000604482015290519081900360640190fd5b83546040805163a001ecdd60e01b815290516001600160a01b039092169160009161040591670de0b6b3a7640000916103ff91869163a001ecdd916004808301926020929190829003018186803b1580156103cc57600080fd5b505afa1580156103e0573d6000803e3d6000fd5b505050506040513d60208110156103f657600080fd5b50518b90610720565b90610782565b9050600061041389836107c4565b9050811561054757846001600160a01b03166323b872dd8b856001600160a01b031663c415b95c6040518163ffffffff1660e01b815260040160206040518083038186803b15801561046457600080fd5b505afa158015610478573d6000803e3d6000fd5b505050506040513d602081101561048e57600080fd5b5051604080516001600160e01b031960e086901b1681526001600160a01b039384166004820152929091166024830152604482018690525160648083019260209291908290030181600087803b1580156104e757600080fd5b505af11580156104fb573d6000803e3d6000fd5b505050506040513d602081101561051157600080fd5b50506040805183815290517ff56a44fd52558b169f8eec0095593bec47cb877effefbd0954966ef3690137d19181900360200190a15b61055c6001600160a01b0386168b3084610806565b6002860154610575906001600160a01b03168b86610866565b604080516001600160a01b03808d168252602082018c90528183018790523060608301528a16608082015290517f772833f3f61d4b585a02a760458985ec84045f716687f49fffbc0125d92cc4669181900360a00190a150505050505050505050565b336105e16106bc565b6001600160a01b031614610628576040805162461bcd60e51b81526020600482015260096024820152682727aa2fa7aba722a960b91b604482015290519081900360640190fd5b806106316106fc565b6001600160a01b0384166000818152600392909201602090815260409283902093909355815190815291820183905280517f6b6a8aca7f58af597b89e1cb1d3ac1d8c118489edd6d575c355102b4bcb0eb709281900390910190a15050565b600061069a6106fc565b6001600160a01b03929092166000908152600390920160205250604090205490565b60006106c66108bd565b600401546001600160a01b0316919050565b7fe2b137aa028a281d47518018de2bad17cb018b5577be30a222ca2bbc4078dffd90565b7fa716b7cce20ffbe12e5c0af3eb2f57d81251cd975b53428558ae4ad51b4f942590565b60008261072f5750600061077c565b8282028284828161073c57fe5b04146107795760405162461bcd60e51b8152600401808060200182810382526021815260200180610c956021913960400191505060405180910390fd5b90505b92915050565b600061077983836040518060400160405280601a81526020017f536166654d6174683a206469766973696f6e206279207a65726f0000000000008152506108e1565b600061077983836040518060400160405280601e81526020017f536166654d6174683a207375627472616374696f6e206f766572666c6f770000815250610985565b604080516001600160a01b0380861660248301528416604482015260648082018490528251808303909101815260849091019091526020810180516001600160e01b03166323b872dd60e01b1790526108609085906109df565b50505050565b604080516001600160a01b038416602482015260448082018490528251808303909101815260649091019091526020810180516001600160e01b031663a9059cbb60e01b1790526108b89084906109df565b505050565b7fc8fcad8db84d3cc18b4c41d551ea0ee66dd599cde068d998e57d5e09332c131c90565b6000818361096d5760405162461bcd60e51b81526004018080602001828103825283818151815260200191508051906020019080838360005b8381101561093257818101518382015260200161091a565b50505050905090810190601f16801561095f5780820380516001836020036101000a031916815260200191505b509250505060405180910390fd5b50600083858161097957fe5b049150505b9392505050565b600081848411156109d75760405162461bcd60e51b815260206004820181815283516024840152835190928392604490910191908501908083836000831561093257818101518382015260200161091a565b505050900390565b6000610a34826040518060400160405280602081526020017f5361666545524332303a206c6f772d6c6576656c2063616c6c206661696c6564815250856001600160a01b0316610a909092919063ffffffff16565b8051909150156108b857808060200190516020811015610a5357600080fd5b50516108b85760405162461bcd60e51b815260040180806020018281038252602a815260200180610cb6602a913960400191505060405180910390fd5b6060610a9f8484600085610aa7565b949350505050565b606082471015610ae85760405162461bcd60e51b8152600401808060200182810382526026815260200180610c6f6026913960400191505060405180910390fd5b610af185610c02565b610b42576040805162461bcd60e51b815260206004820152601d60248201527f416464726573733a2063616c6c20746f206e6f6e2d636f6e7472616374000000604482015290519081900360640190fd5b600080866001600160a01b031685876040518082805190602001908083835b60208310610b805780518252601f199092019160209182019101610b61565b6001836020036101000a03801982511681845116808217855250505050505090500191505060006040518083038185875af1925050503d8060008114610be2576040519150601f19603f3d011682016040523d82523d6000602084013e610be7565b606091505b5091509150610bf7828286610c08565b979650505050505050565b3b151590565b60608315610c1757508161097e565b825115610c275782518084602001fd5b60405162461bcd60e51b815260206004820181815284516024840152845185939192839260440191908501908083836000831561093257818101518382015260200161091a56fe416464726573733a20696e73756666696369656e742062616c616e636520666f722063616c6c536166654d6174683a206d756c7469706c69636174696f6e206f766572666c6f775361666545524332303a204552433230206f7065726174696f6e20646964206e6f742073756363656564a2646970667358221220d4c81d6cd184041bf153a1c3180422f444363c18d19cd6e766b1d58a5693ee3b64736f6c63430007060033",
  "devdoc": {
    "kind": "dev",
    "methods": {},
    "version": 1
  },
  "userdoc": {
    "kind": "user",
    "methods": {},
    "version": 1
  },
  "storageLayout": {
    "storage": [],
    "types": null
  }
}